:02000004C0D06A
:10000000B0B58CB062B601F091F9234C2120C1004B
:10001000204604F041FA6D46284604F079FAA88596
:1000200080B205281ED0002826D16D46284602F051
:100030006BFA0A9001F08CFA002003F029F90120F4
:1000400003F026F901F05CF901F0C8F802F050FA6B
:10005000A84202D10A9802F057FA6846808D00281B
:10006000D4D017E06846002181850A9802F04CFA46
:100070000A9802F049FAC9E76846002484850A987C
:1000800002F042FA0A9802F03FFA01F009F920461C
:100090000CB0B0BD01F04FF930060020F0B585B0CE
:1000A0000446581E092801D900201AE017460025E9
:1000B00001260396019504910294204629461C4688
:1000C00001F0C2FF23467851A642039800D201985E
:1000D0002D1D04998D4204D8741C9E422646029C14
:1000E000EBD305B0F0BD0000F0B589B007920890E1
:1000F0000291481E0390092862D81E460023334807
:100100007844019019461A4600960591079885187B
:100110001746B41A06939E0008988359012004904C
:10012000C007834328462146019A01F097FD2846DF
:1001300004F008FA00283CD0A0423AD20899891964
:100140003A46C2190868002801D4009E13E00798B7
:100150008518009E1746B41A1D4A7A44284621463F
:1001600001F07CFD284604F0EDF9002824D0A042DF
:1001700022D23A46C21903980699884212D00798AB
:1001800085181746B41A134A7A442846214601F0C6
:1001900065FD284604F0D6F900280DD0A0420BD208
:1001A0003A46C2190599491C8BB202988342ACD3D6
:1001B00008E00798009901E00798314604F06CF9CF
:1001C00000200490049809B0F0BDC046514D0000D5
:1001D00028440000FC4300000246836859180020B0
:1001E000994204D35368994201D891600120704725
:1001F00010B5426883689A420AD00468E45C0C70C7
:100200008168491C06D24468A14203D8816001E09C
:1002100000200870D01A411E884110BD70B50D46EF
:1002200004464068A168461A072E05D92068002AAE
:1002300006D001F040FF05E00020286068600CE077
:1002400001F00EFF03C5A0680821C943884204D805
:1002500008306168884200D8A060072E01D80020CD
:1002600070BD012070BDB0B50D46044600686168E0
:10027000A2688018891A2A4603F00CFF002807D4C8
:10028000A168091807D26268914204D8A16002E00F
:10029000002129606960C043C00FB0BDB0B51546EC
:1002A0000A46044600686168A368C018C91A2B464C
:1002B000FFF7F4FE002807D0A900A268511803D266
:1002C0006268914200D8A160B0BDB0B514464368E1
:1002D00082689D1AA54206D8006882180846114611
:1002E0002A4604F0E2F8A54201D90020B0BD012061
:1002F000B0BDB0B51546044642688068121AAA42DD
:1003000001D90020B0BD23681B180846194604F027
:10031000CCF8A26851190120914203D3626891423E
:1003200000D8A160B0BDB0B514460D4602465120BC
:10033000012300F009F9002807D1093540222046A1
:10034000294604F0B2F80020B0BD00F0F4FF000030
:1003500070B59CB010AC2821204604F09DF8B32065
:100360008000294D2A5CA92080002918204600F031
:100370004FF804AC204604F0CBF8A08584B2002CE2
:1003800038D104A802F0C0F80E9048201B901AA89B
:1003900003901BA80290284628300190202000904E
:1003A0002B46083310A81949032200F0C7F800288B
:1003B0001ED11B9E1A9C02F09BF804A9884202D110
:1003C0000E9802F0A1F810A8282104F079F804A8EA
:1003D000808D00280CD10020002E06D470216E5490
:1003E00001210C4071216C5400E0C0431CB070BD71
:1003F00000F0A1FF04A8002181850E9802F084F886
:10040000204600F098FFC04660030020010600006F
:10041000F0B5A3B017460E4605461AA82021039151
:1004200004F03AF811A8212104F036F805AC204672
:1004300004F06EF8A08584B2002C6CD1049505A858
:1004400002F062F80F90022F62D33068364988427A
:100450005ED13A46314600260096212411AF20464F
:100460003B4601F0C1FF039D02967E551AAE384609
:10047000214632462B4600F07FF82D49794422ABC5
:1004800030462A4600F084F8002817D12037029E13
:100490002299002914D4761C3E7011A821211AAC8F
:1004A000202522462B4600F067F82249794422ABEA
:1004B00020462A4600F06CF80028E9D000F03BFF07
:1004C0001AA81D4A7A4420210B4600F067F800283C
:1004D000F4D151201AA92022049B00F03BF80028F7
:1004E000ECD102F005F805A9884202D10F9802F07C
:1004F0000BF81AA8202103F0E3FF11A8212103F033
:10050000DFFF05A8808D0028D8D1002023B0F0BDE2
:10051000064800F010FF05A8002181850F9801F022
:10052000F3FF204600F007FF550A008001B00000ED
:100530000A410000DA400000E240000003B4014834
:100540003BE000001500000003B4014835E0000066
:100550001B00000003B401482FE000001C00000055
:1005600003B4014829E000002F00000003B4014853
:1005700023E000003200000003B401481DE0000049
:100580003300000003B4014817E0000044000000FD
:1005900003B4014811E000004700000003B4014823
:1005A0000BE000004B00000003B4014805E0000030
:1005B0005800000003B40248FFE702490847000062
:1005C000710000000100120070B50D460446FF26C0
:1005D00070006168814201D9F9264CE00022204672
:1005E0002946FFF71BFE002845D0A068216808189F
:1005F000286114212046FFF7EFFD00281BD0294673
:100600000831002620463246FFF708FE002814D0A5
:10061000294618312046FFF726FEA96900280ED189
:10062000E8694A08C307D2184008E8239A1A8641A5
:1006300005D2FC261FE0FE261DE0FD261BE0A0687B
:100640002268101868612046FFF7C6FD00280DD00B
:100650002B4614330DCB02F0A7FE002808D06068AB
:10066000A168814206D00620C64304E0FB2602E0D2
:10067000FA2600E0012670B270BD000010B584B00B
:1006800001785A2917D100230393029301934178EB
:10069000012913DD02291ED003292FD0042949D1B5
:1006A0008178002949D0032957D8C278802414437F
:1006B000802C46D051E0372040024FE0002930D056
:1006C000012937D18178002947D1C078002844D149
:1006D00000F0F0F944E0817801293ED8C278002A80
:1006E0003BD18268002A3DD00192039300790290A9
:1006F000481E814101A800F0F1F931E0817802291A
:100700002BD8C278022A28D28468002C2AD00194DF
:10071000039300790290501E824101A801F044FD2C
:100720001EE08178002918D1C078002815D100F08A
:1007300021FA15E06D20000210E0C278802A0CD169
:1007400080228468002C0DD00194039300790290DC
:10075000D20901A801F07EFD02E0044800F038FD56
:1007600004B010BD0148401CF8E7C046866A00008E
:1007700080B5024801680120884780BDC40200207E
:1007800080B5024801680020884780BDC40200206F
:1007900070B582B0152040011E4E305C31780143A7
:1007A00003D0002030701C482DE01C4C3C25204616
:1007B000294603F071FEB3208000315CA92080003F
:1007C000301822462B46FFF78FFC00281AD0154C14
:1007D00086252046294603F05FFE08360096134A18
:1007E0007A4440232046294601F038FA0E48104941
:1007F000794401600F49794400242046224602F0E2
:1008000041FF03E0064800F0E3FC0446204602B046
:1008100070BDC0466003002007B000000002002049
:1008200001B000003C020020C4020020093E00008C
:1008300005380000CA3E000070B58AB0152040019E
:10084000274E305C02283FD1307801283CD1264821
:100850001E24214603F020FE02AD2846214603F067
:100860001BFE4320C000325830184368032000901C
:100870002846214600F0D2F8002829D002A800908E
:1008800019481D4A7A441E210B4601F0E7F9184C1D
:100890002B252046294603F0FFFD1120400130584A
:1008A0000090164A7A4414232046294601F0D6F9CE
:1008B00010481349794401601249794400242046C4
:1008C000224602F0DFFE07E000203070054800E01D
:1008D000064800F07DFC044620460AB070BDC046C4
:1008E0006003002007B00000C802002003B0000031
:1008F000E8020020C4020020813D00006A3D0000A3
:100900005D370000523E000070B582B015204001F6
:10091000154E305C01281DD1307801281AD1144CB5
:1009200044252046294603F0B7FD08360096124AB2
:100930007A4420232046294601F090F90D480F49BA
:10094000794401600E49794400242046224602F091
:1009500099FE05E000203070044800F039FC0446A0
:10096000204602B070BDC0466003002007B0000002
:1009700014030020C4020020DE3C000011370000F8
:10098000F63D0000F0B585B000292AD01F46134679
:100990000546481E009000240294019518460A3826
:1009A0003846029988411ED30A2500261846394642
:1009B0002A460393334603F02BFC04900F462A4645
:1009C000019D334603F044FC0399081A302101438A
:1009D000E0B22954641CE0B200998142049BDDD846
:1009E00019E0002617E0E0B230332B54291800221A
:1009F0004A70012600280ED0297829542B70401EF9
:100A0000022808D301216A5C2B5C6B542A54491CD0
:100A1000401E8142F7D3304605B0F0BDF0B589B035
:100A20001E4617460291019003AC15252046294623
:100A300003F032FD204629463A463346FFF7A2FF2F
:100A40000026002832D00E9F03A803F07BFDB84299
:100A500013D93918491C029A914227D2C41B03ADFD
:100A6000019E30462946224603F01BFD2E203055BC
:100A700029193019401C3A4615E03A1A911C029F78
:100A8000B94213D22E20019C607030232370A01C29
:100A9000002A06D000240370401C641CA5B2AA42A0
:100AA000F9D87A1A03A903F054FD0126304609B09B
:100AB000F0BD000080B584B00748784401F0B6FA74
:100AC000002103910821029101900920010301A84E
:100AD00000F03EFB04B080BD963C0000F0B59FB036
:100AE000019106462D200101204D284603F0E8FC27
:100AF0001520400100212954297015A8282103F050
:100B0000CBFC02A84C2103F0C7FCB32084002919B8
:100B10003046FFF76DFB00281FD02A5DA92080001A
:100B20002F1830463946FFF7B9FB002815D02A5D4B
:100B300015AE30463946FFF76BFC083502A9304642
:100B40002A46FFF7F0FB2821304603F0B9FC019854
:100B5000002807D0FFF71CFE02E0054800F038FB34
:100B60001FB0F0BD01F0BEFAFAE7C04660030020F6
:100B7000876A000080B584B06846002181704170AA
:100B800001220270039103210291019009200103C7
:100B900001A800F0DDFA04B080BD80B500F04AFD88
:100BA00080BD0000F0B581B0F54D28780D2805DC3A
:100BB000052800D1AEE00D280DD057E00E2800D159
:100BC00002E1152852D1EF488079012803D1A87994
:100BD000000700D465E2EC4C00276760012020701C
:100BE000204601F02BFC042001F09CFC60600028F2
:100BF00000D14DE2692800D1CAE1972800D147E22F
:100C0000C425E24C6059002800D139E2C226A05B1D
:100C1000C821615C80B2884200D331E201F04EFC11
:100C2000002800D02CE201F0D1FBAA2804D101F069
:100C3000F7FBAA2800D023E26159A25B50010818F3
:100C4000D023E358002B04D09847002807D0A25B9C
:100C50006159012801D15001081800F0EBFCA05B9C
:100C6000401CA05361590029D2D109E2C64C00278B
:100C7000676001202070204601F0E0FB042001F0B5
:100C800051FC6060692800D0F2E000F079FC00F0CF
:100C900079FCC225BD4E7753042001F043FC60600F
:100CA000002800D1F4E1972800D1F1E1C4243059A3
:100CB000002800D1ECE1705BC821715C80B28842F1
:100CC00000D3E5E101F0FAFB002800D0E0E101F0FB
:100CD0007DFBAA2804D101F0A3FBAA2800D0D7E10C
:100CE0003159725B50010818D023F358002B04D0FF
:100CF0009847002807D0725B3159012801D1500173
:100D0000081800F097FC705B401C705331590029A3
:100D1000D2D1BDE1E44C002767600120207020465D
:100D200001F08CFB042001F0FDFB6060002800D185
:100D3000AEE1972800D1ABE1692800D067E100F06F
:100D40001FFC00F01FFCC225D84E7753042001F091
:100D5000E9FB6060002800D19AE1972800D197E173
:100D6000C4243059002800D192E1705BC821715C25
:100D700080B2884200D38BE101F0A0FB002800D0B4
:100D800086E101F023FBAA2804D101F049FBAA283F
:100D900000D07DE13159725B50010818D023F3581F
:100DA000002B04D09847002807D0725B31590128E6
:100DB00001D15001081800F03DFC705B401C7053DD
:100DC00031590029D2D163E1B74D00266E60012070
:100DD0002870284601F032FB042001F0A3FB686074
:100DE00069287BD100F0CCFB00F0CCFBC224AF4ED5
:100DF00000203053042001F095FB6860002800D1EA
:100E000046E1972800D143E1C4257059002800D15C
:100E10003EE1305BC821715C80B2884200D337E18B
:100E200001F04CFB002800D032E101F0CFFAAA28F3
:100E300004D101F0F5FAAA2800D029E17159325BFA
:100E400050010818D023F358002B04D098470028ED
:100E500007D0325B7159012801D15001081800F008
:100E6000E9FB305B401C305371590029D2D10FE1AE
:100E7000C4258E4C6059002800D101E1C226A05B38
:100E8000C821615C80B2884200D3F9E001F016FB12
:100E9000002800D0F4E001F099FAAA2804D101F06A
:100EA000BFFAAA2800D0EBE06159A25B50010818F4
:100EB000D023E358002B04D09847002807D0A25B2A
:100EC0006159012801D15001081800F0B3FBA05B63
:100ED000401CA05361590029D2D1D1E00446DC2046
:100EE000724D295800290FD00A46643A00D2324682
:100EF0002A50642908D8D8216958002904D0E02252
:100F0000AA582A5000208847002C00D1C0E0972C16
:100F100000D1BDE0C424285900282BD0C226A85BEC
:100F2000C821695C80B2884224D201F0C7FA002847
:100F300020D101F04BFAAA2803D101F071FAAA28B6
:100F400018D12959AA5B50010818D023EB58002B5F
:100F500004D09847002807D0AA5B2959012801D15D
:100F60005001081800F066FBA85B401CA8532959E3
:100F70000029D5D1C820285CC221695A84E0C04626
:100F800038070020C4080020B807002030060020E1
:100F900000F0F6FA00F0F6FAC225444E775304202A
:100FA00001F0C0FA6060002872D0972870D0C42485
:100FB000305900286CD0705BC821715C80B28842C7
:100FC00066D201F07BFA002862D101F0FFF9AA286D
:100FD00003D101F025FAAA285AD13159725B500188
:100FE0000818D023F358002B04D09847002807D0C6
:100FF000725B3159012801D15001081800F01AFB29
:10100000705B401C705331590029D5D140E0D42089
:10101000264C2058002803D0E978490800F052FBFC
:10102000C425605900282BD0C226A05BC821615C72
:1010300080B2884224D201F041FA002820D101F088
:10104000C5F9AA2803D101F0EBF9AA2818D16159F2
:10105000A25B50010818D023E358002B04D0984716
:10106000002807D0A25B6159012801D1500108185E
:1010700000F0E0FAA05B401CA05361590029D5D1D3
:10108000C820205CC221615A814201D301F016FAC6
:1010900001F014FA002801D100F054F9012001B048
:1010A000F0BD052000F047F9B80700203006002009
:1010B000B0B50546072028400024012812D0022898
:1010C00012D1002907D00A4801F0ECF9280609D509
:1010D00001F070F906E0412081000548002201F08E
:1010E000F9F904462046B0BD022000F024F9C046BC
:1010F000C0070020024800210170024801607047CB
:101100005C0300205803002010B50F4C217800220A
:10111000D04302290BD001290BD0002908D101208E
:1011200020700A480188002000F022FB10BD2270C8
:1011300010BD0220207005480188102000F018FB27
:101140000121217010BDC0465C030020580300201F
:10115000F0B581B00D460027002816D0064640683D
:10116000B168411A0B2004038120400081420DD850
:10117000821C14493046FFF7A8F80028394606D0EB
:101180007068B168411A2C4601E02C4639460E4D74
:1011900029600C48224602F0A9FF2868811C2960BA
:1011A0000A4C2278012A384607D0022A07D189B290
:1011B000202000F0DDFA00212960277000E0F843CC
:1011C00001B0F0BDC0070020580300205C030020E0
:1011D00080B501460020FFF7BBFF80BD70B590B021
:1011E000FFF788FF2D2001012A4803F069F92A4CF6
:1011F0002A4D01AE304603F08BF9B08586B2002E41
:101200000BD0052E3CD001A8002181850B9801F060
:101210007BF93046FFF7DCFF17E001A801F074F915
:101220000B9000200D900E900F90FFF76DFF00289F
:101230001FD402460DA8214600F0D6FE002811D08A
:101240000DA8FFF71BFA002813D401F051F901A9EA
:10125000884202D10B9801F057F901A8808D00282F
:10126000C7D00BE02846FFF7B3FF0B9801F04CF90D
:10127000BFE70B9801F048F910B070BD00F05BF8C3
:1012800001A8002181850B9801F03EF9052000F0AE
:1012900052F8C04660030020C0070020876A0000A3
:1012A00010B58CB06C46204603F032F9A0850004DE
:1012B00006D1684601F028F90A90FF2001F0E4F811
:1012C00001F016F96946884202D10A9801F01CF92A
:1012D0006846808D002801D10CB010BD00F02BF8BD
:1012E00080B5034979440020024602F0CBF980BD65
:1012F0008837000080B5FF2001F0C6F880BD0000EF
:1013000080B506480078002801D102F0E5FD0449C7
:1013100079440020024602F0B5F980BD3006002075
:10132000FC36000080B5FFF7EBFF80BD80B50020E4
:1013300001F0EAF880BD044601F0DAF8214603F036
:10134000F3F8000080B503487844052101F0AAF8BD
:1013500080BDC0463437000010B51648C078032859
:1013600007DC01280DD002281FD1134801F090FBA3
:1013700010BD042816D0082817D10F4801F086FBAD
:1013800010BD0D4C0121204601F07BFB204601F0F1
:1013900059FB0A488179002908D10C30122103F049
:1013A0007BF810BD044801F06FFB10BD0520FFF76E
:1013B000C2FFC0463807002048090020C4080020AA
:1013C0007F210140052903D802484018007B70475F
:1013D00000207047C408002080B51548C2787F21DE
:1013E00011400279042A14D0022A06D0012A1DD104
:1013F000811D114801F036FA80BD052916D84A0032
:101400000C4B9A1800235382821D0B4801F0AEFA50
:1014100080BD05290AD8074A521843797A2B00D390
:101420007A231373821D044801F04AFA80BDC04636
:1014300038070020C40800204809002070B5FF2AA2
:101440001DD815460E4604460D48427120210171F3
:101450005021017080212143C170D11C8170090A83
:101460004170062101F01EF83046294601F01AF8B5
:101470006006000E034908187D210901418270BDF4
:1014800038070020C408002080B50A4601468220A3
:101490001423FFF7D3FF80BD80B50A4601468320A1
:1014A0001423FFF7CBFF80BD10B526488178427822
:1014B0001202521801780F2908DC0E291CD00F29BE
:1014C0002DD1012A32D1FFF747FF33E010292BD06D
:1014D000162924D11C490B780124002B2BD10A2377
:1014E0000B7006238B717D2A00D37D224A80C11C9C
:1014F000164802F0D6FF1EE013488168643181600F
:101500001C21425A002A07D0642A134600D86423BB
:10151000643B4352642A10D9891E1029F1D102205C
:10152000FFF740FB044606E0032A01D2002402E054
:10153000FFF752FF0124204610BD00210170052055
:10154000FFF7F9FE38070020C4080020C00700207C
:1015500080B500F021FF0D2802D3FF2000F094FF9A
:101560000548202102F098FF00F0F2FA034800211C
:101570000160416080BDC046C4080020E40800202E
:101580007047000002480021016041607047C0467A
:10159000E4080020F0B587B00546084600F046FD97
:1015A000002843D00446006900283FD0284600F0B8
:1015B0003DFD01466D461C22284602F072FF26685A
:1015C000EE8067682F8100F079FF00282ED1B9B234
:1015D000B2B2174D65202870A06842434A435107B4
:1015E000D608002900D0761C04278740B8191D3082
:1015F000A870000A68700321284600F053FF68466F
:101600001C2100F04FFFA06828700121284600F03F
:1016100049FFE06800F00AFDB9B200F043FFB5B23F
:10162000206900F003FD294600F03CFF07B0F0BD43
:101630003807002070B500F0F9FC0446C06900F0DE
:10164000F5FC054621787F2008400AD0002D09D0FE
:10165000052802D1A07E00282DD000F02FFF002801
:1016600011D070BD00F02AFF0028FAD114481C25C3
:1016700085700021417065210170032100F012FF87
:101680002046294614E0284602F05CFF06460C4836
:101690006521017031461C318170090A41700321B6
:1016A00000F000FF1C21204600F0FCFEB1B22846ED
:1016B00000F0F8FE70BD20462946FFF76BFF70BDB5
:1016C0003807002070B5002825D00B460246124C82
:1016D00003CC083C984201D1491C61601843002B9F
:1016E00002D02060054605E00025256065600B4EB0
:1016F000761C30439D4201D000236360082909D342
:10170000074C4C430123074DAC4201D29C072043B8
:10171000DB079843904770BDE4080020FFFFFF7F80
:10172000ABAAAAAA56555555F0B581B00F4E012463
:101730003470B11CFF2702377A1C204600F098FE57
:10174000054670703A1A8719F91C022000F090FEC5
:10175000B8702D18AE19F47000F07EFE0021B17142
:10176000902171713071E81D01B0F0BDC0070020FB
:10177000F0B585B00246400707D01646F0B289B2F0
:10178000FFF796FC80B205B0F0BD844D85487844E3
:101790000090814C1646102717400804049677D015
:1017A000002F75D10291039200F088FE002808D026
:1017B00080210022204600F08DFE012000F0FCF880
:1017C000F2E7A8682978092908DD0A29029A0ED0CB
:1017D00001900B2922D17548784404E00190072933
:1017E0000098029A17D191B200F01EFA1DE0FF2076
:1017F000063096B2864200D3CBE0A2705320207010
:10180000100A60700321204600F04CFE6448314607
:1018100000F048FE27E0002900D1B7E0F0B291B215
:10182000FFF746FC002800D0B0E0287800281AD046
:101830007D20000101990E185D487844052100F0D3
:1018400031FE80210022204600F044FEA868B0420C
:1018500000D398E0FFF728FE00F030FE0028F0D11A
:1018600028780028E8D10020A871287068800499A1
:10187000890687D44C487844052100F013FE04986B
:1018800040B20028039A03D5052000F0FDFD039A1D
:10189000002F434F04D1500672D40020A871287045
:1018A0000020688043487844052100F0FBFD80213A
:1018B00000262046324600F00DFE03280FD3A17803
:1018C000627812025118C91C814208D1FFF7ECFD61
:1018D00028780028E6D068880028E3D001E02E7040
:1018E000DEE73978B02900D04CE77978A72910D005
:1018F00002291DD0012900D044E7B978FA780A43BB
:1019000000D03FE70720049E0640FFF70DFF014689
:1019100031E0B978FA780A4300D033E720494E70B5
:10192000902008707F20C043049E0643022122E0DD
:10193000B978FA780A4300D024E700F071FDAA28AC
:1019400010D10120164F3870B81C402100F05CFD0A
:101950007870811C89B290227A54C11C89B27E545D
:10196000011D05E085200E4948706920087002219C
:101970000720049E0640F2B2700700D10BE7FDE697
:101980006888401FFEE60520FFF7D5FC0420FFF71E
:10199000D2FC0220FFF7CFFC38070020C40800204B
:1019A000C0070020F7FCFFFF06320000BDFCFFFF70
:1019B00042320000D6310000B0B504460F487844EA
:1019C000052100F06FFD0B4D80210022284600F01C
:1019D00081FD2878152808D8012181400648014258
:1019E00003D0002C01D00020B0BDFFF75DFD411EEB
:1019F0008841B0BD3807002020702000BE300000B4
:101A0000F0B581B0009205464A4CA1420FD00F4676
:101A1000484C40262046314602F03EFD009A402ABE
:101A200000D332462046394602F03FFD414CA078B3
:101A300001280ADC00282ED001286AD1E01C0421EC
:101A4000FEF7B2FD4021204630E002282CD00528C8
:101A50005FD12079E17809020818374E31680027F4
:101A600081425DD13068002823D00098401F82B2A7
:101A700032490B68934200D20868224681B23B2962
:101A800000D33B2085B22E4C2068511D2A4602F01F
:101A90000CFD246833E00027A77167712771E77098
:101AA00040212046A8473BE022484021A847002784
:101AB00036E0A079617909020918224801600168BD
:101AC0004122920091422BD800681C49086060783E
:101AD0002278120210181C4A10600A680098C01F71
:101AE00083B29A4200D2086881B2392900D33920E2
:101AF00085B2E11D154C20462A4602F0D2FC0F4863
:101B00000168491B016060190D4908603068401C7C
:101B100030600A480068002801D0012707E002274A
:101B2000054800210160064801600448016038460C
:101B300001B0F0BDEC0800202C0900203409002081
:101B400038090020300900203C090020C00700208F
:101B500003480021016003480160034801607047A9
:101B60002C0900203809002034090020F0B581B08C
:101B7000274A1568274B1968002921D0002D1FD04E
:101B80000090274C671D3B263846314602F084FC06
:101B9000204A0520A07023480168090A21700068C6
:101BA00060701D490868000AE070086820710968C3
:101BB000106800290CD03B2800D81668384612E07F
:101BC00015480021016011601448017019601DE082
:101BD000392801D9392600E016681068000A6071BA
:101BE0001068A071E01D2946324602F05EFC094BE8
:101BF000009A07491868801B1860A81908600649F0
:101C00000868401C086006484021904701B0F0BDBC
:101C100038090020340900202C090020C4080020C5
:101C2000EC0800203C09002080B500290BD0064AB2
:101C300000231360054A1160054A064B1360064AEB
:101C40001160FFF793FF80BD2C09002034090020AC
:101C500038090020C00700203009002081B0F0B50D
:101C600090B015930990002800D1ADE10D460229EE
:101C700000D2A9E114460998294602F00DFC15A8E6
:101C80000B902078002800D19EE1691E0891012167
:101C900006910026089D002805D0252803D0A0190C
:101CA0004078761CF7E7AE4200D32E4609982146CD
:101CB000324602F0FAFBAD1B089500D184E1099889
:101CC00080190990A05DA419252800D077E1641C33
:101CD00000202023074607902178641C00222D292C
:101CE0000DDC1046F8D0252900D1E1E02A2900D0EA
:101CF00064E12078732800D061E1022028E04729C0
:101D00002BDC0A46303A0A2A11D20A971F463022A3
:101D10000B465340079D2B4300D03A460A23079DAC
:101D20006B4359183039079113460A9FD4E72E297F
:101D300000D043E120782A2800D040E1607848288C
:101D400004D0732802D0682800D03BE1641C012035
:101D50000B990A1D0B920F68BEE7672909DC6229FF
:101D60000FDC482900D1A5E0582900D026E1012048
:101D700020E0722917DC682900D19FE0702918D073
:101D80001CE1632900D19EE0642900D016E10B9884
:101D9000011D0B910068C11742184A40C10F002075
:101DA00002900A270DE0732900D199E0782900D02C
:101DB00004E1002002900B98011D0B9102680021A4
:101DC0001027079E0A9297420393049101D9012597
:101DD00011E0721E384605461646002138462A464E
:101DE0000B4602F035FA4A1E91410A9A904202D8F7
:101DF000721E0029EFD00796002604990029059449
:101E000001D1019101E0F0430190039B0798401A32
:101E10000029069C09D0D9B200263029344604D1C5
:101E20000CA92D220A700126069C811E0D290BD8B3
:101E3000411E09D00CA88019DAB202F03AFB0798CB
:101E4000301801994018461E002C03D10CA82D21F2
:101E50008155761C002D1AD03C460298002802D0ED
:101E6000604F7F4401E05E4F7F440A98294602F0AC
:101E700043F9214602F0C6F9785C0CA9885528463A
:101E8000214602F039F9761CAC420546EDD9089C92
:101E9000A64200D326460CA90998324602F005FB5B
:101EA000A41B0894059C00D18EE00998801984E059
:101EB00025200CE02546484A7A4402E02546474A58
:101EC0007A44069B10E00B98011D0B91006809995C
:101ED00008700898401E089076D00998401C6CE065
:101EE00025463C4A7A4400230B990C1D0B94C0B242
:101EF000096802283CD001282C460AD00028374621
:101F000007D1254600200C5C401C002CFBD1471E4D
:101F10002C46002B20D0002F089D4FD07800281A87
:101F20000A90022D50D328460B7825461C09145DD3
:101F3000099E34700F241C40135D7370022843D037
:101F40002C460546851E099B9B1C0993491C7F1E38
:101F5000E7D10A98089031E0089DAF423E4601D390
:101F60002E462F460998324602F09FFAAD1B0DE02F
:101F7000087800282C4621D1089DAF4200D32F4677
:101F800020220998394602F094FAED1B08951BD0DF
:101F90000998C01909900798B0420FD9851B089E6F
:101FA000B54200D3354620220998294602F081FA2D
:101FB000761B089608D009984019099020780028C7
:101FC00002D066E62A20FAE7002010B0F0BC02BC7E
:101FD00001B008479D2B0000D92B0000C12B000049
:101FE000192C00002F2C000010B50023052A13D354
:101FF0000C79521FA2420FD10A7802704A784270BF
:102000008A788270CA78C2700A7902710A79002AC5
:1020100000D04A1D82600123184610BD7A4602494D
:10202000C91C891A401A70471D20D0C080B50449C8
:10203000884204D30349884201D2FFF7EFFF80BDF5
:102040000000D0C0C050D0C0425C12064018417899
:1020500009048918827812028918C0780818704714
:1020600010B543185A7912041C792406A2189C79D9
:1020700024021219DC791219405C0006597809040F
:102080000818997809024018D9784118104610BDEF
:10209000425C401840780002801880B27047425C71
:1020A0004018417809028918827812048918C0788A
:1020B000000608187047425C4118487800028018F2
:1020C0008A7812048018CA78120680180A794B7927
:1020D0001B02D2188B791B04D218C9790906511832
:1020E0007047000010B594B003AC0420607041202C
:1020F0002070A01C08490831402202F0D2F90020CB
:102100000290422001900094092001036846FFF7E5
:102110001FF814B010BDC04660030020F0B595B0A4
:1021200004AE701C4024214602F0B6F934702B2016
:102130001C4F385C212801D0042100E005212837FC
:102140000091791820242128254600D00546701BCF
:1021500021302A4602F0A5F90098801C4119C8B226
:10216000C019401E0078212800D1491CC9B2791835
:10217000212800D0044630464130001B224602F0A0
:1021800090F971200749085C4121705400200390A8
:102190004220029001960920010301A8FEF7D8FF12
:1021A00015B0F0BD6003002070B50446002915D0BD
:1021B00015204001234E305C012831D1154662685C
:1021C000314608312046FEF794F8002826D0012039
:1021D0003070002D28D0FEF797FB70BD2D20010137
:1021E000184D284602F06CF91520400101212954B0
:1021F00000202870B3208600A9192046FDF7F8FFBB
:1022000000280BD0AA5DA920800029182046FEF7DF
:1022100045F8002802D00920000302E00B4800E046
:102220000948FEF7D5FF70BD02203070FEF790F828
:10223000002802D4FFF772FF70BD00203070044800
:10224000EFE7C0466003002007B00000876A000087
:1022500008B00000F0B5F1B00446002923D01520E5
:1022600040014449085C02283DD113464120C0008A
:10227000039008586268111801273E023546FE3562
:10228000002B34D0A9423B4D0AD9291808312046E9
:10229000FEF72FF8002863D003982858616841188A
:1022A000039829501CE02D200101324D284602F0F0
:1022B00007F9152040010221295400202870B3207D
:1022C0008600A9192046FDF793FF00280DD0AA5DCE
:1022D000A920800029182046FDF7E0FF002804D03F
:1022E000092000033DE024483BE0264839E0A942AC
:1022F000204D35D8291808312046FDF7FAFF00286F
:102300002ED0039AA85861684018A85000217091F7
:102310006F902C4608346E942120000129186EA875
:10232000FEF752F9012820D12F7004A83146FEF79C
:1023300029F900281BD103982B58202023210901BB
:1023400069180091019004A801212246FEF70EF9B8
:1023500000280CD104A8FEF703F9FEF76DFA02E09D
:102360000748FEF735FF71B0F0BD0448F9E7FEF706
:10237000E2FFC0466003002007B0000005B0000087
:1023800004B00000876A000001DF002900D1704717
:102390000846FEF7D0FF000080B584B00020029010
:1023A0000190034801A9FFF7EFFF04B080BDC046CC
:1023B0003801006080B582B0002001900248694673
:1023C000FFF7E2FF02B080BD3C02006080B582B042
:1023D0000020019003486946FFF7D6FFC0B202B063
:1023E00080BDC0464F9F006010B588B00A9C059420
:1023F0000493039202910190024801A9FFF7C4FFE0
:1024000008B010BDBA53006080B584B0019100904F
:1024100002486946FFF7B8FF04B080BDFCA8006021
:1024200080B582B00020019003486946FFF7ACFFF9
:10243000C0B202B080BDC0463CA0006080B584B090
:10244000002102910190034801A9FFF79DFF04B00C
:1024500080BDC0465864006080B582B00020019005
:1024600002486946FFF790FF02B080BD6E6A0060C7
:1024700080B586B001AB07C3024801A9FFF784FF0E
:1024800006B080BDD474006080B584B00021029194
:102490000190034801A9FFF777FF04B080BDC04653
:1024A000BE9A006080B584B00191009002486946F0
:1024B000FFF76AFF04B080BD8183006080B582B001
:1024C0000020019002486946FFF75EFF02B080BD20
:1024D000BB84006080B586B001AB07C3034801A987
:1024E000FFF752FF80B206B080BDC046E4850060B1
:1024F00080B582B00020019002486946FFF744FF92
:1025000002B080BDB187006080B584B00021029127
:102510000190034801A9FFF737FF04B080BDC04612
:10252000060B016080B584B0002102910190034840
:1025300001A9FFF729FFC0B204B080BD8B9C0060E9
:1025400002490020086002490860704744090020E1
:102550004009002010B507480221C1700121817097
:10256000002444704F2101700421FFF79BFF204697
:1025700010BDC0463807002070B582B06D460024FB
:102580002C710320E8700220A8706C704F262E700A
:1025900005212846FFF786FF0120E870A8706C70BF
:1025A0002E7004212846FFF77DFF204602B070BD43
:1025B00010B582B001A80221C170012181700024F0
:1025C00044704F2101700421FFF76CFF204602B0D8
:1025D00010BD000070B582B0144800240460144897
:1025E00004606D46AC716971012028710421E970A5
:1025F0000526AE706C704F242C70012A05DC002A71
:102600000AD0012A0AD1084606E0022A03D0032A8A
:1026100004D1022000E00320694688716846C37136
:102620000821FFF73FFF002002B070BD40090020E5
:1026300044090020B0B582B00D46684600244471BC
:1026400040210171C57003218170447050210170D7
:102650000621FFF727FF280601D5074800E00548B7
:1026600001687F2215400122AA400A4302602046E9
:1026700002B0B0BD4409002040090020B0B582B0CE
:102680000D4668460024447180210171C570032104
:1026900081704470502101700621FFF703FF280666
:1026A00001D5074800E0054801687F221540012256
:1026B000AA4091430160204602B0B0BD4409002009
:1026C00040090020080601D5054800E003480278CB
:1026D0007F200140012088401040704744090020BD
:1026E0004009002010B582B0684601710321C17015
:1026F00002218170002444704F2101700521FFF7F1
:10270000D1FE204602B010BDB0B582B01C461546C1
:102710006846437120220271C17050210170D91C9A
:102720008170090A41700621FFF7BCFE2846214648
:10273000FFF7B8FE002002B0B0BD10B582B0684609
:10274000427130220271C1700321817000244470F3
:10275000502101700621FFF7A5FE204602B010BDF2
:10276000F0B581B0002814D015460E460446074641
:10277000DC3745208100204601F08EFE002E00D07F
:102780007E612570012038702046FFF7D9FE0020B9
:1027900000E0022001B0F0BDB0B50446DC2001210C
:1027A00021541720C543601943218900405800284F
:1027B00006D04068FFF73AFC024621792046904750
:1027C0000835F0D12046FFF7F3FE2046FFF7C2FEA2
:1027D0000020B0BD002A08D003460020022B03D8F9
:1027E000DB00C918F423CA5070470220704780B537
:1027F000FFF7C2FE002080BDF0B581B00C46054653
:102800000026F4272846314600F05FF9002807D05B
:10281000E8590068FFF70AFC02462846214690471F
:102820000837761C032EEDD1002001B0F0BDF0B5C5
:1028300081B00C4605460026F4272846314600F0B4
:1028400044F9002807D0E8594068FFF7EFFB02463B
:102850002846214690470837761C032EEDD10020EC
:1028600001B0F0BD70B504460646D4363546143581
:10287000284600F061FBD42001212150EE20205A8F
:102880007060317D1F200840022808D001280BD03D
:1028900000280ED12046294600F022F90EE02046FD
:1028A000294600F0C6FA09E02046294600F09DFAC4
:1028B00004E0802001402046FFF7BCFE002070BDF0
:1028C000F0B583B0029204460646DC360191002939
:1028D0001AD00027F4252046394600F0F6F80028E3
:1028E0000DD060598069002809D03178032906D1BC
:1028F000FFF79CFB034620460199029A984708354A
:102900007F1C032FE7D12EE020468030416D032944
:1029100029D10068E16F81420AD9091AE167814231
:1029200000D301468AB22046029900F01FFD1AE04A
:102930000025F4272046294600F0C7F800280BD0D0
:10294000E0590069002807D03178032904D1FFF746
:102950006DFB01462046884708376D1C032DE9D1E1
:10296000204600F00AFD002003B0F0BDF0B581B0B4
:1029700004460746D437009100291AD03D46002668
:10298000F4272046314600F0A0F800280CD0E0598A
:102990004069002808D0297A032905D1FFF746FBB2
:1029A00002462046009990470837761C032EE8D14E
:1029B00045E0386802283CD1E069256AA84209D977
:1029C000401BE061F96B4919F96382B2204600F0BF
:1029D000BFFC2EE0A6693046294601F013FCAE424A
:1029E0000CD300290AD17868864207D200252046F8
:1029F00029462A4600F0ACFC7D601AE00025F4264A
:102A00002046294600F061F800280BD0A059C06884
:102A1000002807D0397A032904D1FFF707FB0146C4
:102A20002046884708366D1C032DE9D1204600F06A
:102A3000B0FC387B012802D13946002038730020D1
:102A400001B0F0BD70B50446DC2001212154802086
:102A50004021215021620025F4262046294600F01D
:102A600034F8002807D0A0594068FFF7DFFA024683
:102A700021792046904708366D1C032DEDD10020AA
:102A800070BD01740020704700207047002070471F
:102A900070B50446DC20205C032814D10025F42600
:102AA0002046294600F011F8002808D0A059C06936
:102AB000002804D0FFF7BAFA0146204688470836B6
:102AC0006D1C032DECD1002070BD022906D8C90071
:102AD0004018F4214058411E88417047002070473B
:102AE00080B54A78042A08DD072A0FDC052A14D0AD
:102AF000062A1BD100F021F81DE0002A10D0012A7F
:102B000017D0032A12D100F02AF914E0082A0AD0BB
:102B1000092A0BD100F0B1F80DE000F08BF80AE0C3
:102B200000F0F9F807E000F0DFF804E000F06EFBD9
:102B300001E000F031F9002080BDB0B582B00D4653
:102B4000044601A8002101802046F0306B881A0A53
:102B5000052A11DC012A1AD0022A21D0032A32D1F7
:102B6000D9B2022934DC002958D001295CD00229CD
:102B700029D10068C0680CE0062A19D0072A1FD0A6
:102B80000F2A20D10068C069002802D11BE000682C
:102B90000068FFF74BFA0246207C01A990472BE022
:102BA0004068002829D0217C00291FD0C06A1EE07F
:102BB000217C002907D14068002804D0406B16E032
:102BC000217C00290DD02046294600F01FFB23E080
:102BD000032926D004292AD00529F4D10068806968
:102BE000D7E740680028EED0006B00E0806AFFF76E
:102BF0001DFA014601A88847014601A80288002A5B
:102C00000AD0E888002807D0824200D3024601A8F3
:102C10000280204600F086FB02B0B0BD006840682C
:102C2000B7E700680069B4E700688068B1E700684A
:102C30004069AEE770B504468888002807D1C88887
:102C4000002804D12646DC363078032803D12046FC
:102C500000F0DCFA70BD88787F250540B57020460D
:102C60002946FFF73FFD204600F087FB002D01D0ED
:102C7000022000E00120307070BD70B50D460446A2
:102C80008E78022E1CD2DC20215C2046DC30032909
:102C900006D0022914D1002E22D00321017008E0B1
:102CA000002E12D06068B0421AD0C1B22046FFF7A1
:102CB000BEFD666020463146FFF79EFD02280FD11B
:102CC0002046294600F0A2FA70BD00216160022171
:102CD000017020463146FFF7AAFD204600F04DFB6B
:102CE000204600F04AFB70BD80B5CA88012A0AD18F
:102CF000DC22825C032A09D0022A04D100218160EF
:102D00000146083103E000F081FA80BD011D012277
:102D100000F008FB80BDB0B50446DC20205CFE223C
:102D20000240022A0FD12046DC300121E160254615
:102D30000C35806800280AD0204600F02AFBE168A4
:102D40000220084304E0204600F060FAB0BD0320F2
:102D5000E06002222046294600F0E4FAB0BDB0B59A
:102D600004464888012816D10D46E420012121504F
:102D7000287902280CD8C0002018F42140580028D7
:102D800006D08068FFF752F9024620462946904750
:102D9000204600F0F2FAB0BDB0B50D460446DC2086
:102DA000205CFE21014002291AD1688801281BD12C
:102DB0002046DC3000218160287902280CD8C00030
:102DC0002018F4214058002806D08068FFF72EF91B
:102DD0000246204629469047204600F0CEFAB0BD74
:102DE0002046294600F012FAB0BDB0B50D460446A3
:102DF000DC20205C032816D12879022813D8C000D3
:102E00002018F421405800280DD08068FFF70EF9F3
:102E10000246204629469047E888002807D12046E8
:102E200000F0ABFA03E02046294600F0EFF900205D
:102E3000B0BDB0B582B00D46044609797F20084088
:102E4000072804D32046294600F0E0F971E0022962
:102E500012D82A7860231340202B0DD1CA00A21863
:102E6000F423D258002A07D09068FFF7DFF8024613
:102E70002046294690475CE06A78002A0AD0012A59
:102E800011D0032A55D1DC20205C03281AD0022857
:102E90000FD0D7E7DC22A25C032A2ED0022AD1D1A0
:102EA00000280BD145E0DC22A25C032A31D0022AA3
:102EB000C8D180200A460243802A3AD02046FFF734
:102EC000B9FB36E06888002807D1802008438028B5
:102ED00003D02046FFF7AEFB2979022926D8C80087
:102EE0002018F4214058002820D08068FFF79EF871
:102EF000024620462946904718E02046FFF7E2FBAD
:102F0000411E884101A908800222204600F00AFAE9
:102F10000FE06A88002A0CD1002807D02046FFF76E
:102F2000ADFB2879022801D8C000D9E7204600F07F
:102F300024FA002002B0B0BD0A7802704A784270CC
:102F40008A78CB781B029A1842800A794B791B0247
:102F50009A1882808A79C97909028918C1807047D4
:102F600010B504468021FFF765FB00212046FFF7DE
:102F700061FB10BDF0B583B00E46054602A80024E3
:102F8000048001A8047009786020084010D020282F
:102F900037D1707801460A39022932D302281BD072
:102FA000032819D02846314600F030F9022428E0E1
:102FB00070780B2813D00A280ED0062821D1F0787B
:102FC000002421280FD022282246214616D102AF04
:102FD000384600F049F80AE001A901220EE028462F
:102FE00000F0CBF90DE002AF384600F029F80146B9
:102FF0003A88F088824200D302463A80284600F0A0
:1030000091F9204603B0F0BDF0B581B004468221AD
:103010000326402532462B46FFF7DCFA02272046DE
:10302000394632462B46FFF7D5FA204639462A461E
:10303000FFF783FB002001B0F0BD002070470000C7
:103040000146EC20064A125C0020002A01D003460B
:1030500000E009230B80002A01D102487844704720
:1030600048090020481A00000146EC20064A125C7C
:103070000020002A01D0034600E022230B80002A12
:1030800001D102487844704748090020291A0000FD
:1030900080B5022903D103487844FEF767FD00207C
:1030A00080BDC046EDE3FFFFB0B502291AD114463A
:1030B00002214022FFF741FB0B4DA879002811D1D6
:1030C0000220FEF77DF90246094878442146FEF7C2
:1030D00097FC022806D1072028700120A871034818
:1030E000006868800020B0BDC408002030090020BE
:1030F000BBE3FFFF70B504468321032540262A4623
:103100003346FFF767FA204629462A463346FFF73B
:1031100061FA204629463246FFF70FFB002070BDBA
:10312000002070470020704780B5032903D1034871
:103130007844FEF71BFD002080BDC04665E3FFFF1D
:10314000B0B503291AD1144603214022FFF7F5FA3E
:103150000B4DA879002811D10320FEF731F9024662
:10316000094878442146FEF74BFC022806D10B2083
:1031700028700520A8710348006868800020B0BD51
:10318000C40800203009002033E3FFFF122008802C
:10319000014878447047C0465E1B00000420088048
:1031A000014878447047C046601B00000E2008802C
:1031B000014878447047C046541B00000E20088028
:1031C000014878447047C046521B00000A2008801E
:1031D000014878447047C046501B00000E2008800C
:1031E000014878447047C046321B00000E2008801A
:1031F000014878447047C046221B000039200880EF
:10320000014878447047C046CD18000080B50A7860
:1032100052B2002A02D4FFF7A3FE80BD4A78772A73
:103220000CD0062AF7D14A88144B9A42F3D1CA88A7
:10323000122A00D31222124979441CE08A88042AF7
:1032400006D1CA88282A00D328220E49794412E0E0
:103250008A88052A06D1CA88922A00D392220A496E
:10326000794408E08A88072AD5D1CA88B22A00D3CF
:10327000B2220649794400F055F880BDEE03000003
:10328000F0180000E01A0000DA18000058190000D9
:10329000B0B50446452085001548294601F0FCF8E4
:1032A00014480C30122101F0F7F8002C1BD0104C00
:1032B0002046294601F0F0F80F49794400252046C0
:1032C0002A46FFF74DFA0D4A7A4428462146FFF771
:1032D00081FA01200A4A7A442146FFF77BFA204608
:1032E000FFF785FAB0BD0248FFF756FAB0BDC046F9
:1032F00048090020C40800204E180000B81900003A
:10330000E219000040210180014878447047C0461E
:103310004A1A00000A210180014878447047C046DB
:103320007A1A0000B0B50C46D421022343508261C2
:10333000C2610146D431CC63016A914200D80A4689
:1033400093B2002529462246FFF7DEF92846B0BD94
:10335000B0B50C46016A914200D80A4693B20025E6
:1033600029462246FFF7D0F92846B0BD10B5002403
:103370002146FFF7E2F9204610BD10B5D421042202
:1033800042500024214622462346FFF7BDF920463D
:1033900010BD10B5D42105224250002421462246FA
:1033A000FFF7CBF9204610BDF0B51146194310D0F8
:1033B00000210E460C46771C4C418557002D04D445
:1033C000BE1A26469E413E46F5D3002D01DA002066
:1033D000F0BD0120F0BD000010B511490A780120B0
:1033E000012A1BD8521E0C235343CB189A8B002A58
:1033F00014D05969002911D01B8B002B05D19400E2
:103400006418241F2468E41C08D1934205D29A0052
:103410005118091F0968891C00D0002010BDC04642
:103420003006002010B50E490A780120012A16D86E
:10343000521E0C235343CB189A8B002A0FD0596984
:1034400000290CD01B8B541E9C4208DD921E9A4210
:1034500004DD9A0051184968891C00D0002010BD75
:10346000300600200948017800290CD00C224A437C
:103470001118C8898989814201D9012004E081425B
:1034800001D2FF2000E0002040B27047300600204B
:1034900070B50146154A1078012826D8401E0C2325
:1034A0004343D218958B002D1FD05469002C1CD09B
:1034B000012D1AD0138B6E1E9E4216DD164618364D
:1034C000AD1E9D420ADB9D002C196468A51C0CD022
:1034D000E41C03D100213180518304E05C1C348062
:1034E0005383002901D000F039F870BD3006002068
:1034F00080B50120FFF7CCFF80BD0000B0B51649B4
:103500000878012826D8401E0C22424389188A8B4D
:10351000002A1FD04C69002C1CD0012A1AD00D8B18
:103520000B461833002D09D0AA001219121F126879
:10353000921C0FD06A1E1A804D8309E095002C1949
:10354000241F2468E41C05D1941E1C80521E4A834B
:1035500000F004F8B0BDC04630060020F0B581B0E0
:1035600004460C2060431A490E187069318B89009B
:1035700040580321C943884227D8374618371436A4
:10358000FEF754FD31683A8892008958056808466C
:10359000FEF74CFD002D06D00068FEF747FD014602
:1035A0002046884711E08068FEF740FD05463068F8
:1035B000398889004058FEF739FD4068FEF736FD2E
:1035C00002462046294600F05DF801B0F0BDC04635
:1035D00030060020F0B581B029480178012925D8AE
:1035E0004C1E0C2161434518A98B00291ED0686927
:1035F00000281BD02A8B8A4218D22F4614372E4619
:10360000183691004058FEF711FD806800280FD051
:103610003868318889004058FEF708FD8068FEF759
:1036200005FD01460022204600F02CF801B0F0BD57
:1036300028461C3000880028F8D0801E328890422E
:10364000F4DB396893005B185B68DF1C10D09B1CAF
:10365000ECD11346920052185268921C04D15B1CA4
:1036600033809AB29042F5DA581C30806B8302E0C6
:103670000020308068832046FFF770FFD6E7C04601
:103680003006002070B5002800D070BD14460D46ED
:10369000194E301D1A2100F0FFFE002DF5D02846EE
:1036A000FEF7C4FC7061B18B8A008258521C06D0B0
:1036B000491C8AB292008258521CF9D1B183002C65
:1036C00016D02046FEF7B2FC04467069318B8900A3
:1036D0004058411C0CD0FEF7A9FCA04208D0308B0A
:1036E0007083401C3083716980B280000858F0E715
:1036F0000020FFF733FF70BD3006002080B50A4977
:10370000884208D00949884208D00949884208D12E
:10371000FFF7F4FE05E0FFF75DFF02E00120FFF791
:10372000B7FE002080BDC04603000080020000807C
:103730000100008010B50146002000290FD1084C7F
:10374000A18B228B8A420AD26069FEF76FFC218B23
:1037500089004058FEF76AFC4068FEF767FC10BD20
:103760003006002080B503480078401EFFF7E2FFD6
:1037700080BDC0463006002010B5044600F0E6FBD0
:103780002420604308490818C82105224254C42156
:10379000064A7A444250D421054A7A444250C12113
:1037A0000122425410BDC046300600200E16000013
:1037B0005FFFFFFF80B500F063FB002807D0A12268
:1037C00003498A5C112A02D1B822024B8B5280BD78
:1037D000300600200A80000010B50446FFF7CCFF39
:1037E0002420604304490818D021044A7A444250F6
:1037F000204600F085FB10BD30060020C5FFFFFF0E
:10380000F0B581B0009316460F460546FFF7B4FFAA
:10381000094C6168221D0A23384600F055F924201E
:1038200068432018D4214650D021009A425028469F
:1038300000F066FB01B0F0BD3006002010B5044674
:10384000FFF790FF4168044A7A44044B7B442046CA
:10385000FFF7D6FF10BDC046150000002500000090
:1038600080B50349794400F0F9F8002080BDC046D6
:10387000D5FFFFFF10B50446FFF774FF06C82046CA
:1038800000F04EF810BD0000F0B583B000920E4677
:1038900002901A4C277B0025E8430190FFF7E2FDD8
:1038A000012804D0401C06D10198606000E06560EA
:1038B000A560E56025612773029800F047FB412071
:1038C00080002058304301D10D4E7E44009F221DC0
:1038D0000A233046019900F0F7F8A060002805D0CF
:1038E000401E6168814205D9606003E06560A560A3
:1038F000E56025610298B84703B0F0BD30060020AE
:10390000B90C000010B50446FFF714FF4168034AE4
:103910007A442046FFF7B8FF10BDC04629FFFFFFDD
:10392000F0B583B015460E460746464CA03420221B
:103930002046394600F0B9FD7878102818DC0128B7
:103940002DD0022834D0102878D1002E58D03D49EF
:103950008D6830460E46FEF769FB03467068B16815
:10396000401C00900191012D55D8394A7A4454E009
:1039700001461139032961D20F21084001285DD188
:103980003048068A002E59D07F2E00D37F26029120
:10399000002D19D02846FEF749FB2A4F18E0FFF703
:1039A0001BFD00284AD02748406800280AD045E07F
:1039B000FFF738FD002841D0224948688968491E30
:1039C00088423BD1002439E0412080001D4F385807
:1039D000F989401800903D46203580211E4A7A44DE
:1039E00028463346FEF73AF9BC203D50397B029811
:1039F000014015480F2900D0801CB82178521DE0E5
:103A0000104E7168B0680090304620304B1C802109
:103A1000104A7A4404E00D4A7A443046203080212E
:103A2000FEF71CF930462030BC2170500648317B2F
:103A300009090E2900D8801CB8217052204603B015
:103A4000F0BDC046300600200880FFFF28140000AB
:103A5000DF1400003C1400002B0C000080B5164A57
:103A600090420BD0154A904213D0154A90420FD184
:103A700014484268002A1BD0521E14E0114988687D
:103A8000002803D04968401E884201D1FFF7A2FDFB
:103A900080BD0C48426883685B1E9A4202D1FFF7E2
:103AA00027FD80BD521C42600078401E884780BDC3
:103AB000FFF724FD80BDC0460300008002000080A7
:103AC0000100008030060020F0B58DB00023938106
:103AD000029353814B1C059303D053688B4200D84B
:103AE000AEE004910392002802D0FEF79FFA03E0B3
:103AF0004120800054490858044600F023FD014647
:103B000001200290012900DA9AE066184E48027BF3
:103B10000F200C9002400020079001940896B442B8
:103B2000204600D83046001B06900023204609940A
:103B3000E518B54239D21F460A905B1C180624D0FE
:103B400000210B931E46207840B2C3B2202B0CD329
:103B500000280AD43D4878441818203803780F2AE2
:103B600008D10C980340C91806E00A2B08D00D2B89
:103B700002D105E018090918761E641C3006E2D14E
:103B80007229089E099C0B9B11D829780846093890
:103B9000022806D3202904D02D2902D05F2900D085
:103BA0000A9D28460A29C3D103E0069B01E03B4653
:103BB0000A98E118B14215D2002B13D0A04211D0BF
:103BC00007461D46481E03782C2B06DC184609388C
:103BD000022806D3202B04D018E02D2B01D05F2B18
:103BE00014D12B4605980028049906D007988842DE
:103BF00003D10398406888421DD8E418B44202D229
:103C00000798401C0790B44289D310E009782C290A
:103C10002B4606DC084609380228E3D32029E1D0E8
:103C200003E02D29DED05F29DCD03B1BDAE70798C3
:103C3000401C029004E003998B810198201A48816E
:103C400002980DB0F0BDC04630060020FE12000004
:103C5000F0B581B00646FFF785FD0546114F3C469D
:103C6000A03420222046314600F01FFC70780F2837
:103C700006DC01280AD0022811D1FFF7D3FB07E0A8
:103C8000102809D011280AD1686806E0FFF7A4FBC4
:103C9000002804D0002402E02868BC217850204687
:103CA00001B0F0BD3006002010B5044600F04EF91A
:103CB000242060430B490818C82105224254C4211E
:103CC000094A7A444250D421084A7A444250D021C9
:103CD000074A7A444250C12101224254204600F052
:103CE0000FF910BD30060020F21100002FFAFFFF7F
:103CF0007BFFFFFFF0B581B00646FFF733FD0546B9
:103D0000144F3C46A03420222046314600F0CDFB23
:103D100070780F2807DC012811D0022812D00F2854
:103D200015D1286808E01038022810D2A120385C8C
:103D30000007800E28184068BC21785007E0FFF784
:103D40004BFB01E0FFF76EFB002800D0002420466B
:103D500001B0F0BD3006002010B5044600F0F6F8C2
:103D60002420604308490818C82106224254C4216F
:103D7000064A7A444250D421054A7A444250C1212D
:103D80000122425410BDC04630060020E21100005E
:103D90007FF9FFFFF0B581B00646FFF7E3FC05466B
:103DA000114F3C46A03420222046314600F07DFBD6
:103DB00070780F2806DC01280AD0022811D1FFF7FD
:103DC00031FB07E0102809D011280AD1686806E005
:103DD000FFF702FB002804D0002402E02868BC2181
:103DE0007850204601B0F0BD3006002010B50446E2
:103DF00000F0ACF8242060430B490818C8210522C4
:103E00004254C421094A7A444250D421084A7A448F
:103E10004250D021074A7A444250C12101224254E3
:103E2000204600F06DF810BD300600200E12000094
:103E3000EBF8FFFF7BFFFFFF80B5FFF75BFF00287C
:103E400007D0A12203498A5C102A02D3B8220A2390
:103E50008B5280BD3006002010B50446FFF77CFF72
:103E60002420604304490818D021044A7A4442506F
:103E7000204600F045F810BD30060020C9FFFFFFC6
:103E8000F0B581B00646FFF76DFC0546114F3C4684
:103E9000A03420222046314600F007FB707802282B
:103EA00004D0012808D1FFF797FA01E0FFF7BAFA2A
:103EB00000280BD0002409E0A120385C0106090F7E
:103EC00004D00007800E2858BC217850204601B04D
:103ED000F0BDC0463006002010B5084C2078002800
:103EE0000AD12046C030242100F0D6FA00206061BB
:103EF000A061E06101202070401E10BD300600204E
:103F0000B0B504461048017800290ED0621C8A42E0
:103F10000BD1242161434518FDF732FBC22000215B
:103F20002952204600F022F8B0BD0022D243A21A46
:103F3000531E9A414B1E99410A4204D14178AA2945
:103F400001D169214170B0BD3006002010B5044692
:103F5000FDF716FB002C00D010BD0348C030242113
:103F600000F09AFA10BDC04630060020F0B581B0CE
:103F700004460420FEF7D6FA002839D0972837D017
:103F8000242060431B490C18C420205800282FD03F
:103F90002546C4352646C2362746D037C834308831
:103FA000217880B2884223D2FEF788FA00281FD1F8
:103FB000FEF70CFAAA2803D1FEF732FAAA2817D185
:103FC00028683188490140183968002902D088479B
:103FD000002807D0012803D12868318849014018FA
:103FE000FCF7DBFD3088401C308029680029D7D1E0
:103FF00001B0F0BD3006002080B5002802D0FEF7E9
:1040000071F802E00248FDF7E3F8FDF779F980BDA9
:104010008569000010B5002809D00B4C02202070E3
:10402000FCF796F9002807D4FEF778F809E006486F
:1040300000210170054802E0002020700448FDF7CF
:10404000C7F8FDF75DF910BD600300208569000029
:1040500008B0000010B5002809D00B4C02202070D9
:10406000FCF776F9002807D4FEF758F809E006486F
:1040700000210170054802E0002020700448FDF78F
:10408000A7F8FDF73DF910BD600300208569000029
:1040900008B00000B0B5144602460025E8430029E8
:1040A00023D01378FF2B0CD0FE2B13D0FD2B1AD16D
:1040B00003291AD301211046FDF7EAFF21C403208A
:1040C000B0BD092911D301211046FDF7F4FF03C447
:1040D0000920B0BD052908D301211046FDF7DFFFF7
:1040E00021C40520B0BD28C40120B0BD130A43542B
:1040F0004018427070470000002243088B4274D37E
:1041000003098B425FD3030A8B4244D3030B8B42D8
:1041100028D3030C8B420DD3FF22090212BA030CE1
:104120008B4202D31212090265D0030B8B4219D3C2
:1041300000E0090AC30B8B4201D3CB03C01A5241E2
:10414000830B8B4201D38B03C01A5241430B8B422A
:1041500001D34B03C01A5241030B8B4201D30B0313
:10416000C01A5241C30A8B4201D3CB02C01A52413A
:10417000830A8B4201D38B02C01A5241430A8B42FD
:1041800001D34B02C01A5241030A8B4201D30B02E6
:10419000C01A5241CDD2C3098B4201D3CB01C01A00
:1041A000524183098B4201D38B01C01A524143090A
:1041B0008B4201D34B01C01A524103098B4201D3F8
:1041C0000B01C01A5241C3088B4201D3CB00C01A65
:1041D000524183088B4201D38B00C01A52414308DD
:1041E0008B4201D34B00C01A5241411A00D2014602
:1041F000524110467047FFE701B5002000F006F875
:1042000002BDC0460029F7D076E770477047C04628
:10421000002B11D1002A0FD1002900D1002802D093
:104220000021C943080007B4024802A140180290C7
:1042300003BDC046D9FFFFFF03B4684601B502982D
:1042400000F034F8019B9E4602B00CBC7047C0469B
:10425000F0B5CE46474680B5070099463B0C9C46D4
:1042600013041B0C1D000E0061460004140C000C0E
:1042700045434B4360436143C0182C0C20188C46C7
:10428000834203D980235B029846C444494679435C
:104290007243030C63442D042D0CC918000440190B
:1042A0008918C0BCB946B046F0BDC046F0B5574607
:1042B0004E464546DE46E0B504000D00924699465E
:1042C00083B08B4230D82DD04946504600F0BAF822
:1042D00029000600200000F0B5F8331A9846203B6C
:1042E0009B4633D45A465346934042461F0053469A
:1042F00093401E00AF423AD8AF4200D178E05B460F
:10430000A41BBD41002B00DA75E0002200230092BF
:10431000019301235A46934001930123424693405F
:10432000009328E08242CFD900220023009201931B
:104330000C9B002B01D01C605D600098019903B0BC
:10434000F0BCBB46B246A946A046F0BD424620237B
:104350009B1A5246DA40414613004A468A401700EB
:1043600042461F43534693401E00AF42C4D9002229
:104370000023009201934346002BD9D0FB0772081B
:104380001A4346467B080EE0AB4201D1A2420CD84C
:10439000A41A9D41012024196D410021013E2418D9
:1043A0004D41002E06D0AB42EED9013E24196D419D
:1043B000002EF8D1009801995B4600196941002B45
:1043C00024DB2B005A464446D3402A00E2401C001E
:1043D0005B461500002B2ADB26009E40330026009A
:1043E0004746BE403200801A9941009001919FE7F4
:1043F000A342BCD883E74246202300219B1A002217
:10440000009101920122DA40019286E74246202380
:104410009B1A2A0046469A402300F3404446134321
:104420002A00E2401C005B461500002BD4DA42460D
:104430002F002023260097409B1ADE403B00334389
:10444000CDE7C04610B5002903D100F007F82030B1
:1044500002E0080000F002F810BDC0461C21012354
:104460001B04984201D3000C10391B0A984201D357
:10447000000A08391B09984201D30009043902A235
:10448000105C40187047C04604030202010101019C
:10449000000000000000000010B5002200F009F844
:1044A00010BD10B500F010F810BD10B500F015F8F3
:1044B00010BD0B0010B511001A0000F021F810BD5E
:1044C00010B500F05AF810BD002310B59A4200D183
:1044D00010BDCC5CC4540133F8E710B5884202D952
:1044E0008B18984203D3002307E08B5C8354013A76
:1044F000FBD210BDCC5CC45401339A42FAD1F8E728
:1045000003008218934200D1704719700133F9E714
:10451000F0C041464A4653465C466D4676467EC0EC
:104520002838F0C80020704710307CC89046994663
:10453000A246AB46B54608C82838F0C8080000D1E6
:10454000012018470023C25C0133002AFBD1581E0A
:104550007047030030B51D00002A06D00C78013AE0
:1045600001332C700131002CF5D100219A189342AF
:1045700000D130BD19700133F9E710B50A000021F0
:10458000FFF7BEFF10BD27002F00F800000000005D
:10459000020EFFFFFFFFFFFFFFF738A13B4B920E1C
:1045A0009411AE6DA5F40B0358B108000000000093
:1045B0000010FFFFFFFFFFFFFFFFB781126DCAE78B
:1045C000B2321E66A241ADC64D2F436F6E66697250
:1045D0006D205075626B65790050617468004170A0
:1045E00070726F76650052656A656374003078306A
:1045F00034252E2A48005265766965770048617334
:104600006800416D6F756E7400424F4C20252E2A54
:1046100073003078252E2A4800000000A048D0C042
:10462000CA45D0C0ED3DD0C01C46D0C0000000003F
:1046300000000000D945D0C0000200200539D0C0DC
:104640003446D0C00000000000000000D245D0C0B9
:104650003C0200200539D0C04C46D0C0000000000C
:10466000000000007107D0C0000000000000000042
:10467000000000006446D0C0FFFFFFFF1849D0C013
:10468000DE45D0C0A93CD0C07C46D0C07446D0C066
:10469000000000008107D0C0000000000000000002
:1046A000000000009446D0C0FFFFFFFF3048D0C09C
:1046B000E645D0C0A93CD0C0AC46D0C0A446D0C0CE
:1046C000000000002446D0C03C46D0C05446D0C0B4
:1046D0008446D0C0B446D0C0FFFFFFFFA048D0C082
:1046E000F645D0C0FD45D0C0593ED0C0DC46D0C054
:1046F00000000000000000000246D0C0C8020020F8
:104700000539D0C0F846D0C000000000000000000D
:10471000E846D0C05446D0C00047D0C08446D0C080
:10472000B446D0C0FFFFFFFFFD45D0C014030020FA
:104730000539D0C02847D0C00000000000000000AC
:10474000E846D0C03047D0C08446D0C0B446D0C0C0
:10475000FFFFFFFF535441524B4E455400000000F1
:1047600000000000FFFFFF00FFFFFFFF7FFE7FFE56
:104770003FFC3FFC018007E00FF01FF80FF08FF1C6
:10478000C7E3E7E7FFFFFFFF100000001000000095
:10479000010000006047D0C06847D0C000000000A2
:1047A000FFFFFF00E001FEC1FD387F06DF81FFC48F
:1047B0007FF3FFBC1FE7E7F13FF807780000000038
:1047C0000E0000000E000000010000009C47D0C059
:1047D000A447D0C000000000FFFFFF000000FEC1A2
:1047E000FF3030EC0D03C3DE3030EC0D03C3C0F0FE
:1047F0003FF80700000000000E0000000E0000005F
:1048000001000000D447D0C0DC47D0C00000000049
:10481000FFFFFF00008001E6C071383807FC001E72
:104820008007F003CEC1E1387006180000000000D8
:104830000E0000000E000000010000000C48D0C077
:104840001448D0C000000000FFFFFF00000000007F
:104850000C8007F003FEC1FFF03FF003CC0033C033
:104860000C000000000000000E0000000E00000020
:10487000010000004448D0C04C48D0C000000000F7
:10488000FFFFFF00000000001EE01F1C0E03638CF2
:1048900019630C0C87837F80070000000000000074
:1048A0000E0000000E000000010000007C48D0C097
:1048B0008448D0C000000000FFFFFF0048124208FB
:1048C000040000000700000001000000B448D0C050
:1048D000BC48D0C000000000FFFFFF00218424017D
:1048E000040000000700000001000000D448D0C010
:1048F000DC48D0C000000000FFFFFF000000000007
:104900000000C000380067E0381C9C037E000F8068
:1049100001000000000000000E0000000E0000007A
:1049200001000000F448D0C0FC48D0C0537461724C
:104930006B6E6574006973207265616479005665F9
:104940007273696F6E00312E302E300041626F75C8
:1049500074005175697400537461726B6E657420D4
:10496000417070002863292032303232204C656457
:10497000676572004261636B000000008847D0C029
:104980002C49D0C03549D0C0593ED0C07C49D0C098
:1049900000000000000000003E49D0C04649D0C0E1
:1049A000D937D0C09849D0C00000000000000000F6
:1049B000E112D0C000000000000000000000000074
:1049C000B049D0C0FFFFFFFFF847D0C04C49D0C06E
:1049D000A93CD0C0C849D0C0C049D0C00000000028
:1049E000F512D0C000000000000000000000000030
:1049F000E049D0C0FFFFFFFF6848D0C05249D0C097
:104A0000A93CD0C0F849D0C0F049D0C00000000097
:104A10008849D0C0A049D0C0D049D0C0004AD0C039
:104A2000FDFFFFFFFFFFFFFF5749D0C06449D0C023
:104A3000D937D0C0284AD0C00000000000000000D4
:104A40002513D0C00000000000000000000000009E
:104A5000404AD0C0FFFFFFFFC047D0C07449D0C05C
:104A6000A93CD0C0584AD0C0504AD0C00000000075
:104A7000304AD0C0604AD0C0FDFFFFFFFFFFFFFFFC
:104A80006000020000303132333435363738396156
:104A900062636465663031323334353637383941D4
:104AA0004243444546000000092111010001222231
:104AB0000006A0FF0901A1010903150026FF0075EA
:104AC00008954081080904150026FF0075089540E7
:104AD0009108C0050F3900021810050038B60834D7
:104AE000A909A0478BFDA0768815B66500011E00B8
:104AF0001C100500DF60DDD88945C74C9CD2659D40
:104B00009E648A9F00000306B20077008D31D0C0FA
:104B10009D31D0C0AD31D0C0BD31D0C0CD31D0C0BD
:104B2000DD31D0C0ED31D0C0FD31D0C012034D0019
:104B300053004600540031003000300077009200EE
:104B400000000001050001008800000007000000CF
:104B50002A00440065007600690063006500490092
:104B60006E007400650072006600610063006500FD
:104B70004700550049004400730000005000000049
:104B80007B00310033006400360033003400300015
:104B900030002D0032004300390037002D00300076
:104BA0003000300034002D00300030003000300084
:104BB0002D00340063003600350036003400360026
:104BC000370036003500370032007D00000000005D
:104BD0000A00000000000306B20008000100000007
:104BE000A800080002000100A000140003005749BB
:104BF0004E555342000000000000000000008400F9
:104C0000040007002A004400650076006900630084
:104C1000650049006E007400650072006600610066
:104C20006300650047005500490044007300000020
:104C300050007B004300450038003000390032004E
:104C4000360034002D0034004200320034002D00C4
:104C500034004500380031002D004100380042008A
:104C600032002D003500370045004400300031008F
:104C70004400350038003000450031007D00000060
:104C8000000000000930D0C03B30D0C0752FD0C02C
:104C900000000000000000009130D0C0A930D0C05A
:104CA0000000000000000000000000000533D0C03C
:104CB0000533D0C00533D0C01533D0C0F530D0C0D7
:104CC0002131D0C02531D0C000000000000000001C
:104CD0002931D0C04131D0C00000000000000000E8
:104CE000000000000533D0C00533D0C00533D0C06C
:104CF0001533D0C01201100200000040972C111093
:104D0000010201020301040309040E034C006500C3
:104D100064006700650072000E034E0061006E00C3
:104D20006F00200053000A033000300030003100D3
:104D30002800000000010400010000000000000045
:104D4000010157494E555342000000000000000089
:104D5000000000000000000009024000020102C043
:104D600032090400000203000002092111010001C0
:104D700022220007058203400001070502034000CC
:104D8000010904010002FFFFFF0207058303400041
:104D900001070503034000010A060002000000406D
:104DA000010000000300000000008000200000005F
:104DB0000100000000000000FFFFFF0000000000F5
:104DC00000000000050102000C00040007000000C4
:104DD00000000000FFFFFF000000000000000000D6
:104DE000C048D0C005027A000C0004000700000093
:104DF00000000000FFFFFF000000000000000000B6
:104E0000E048D0C0071006000C007400200000002D
:104E100000000000FFFFFF0000000000088000000D
:104E200000000000071106001A00740020000000B6
:104E300000000000FFFFFF000000000008800000ED
:104E4000000000002573202825642F2564290025F3
:104E5000730025642F25640033334677669A8923CF
:104E600034346666334433456866676788666867C6
:104E70006868333365666556AA787777886666888A
:104E80008834457866AB899977997866768876AB69
:104E9000686767454545675667677756776756671A
:104EA0007734456734AA7777777745564577679A99
:104EB000676756456645667603000000000080007F
:104EC000200000000100000000000000FFFFFF00C4
:104ED0000000000000000000050102000C000400BA
:104EE0000700000000000000FFFFFF0000000000BE
:104EF00000000000C048D0C005027A000C00040089
:104F00000700000000000000FFFFFF00000000009D
:104F100000000000E048D0C005103800020010007A
:104F20001000000000000000FFFFFF000000000074
:104F30000A80000000000000071100001C00800033
:104F40002000000000000000FFFFFF000000000044
:104F50000880000000000000030000000000800046
:104F6000200000000100000000000000FFFFFF0023
:104F70000000000000000000050102000C00040019
:104F80000700000000000000FFFFFF00000000001D
:104F900000000000C048D0C005027A000C000400E8
:104FA0000700000000000000FFFFFF0000000000FD
:104FB00000000000E048D0C0050F100008001000FD
:104FC0001000000000000000FFFFFF0000000000D4
:104FD0000000000000000000071029000C00800005
:104FE0002000000000000000FFFFFF0000000000A4
:104FF0000800000000000000071129001A008000CE
:105000002000000000000000FFFFFF000000000083
:105010000800000000000000030000000000800005
:10502000200000000100000000000000FFFFFF0062
:105030000000000000000000050102000C00040058
:105040000700000000000000FFFFFF00000000005C
:1050500000000000C048D0C005027A000C00040027
:105060000700000000000000FFFFFF00000000003C
:1050700000000000E048D0C0051038000200100019
:105080001000000000000000FFFFFF000000000013
:105090000A80000000000000071100001C008000D2
:1050A0002000000000000000FFFFFF0000000000E3
:1050B0000A80000000000000000000000000000066
:04000005C0D0000166
:00000001FF
