:02000004C0D06A
:10000000B0B58CB062B601F073FB234C2120C10067
:10001000204604F0D5FA6D46284604F00DFBA8856D
:1000200080B205281ED0002826D16D46284602F051
:100030006DFC0A9001F06EFC002003F02BFB012008
:1000400003F028FB01F03EFB01F0AAFA02F052FC9B
:10005000A84202D10A9802F059FC6846808D002817
:10006000D4D017E06846002181850A9802F04EFC42
:100070000A9802F04BFCC9E76846002484850A9878
:1000800002F044FC0A9802F041FC01F0EBFA204631
:100090000CB0B0BD01F031FB48080020F0B585B0D0
:1000A0000446581E092801D900201AE017460025E9
:1000B00001260396019504910294204629461C4688
:1000C00002F0A4F923467851A642039800D2019881
:1000D0002D1D04998D4204D8741C9E422646029C14
:1000E000EBD305B0F0BD0000F0B589B007920890E1
:1000F0000291481E0390092862D81E460023334807
:100100007844019019461A4600960591079885187B
:100110001746B41A06939E0008988359012004904C
:10012000C007834328462146019A01F079FF2846FB
:1001300004F09CFA00283CD0A0423AD208998919D0
:100140003A46C2190868002801D4009E13E00798B7
:100150008518009E1746B41A1D4A7A44284621463F
:1001600001F05EFF284604F081FA002824D0A04266
:1001700022D23A46C21903980699884212D00798AB
:1001800085181746B41A134A7A442846214601F0C6
:1001900047FF284604F06AFA00280DD0A0420BD28F
:1001A0003A46C2190599491C8BB202988342ACD3D6
:1001B00008E00798009901E00798314604F000FA3A
:1001C00000200490049809B0F0BDC0464E500000D5
:1001D00028450000FC4400000246836859180020AE
:1001E000994204D35368994201D891600120704725
:1001F00010B5426883689A420AD00468E45C0C70C7
:100200008168491C06D24468A14203D8816001E09C
:1002100000200870D01A411E884110BDB0B51546A7
:100220000A46044600686168A368C018C91A2B46CC
:10023000FFF734FF002807D0A900A268511803D2A5
:100240006268914200D8A160B0BDB0B51446436861
:1002500082689D1AA54206D8006882180846114691
:100260002A4604F0B6F9A54201D90020B0BD01200C
:10027000B0BDB0B51546044642688068121AAA425D
:1002800001D90020B0BD23681B180846194604F0A8
:10029000A0F9A26851190120914203D362689142EA
:1002A00000D8A160B0BDF0B59FB001920E460746E0
:1002B00015AD2821284604F083F902AC4C212046D4
:1002C00004F07EF928463946324600F017F85120EE
:1002D000012321462A4600F00DF900280CD102A97D
:1002E00009314022019804F070F915A8282104F082
:1002F0007BF900201FB0F0BD01F0FFF9F0B5A3B00D
:1003000017460E4605461AA82021039104F058F915
:1003100011A8212104F054F905AC204604F08CF911
:10032000A08584B2002C6CD1049505A802F0EEFAE9
:100330000F90022F62D33068364988425ED13A4628
:10034000314600260096212411AF20463B4602F09C
:100350004DFA039D02967E551AAE38462146324626
:100360002B4600F0DFF82D49794422AB30462A466F
:1003700000F0E4F8002817D12037029E22990029C6
:1003800014D4761C3E7011A821211AAC20252246D7
:100390002B4600F0C7F82249794422AB20462A4672
:1003A00000F0CCF80028E9D001F0A7F91AA81D4AFE
:1003B0007A4420210B4600F0C7F80028F4D15120E0
:1003C0001AA92022049B00F09BF80028ECD102F02F
:1003D00091FA05A9884202D10F9802F097FA1AA85B
:1003E000202104F001F911A8212104F0FDF805A84D
:1003F000808D0028D8D1002023B0F0BD064801F040
:100400007CF905A8002181850F9802F07FFA20462B
:1004100001F073F9550A008001B000001E4300008E
:10042000EE420000F6420000F0B59DB014460D46C5
:10043000064611AF2821384604F0C2F83846314646
:100440002A46FFF75BFF05AD284604F0F5F8A885BE
:1004500085B2002D36D105A802F058FA0F90482039
:100460001C901BA803901CA80290204620300190ED
:100470002020009011A818490322234600F02EF8EE
:1004800000281DD11C9E1B9D02F034FA05A988424C
:1004900002D10F9802F03AFA11A8282104F0A4F82A
:1004A00005A8808D00280BD10020002E05D46834CB
:1004B000267001210D40657000E0C0431DB0F0BD05
:1004C00001F01BF905A8002181850F9802F01EFAA2
:1004D000284601F012F9C0460106000003B40148A5
:1004E00041E000001500000003B401483BE00000BB
:1004F0001700000003B4014835E000001B000000B5
:1005000003B401482FE000001C00000003B40148C0
:1005100029E000001E00000003B4014823E00000B1
:100520003200000003B401481DE000003300000069
:1005300003B4014817E000004400000003B4014880
:1005400011E000004700000003B401480BE0000088
:100550004B00000003B4014805E000005800000013
:1005600003B40248FFE70249084700007100000099
:1005700001001200F0B581B00D460446FF26700060
:100580006168814201D9F62685E0A06821680818D3
:10059000286020212046FFF71FFE00287BD0A0689E
:1005A00021680818686720212046FFF715FE0028FB
:1005B0006ED0A06821680818A86720212046FFF7A0
:1005C0000BFE002866D0A06821680818E867202183
:1005D0002046FFF701FEFC2600285CD02F4634376A
:1005E000A06821680818F86420212046FFF7F4FD70
:1005F000002850D001262E71A06821680818A86034
:1006000020212046FFF7E8FD002847D029460C317D
:100610002046FFF7EDFD002842D0A06821680818A9
:100620002861297B2046FFF7D7FD00283AD03846BD
:10063000002707700090411C2046FFF7D9FD0028D5
:1006400032D000994878887000281AD03835204672
:100650002946FFF7CDFDA068216808186860297851
:100660002046FFF7B9FDA06821680818A86020217E
:100670002046FFF7B1FD00990C357F1C8878874232
:10068000E5D36068A168814205D00920C64302E035
:10069000FE2600E0FD2670B201B0F0BDFB26FAE7B1
:1006A000FA26F8E7F926F6E7F826F4E710B584B05D
:1006B00001785A2915D100230393029301934178BD
:1006C000012911DD02291CD003292DD0042947D18D
:1006D000C2788178002946D080241443802C45D0EC
:1006E00050E0372040024EE0002930D0012937D1B8
:1006F0008178002946D1C078002843D100F024FA3F
:1007000043E0817801293DD8C278002A3AD1826835
:10071000002A3CD00192039300790290481E814147
:1007200001A800F025FA30E0817802292AD8C278A1
:10073000022A27D28468002C29D0019403930079DF
:100740000290501E824101A801F0CEFE1DE081788A
:10075000002917D1C078002814D100F043FA14E022
:100760006D2000020FE0802A0CD180228468002CCA
:100770000DD00194039300790290D20901A801F0F1
:1007800015FF02E0034800F005FF04B010BD01486A
:10079000401CF8E7866A000070B582B016460C4629
:1007A000054603F00DFFB0680178002901D0202331
:1007B0000BE0421C2021491E0B0603D01378521C6B
:1007C000002BF8D0CBB2052B03D300900A4A7A4411
:1007D0000BE0017F0906427F12045118827F12024A
:1007E0008918C07F0B18054A7A442846214601F033
:1007F00017FC002002B070BD273F000066490000D2
:1008000070B582B016460C46054603F0D9FE337823
:10081000002B04D070680090064A7A4403E0064A30
:100820007A44064B7B442846214601F0F9FB002020
:1008300002B070BDAC3E0000AB3E0000203F0000A7
:1008400080B5024801680120884780BDC4020020AD
:1008500080B5024801680020884780BDC40200209E
:1008600070B582B01E481F4E305C3178014303D012
:10087000002030701C482DE01C4C3C2520462946A9
:1008800003F09EFE19204001315C5F20C00030184B
:1008900022462B46FFF728FC00281AD0154C862547
:1008A0002046294603F08CFE301D0090134A7A44FE
:1008B00040232046294601F0B3FB0F4810497944F4
:1008C00001601049794400242046224603F0C4F810
:1008D00003E0074800F05EFE0446204602B070BD0B
:1008E000F60200002405002007B0000000020020EE
:1008F00001B000003C020020C4020020433E000082
:100900000B3B0000343F0000F0B581B05348544E1B
:10091000305C02287CD13078012879D152495E4878
:100920007844086051484425294603F049FE412097
:10093000C40030590090594F7F4420264B48294627
:100940003A46334601F06CFB5548784446494860C6
:100950004748294603F034FE41480419A068009036
:10096000434829463A463E4F334601F059FB4D482D
:1009700078443D4A90603F4D28463146164603F084
:100980001FFE2369207B411C474A7A44284601F018
:1009900047FB46487844F060374D785D00283ED0EC
:1009A000092080013C18354820212246FFF728FF06
:1009B000334841212246FFF7EFFE3D48784430613D
:1009C000785D02282DD3932080003C182D482021EB
:1009D0002246FFF715FF2C4841212246FFF7DCFE97
:1009E000344878447061785D03281CD34B20C000E4
:1009F0003C18264820212246FFF702FF24484121C7
:100A00002246FFF7C9FE2C487844B06107200BE06E
:100A100000203070134800F0BDFD05461BE00420A7
:100A200002E0052000E006208100244A7A4472504A
:100A3000411C8900224A7A4472500025E943801CF7
:100A40008000315013481F497944016028463146DF
:100A50002A4603F001F8284601B0F0BDF602000076
:100A60002405002007B0000074040020C802002004
:100A70000C030020500300203E0200007003002001
:100A800090030020D1030020F1030020B8040020CF
:100A900032040020C4020020FC3E0000003E0000A2
:100AA000EA3E0000DC3E0000413D0000D03E000078
:100AB000C03E0000B23E0000A43E00008C3D00009D
:100AC000B23D00009D39000070B582B01648174E47
:100AD000305C01281FD1307801281CD1154C4425E9
:100AE0002046294603F06CFDA320800030180090BA
:100AF000124A7A4420232046294601F091FA0E48F2
:100B00000F49794401600F49794400242046224668
:100B100002F0A2FF05E000203070054800F03AFD29
:100B20000446204602B070BDF602000024050020F5
:100B300007B00000D8040020C4020020463C00009A
:100B4000E3380000E83D000080B584B007487844F1
:100B500001F04EFC0021039108210291019009202F
:100B6000010301A800F0D6FC04B080BDB63D000032
:100B7000F0B581B000910646C9208100164D284687
:100B800003F032FD15480021295429701920440131
:100B900029193046FFF72CFB002814D02A5D5F206E
:100BA000C0002F1830463946FFF738FB00280AD01E
:100BB000295D2A1D3846FFF776FB0098002807D0EC
:100BC000FFF74EFE02E0064800F0E4FC01B0F0BD85
:100BD00001F028FCFAE7C04624050020F6020000D8
:100BE000876A000080B584B068460021817041703A
:100BF0000222027003910321029101900920010356
:100C000001A800F087FC04B080BD70B582B0044636
:100C1000202500262846314601F06CFD01A8294612
:100C200022462B4601F07EFD68460670FF260236FE
:100C3000012E1ED00198B11E6D462A4601F098FD86
:100C4000761E28780028F3D0F82E12D3072006400D
:100C5000701E03280FD80198042101F0A1FD01980E
:100C60002022214601F078FD01A801F067FD01F086
:100C70004DFD02B070BDD520C00100F03EFD00006A
:100C8000F0B5FFB098B00B910546077B04690120D1
:100C900001020CA8FFF74CFC00281AD12E4614368E
:100CA0002020009601900CA8012122463B46FFF728
:100CB00033FC00280DD1202400272046394601F0BE
:100CC00019FD8FA821463246234601F02BFD00284E
:100CD00002D07FB018B0F0BD284634300A90FF240F
:100CE0008F98214601F050FD0028F2D1641EFA2CA5
:100CF000F6D28F982022314601F02EFD0028E8D14F
:100D00008FA801F01BFD01F001FD686F0690A86F30
:100D10000890E86F04900A98C06C079028680590C6
:100D200087A82024214603F04BFC7FA8214603F02E
:100D300047FC77A8214603F043FC0CA8039021460A
:100D400003F03EFC8FAC1F21204603F039FC2879CC
:100D500022460994E077039C2046214600F084F85F
:100D6000AA682046214600F07FF8204621463246F8
:100D70000A9E00F079F83078099AD077204621460B
:100D800000F072F87078099AD0772046214600F07A
:100D90006BF8B078099AD0772046214600F064F8C5
:100DA000B07800280DD02C46403422680CA80146AB
:100DB00000F05AF80C347F1CB0788742F5D3801CC1
:100DC00000E002202979890008188FAAD07777AF30
:100DD0000CA9384600F048F87FAD28461A30214962
:100DE0007944062203F0F1FB87AE304631462A46AD
:100DF00000F03AF830463146049A00F035F83046B3
:100E00003146059A00F030F82021284603F0D8FB3F
:100E1000304631462A4600F027F8304631463A46F9
:100E200000F022F830463146069A00F01DF83046B0
:100E30003146079A00F018F830463146089A00F01B
:100E400013F81F21284603F0BBFB0820E8770B9C12
:100E5000204631462A4600F007F82046FFF7D5FE27
:100E6000002036E7FC3C0000F0B593B016460C4677
:100E7000019002AD134979444122284603F0A5FBB5
:100E80000127284621463A463B4600F01DF8611CE2
:100E90001F2400232846224600F016F80323284684
:100EA00031463A4600F010F8711C022328462246CB
:100EB00000F00AF8691C2022019803F086FB13B0A9
:100EC000F0BDC0466E3C0000F0B59DB0002A40D099
:100ED00015460E460978002909D101210C468D429C
:100EE00003D0325D611C002AF8D0AC4231D20190AF
:100EF0004122534319487844C1180BA8029003F0CB
:100F000064FB03AC20272046394603F059FB601BE5
:100F1000203031462A4603F058FB512002992246E0
:100F20003B46FFF7F3FA002815D151201CA901F028
:100F300043FC002801990ED151200BAB0A46FFF764
:100F4000D3FA002807D151201CA901F035FC002854
:100F500001D11DB0F0BD00F0D0FBC0462F3C000019
:100F600080B500F049FD80BDF0B581B0F54D287821
:100F70000D2805DC052800D1AEE00D280DD057E086
:100F80000E2800D102E1152852D1EF4880790128BE
:100F900003D1A879000700D465E2EC4C0027676014
:100FA00001202070204601F04BFC042001F0BCFC25
:100FB0006060002800D14DE2692800D1CAE197287D
:100FC00000D147E2C425E24C6059002800D139E243
:100FD000C226A05BC821615C80B2884200D331E2A6
:100FE00001F06EFC002800D02CE201F0F1FBAA28F1
:100FF00004D101F017FCAA2800D023E26159A25BBA
:1010000050010818D023E358002B04D0984700283B
:1010100007D0A25B6159012801D15001081800F0E6
:10102000EBFCA05B401CA05361590029D2D109E21E
:10103000C64C0027676001202070204601F000FCAC
:10104000042001F071FC6060692800D0F2E000F03B
:1010500079FC00F079FCC225BD4E7753042001F0E5
:1010600063FC6060002800D1F4E1972800D1F1E131
:10107000C4243059002800D1ECE1705BC821715CB8
:1010800080B2884200D3E5E101F01AFC002800D0CC
:10109000E0E101F09DFBAA2804D101F0C3FBAA28DE
:1010A00000D0D7E13159725B50010818D023F358B2
:1010B000002B04D09847002807D0725B31590128D3
:1010C00001D15001081800F097FC705B401C705370
:1010D00031590029D2D1BDE1E44C002767600120DD
:1010E0002070204601F0ACFB042001F01DFC606084
:1010F000002800D1AEE1972800D1ABE1692800D0EB
:1011000067E100F01FFC00F01FFCC225D84E7753AA
:10111000042001F009FC6060002800D19AE19728C2
:1011200000D197E1C4243059002800D192E1705BCE
:10113000C821715C80B2884200D38BE101F0C0FB12
:10114000002800D086E101F043FBAA2804D101F079
:1011500069FBAA2800D07DE13159725B5001081863
:10116000D023F358002B04D09847002807D0725B97
:101170003159012801D15001081800F03DFC705B85
:10118000401C705331590029D2D163E1B74D00267C
:101190006E6001202870284601F052FB042001F007
:1011A000C3FB686069287BD100F0CCFB00F0CCFB6E
:1011B000C224AF4E00203053042001F0B5FB68601C
:1011C000002800D146E1972800D143E1C425705999
:1011D000002800D13EE1305BC821715C80B28842BA
:1011E00000D337E101F06CFB002800D032E101F0C0
:1011F000EFFAAA2804D101F015FBAA2800D029E1B2
:101200007159325B50010818D023F358002B04D0D9
:101210009847002807D0325B7159012801D150014D
:10122000081800F0E9FB305B401C3053715900296D
:10123000D2D10FE1C4258E4C6059002800D101E1C4
:10124000C226A05BC821615C80B2884200D3F9E06D
:1012500001F036FB002800D0F4E001F0B9FAAA282A
:1012600004D101F0DFFAAA2800D0EBE06159A25BBB
:1012700050010818D023E358002B04D098470028C9
:1012800007D0A25B6159012801D15001081800F074
:10129000B3FBA05B401CA05361590029D2D1D1E01F
:1012A0000446DC20724D295800290FD00A46643AC2
:1012B00000D232462A50642908D8D821695800291A
:1012C00004D0E022AA582A5000208847002C00D1E0
:1012D000C0E0972C00D1BDE0C424285900282BD0B1
:1012E000C226A85BC821695C80B2884224D201F082
:1012F000E7FA002820D101F06BFAAA2803D101F007
:1013000091FAAA2818D12959AA5B50010818D023AC
:10131000EB58002B04D09847002807D0AA5B295926
:10132000012801D15001081800F066FBA85B401CA1
:10133000A85329590029D5D1C820285CC221695A4F
:1013400084E0C04650090020DC0A0020D0090020BB
:101350004808002000F0F6FA00F0F6FAC225444EE4
:101360007753042001F0E0FA6060002872D09728DB
:1013700070D0C424305900286CD0705BC821715CD7
:1013800080B2884266D201F09BFA002862D101F057
:101390001FFAAA2803D101F045FAAA285AD13159D7
:1013A000725B50010818D023F358002B04D09847E3
:1013B000002807D0725B3159012801D1500108186B
:1013C00000F01AFB705B401C705331590029D5D1D5
:1013D00040E0D420264C2058002803D0E978490862
:1013E00000F052FBC425605900282BD0C226A05B18
:1013F000C821615C80B2884224D201F061FA0028E1
:1014000020D101F0E5F9AA2803D101F00BFAAA28AE
:1014100018D16159A25B50010818D023E358002B62
:1014200004D09847002807D0A25B6159012801D158
:101430005001081800F0E0FAA05B401CA05361596D
:101440000029D5D1C820205CC221615A814201D334
:1014500001F036FA01F034FA002801D100F054F915
:10146000012001B0F0BD052000F047F9D0090020AF
:1014700048080020B0B50546072028400024012870
:1014800012D0022812D1002907D00A4801F00CFA24
:10149000280609D501F022F906E04120810005481F
:1014A000002201F019FA04462046B0BD022000F0E7
:1014B00024F9C046D80900200248002101700248E2
:1014C00001607047200500201C05002010B50F4C5E
:1014D00021780022D04302290BD001290BD000290A
:1014E00008D1012020700A480188002000F022FB6A
:1014F00010BD227010BD0220207005480188102008
:1015000000F018FB0121217010BDC046200500200D
:101510001C050020F0B581B00D460027002816D02C
:1015200006464068B168411A0B2004038120400040
:1015300081420DD8821C14493046FEF786FE0028F1
:10154000394606D07068B168411A2C4601E02C4635
:1015500039460E4D29600C48224602F071FF28687A
:10156000811C29600A4C2278012A384607D0022AB9
:1015700007D189B2202000F0DDFA00212960277010
:1015800000E0F84301B0F0BDD80900201C050020A0
:101590002005002080B501460020FFF7BBFF80BD7D
:1015A00070B590B0FFF788FFC92081002A4803F08A
:1015B0001BF82A4C2A4D01AE304603F03DF8B085A9
:1015C00086B2002E0BD0052E3CD001A800218185CB
:1015D0000B9801F09BF93046FFF7DCFF17E001A8FC
:1015E00001F094F90B9000200D900E900F90FFF7F2
:1015F0006DFF00281FD402460DA8214600F0D6FE3C
:10160000002811D00DA8FFF751F8002813D401F0DD
:1016100071F901A9884202D10B9801F077F901A86C
:10162000808D0028C7D00BE02846FFF7B3FF0B984A
:1016300001F06CF9BFE70B9801F068F910B070BDCC
:1016400000F05BF801A8002181850B9801F05EF99C
:10165000052000F052F8C04624050020D8090020DB
:10166000876A000010B58CB06C46204602F0E4FF9B
:10167000A085000406D1684601F048F90A90FF20D1
:1016800001F004F901F036F96946884202D10A985E
:1016900001F03CF96846808D002801D10CB010BDE6
:1016A00000F02BF880B5034979440020024602F08F
:1016B000D3F980BDC436000080B5FF2001F0E6F804
:1016C00080BD000080B506480078002801D102F0F6
:1016D000EDFD044979440020024602F0BDF980BDC9
:1016E000480800203836000080B5FFF7EBFF80BDCA
:1016F00080B5002001F00AF980BD044601F0FAF837
:10170000214602F0A5FF000080B50348784405217A
:1017100001F0CAF880BDC0467036000010B516480A
:10172000C078032807DC01280DD002281FD11348F8
:1017300001F0B0FB10BD042816D0082817D10F48BF
:1017400001F0A6FB10BD0D4C0121204601F09BFBD2
:10175000204601F079FB0A488179002908D10C3034
:10176000122102F02DFF10BD044801F08FFB10BDC7
:101770000520FFF7C2FFC04650090020600B002083
:10178000DC0A00207F210140052903D802484018C7
:10179000007B704700207047DC0A002080B51548A8
:1017A000C2787F2111400279042A14D0022A06D07F
:1017B000012A1DD1811D114801F056FA80BD05296D
:1017C00016D84A000C4B9A1800235382821D0B48EE
:1017D00001F0CEFA80BD05290AD8074A521843798C
:1017E0007A2B00D37A231373821D044801F06AFA1E
:1017F00080BDC04650090020DC0A0020600B00209C
:1018000070B5FF2A1DD815460E4604460D48427194
:10181000202101715021017080212143C170D11C10
:101820008170090A4170062101F03EF830462946D0
:1018300001F03AF86006000E034908187D210901FD
:10184000418270BD50090020DC0A002080B50A46A4
:10185000014682201423FFF7D3FF80BD80B50A46DE
:10186000014683201423FFF7CBFF80BD10B5264827
:10187000817842781202521801780F2908DC0E296B
:101880001CD00F292DD1012A32D1FFF747FF33E0B9
:1018900010292BD0162924D11C490B780124002BA8
:1018A0002BD10A230B7006238B717D2A00D37D2256
:1018B0004A80C11C164802F088FE1EE01348816869
:1018C000643181601C21425A002A07D0642A1346E1
:1018D00000D86423643B4352642A10D9891E10291E
:1018E000F1D10220FFF740FB044606E0032A01D2B3
:1018F000002402E0FFF752FF0124204610BD002122
:1019000001700520FFF7F9FE50090020DC0A0020D5
:10191000D809002080B500F0D3FE0D2802D3FF20A7
:1019200000F0B4FF0548202102F04AFE00F0F2FA70
:10193000034800210160416080BDC046DC0A0020F0
:10194000FC0A00207047000002480021016041604D
:101950007047C046FC0A0020F0B587B0054608462F
:1019600000F046FD002843D00446006900283FD01F
:10197000284600F03DFD01466D461C22284602F037
:1019800024FE2668EE8067682F8100F099FF00280A
:101990002ED1B9B2B2B2174D65202870A06842436B
:1019A0004A435107D608002900D0761C04278740F7
:1019B000B8191D30A870000A68700321284600F08D
:1019C00073FF68461C2100F06FFFA068287001219A
:1019D000284600F069FFE06800F00AFDB9B200F0A7
:1019E00063FFB5B2206900F003FD294600F05CFFFB
:1019F00007B0F0BD5009002070B500F0F9FC0446B6
:101A0000C06900F0F5FC054621787F2008400AD027
:101A1000002D09D0052802D1A07E00282DD000F08D
:101A20004FFF002811D070BD00F04AFF0028FAD106
:101A300014481C2585700021417065210170032127
:101A400000F032FF2046294614E0284602F00EFE40
:101A500006460C486521017031461C318170090A27
:101A60004170032100F020FF1C21204600F01CFFE4
:101A7000B1B2284600F018FF70BD20462946FFF796
:101A80006BFF70BD5009002070B5002825D00B46B3
:101A90000246124C03CC083C984201D1491C6160BB
:101AA0001843002B02D02060054605E00025256084
:101AB00065600B4E761C30439D4201D0002363606D
:101AC000082909D3074C4C430123074DAC4201D2EE
:101AD0009C072043DB079843904770BDFC0A002019
:101AE000FFFFFF7FABAAAAAA56555555F0B581B0A6
:101AF0000F4E01243470B11CFF2702377A1C204698
:101B000000F0B8FE054670703A1A8719F91C0220D9
:101B100000F0B0FEB8702D18AE19F47000F09EFE03
:101B20000021B171902171713071E81D01B0F0BDDB
:101B3000D8090020F0B585B00246400707D0164608
:101B4000F0B289B2FFF796FC80B205B0F0BD844DCB
:101B5000854878440090814C1646102717400804A9
:101B6000049677D0002F75D10291039200F0A8FE61
:101B7000002808D080210022204600F0ADFE012080
:101B800000F0FCF8F2E7A8682978092908DD0A299D
:101B9000029A0ED001900B2922D17548784404E0B6
:101BA000019007290098029A17D191B200F01EFA0D
:101BB0001DE0FF20063096B2864200D3CBE0A27033
:101BC00053202070100A60700321204600F06CFE44
:101BD0006448314600F068FE27E0002900D1B7E0F4
:101BE000F0B291B2FFF746FC002800D0B0E02878B0
:101BF00000281AD07D20000101990E185D48784414
:101C0000052100F051FE80210022204600F064FEF4
:101C1000A868B04200D398E0FFF728FE00F050FE1D
:101C20000028F0D128780028E8D10020A871287079
:101C300068800499890687D44C487844052100F0CF
:101C400033FE049840B20028039A03D5052000F023
:101C50001DFE039A002F434F04D1500672D400207A
:101C6000A87128700020688043487844052100F05E
:101C70001BFE802100262046324600F02DFE032860
:101C80000FD3A178627812025118C91C814208D181
:101C9000FFF7ECFD28780028E6D068880028E3D01C
:101CA00001E02E70DEE73978B02900D04CE7797872
:101CB000A72910D002291DD0012900D044E7B97806
:101CC000FA780A4300D03FE70720049E0640FFF75A
:101CD0000DFF014631E0B978FA780A4300D033E7C6
:101CE00020494E70902008707F20C043049E064318
:101CF000022122E0B978FA780A4300D024E700F004
:101D000091FDAA2810D10120164F3870B81C40212F
:101D100000F07CFD7870811C89B290227A54C11C3D
:101D200089B27E54011D05E085200E494870692066
:101D3000087002210720049E0640F2B2700700D10D
:101D40000BE7FDE66888401FFEE60520FFF7D5FC9F
:101D50000420FFF7D2FC0220FFF7CFFC500900203F
:101D6000DC0A0020D8090020F7FCFFFF4231000008
:101D7000BDFCFFFF7E31000012310000B0B504460B
:101D80000F487844052100F08FFD0B4D8021002283
:101D9000284600F0A1FD2878152808D801218140A7
:101DA0000648014203D0002C01D00020B0BDFFF74F
:101DB0005DFD411E8841B0BD50090020207020000B
:101DC000FA2F0000F0B581B0009205464A4CA142BE
:101DD0000FD00F46484C40262046314602F0F0FB1B
:101DE000009A402A00D332462046394602F0F1FBE1
:101DF000414CA07801280ADC00282ED001286AD1A5
:101E0000E01C0421FEF7A6FB4021204630E002281A
:101E10002CD005285FD12079E17809020818374EC7
:101E20003168002781425DD13068002823D00098B6
:101E3000401F82B232490B68934200D208682246A2
:101E400081B23B2900D33B2085B22E4C2068511D26
:101E50002A4602F0BEFB246833E00027A7716771B1
:101E60002771E77040212046A8473BE022484021E7
:101E7000A847002736E0A0796179090209182248AD
:101E8000016001684122920091422BD800681C49F0
:101E9000086060782278120210181C4A10600A68E4
:101EA0000098C01F83B29A4200D2086881B23929D3
:101EB00000D3392085B2E11D154C20462A4602F098
:101EC00084FB0F480168491B016060190D490860D7
:101ED0003068401C30600A480068002801D00127A3
:101EE00007E0022705480021016006480160044818
:101EF0000160384601B0F0BD040B0020440B002007
:101F00004C0B0020500B0020480B0020540B0020ED
:101F1000D8090020034800210160034801600348FC
:101F200001607047440B0020500B00204C0B002038
:101F3000F0B581B0274A1568274B1968002921D0D0
:101F4000002D1FD00090274C671D3B263846314698
:101F500002F036FB204A0520A07023480168090AD8
:101F60002170006860701D490868000AE070086808
:101F700020710968106800290CD03B2800D8166829
:101F8000384612E0154800210160116014480170C4
:101F900019601DE0392801D9392600E0166810685B
:101FA000000A60711068A071E01D2946324602F0F7
:101FB00010FB094B009A07491868801B1860A81984
:101FC000086006490868401C0860064840219047A0
:101FD00001B0F0BD500B00204C0B0020440B002042
:101FE000DC0A0020040B0020540B002080B50029DF
:101FF0000BD0064A00231360054A1160054A064BC0
:102000001360064A1160FFF793FF80BD440B002068
:102010004C0B0020500B0020D8090020480B00205A
:1020200081B0F0B590B015930990002800D1ADE1D2
:102030000D46022900D2A9E114460998294602F06A
:10204000BFFA15A80B902078002800D19EE1691EE8
:102050000891012106910026089D002805D0252819
:1020600003D0A0194078761CF7E7AE4200D32E4685
:1020700009982146324602F0ACFAAD1B089500D112
:1020800084E1099880190990A05DA419252800D041
:1020900077E1641C00202023074607902178641C08
:1020A00000222D290DDC1046F8D0252900D1E1E0D1
:1020B0002A2900D064E12078732800D061E1022051
:1020C00028E047292BDC0A46303A0A2A11D20A971F
:1020D0001F4630220B465340079D2B4300D03A4603
:1020E0000A23079D6B4359183039079113460A9FFD
:1020F000D4E72E2900D043E120782A2800D040E1FF
:102100006078482804D0732802D0682800D03BE1CA
:10211000641C01200B990A1D0B920F68BEE767290A
:1021200009DC62290FDC482900D1A5E0582900D03C
:1021300026E1012020E0722917DC682900D19FE008
:10214000702918D01CE1632900D19EE0642900D0D9
:1021500016E10B98011D0B910068C11742184A4007
:10216000C10F002002900A270DE0732900D199E0E9
:10217000782900D004E1002002900B98011D0B91FA
:10218000026800211027079E0A9297420393049148
:1021900001D9012511E0721E384605461646002178
:1021A00038462A460B4602F0DDF94A1E91410A9A4A
:1021B000904202D8721E0029EFD00796002604999B
:1021C0000029059401D1019101E0F0430190039BA6
:1021D0000798401A0029069C09D0D9B20026302958
:1021E000344604D10CA92D220A700126069C811EBA
:1021F0000D290BD8411E09D00CA88019DAB202F0C3
:10220000ECF90798301801994018461E002C03D1AC
:102210000CA82D218155761C002D1AD03C46029821
:10222000002802D0604F7F4401E05E4F7F440A984F
:10223000294602F00BF9214602F08EF9785C0CA9D0
:1022400088552846214602F001F9761CAC42054625
:10225000EDD9089CA64200D326460CA9099832461F
:1022600002F0B7F9A41B0894059C00D18EE00998F0
:10227000801984E025200CE02546484A7A4402E093
:102280002546474A7A44069B10E00B98011D0B91A6
:102290000068099908700898401E089076D009983F
:1022A000401C6CE025463C4A7A4400230B990C1DE7
:1022B0000B94C0B2096802283CD001282C460AD0F1
:1022C0000028374607D1254600200C5C401C002C16
:1022D000FBD1471E2C46002B20D0002F089D4FD04D
:1022E0007800281A0A90022D50D328460B782546EC
:1022F0001C09145D099E34700F241C40135D73701B
:10230000022843D02C460546851E099B9B1C099339
:10231000491C7F1EE7D10A98089031E0089DAF4222
:102320003E4601D32E462F460998324602F051F917
:10233000AD1B0DE0087800282C4621D1089DAF4246
:1023400000D32F4620220998394602F046F9ED1BAA
:1023500008951BD00998C01909900798B0420FD969
:10236000851B089EB54200D3354620220998294690
:1023700002F033F9761B089608D0099840190990A5
:102380002078002802D066E62A20FAE7002010B064
:10239000F0BC02BC01B00847D92A0000152B000090
:1023A000FD2A0000552B00006B2B000010B5002308
:1023B000052A13D30C79521FA2420FD10A7802705A
:1023C0004A7842708A788270CA78C2700A7902713B
:1023D0000A79002A00D04A1D82600123184610BDE8
:1023E0007A460249C91C891A401A7047E123D0C0B5
:1023F00080B50449884204D30349884201D2FFF7DB
:10240000EFFF80BD0000D0C0C053D0C0425C1206B8
:102410004018417809048918827812028918C07816
:102420000818704710B594B003AC042060704120C8
:102430002070A01C0849091D402202F0C6F80020A7
:102440000290422001900094092001036846FFF7A2
:1024500061F814B010BDC04624050020F0B597B057
:10246000044606AF781C402102F0AAF841200190F2
:1024700038702320205C212801D0042100E00521B0
:102480000294203400916118202521282E4600D086
:102490000646B81B2130324602F097F80098801C9F
:1024A0008119C8B20019401E0078212800D1491CAA
:1024B000C9B26118212800D0054638464130401B7A
:1024C0002A4602F082F869200299085C0199785442
:1024D000002005904220049003970920010303A8DF
:1024E000FFF718F817B0F0BDF0B581B00446002929
:1024F00016D02948294F385C012832D11646A3202E
:1025000080003D18626820462946FDF7B2FE00288B
:1025100025D001203870002E28D0FEF7D5FA23E010
:10252000C92081001D4D284602F05EF81A4801219D
:1025300029540020287019204601A9192046FDF7CA
:1025400057FE00280BD0AA5D5F20C0002918204646
:10255000FDF764FE002802D00920000302E01148C4
:1025600000E00F48FFF716F801B0F0BD0220387008
:1025700019204001395C5F20C00038182A46FDF759
:1025800053FF002803D42846FFF768FFECE700203C
:1025900038700548E6E7C046F60200002405002032
:1025A00007B00000876A000008B0000070B584B072
:1025B000044600291CD03748374D285C022836D104
:1025C000134681208600A85962681118002B32D06A
:1025D000FF235B00994256D82818011D2046FDF7BD
:1025E00048FE00284FD0A85961684018A8511BE048
:1025F000C9208100284D284601F0F6FF2548022118
:1026000029540020287019204601A9192046FDF7F9
:10261000EFFD00280DD0AA5D5F20C00029182046DC
:10262000FDF7FCFD002804D0092000032CE01B4826
:102630002AE01D4828E0FF235B00994223D8281890
:10264000011D2046FDF715FE00281CD0A859616821
:102650004018A851002103910290281D01904120AB
:10266000C0002C1801A82146FDF784FF01280FD1D6
:1026700001202870A320800029182046FEF700FBC7
:10268000FEF742F902E00748FEF784FF04B070BD90
:102690000348F9E7F60200002405002007B0000017
:1026A00005B0000004B00000876A000001DF0029C7
:1026B00000D170470846FFF720F801DF704700009F
:1026C00080B584B0002002900190034801A9FFF773
:1026D000EDFF04B080BDC0463801006080B582B017
:1026E0000020019002486946FFF7E0FF02B080BD7C
:1026F0003C02006080B584B00191009002486946B8
:10270000FFF7DBFF04B080BDF112016080B582B03D
:102710000020019002486946FFF7CFFF02B080BD5C
:1027200017B6006080B586B000AF0FC70248694693
:10273000FFF7C3FF06B080BDCD14016080B584B043
:10274000002102910190034801A9FFF7B6FF04B0F0
:1027500080BDC04661BC006080B586B001AB07C3D8
:10276000024801A9FFF7A9FF06B080BD5AC3006067
:1027700080B584B000AB07C302486946FFF79DFFF0
:1027800004B080BD40CB006080B584B00191009062
:1027900002486946FFF791FF04B080BDB0CD0060EC
:1027A00080B584B00191009002486946FFF785FF2B
:1027B00004B080BD541C016080B584B001910090CC
:1027C00002486946FFF779FF04B080BDB42F01606D
:1027D00080B582B00020019003486946FFF766FF8C
:1027E000C0B202B080BDC0464F9F006010B588B037
:1027F0000A9C05940493039202910190024801A956
:10280000FFF754FF08B010BDBA53006080B584B024
:102810000191009002486946FFF748FF04B080BD6F
:10282000FCA8006080B582B0002001900348694692
:10283000FFF73CFFC0B202B080BDC0463CA00060C4
:1028400080B584B0002102910190034801A9FFF7EF
:102850002DFF04B080BDC0465864006080B582B0D2
:102860000020019002486946FFF720FF02B080BDBA
:102870006E6A006080B586B001AB07C3024801A94B
:10288000FFF714FF06B080BDD474006080B584B03B
:10289000002102910190034801A9FFF707FF04B04E
:1028A00080BDC046BE9A006080B584B001910090A2
:1028B00002486946FFF7FAFE04B080BD81830060DC
:1028C00080B582B00020019002486946FFF7EEFE15
:1028D00002B080BDBB84006080B586B001AB07C389
:1028E000034801A9FFF7E2FE80B206B080BDC046F2
:1028F000E485006080B582B00020019002486946FE
:10290000FFF7D4FE02B080BDB187006080B584B00F
:10291000002102910190034801A9FFF7C7FE04B00E
:1029200080BDC046060B016080B584B000210291D5
:102930000190034801A9FFF7B9FEC0B204B080BD01
:102940008B9C0060024900200860024908607047C3
:102950005C0B0020580B002010B507480221C17005
:1029600001218170002444704F2101700421FFF780
:102970009BFF204610BDC0465009002070B582B0B4
:102980006D4600242C710320E8700220A8706C7042
:102990004F262E7005212846FFF786FF0120E8709C
:1029A000A8706C702E7004212846FFF77DFF20462A
:1029B00002B070BD10B582B001A80221C170012122
:1029C0008170002444704F2101700421FFF76CFFD7
:1029D000204602B010BD000070B582B0144800243B
:1029E0000460144804606D46AC716971012028715F
:1029F0000421E9700526AE706C704F242C70012AFA
:102A000005DC002A0AD0012A0AD1084606E0022A7B
:102A100003D0032A04D1022000E003206946887114
:102A20006846C3710821FFF73FFF002002B070BD68
:102A3000580B00205C0B0020B0B582B00D466846F4
:102A40000024447140210171C570032181704470DC
:102A5000502101700621FFF727FF280601D50748FE
:102A600000E0054801687F2215400122AA400A4380
:102A70000260204602B0B0BD5C0B0020580B002065
:102A8000B0B582B00D4668460024447180210171C2
:102A9000C570032181704470502101700621FFF739
:102AA00003FF280601D5074800E0054801687F229A
:102AB00015400122AA4091430160204602B0B0BDFA
:102AC0005C0B0020580B0020080601D5054800E0EB
:102AD000034802787F200140012088401040704761
:102AE0005C0B0020580B002010B582B068460171C5
:102AF0000321C17002218170002444704F210170B4
:102B00000521FFF7D1FE204602B010BDB0B582B05E
:102B10001C4615466846437120220271C17050213F
:102B20000170D91C8170090A41700621FFF7BCFEB3
:102B300028462146FFF7B8FE002002B0B0BD10B510
:102B400082B06846427130220271C17003218170E7
:102B500000244470502101700621FFF7A5FE204695
:102B600002B010BDF0B581B0002814D015460E4655
:102B700004460746DC3745208100204601F020FD51
:102B8000002E00D07E612570012038702046FFF7AE
:102B9000D9FE002000E0022001B0F0BDB0B504462F
:102BA000DC20012121541720C543601943218900ED
:102BB0004058002806D04068FFF71AFC02462179E9
:102BC000204690470835F0D12046FFF7F3FE204617
:102BD000FFF7C2FE0020B0BD002A08D00346002047
:102BE000022B03D8DB00C918F423CA507047022017
:102BF000704780B5FFF7C2FE002080BDF0B581B000
:102C00000C4605460026F4272846314600F05FF9B9
:102C1000002807D0E8590068FFF7EAFB024628467B
:102C2000214690470837761C032EEDD1002001B0D5
:102C3000F0BDF0B581B00C4605460026F4272846C5
:102C4000314600F044F9002807D0E8594068FFF702
:102C5000CFFB02462846214690470837761C032EB4
:102C6000EDD1002001B0F0BD70B504460646D43663
:102C700035461435284600F061FBD420012121504F
:102C8000EE20205A7060317D1F200840022808D0B5
:102C900001280BD000280ED12046294600F022F949
:102CA0000EE02046294600F0C6FA09E020462946F3
:102CB00000F09DFA04E0802001402046FFF7BCFEB2
:102CC000002070BDF0B583B0029204460646DC36A3
:102CD000019100291AD00027F4252046394600F03A
:102CE000F6F800280DD060598069002809D03178A5
:102CF000032906D1FFF77CFB034620460199029A7F
:102D0000984708357F1C032FE7D12EE020468030FE
:102D1000416D032929D10068E16F81420AD9091A5E
:102D2000E167814200D301468AB22046029900F051
:102D30001FFD1AE00025F4272046294600F0C7F8B9
:102D400000280BD0E0590069002807D0317803290A
:102D500004D1FFF74DFB01462046884708376D1C1C
:102D6000032DE9D1204600F00AFD002003B0F0BD9C
:102D7000F0B581B004460746D437009100291AD037
:102D80003D460026F4272046314600F0A0F80028F2
:102D90000CD0E0594069002808D0297A032905D1D0
:102DA000FFF726FB02462046009990470837761C1D
:102DB000032EE8D145E0386802283CD1E069256A55
:102DC000A84209D9401BE061F96B4919F96382B245
:102DD000204600F0BFFC2EE0A6693046294601F0EF
:102DE000BBFBAE420CD300290AD17868864207D2D9
:102DF0000025204629462A4600F0ACFC7D601AE0FA
:102E00000025F4262046294600F061F800280BD062
:102E1000A059C068002807D0397A032904D1FFF7E8
:102E2000E7FA01462046884708366D1C032DE9D194
:102E3000204600F0B0FC387B012802D13946002042
:102E40003873002001B0F0BD70B50446DC200121CC
:102E5000215480204021215021620025F426204663
:102E6000294600F034F8002807D0A0594068FFF741
:102E7000BFFA024621792046904708366D1C032D83
:102E8000EDD1002070BD0174002070470020704714
:102E90000020704770B50446DC20205C032814D164
:102EA0000025F4262046294600F011F8002808D015
:102EB000A059C069002804D0FFF79AFA01462046BD
:102EC000884708366D1C032DECD1002070BD022907
:102ED00006D8C9004018F4214058411E8841704767
:102EE0000020704780B54A78042A08DD072A0FDCE5
:102EF000052A14D0062A1BD100F021F81DE0002A73
:102F000010D0012A17D0032A12D100F02AF914E0B8
:102F1000082A0AD0092A0BD100F0B1F80DE000F020
:102F20008BF80AE000F0F9F807E000F0DFF804E0C1
:102F300000F06EFB01E000F031F9002080BDB0B57B
:102F400082B00D46044601A8002101802046F030E1
:102F50006B881A0A052A11DC012A1AD0022A21D00C
:102F6000032A32D1D9B2022934DC002958D00129F0
:102F70005CD0022929D10068C0680CE0062A19D06B
:102F8000072A1FD00F2A20D10068C069002802D16B
:102F90001BE000680068FFF72BFA0246207C01A9BD
:102FA00090472BE04068002829D0217C00291FD0C1
:102FB000C06A1EE0217C002907D14068002804D0A7
:102FC000406B16E0217C00290DD02046294600F0F8
:102FD0001FFB23E0032926D004292AD00529F4D198
:102FE00000688069D7E740680028EED0006B00E0F9
:102FF000806AFFF7FDF9014601A88847014601A84C
:103000000288002A0AD0E888002807D0824200D32C
:10301000024601A80280204600F086FB02B0B0BD47
:1030200000684068B7E700680069B4E70068806836
:10303000B1E700684069AEE770B5044688880028AB
:1030400007D1C888002804D12646DC36307803280A
:1030500003D1204600F0DCFA70BD88787F2505405A
:10306000B57020462946FFF73FFD204600F087FB5C
:10307000002D01D0022000E00120307070BD70B53D
:103080000D4604468E78022E1CD2DC20215C2046A0
:10309000DC30032906D0022914D1002E22D00321CE
:1030A000017008E0002E12D06068B0421AD0C1B2A0
:1030B0002046FFF7BEFD666020463146FFF79EFDC5
:1030C00002280FD12046294600F0A2FA70BD002147
:1030D00061600221017020463146FFF7AAFD2046BB
:1030E00000F04DFB204600F04AFB70BD80B5CA8859
:1030F000012A0AD1DC22825C032A09D0022A04D1E7
:10310000002181600146083103E000F081FA80BDB2
:10311000011D012200F008FB80BDB0B50446DC2093
:10312000205CFE220240022A0FD12046DC30012121
:10313000E16025460C35806800280AD0204600F062
:103140002AFBE1680220084304E0204600F060FA10
:10315000B0BD0320E06002222046294600F0E4FAD8
:10316000B0BDB0B504464888012816D10D46E4200C
:1031700001212150287902280CD8C0002018F42100
:103180004058002806D08068FFF732F902462046F2
:1031900029469047204600F0F2FAB0BDB0B50D4682
:1031A0000446DC20205CFE21014002291AD16888F7
:1031B00001281BD12046DC300021816028790228BB
:1031C0000CD8C0002018F4214058002806D0806890
:1031D000FFF70EF90246204629469047204600F0A8
:1031E000CEFAB0BD2046294600F012FAB0BDB0B507
:1031F0000D460446DC20205C032816D128790228DD
:1032000013D8C0002018F421405800280DD0806841
:10321000FFF7EEF80246204629469047E888002846
:1032200007D1204600F0ABFA03E02046294600F023
:10323000EFF90020B0BDB0B582B00D460446097963
:103240007F200840072804D32046294600F0E0F9F3
:1032500071E0022912D82A7860231340202B0DD167
:10326000CA00A218F423D258002A07D09068FFF7AA
:10327000BFF802462046294690475CE06A78002A5B
:103280000AD0012A11D0032A55D1DC20205C032862
:103290001AD002280FD0D7E7DC22A25C032A2ED056
:1032A000022AD1D100280BD145E0DC22A25C032AFE
:1032B00031D0022AC8D180200A460243802A3AD05F
:1032C0002046FFF7B9FB36E06888002807D1802048
:1032D0000843802803D02046FFF7AEFB2979022956
:1032E00026D8C8002018F4214058002820D0806833
:1032F000FFF77EF8024620462946904718E0204610
:10330000FFF7E2FB411E884101A908800222204606
:1033100000F00AFA0FE06A88002A0CD1002807D0D2
:103320002046FFF7ADFB2879022801D8C000D9E775
:10333000204600F024FA002002B0B0BD0A780270E6
:103340004A7842708A78CB781B029A1842800A79B0
:103350004B791B029A1882808A79C97909028918E7
:10336000C180704710B504468021FFF765FB00213E
:103370002046FFF761FB10BDF0B583B00E46054651
:1033800002A80024048001A8047009786020084085
:1033900010D0202837D1707801460A39022932D35B
:1033A00002281BD0032819D02846314600F030F9F6
:1033B000022428E070780B2813D00A280ED00628A3
:1033C00021D1F078002421280FD02228224621463E
:1033D00016D102AF384600F049F80AE001A90122EF
:1033E0000EE0284600F0CBF90DE002AF384600F0C1
:1033F00029F801463A88F088824200D302463A8092
:10340000284600F091F9204603B0F0BDF0B581B038
:10341000044682210326402532462B46FFF7DCFA7C
:1034200002272046394632462B46FFF7D5FA20467A
:1034300039462A46FFF783FB002001B0F0BD00208B
:10344000704700000146EC20064A125C0020002A6A
:1034500001D0034600E009230B80002A01D1024875
:1034600078447047600B0020441900000146EC20AE
:10347000064A125C0020002A01D0034600E0222305
:103480000B80002A01D1024878447047600B00206D
:103490002519000080B5022903D103487844FEF7BE
:1034A00047FD002080BDC046ADE3FFFFB0B5022957
:1034B0001AD1144602214022FFF741FB0B4DA87997
:1034C000002811D10220FEF75DF902460948784430
:1034D0002146FEF777FC022806D10720287001203C
:1034E000A8710348006868800020B0BDDC0A002095
:1034F000480B00207BE3FFFF70B5044683210325C2
:1035000040262A463346FFF767FA204629462A46D0
:103510003346FFF761FA204629463246FFF70FFB94
:10352000002070BD002070470020704780B503293F
:1035300003D103487844FEF7FBFC002080BDC04661
:1035400025E3FFFFB0B503291AD114460321402219
:10355000FFF7F5FA0B4DA879002811D10320FEF7EB
:1035600011F90246094878442146FEF72BFC02284F
:1035700006D10B2028700520A871034800686880D8
:103580000020B0BDDC0A0020480B0020F3E2FFFF62
:1035900012200880014878447047C0465A1A00003B
:1035A00004200880014878447047C0465C1A000037
:1035B0000E200880014878447047C046501A000029
:1035C0000E200880014878447047C0464E1A00001B
:1035D0000A200880014878447047C0464C1A000011
:1035E0000E200880014878447047C0462E1A00001B
:1035F0000E200880014878447047C0461E1A00001B
:1036000039200880014878447047C046C917000037
:1036100080B50A7852B2002A02D4FFF7A3FE80BD1B
:103620004A78772A0CD0062AF7D14A88144B9A4256
:10363000F3D1CA88122A00D31222124979441CE01D
:103640008A88042A06D1CA88282A00D328220E494B
:10365000794412E08A88052A06D1CA88922A00D3C2
:1036600092220A49794408E08A88072AD5D1CA8873
:10367000B22A00D3B2220649794400F055F880BD41
:10368000EE030000EC170000DC190000D617000064
:1036900054180000B0B50446452085001548294659
:1036A00000F08EFF14480C30122100F089FF002C2E
:1036B0001BD0104C2046294600F082FF0F49794468
:1036C000002520462A46FFF74DFA0D4A7A4428463F
:1036D0002146FFF781FA01200A4A7A442146FFF782
:1036E0007BFA2046FFF785FAB0BD0248FFF756FA8D
:1036F000B0BDC046600B0020DC0A00204A17000065
:10370000B4180000DE180000402101800148784410
:103710007047C046461900000A21018001487844DC
:103720007047C04676190000B0B50C46D42102237C
:1037300043508261C2610146D431CC63016A914237
:1037400000D80A4693B2002529462246FFF7DEF943
:103750002846B0BDB0B50C46016A914200D80A4671
:1037600093B2002529462246FFF7D0F92846B0BD7E
:1037700010B500242146FFF7E2F9204610BD10B530
:10378000D421042242500024214622462346FFF73A
:10379000BDF9204610BD10B5D421052242500024A9
:1037A00021462246FFF7CBF9204610BD10B511493E
:1037B0000A780120012A1BD8521E0C235343CB1830
:1037C0009A8B002A14D05969002911D01B8B002B29
:1037D00005D194006418241F2468E41C08D1934286
:1037E00005D29A005118091F0968891C00D00020D1
:1037F00010BDC0464808002010B50E490A780120C7
:10380000012A16D8521E0C235343CB189A8B002A38
:103810000FD0596900290CD01B8B541E9C4208DD27
:10382000921E9A4204DD9A0051184968891C00D002
:10383000002010BD480800200948017800290CD05C
:103840000C224A431118C8898989814201D9012073
:1038500004E0814201D2FF2000E0002040B2704726
:103860004808002070B50146154A1078012826D86E
:10387000401E0C234343D218958B002D1FD0546952
:10388000002C1CD0012D1AD0138B6E1E9E4216DD0B
:1038900016461836AD1E9D420ADB9D002C19646841
:1038A000A51C0CD0E41C03D100213180518304E01D
:1038B0005C1C34805383002901D000F039F870BDBE
:1038C0004808002080B50120FFF7CCFF80BD000034
:1038D000B0B516490878012826D8401E0C2242436C
:1038E00089188A8B002A1FD04C69002C1CD0012A11
:1038F0001AD00D8B0B461833002D09D0AA001219CF
:10390000121F1268921C0FD06A1E1A804D8309E0A4
:1039100095002C19241F2468E41C05D1941E1C80DA
:10392000521E4A8300F004F8B0BDC046480800208B
:10393000F0B581B004460C2060431A490E18706936
:10394000318B890040580321C943884227D8374624
:1039500018371436FEF74CFD31683A8892008958C2
:1039600005680846FEF744FD002D06D00068FEF706
:103970003FFD01462046884711E08068FEF738FD8C
:1039800005463068398889004058FEF731FD4068A7
:10399000FEF72EFD02462046294600F05DF801B0F4
:1039A000F0BDC04648080020F0B581B02948017834
:1039B000012925D84C1E0C2161434518A98B0029EB
:1039C0001ED0686900281BD02A8B8A4218D22F4645
:1039D00014372E46183691004058FEF709FD8068CE
:1039E00000280FD03868318889004058FEF700FD64
:1039F0008068FEF7FDFC01460022204600F02CF80E
:103A000001B0F0BD28461C3000880028F8D0801E88
:103A100032889042F4DB396893005B185B68DF1CE6
:103A200010D09B1CECD11346920052185268921C85
:103A300004D15B1C33809AB29042F5DA581C308076
:103A40006B8302E00020308068832046FFF770FF20
:103A5000D6E7C0464808002070B5002800D070BDE9
:103A600014460D46194E301D1A2100F0A9FD002DF7
:103A7000F5D02846FEF7BCFC7061B18B8A008258F5
:103A8000521C06D0491C8AB292008258521CF9D1AD
:103A9000B183002C16D02046FEF7AAFC04467069BC
:103AA000318B89004058411C0CD0FEF7A1FCA0428C
:103AB00008D0308B7083401C3083716980B28000E5
:103AC0000858F0E70020FFF733FF70BD48080020DA
:103AD00080B50A49884208D00949884208D0094976
:103AE000884208D1FFF7F4FE05E0FFF75DFF02E032
:103AF0000120FFF7B7FE002080BDC0460300008014
:103B0000020000800100008010B50146002000295D
:103B10000FD1084CA18B228B8A420AD26069FEF732
:103B200067FC218B89004058FEF762FC4068FEF775
:103B30005FFC10BD4808002080B503480078401E97
:103B4000FFF7E2FF80BDC0464808002010B50446DC
:103B500000F0E6FB2420604308490818C82105222C
:103B60004254C421064A7A444250D421054A7A4438
:103B70004250C1210122425410BDC04648080020D5
:103B80003A1500005FFFFFFF80B500F063FB0028DF
:103B900007D0A12203498A5C112A02D1B822024B24
:103BA0008B5280BD480800200A80000010B50446F2
:103BB000FFF7CCFF2420604304490818D021044AB1
:103BC0007A444250204600F085FB10BD4808002092
:103BD000C5FFFFFFF0B581B0009316460F460546BE
:103BE000FFF7B4FF094C6168221D0A23384600F034
:103BF00055F9242068432018D4214650D021009A3A
:103C00004250284600F066FB01B0F0BD4808002095
:103C100010B50446FFF790FF4168044A7A44044B0C
:103C20007B442046FFF7D6FF10BDC04615000000BC
:103C30002500000080B50349794400F0F9F8002020
:103C400080BDC046D5FFFFFF10B50446FFF774FFE7
:103C500006C8204600F04EF810BD0000F0B583B055
:103C600000920E4602901A4C277B0025E8430190F3
:103C7000FFF7E2FD012804D0401C06D101986060E6
:103C800000E06560A560E56025612773029800F09B
:103C900047FB412080002058304301D10D4E7E4427
:103CA000009F221D0A233046019900F0F7F8A0601A
:103CB000002805D0401E6168814205D9606003E09C
:103CC0006560A560E56025610298B84703B0F0BD66
:103CD00048080020E509000010B50446FFF714FF6E
:103CE0004168034A7A442046FFF7B8FF10BDC0463A
:103CF00029FFFFFFF0B583B015460E460746464C38
:103D0000A03420222046394600F063FC7878102841
:103D100018DC01282DD0022834D0102878D1002EAC
:103D200058D03D498D6830460E46FEF761FB03468C
:103D30007068B168401C00900191012D55D8394A36
:103D40007A4454E001461139032961D20F21084019
:103D500001285DD13048068A002E59D07F2E00D32D
:103D60007F260291002D19D02846FEF741FB2A4FED
:103D700018E0FFF71BFD00284AD0274840680028BC
:103D80000AD045E0FFF738FD002841D022494868B5
:103D90008968491E88423BD1002439E041208000D7
:103DA0001D4F3858F989401800903D462035802134
:103DB0001E4A7A4428463346FEF732F9BC203D506D
:103DC000397B0298014015480F2900D0801CB8218A
:103DD00078521DE0104E7168B06800903046203077
:103DE0004B1C8021104A7A4404E00D4A7A44304644
:103DF00020308021FEF714F930462030BC2170506D
:103E00000648317B09090E2900D8801CB821705260
:103E1000204603B0F0BDC046480800200880FFFFE0
:103E2000541300008B090000651300001409000002
:103E300080B5164A90420BD0154A904213D0154ACD
:103E400090420FD114484268002A1BD0521E14E041
:103E500011498868002803D04968401E884201D172
:103E6000FFF7A2FD80BD0C48426883685B1E9A4242
:103E700002D1FFF727FD80BD521C42600078401E32
:103E8000884780BDFFF724FD80BDC0460300008049
:103E9000020000800100008048080020F0B58DB0CD
:103EA00000239381029353814B1C059303D05368E5
:103EB0008B4200D8AEE004910392002802D0FEF7B6
:103EC00097FA03E04120800054490858044600F066
:103ED000CDFB014601200290012900DA9AE0661824
:103EE0004E48027B0F200C90024000200790019466
:103EF0000896B442204600D83046001B06900023A6
:103F000020460994E518B54239D21F460A905B1C39
:103F1000180624D000210B931E46207840B2C3B26D
:103F2000202B0CD300280AD43D4878441818203898
:103F300003780F2A08D10C980340C91806E00A2B11
:103F400008D00D2B02D105E018090918761E641C53
:103F50003006E2D17229089E099C0B9B11D8297862
:103F600008460938022806D3202904D02D2902D07A
:103F70005F2900D00A9D28460A29C3D103E0069B89
:103F800001E03B460A98E118B14215D2002B13D04C
:103F9000A04211D007461D46481E03782C2B06DC94
:103FA00018460938022806D3202B04D018E02D2B00
:103FB00001D05F2B14D12B4605980028049906D018
:103FC0000798884203D10398406888421DD8E418B6
:103FD000B44202D20798401C0790B44289D310E043
:103FE00009782C292B4606DC084609380228E3D339
:103FF0002029E1D003E02D29DED05F29DCD03B1B56
:10400000DAE70798401C029004E003998B8101983D
:10401000201A488102980DB0F0BDC0464808002023
:1040200027120000F0B581B00646FFF785FD054672
:10403000114F3C46A03420222046314600F0C9FAF8
:1040400070780F2806DC01280AD0022811D1FFF76A
:10405000D3FB07E0102809D011280AD1686806E0D0
:10406000FFF7A4FB002804D0002402E02868BC214C
:104070007850204601B0F0BD4808002010B5044635
:1040800000F04EF9242060430B490818C82105228E
:104090004254C421094A7A444250D421084A7A44FD
:1040A0004250D021074A7A444250C1210122425451
:1040B000204600F00FF910BD480800201E11000036
:1040C0002FFAFFFF7BFFFFFFF0B581B00646FFF739
:1040D00033FD0546144F3C46A0342022204631468D
:1040E00000F077FA70780F2807DC012811D0022839
:1040F00012D00F2815D1286808E01038022810D2F5
:10410000A120385C0007800E28184068BC21785038
:1041100007E0FFF74BFB01E0FFF76EFB002800D044
:104120000024204601B0F0BD4808002010B5044628
:1041300000F0F6F82420604308490818C821062238
:104140004254C421064A7A444250D421054A7A4452
:104150004250C1210122425410BDC04648080020EF
:104160000E1100007FF9FFFFF0B581B00646FFF7A2
:10417000E3FC0546114F3C46A03420222046314640
:1041800000F027FA70780F2806DC01280AD00228F0
:1041900011D1FFF731FB07E0102809D011280AD10F
:1041A000686806E0FFF702FB002804D0002402E064
:1041B0002868BC217850204601B0F0BD4808002096
:1041C00010B5044600F0ACF8242060430B490818F1
:1041D000C82105224254C421094A7A444250D421BC
:1041E000084A7A444250D021074A7A444250C121B9
:1041F00001224254204600F06DF810BD480800200E
:104200003A110000EBF8FFFF7BFFFFFF80B5FFF7DF
:104210005BFF002807D0A12203498A5C102A02D341
:10422000B8220A238B5280BD4808002010B50446EE
:10423000FFF77CFF2420604304490818D021044A7A
:104240007A444250204600F045F810BD480800204E
:10425000C9FFFFFFF0B581B00646FFF76DFC0546CC
:10426000114F3C46A03420222046314600F0B1F9DF
:104270007078022804D0012808D1FFF797FA01E0EE
:10428000FFF7BAFA00280BD0002409E0A120385C1F
:104290000106090F04D00007800E2858BC21785071
:1042A000204601B0F0BDC0464808002010B5084CBB
:1042B000207800280AD12046C030242100F080F95F
:1042C00000206061A061E06101202070401E10BDEF
:1042D00048080020B0B504461048017800290ED0E7
:1042E000621C8A420BD1242161434518FDF72AFB49
:1042F000C22000212952204600F022F8B0BD002241
:10430000D243A21A531E9A414B1E99410A4204D12C
:104310004178AA2901D169214170B0BD4808002027
:1043200010B50446FDF70EFB002C00D010BD03486D
:10433000C030242100F044F910BDC04648080020D8
:10434000F0B581B004460420FEF7EEFA002839D01B
:10435000972837D0242060431B490C18C4202058CC
:1043600000282FD02546C4352646C2362746D037EA
:10437000C8343088217880B2884223D2FEF7A0FA70
:1043800000281FD1FEF724FAAA2803D1FEF74AFA23
:10439000AA2817D1286831884901401839680029AE
:1043A00002D08847002807D0012803D12868318827
:1043B00049014018FCF7D4FD3088401C3080296842
:1043C0000029D7D101B0F0BD4808002080B50028F1
:1043D00002D0FEF727F802E00248FDF7DBF8FDF710
:1043E00071F980BD85690000B0B5002814D0114D69
:1043F0000220287019204001295C5F20C000281885
:10440000A3229200AC182246FCF70EF8002808D42C
:104410002046FEF723F809E006480021017006480F
:1044200002E0002028700548FDF7B4F8FDF74AF9CE
:10443000B0BDC046240500208569000008B000001A
:10444000130A43544018427070470000002243088A
:104450008B4274D303098B425FD3030A8B4244D34C
:10446000030B8B4228D3030C8B420DD3FF2209028E
:1044700012BA030C8B4202D31212090265D0030B4D
:104480008B4219D300E0090AC30B8B4201D3CB0343
:10449000C01A5241830B8B4201D38B03C01A524185
:1044A000430B8B4201D34B03C01A5241030B8B4287
:1044B00001D30B03C01A5241C30A8B4201D3CB0272
:1044C000C01A5241830A8B4201D38B02C01A524157
:1044D000430A8B4201D34B02C01A5241030A8B425A
:1044E00001D30B02C01A5241CDD2C3098B4201D372
:1044F000CB01C01A524183098B4201D38B01C01AF0
:10450000524143098B4201D34B01C01A5241030966
:104510008B4201D30B01C01A5241C3088B4201D315
:10452000CB00C01A524183088B4201D38B00C01AC2
:10453000524143088B4201D34B00C01A5241411AE9
:1045400000D20146524110467047FFE701B50020F6
:1045500000F006F802BDC0460029F7D076E77047A4
:104560007047C046F0B5CE46474680B5070099462D
:104570003B0C9C4613041B0C1D000E0061460004FE
:10458000140C000C45434B4360436143C0182C0C92
:1045900020188C46834203D980235B029846C4448A
:1045A000494679437243030C63442D042D0CC9180A
:1045B000000440198918C0BCB946B046F0BDC046D9
:1045C00010B5002200F009F810BD10B500F010F889
:1045D00010BD10B500F015F810BD0B0010B511009E
:1045E0001A0000F021F810BD10B500F046F810BD1B
:1045F000002310B59A4200D110BDCC5CC4540133E5
:10460000F8E710B5884202D98B18984203D30023EB
:1046100007E08B5C8354013AFBD210BDCC5CC454E0
:1046200001339A42FAD1F8E703008218934200D18D
:10463000704719700133F9E7F0C041464A465346C6
:104640005C466D4676467EC02838F0C8002070472C
:1046500010307CC890469946A246AB46B54608C87D
:104660002838F0C8080000D1012018470023C25C98
:104670000133002AFBD1581E704710B50A000021F3
:10468000FFF7D2FF10BD27002F00F8000000000048
:10469000020EFFFFFFFFFFFFFFF738A13B4B920E1B
:1046A0009411AE6DA5F40B0358B108000000000092
:1046B0000010FFFFFFFFFFFFFFFFB781126DCAE78A
:1046C000B2321E66A241ADC64D2F252E2A7300259B
:1046D0007300436F6E6669726D205075626B657909
:1046E000005061746800417070726F7665005265A9
:1046F0006A6563740030783034252E2A480052658C
:1047000076696577005478004163636F756E742035
:10471000416464726573730054617267657420410B
:104720006464726573730053656C6563746F7200C3
:1047300043616C6C64617461202333003078252EF2
:104740002A4800486173680043616C6C646174615D
:104750003A000000544AD0C0D246D0C0C141D0C0B7
:104760005447D0C00000000000000000E146D0C067
:1047700000020020D93CD0C06C47D0C0000000002F
:1047800000000000DA46D0C03C020020D93CD0C076
:104790008447D0C000000000000000004108D0C0E5
:1047A0000000000000000000000000009C47D0C096
:1047B000FFFFFFFFCC4AD0C0E646D0C07D40D0C04E
:1047C000B447D0C0AC47D0C0000000005108D0C0F2
:1047D000000000000000000000000000CC47D0C036
:1047E000FFFFFFFFE449D0C0EE46D0C07D40D0C0FF
:1047F000E447D0C0DC47D0C0000000005C47D0C018
:104800007447D0C08C47D0C0BC47D0C0EC47D0C0A4
:10481000FFFFFFFF544AD0C0FE46D0C00547D0C0BE
:104820002D42D0C01448D0C000000000000000009D
:104830000847D0C0C8020020D93CD0C03048D0C002
:1048400000000000000000001847D0C00C0300204A
:10485000D93CD0C04848D0C0000000000000000093
:104860002747D0C050030020D93CD0C06048D0C0FA
:1048700000000000000000007003002090030020F2
:10488000D93CD0C07848D0C0000000000000000033
:10489000D1030020F1030020D93CD0C09048D0C003
:1048A00000000000000000003047D0C032040020AB
:1048B000D93CD0C0A848D0C00000000000000000D3
:1048C000544AD0C0FE46D0C04347D0C02D42D0C0CD
:1048D000C048D0C000000000000000004347D0C026
:1048E000D8040020D93CD0C0DC48D0C00000000073
:1048F00000000000CC48D0C0E448D0C0BC47D0C0C5
:10490000EC47D0C0FFFFFFFF535441524B4E45547C
:104910000000000000000000FFFFFF00FFFFFFFF9E
:104920007FFE7FFE3FFC3FFC018007E00FF01FF899
:104930000FF08FF1C7E3E7E7FFFFFFFF1000000074
:1049400010000000010000001449D0C01C49D0C074
:1049500000000000FFFFFF00E001FEC1FD387F0600
:10496000DF81FFC47FF3FFBC1FE7E7F13FF8077863
:10497000000000000E0000000E000000010000001A
:104980005049D0C05849D0C000000000FFFFFF00D0
:104990000000FEC1FF3030EC0D03C3DE3030EC0D03
:1049A00003C3C0F03FF80700000000000E00000045
:1049B0000E000000010000008849D0C09049D0C01E
:1049C00000000000FFFFFF00008001E6C0713838E2
:1049D00007FC001E8007F003CEC1E1387006180006
:1049E000000000000E0000000E00000001000000AA
:1049F000C049D0C0C849D0C000000000FFFFFF0080
:104A0000000000000C8007F003FEC1FFF03FF00340
:104A1000CC0033C00C000000000000000E000000BD
:104A20000E00000001000000F849D0C0004AD0C0CC
:104A300000000000FFFFFF00000000001EE01F1C40
:104A40000E03638C19630C0C87837F8007000000C2
:104A5000000000000E0000000E0000000100000039
:104A6000304AD0C0384AD0C000000000FFFFFF002D
:104A70004812420804000000070000000100000086
:104A8000684AD0C0704AD0C000000000FFFFFF009D
:104A90002184240104000000070000000100000040
:104AA000884AD0C0904AD0C000000000FFFFFF003D
:104AB000000000000000C000380067E0381C9C03C4
:104AC0007E000F8001000000000000000E000000CA
:104AD0000E00000001000000A84AD0C0B04AD0C0BB
:104AE000696E766F6B65000004049EE3EBA8C160FD
:104AF0000700EE1B87EB599F16716B0B1022947702
:104B000033551FDE4050CA680403CA0CFE4B3BC637
:104B1000DDF346D49D06EA0ED34E621062C0E05625
:104B2000C1D0405D266E10268A040234287DCBAFAA
:104B3000FE7F969C748655FCA9E58FA8120B6D56D6
:104B4000EB0C1080D17957EBE47B03B056F100F900
:104B50006FB21E889527D41F4E39940135DD7A6CCB
:104B600094CC6ED0268EE89E56150404FA56F37641
:104B7000C83DB33F9DAB2656558F3399099EC1DE84
:104B80005E3018B7A6932DBA8AA37803FA0984C9B0
:104B900031C9E38113E0C0E47E4401562761F92A5C
:104BA0007A23B45168F4E80FF5B54D0404BA4CC14A
:104BB00066BE8DEC764910F75B45F74B40C690C753
:104BC0004709E90F3AA372F0BD2D69970040301CE8
:104BD000F5C1751F4B971E46C4EDE85FCAC5C59A5F
:104BE0005CE5AE7C48151F27B24B219C04054302AF
:104BF000DCB0E6CC1C6E44CCA8F61A63BB2CA650E5
:104C000048D53FB325D36FF12C49A5820201B77B6C
:104C10003E37D13504B348046268D8AE25CE98AD8E
:104C2000783C25561A879DCC77E99C2426537461DD
:104C3000726B6E65740069732072656164790056E9
:104C4000657273696F6E00322E302E300041626FD4
:104C50007574005175697400537461726B6E65747C
:104C600020417070002863292032303232204C6598
:104C700064676572004261636B0000003C49D0C00C
:104C80002D4CD0C0364CD0C02D42D0C07C4CD0C0B2
:104C900000000000000000003F4CD0C0474CD0C0D6
:104CA000AD3BD0C0984CD0C0000000000000000018
:104CB000A516D0C0000000000000000000000000A9
:104CC000B04CD0C0FFFFFFFFAC49D0C04D4CD0C0AE
:104CD0007D40D0C0C84CD0C0C04CD0C00000000047
:104CE000B916D0C000000000000000000000000065
:104CF000E04CD0C0FFFFFFFF1C4AD0C0534CD0C0D7
:104D00007D40D0C0F84CD0C0F04CD0C000000000B6
:104D1000884CD0C0A04CD0C0D04CD0C0004DD0C02A
:104D2000FDFFFFFFFFFFFFFF584CD0C0654CD0C018
:104D3000AD3BD0C0284DD0C00000000000000000F6
:104D4000E916D0C0000000000000000000000000D4
:104D5000404DD0C0FFFFFFFF7449D0C0754CD0C09C
:104D60007D40D0C0584DD0C0504DD0C00000000094
:104D7000304DD0C0604DD0C0FDFFFFFFFFFFFFFFF3
:104D80006000020000303132333435363738396153
:104D900062636465663031323334353637383941D1
:104DA000424344454600000009211101000122222E
:104DB0000006A0FF0901A1010903150026FF0075E7
:104DC00008954081080904150026FF0075089540E4
:104DD0009108C0050F3900021810050038B60834D4
:104DE000A909A0478BFDA0768815B66500011E00B5
:104DF0001C100500DF60DDD88945C74C9CD2659D3D
:104E00009E648A9F00000306B20077009135D0C0EF
:104E1000A135D0C0B135D0C0C135D0C0D135D0C09A
:104E2000E135D0C0F135D0C00136D0C012034D00FD
:104E300053004600540031003000300077009200EB
:104E400000000001050001008800000007000000CC
:104E50002A0044006500760069006300650049008F
:104E60006E007400650072006600610063006500FA
:104E70004700550049004400730000005000000046
:104E80007B00310033006400360033003400300012
:104E900030002D0032004300390037002D00300073
:104EA0003000300034002D00300030003000300081
:104EB0002D00340063003600350036003400360023
:104EC000370036003500370032007D00000000005A
:104ED0000A00000000000306B20008000100000004
:104EE000A800080002000100A000140003005749B8
:104EF0004E555342000000000000000000008400F6
:104F0000040007002A004400650076006900630081
:104F1000650049006E007400650072006600610063
:104F2000630065004700550049004400730000001D
:104F300050007B004300450038003000390032004B
:104F4000360034002D0034004200320034002D00C1
:104F500034004500380031002D0041003800420087
:104F600032002D003500370045004400300031008C
:104F70004400350038003000450031007D0000005D
:104F8000000000000D34D0C03F34D0C07933D0C011
:104F900000000000000000009534D0C0AD34D0C047
:104FA0000000000000000000000000000937D0C031
:104FB0000937D0C00937D0C01937D0C0F934D0C0B4
:104FC0002535D0C02935D0C0000000000000000009
:104FD0002D35D0C04535D0C00000000000000000D5
:104FE000000000000937D0C00937D0C00937D0C051
:104FF0001937D0C01201100200000040972C111088
:10500000010201020301040309040E034C006500C0
:1050100064006700650072000E034E0061006E00C0
:105020006F00200053000A033000300030003100D0
:105030002800000000010400010000000000000042
:10504000010157494E555342000000000000000086
:10505000000000000000000009024000020102C040
:1050600032090400000203000002092111010001BD
:1050700022220007058203400001070502034000C9
:10508000010904010002FFFFFF020705830340003E
:1050900001070503034000010A060002000000406A
:1050A000010000000300000000008000200000005C
:1050B0000100000000000000FFFFFF0000000000F2
:1050C00000000000050102000C00040007000000C1
:1050D00000000000FFFFFF000000000000000000D3
:1050E000744AD0C005027A000C00040007000000DA
:1050F00000000000FFFFFF000000000000000000B3
:10510000944AD0C0071006000C0074002000000074
:1051100000000000FFFFFF0000000000088000000A
:1051200000000000071106001A00740020000000B3
:1051300000000000FFFFFF000000000008800000EA
:10514000000000002573202825642F2564290025F0
:10515000642F25640033334677669A892334346696
:10516000663344334568666767886668676868338E
:105170003365666556AA7877778866668888344589
:105180007866AB899977997866768876AB68676731
:10519000454545675667677756776756677734455D
:1051A0006734AA7777777745564577679A67675662
:1051B00045664566760000000300000000008000A0
:1051C000200000000100000000000000FFFFFF00C1
:1051D0000000000000000000050102000C000400B7
:1051E0000700000000000000FFFFFF0000000000BB
:1051F00000000000744AD0C005027A000C000400D0
:105200000700000000000000FFFFFF00000000009A
:1052100000000000944AD0C00510380002001000C1
:105220001000000000000000FFFFFF000000000071
:105230000A80000000000000071100001C00800030
:105240002000000000000000FFFFFF000000000041
:105250000880000000000000030000000000800043
:10526000200000000100000000000000FFFFFF0020
:105270000000000000000000050102000C00040016
:105280000700000000000000FFFFFF00000000001A
:1052900000000000744AD0C005027A000C0004002F
:1052A0000700000000000000FFFFFF0000000000FA
:1052B00000000000944AD0C0050F10000800100044
:1052C0001000000000000000FFFFFF0000000000D1
:1052D0000000000000000000071029000C00800002
:1052E0002000000000000000FFFFFF0000000000A1
:1052F0000800000000000000071129001A008000CB
:105300002000000000000000FFFFFF000000000080
:105310000800000000000000030000000000800002
:10532000200000000100000000000000FFFFFF005F
:105330000000000000000000050102000C00040055
:105340000700000000000000FFFFFF000000000059
:1053500000000000744AD0C005027A000C0004006E
:105360000700000000000000FFFFFF000000000039
:1053700000000000944AD0C0051038000200100060
:105380001000000000000000FFFFFF000000000010
:105390000A80000000000000071100001C008000CF
:1053A0002000000000000000FFFFFF0000000000E0
:1053B0000A80000000000000000000000000000063
:04000005C0D0000166
:00000001FF
