:02000004C0D06A
:10000000B0B58CB062B601F01DFD234C2120C100BB
:10001000204604F0F9FC6D46284604F031FDA88521
:1000200080B205281ED0002826D16D46284602F051
:1000300091FE0A9001F018FE002003F04FFD012010
:1000400003F04CFD01F0E8FC01F054FC02F076FEF8
:10005000A84202D10A9802F07DFE6846808D0028F1
:10006000D4D017E06846002181850A9802F072FE1C
:100070000A9802F06FFEC9E76846002484850A9852
:1000800002F068FE0A9802F065FE01F095FC204639
:100090000CB0B0BD01F0DBFC48080020F0B585B025
:1000A0000446581E092801D900201AE017460025E9
:1000B00001260396019504910294204629461C4688
:1000C00002F04EFB23467851A642039800D20198D5
:1000D0002D1D04998D4204D8741C9E422646029C14
:1000E000EBD305B0F0BD0000F0B589B007920890E1
:1000F0000291481E0390092862D81E460023334807
:100100007844019019461A4600960591079885187B
:100110001746B41A06939E0008988359012004904C
:10012000C007834328462146019A02F023F9284656
:1001300004F0C0FC00283CD0A0423AD208998919AA
:100140003A46C2190868002801D4009E13E00798B7
:100150008518009E1746B41A1D4A7A44284621463F
:1001600002F008F9284604F0A5FC002824D0A0429B
:1001700022D23A46C21903980699884212D00798AB
:1001800085181746B41A134A7A442846214602F0C5
:10019000F1F8284604F08EFC00280DD0A0420BD2C6
:1001A0003A46C2190599491C8BB202988342ACD3D6
:1001B00008E00798009901E00798314604F024FC14
:1001C00000200490049809B0F0BDC0469654000089
:1001D0007049000044490000024683685918002015
:1001E000994204D35368994201D891600120704725
:1001F00010B5426883689A420AD00468E45C0C70C7
:100200008168491C06D24468A14203D8816001E09C
:1002100000200870D01A411E884110BDB0B51546A7
:100220000A46044600686168A368C018C91A2B46CC
:10023000FFF734FF002807D0A900A268511803D2A5
:100240006268914200D8A160B0BDB0B51446436861
:1002500082689D1AA54206D8006882180846114691
:100260002A4604F0DAFBA54201D90020B0BD0120E6
:10027000B0BDB0B51546044642688068121AAA425D
:1002800001D90020B0BD23681B180846194604F0A8
:10029000C4FBA26851190120914203D362689142C4
:1002A00000D8A160B0BD0000F0B581B000920D464D
:1002B0000446C9208100134E304604F0B9FB1248B1
:1002C0000321315400203070371D4022204639462A
:1002D000FFF7CFFF002810D001203070A32080004E
:1002E0003418204639462A46009B00F0D2FC0220F2
:1002F0003070204602F0A2FA02E0044801F0F4FA5D
:1003000001B0F0BD24050020F6020000876A00005D
:10031000F0B59FB001920E46074615AD282128463C
:1003200004F072FB02AC4C21204604F06DFB284621
:100330003946324600F018F85120012321462A465A
:1003400000F00EF900280CD102A9093140220198D1
:1003500004F05FFB15A8282104F06AFB00201FB001
:10036000F0BD01F074FB0000F0B5A3B017460E46D7
:1003700005461AA82021039104F046FB11A821216B
:1003800004F042FB05AC204604F07AFBA08584B261
:10039000002C6CD1049505A802F0DCFC0F90022F14
:1003A00062D33068364988425ED13A4631460026EB
:1003B0000096212411AF20463B4602F03BFC039DF2
:1003C00002967E551AAE3846214632462B4600F03C
:1003D000DFF82D49794422AB30462A4600F0E4F894
:1003E000002817D12037029E2299002914D4761CA8
:1003F0003E7011A821211AAC202522462B4600F080
:10040000C7F82249794422AB20462A4600F0CCF8AE
:100410000028E9D001F01BFB1AA81D4A7A442021CC
:100420000B4600F0C7F80028F4D151201AA9202269
:10043000049B00F09BF80028ECD102F07FFC05A99A
:10044000884202D10F9802F085FC1AA8202104F0FE
:10045000EFFA11A8212104F0EBFA05A8808D0028FD
:10046000D8D1002023B0F0BD064801F0F0FA05A86D
:10047000002181850F9802F06DFC204601F0E7FA1B
:10048000550A008001B00000FA460000CA4600008C
:10049000D2460000F0B59DB014460D46064611AF99
:1004A0002821384604F0B0FA384631462A46FFF78C
:1004B0005BFF05AD284604F0E3FAA88585B2002D60
:1004C00036D105A802F046FC0F9048201C901BA8CE
:1004D00003901CA80290204620300190202000901C
:1004E00011A818490322234600F02EF800281DD138
:1004F0001C9E1B9D02F022FC05A9884202D10F9888
:1005000002F028FC11A8282104F092FA05A8808D99
:1005100000280BD10020002E05D46834267001215C
:100520000D40657000E0C0431DB0F0BD01F08FFAD2
:1005300005A8002181850F9802F00CFC284601F0E7
:1005400086FAC0460106000003B4014841E00000FD
:100550001500000003B401483BE000001700000054
:1005600003B4014835E000001B00000003B401485B
:100570002FE000001C00000003B4014829E0000047
:100580001E00000003B4014823E000003200000018
:1005900003B401481DE000003300000003B401482B
:1005A00017E000004400000003B4014811E000001F
:1005B0004700000003B401480BE000004B000000BE
:1005C00003B4014805E000005800000003B40248ED
:1005D000FFE7024908470000710000000100120017
:1005E000F0B581B00D460446FF2670006168814277
:1005F00001D9F62685E0A068216808182860202126
:100600002046FFF7E9FD00287BD0A0682168081884
:10061000686720212046FFF7DFFD00286ED0A06824
:1006200021680818A86720212046FFF7D5FD00287B
:1006300066D0A06821680818E86720212046FFF7E7
:10064000CBFDFC2600285CD02F463437A0682168FB
:100650000818F86420212046FFF7BEFD002850D07E
:1006600001262E71A06821680818A8602021204664
:10067000FFF7B2FD002847D029460C312046FFF78E
:10068000B7FD002842D0A068216808182861297B9E
:100690002046FFF7A1FD00283AD038460027077012
:1006A0000090411C2046FFF7A3FD002832D000999E
:1006B0004878887000281AD0383520462946FFF738
:1006C00097FDA06821680818686029782046FFF720
:1006D00083FDA06821680818A86020212046FFF744
:1006E0007BFD00990C357F1C88788742E5D36068D4
:1006F000A168814205D00920C64302E0FE2600E041
:10070000FD2670B201B0F0BDFB26FAE7FA26F8E745
:10071000F926F6E7F826F4E710B584B001785A29EF
:100720001FD10023039302930193417802291BDC1C
:1007300000292AD0012931D0022954D181780129F8
:1007400063D8C278002A60D18268002A62D0019200
:10075000039300790290481E814101A800F04CFAF1
:1007600056E03720400251E0032920D0042931D03F
:10077000FF2938D103938168019101790291C278F0
:10078000817801A8FFF790FD42E0817800293CD1F3
:10079000C078002839D100F069FA39E08178002961
:1007A00033D1C078002830D100F012FA30E08178DF
:1007B00002292AD8C278022A27D28468002C29D09C
:1007C0000194039300790290501E824101A802F027
:1007D00049F81DE0C2788178002907D080241443AD
:1007E000802C06D011E06D2000020FE0802A0CD191
:1007F00080228468002C0DD001940393007902902C
:10080000D20901A802F090F802E0044801F06CF867
:1008100004B010BD0148401CF8E7C046866A0000DD
:1008200070B582B016460C46054604F0EDF8B06887
:100830000178002901D020230BE0421C2021491E11
:100840000B0603D01378521C002BF8D0CBB2052B2B
:1008500003D300900A4A7A440BE0017F0906427FE5
:1008600012045118827F12028918C07F0B18054AA2
:100870007A442846214601F07DFD002002B070BD7B
:10088000E7420000264D000070B582B016460C46C7
:10089000054604F0B9F83378002B04D07068009056
:1008A000064A7A4403E0064A7A44064B7B442846CB
:1008B000214601F05FFD002002B070BD6C420000D7
:1008C0006B420000E042000080B502480168012050
:1008D000884780BDC402002080B50248016800201E
:1008E000884780BDC402002070B582B01E481F4EEC
:1008F000305C3178014303D0002030701C482DE07B
:100900001C4C3C252046294604F07EF81920400165
:10091000315C5F20C000301822462B46FFF7E4FB15
:1009200000281AD0154C86252046294604F06CF87C
:10093000301D0090134A7A4440232046294601F096
:1009400019FD0F4810497944016010497944002489
:100950002046224603F0A4FA03E0074800F0C4FF53
:100960000446204602B070BDF602000024050020B7
:1009700007B000000002002001B000003C0200208F
:10098000C402002003420000CB3E0000F4420000FD
:10099000F0B581B05348544E305C02287CD1307899
:1009A000012879D152495E4878440860514844256D
:1009B000294604F029F84120C40030590090594FCD
:1009C0007F4420264B4829463A46334601F0D2FC64
:1009D00055487844464948604748294604F014F889
:1009E00041480419A0680090434829463A463E4FC2
:1009F000334601F0BFFC4D4878443D4A90603F4D7E
:100A000028463146164603F0FFFF2369207B411C30
:100A1000474A7A44284601F0ADFC46487844F060E5
:100A2000374D785D00283ED0092080013C183548BC
:100A300020212246FFF728FF334841212246FFF7B5
:100A4000EFFE3D4878443061785D02282DD3932035
:100A500080003C182D4820212246FFF715FF2C4826
:100A600041212246FFF7DCFE344878447061785D0E
:100A700003281CD34B20C0003C18264820212246C6
:100A8000FFF702FF244841212246FFF7C9FE2C4808
:100A90007844B06107200BE000203070134800F06C
:100AA00023FF05461BE0042002E0052000E00620AD
:100AB0008100244A7A447250411C8900224A7A44B7
:100AC00072500025E943801C8000315013481F49B3
:100AD00079440160284631462A4603F0E1F9284668
:100AE00001B0F0BDF60200002405002007B00000B0
:100AF00074040020C80200200C03002050030020D2
:100B00003E0200007003002090030020D10300206B
:100B1000F1030020B804002032040020C4020020A9
:100B2000BC420000C0410000AA4200009C420000FC
:100B3000014100009042000080420000724200002B
:100B4000644200004C410000724100005D3D000025
:100B500070B582B01648174E305C01281FD130782E
:100B600001281CD1154C44252046294603F04CFF92
:100B7000A320800030180090124A7A442023204697
:100B8000294601F0F7FB0E480F49794401600F49EF
:100B9000794400242046224603F082F905E0002033
:100BA0003070054800F0A0FE0446204602B070BD3B
:100BB000F60200002405002007B00000D804002041
:100BC000C402002006400000A33C0000A841000031
:100BD00080B584B00748784401F0B4FD002103914A
:100BE0000821029101900920010301A800F03CFEB8
:100BF00004B080BD76410000F0B581B0009106469A
:100C0000C9208100164D284603F012FF1548002127
:100C1000295429701920440129193046FFF7E8FAB0
:100C2000002814D02A5D5F20C0002F1830463946B6
:100C3000FFF7F4FA00280AD0295D2A1D3846FFF78D
:100C400067FB0098002807D0FFF74EFE02E0064839
:100C500000F04AFE01B0F0BD01F08EFDFAE7C0469B
:100C600024050020F6020000876A000080B584B0E9
:100C700068460021817041700222027003910321B5
:100C8000029101900920010301A800F0EDFD04B0DC
:100C900080BDF0B583B002930E4600900D4620351E
:100CA000022A17D3501E019000270298002807D06F
:100CB000304631462A4600F05FF8002805D01CE097
:100CC000304631462A4600F027F87F1CF8B20199D9
:100CD0008142EADC0298002809D0009F384631465C
:100CE0002A4600F049F80446002808D112E000988E
:100CF00031462A4600F010F80CE00446009F1C2103
:100D0000384603F081FE200EF877200CB877200AD1
:100D100078773C7703B0F0BDF0B593B016460C463B
:100D2000019002AD134979444122284603F071FE37
:100D30000127284621463A463B4600F095F9611CBA
:100D40001F2400232846224600F08EF9032328465C
:100D500031463A4600F088F9711C022328462246A3
:100D600000F082F9691C2022019803F052FE13B0B2
:100D7000F0BDC04606420000F0B591B004920F46A7
:100D80000390202500242846214601F071FE0DA87D
:100D9000512101F0DBFE0646002830D100951A4BA8
:100DA0007B44591C21330DA82A4601F0E9FE064672
:100DB000002824D11F2200920194791C0498431C1E
:100DC0000DA800F09DF90646002818D101220092D6
:100DD00001920DA83946049B00F092F906460028BE
:100DE0000DD100950DA805AB03992A4601F0D8FE58
:100DF0000646002803D10DA801F0B4FE064601F016
:100E000043FE304611B0F0BD8C41000070B582B099
:100E10000446202500262846314601F029FE01A877
:100E2000294622462B4601F03BFE68460670FF2607
:100E30000236012E1ED00198B11E6D462A4601F0E1
:100E400055FE761E28780028F3D0F82E12D30720FE
:100E50000640701E03280FD80198042101F05EFEA1
:100E600001982022214601F035FE01A801F024FE60
:100E700001F00AFE02B070BDD520C00100F0E7FD10
:100E8000F0B5FFB098B00B910546077B04690120CF
:100E900001020CA8FFF782FB00281AD12E46143657
:100EA0002020009601900CA8012122463B46FFF726
:100EB00069FB00280DD1202400272046394601F087
:100EC000D7FD8FA821463246234601F0E9FD0028D0
:100ED00002D07FB018B0F0BD284634300A90FF240D
:100EE0008F98214601F00EFE0028F2D1641EFA2CE4
:100EF000F6D28F982022314601F0ECFD0028E8D18F
:100F00008FA801F0D9FD01F0BFFD686F0690A86FB2
:100F10000890E86F04900A98C06C079028680590C4
:100F200087A82024214603F06FFD7FA8214603F007
:100F30006BFD77A8214603F067FD0CA803902146BE
:100F400003F062FD8FAC1F21204603F05DFD287980
:100F500022460994E077039C20462146FFF70CFFC8
:100F6000AA6820462146FFF707FF20462146324661
:100F70000A9EFFF701FF3078099AD0772046214674
:100F8000FFF7FAFE7078099AD07720462146FFF7DE
:100F9000F3FEB078099AD07720462146FFF7ECFEA1
:100FA000B07800280DD02C46403422680CA80146A9
:100FB000FFF7E2FE0C347F1CB0788742F5D3801C2B
:100FC00000E002202979890008188FAAD07777AF2E
:100FD0000CA93846FFF7D0FE7FAD28461A302149CC
:100FE0007944062203F015FD87AE304631462A4685
:100FF000FFF7C2FE30463146049AFFF7BDFE304689
:101000003146059AFFF7B8FE2021284603F0FCFC84
:10101000304631462A46FFF7AFFE304631463A4663
:10102000FFF7AAFE30463146069AFFF7A5FE304686
:101030003146079AFFF7A0FE30463146089AFFF77F
:101040009BFE1F21284603F0DFFC0820E8770B9C5D
:10105000204631462A46FFF78FFE2046FFF7D6FE90
:10106000002036E7443F0000F0B59DB0002A40D094
:1010700015460E460978002909D101210C468D42FA
:1010800003D0325D611C002AF8D0AC4231D201900D
:101090004122534319487844C1180BA8029003F029
:1010A000B8FC03AC20272046394603F0ADFC601B9A
:1010B000203031462A4603F0ACFC512002992246EA
:1010C0003B46FFF759FA002815D151201CA901F021
:1010D00031FD002801990ED151200BAB0A46FFF7D4
:1010E00039FA002807D151201CA901F023FD00285E
:1010F00001D11DB0F0BD00F0AAFCC046D73E0000F3
:10110000F0B5A5B0069308920791059021A851214A
:1011100001F01CFD002822D12B9F202400944125A2
:1011200028467843624E7E443318591C213321A847
:10113000224601F025FD002811D11DA8512101F002
:1011400005FD00280BD1B81C009445437319591CA8
:1011500021331DA8224601F013FD002801D025B03F
:10116000F0BD2A9D11A82027394603F04DFC09A89F
:10117000394603F049FC0120089A002A11D007994A
:101180000B78002B064615D1049501242546A24272
:1011900003D04B5D6C1C002BF8D0954208D3002681
:1011A00007E0002D79D00026069C089A079904E0F4
:1011B0000126049D002D069C11D02378002B13D10D
:1011C00004972F4601252846AF4203D0235C451CD7
:1011D000002BF8D03D46B84204D3002003E0002E97
:1011E00031D15AE00120049F33460340012B28D11E
:1011F00011A8801A203003F00CFC09A8401B2030F5
:1012000021462A4603F005FC19A8512101F09EFC55
:101210000028A4D1029709A80190009719A821A934
:101220001DAA11AB01F0E4FC002898D119AA059879
:10123000014601F0C5FC002891D119A801F092FCEB
:1012400028E0002E10D011AC089AA01A203007997F
:1012500003F0DFFB21A82022214601F0BDFC00287D
:1012600000D07CE721AA11E0002816D009AC601B51
:10127000203006992A4603F0CCFB1DA820222146E7
:1012800001F0AAFC002800D069E71DAA05980146D4
:1012900001F096FC002800D061E721A801F062FC73
:1012A000002800D05BE71DA801F05CFC57E7C046B2
:1012B000473E000080B500F049FD80BDF0B581B02B
:1012C000F54D28780D2805DC052800D1AEE00D2865
:1012D0000DD057E00E2800D102E1152852D1EF4879
:1012E0008079012803D1A879000700D465E2EC4C8D
:1012F0000027676001202070204601F0C5FC042013
:1013000001F036FD6060002800D14DE2692800D16F
:10131000CAE1972800D147E2C425E24C6059002871
:1013200000D139E2C226A05BC821615C80B288424C
:1013300000D331E201F0E8FC002800D02CE201F0FB
:101340006BFCAA2804D101F091FCAA2800D023E26A
:101350006159A25B50010818D023E358002B04D038
:101360009847002807D0A25B6159012801D150019C
:10137000081800F0EBFCA05B401CA0536159002949
:10138000D2D109E2C64C00276760012020702046B8
:1013900001F07AFC042001F0EBFC6060692800D0C9
:1013A000F2E000F079FC00F079FCC225BD4E7753E5
:1013B000042001F0DDFC6060002800D1F4E19728F2
:1013C00000D1F1E1C4243059002800D1ECE1705B78
:1013D000C821715C80B2884200D3E5E101F094FC41
:1013E000002800D0E0E101F017FCAA2804D101F0A8
:1013F0003DFCAA2800D0D7E13159725B5001081892
:10140000D023F358002B04D09847002807D0725BF4
:101410003159012801D15001081800F097FC705B88
:10142000401C705331590029D2D1BDE1E44C002752
:10143000676001202070204601F026FC042001F0A6
:1014400097FC6060002800D1AEE1972800D1ABE1A5
:10145000692800D067E100F01FFC00F01FFCC225E6
:10146000D84E7753042001F083FC6060002800D13F
:101470009AE1972800D197E1C4243059002800D17F
:1014800092E1705BC821715C80B2884200D38BE12D
:1014900001F03AFC002800D086E101F0BDFBAA284B
:1014A00004D101F0E3FBAA2800D07DE13159725B41
:1014B00050010818D023F358002B04D09847002877
:1014C00007D0725B3159012801D15001081800F092
:1014D0003DFC705B401C705331590029D2D163E14F
:1014E000B74D00266E6001202870284601F0CCFB25
:1014F000042001F03DFC686069287BD100F0CCFB42
:1015000000F0CCFBC224AF4E00203053042001F089
:101510002FFC6860002800D146E1972800D143E104
:10152000C4257059002800D13EE1305BC821715CB0
:1015300080B2884200D337E101F0E6FB002800D0FA
:1015400032E101F069FBAA2804D101F08FFBAA283F
:1015500000D029E17159325B50010818D023F358AB
:10156000002B04D09847002807D0325B715901281E
:1015700001D15001081800F0E9FB305B401C3053EA
:1015800071590029D2D10FE1C4258E4C6059002831
:1015900000D101E1C226A05BC821615C80B2884213
:1015A00000D3F9E001F0B0FB002800D0F4E001F036
:1015B00033FBAA2804D101F059FBAA2800D0EBE0A4
:1015C0006159A25B50010818D023E358002B04D0C6
:1015D0009847002807D0A25B6159012801D150012A
:1015E000081800F0B3FBA05B401CA0536159002910
:1015F000D2D1D1E00446DC20724D295800290FD009
:101600000A46643A00D232462A50642908D8D821C2
:101610006958002904D0E022AA582A50002088479F
:10162000002C00D1C0E0972C00D1BDE0C424285983
:1016300000282BD0C226A85BC821695C80B28842F2
:1016400024D201F061FB002820D101F0E5FAAA289C
:1016500003D101F00BFBAA2818D12959AA5B50012C
:101660000818D023EB58002B04D09847002807D047
:10167000AA5B2959012801D15001081800F066FB26
:10168000A85B401CA85329590029D5D1C820285C43
:10169000C221695A84E0C04650090020DC0A0020BB
:1016A000D00900204808002000F0F6FA00F0F6FA11
:1016B000C225444E7753042001F05AFB6060002895
:1016C00072D0972870D0C424305900286CD0705B39
:1016D000C821715C80B2884266D201F015FB0028F7
:1016E00062D101F099FAAA2803D101F0BFFAAA2821
:1016F0005AD13159725B50010818D023F358002B8E
:1017000004D09847002807D0725B3159012801D1D5
:101710005001081800F01AFB705B401C70533159DF
:101720000029D5D140E0D420264C2058002803D0F1
:10173000E978490800F052FBC425605900282BD0F5
:10174000C226A05BC821615C80B2884224D201F02D
:10175000DBFA002820D101F05FFAAA2803D101F0BA
:1017600085FAAA2818D16159A25B50010818D02324
:10177000E358002B04D09847002807D0A25B61599A
:10178000012801D15001081800F0E0FAA05B401CCC
:10179000A05361590029D5D1C820205CC221615ACB
:1017A000814201D301F0B0FA01F0AEFA002801D174
:1017B00000F054F9012001B0F0BD052000F047F918
:1017C000D009002048080020B0B505460720284071
:1017D0000024012812D0022812D1002907D00A487B
:1017E00001F086FA280609D501F036F906E0412015
:1017F00081000548002201F093FA04462046B0BD5E
:10180000022000F024F9C046D80900200248002137
:101810000170024801607047200500201C0500206F
:1018200010B50F4C21780022D04302290BD001299A
:101830000BD0002908D1012020700A48018800201F
:1018400000F022FB10BD227010BD02202070054860
:101850000188102000F018FB0121217010BDC04646
:10186000200500201C050020F0B581B00D460027A2
:10187000002816D006464068B168411A0B200403C0
:101880008120400081420DD8821C14493046FEF769
:10189000DCFC0028394606D07068B168411A2C4635
:1018A00001E02C4639460E4D29600C48224602F0D4
:1018B000EBFF2868811C29600A4C2278012A3846EF
:1018C00007D0022A07D189B2202000F0DDFA0021DA
:1018D0002960277000E0F84301B0F0BDD80900206E
:1018E0001C0500202005002080B501460020FFF7E0
:1018F000BBFF80BD70B590B0FFF788FFC9208100A5
:101900002A4803F095F82A4C2A4D01AE304603F0E0
:10191000B7F8B08586B2002E0BD0052E3CD001A8BA
:10192000002181850B9801F015FA3046FFF7DCFFA6
:1019300017E001A801F00EFA0B9000200D900E9018
:101940000F90FFF76DFF00281FD402460DA8214617
:1019500000F0D6FE002811D00DA8FEF7DDFE00280D
:1019600013D401F0EBF901A9884202D10B9801F0E0
:10197000F1F901A8808D0028C7D00BE02846FFF7B9
:10198000B3FF0B9801F0E6F9BFE70B9801F0E2F91D
:1019900010B070BD00F05BF801A8002181850B98A4
:1019A00001F0D8F9052000F052F8C04624050020C7
:1019B000D8090020876A000010B58CB06C4620461C
:1019C00003F05EF8A085000406D1684601F0C2F974
:1019D0000A90FF2001F07EF901F0B0F969468842D3
:1019E00002D10A9801F0B6F96846808D002801D12D
:1019F0000CB010BD00F02BF880B5034979440020ED
:101A0000024602F04DFA80BDB837000080B5FF20D5
:101A100001F060F980BD000080B50648007800281C
:101A200001D102F067FE044979440020024602F029
:101A300037FA80BD480800202C37000080B5FFF73A
:101A4000EBFF80BD80B5002001F084F980BD044625
:101A500001F074F9214603F01FF8000080B5034837
:101A60007844052101F044F980BDC0466437000088
:101A700010B51648C078032807DC01280DD00228CD
:101A80001FD1134801F02AFC10BD042816D00828E5
:101A900017D10F4801F020FC10BD0D4C012120464C
:101AA00001F015FC204601F0F3FB0A48817900297A
:101AB00008D10C30122102F0A7FF10BD044801F03C
:101AC00009FC10BD0520FFF7C2FFC04650090020E9
:101AD000600B0020DC0A00207F210140052903D88B
:101AE00002484018007B704700207047DC0A002045
:101AF00080B51548C2787F2111400279042A14D09C
:101B0000022A06D0012A1DD1811D114801F0D0FA08
:101B100080BD052916D84A000C4B9A180023538221
:101B2000821D0B4801F048FB80BD05290AD8074AF1
:101B3000521843797A2B00D37A231373821D0448F9
:101B400001F0E4FA80BDC04650090020DC0A002004
:101B5000600B002070B5FF2A1DD815460E460446BE
:101B60000D484271202101715021017080212143D3
:101B7000C170D11C8170090A4170062101F0B8F8CA
:101B80003046294601F0B4F86006000E03490818F3
:101B90007D210901418270BD50090020DC0A00202E
:101BA00080B50A46014682201423FFF7D3FF80BD8B
:101BB00080B50A46014683201423FFF7CBFF80BD82
:101BC00010B52648817842781202521801780F2900
:101BD00008DC0E291CD00F292DD1012A32D1FFF7A4
:101BE00047FF33E010292BD0162924D11C490B784C
:101BF0000124002B2BD10A230B7006238B717D2A25
:101C000000D37D224A80C11C164802F002FF1EE06C
:101C100013488168643181601C21425A002A07D030
:101C2000642A134600D86423643B4352642A10D9C3
:101C3000891E1029F1D10220FFF740FB044606E07F
:101C4000032A01D2002402E0FFF752FF01242046BC
:101C500010BD002101700520FFF7F9FE500900209A
:101C6000DC0A0020D809002080B500F0E7FE0D282E
:101C700002D3FF2001F02EF80548202102F0C4FE17
:101C800000F0F2FA034800210160416080BDC046C7
:101C9000DC0A0020FC0A00207047000002480021F6
:101CA000016041607047C046FC0A0020F0B587B073
:101CB0000546084600F046FD002843D0044600696A
:101CC00000283FD0284600F03DFD01466D461C220D
:101CD000284602F09EFE2668EE8067682F8101F09C
:101CE00013F800282ED1B9B2B2B2174D6520287072
:101CF000A06842434A435107D608002900D0761C09
:101D000004278740B8191D30A870000A68700321A5
:101D1000284600F0EDFF68461C2100F0E9FFA068AE
:101D200028700121284600F0E3FFE06800F00AFD7A
:101D3000B9B200F0DDFFB5B2206900F003FD29461D
:101D400000F0D6FF07B0F0BD5009002070B500F0DC
:101D5000F9FC0446C06900F0F5FC054621787F20B7
:101D600008400AD0002D09D0052802D1A07E002805
:101D70002DD000F0C9FF002811D070BD00F0C4FFC5
:101D80000028FAD114481C25857000214170652176
:101D90000170032100F0ACFF2046294614E02846DC
:101DA00002F088FE06460C486521017031461C3160
:101DB0008170090A4170032100F09AFF1C2120461E
:101DC00000F096FFB1B2284600F092FF70BD2046A9
:101DD0002946FFF76BFF70BD5009002070B5002841
:101DE00025D00B460246124C03CC083C984201D148
:101DF000491C61601843002B02D02060054605E0B5
:101E00000025256065600B4E761C30439D4201D055
:101E100000236360082909D3074C4C430123074D75
:101E2000AC4201D29C072043DB079843904770BD2A
:101E3000FC0A0020FFFFFF7FABAAAAAA5655555502
:101E4000F0B581B00F4E01243470B11CFF2702376A
:101E50007A1C204600F032FF054670703A1A871946
:101E6000F91C022000F02AFFB8702D18AE19F4708A
:101E700000F018FF0021B171902171713071E81DDF
:101E800001B0F0BDD8090020F0B585B0024640078A
:101E900007D01646F0B289B2FFF796FC80B205B0C3
:101EA000F0BD844D854878440090814C164610273B
:101EB00017400804049677D0002F75D10291039241
:101EC00000F022FF002808D080210022204600F0E8
:101ED00027FF012000F0FCF8F2E7A868297809291B
:101EE00008DD0A29029A0ED001900B2922D17548EB
:101EF000784404E0019007290098029A17D191B222
:101F000000F01EFA1DE0FF20063096B2864200D394
:101F1000CBE0A27053202070100A6070032120468D
:101F200000F0E6FE6448314600F0E2FE27E00029BA
:101F300000D1B7E0F0B291B2FFF746FC002800D024
:101F4000B0E0287800281AD07D20000101990E18F1
:101F50005D487844052100F0CBFE80210022204618
:101F600000F0DEFEA868B04200D398E0FFF728FE3C
:101F700000F0CAFE0028F0D128780028E8D100201F
:101F8000A871287068800499890687D44C487844E1
:101F9000052100F0ADFE049840B20028039A03D555
:101FA000052000F097FE039A002F434F04D15006FE
:101FB00072D40020A87128700020688043487844BB
:101FC000052100F095FE802100262046324600F0D3
:101FD000A7FE03280FD3A178627812025118C91CFA
:101FE000814208D1FFF7ECFD28780028E6D0688808
:101FF0000028E3D001E02E70DEE73978B02900D068
:102000004CE77978A72910D002291DD0012900D0EA
:1020100044E7B978FA780A4300D03FE70720049EE6
:102020000640FFF70DFF014631E0B978FA780A4320
:1020300000D033E720494E70902008707F20C043C5
:10204000049E0643022122E0B978FA780A4300D0C0
:1020500024E700F00BFEAA2810D10120164F38709B
:10206000B81C402100F0F6FD7870811C89B29022E6
:102070007A54C11C89B27E54011D05E085200E49A9
:1020800048706920087002210720049E0640F2B2C1
:10209000700700D10BE7FDE66888401FFEE60520CB
:1020A000FFF7D5FC0420FFF7D2FC0220FFF7CFFC9E
:1020B00050090020DC0A0020D8090020F7FCFFFFAF
:1020C00036320000BDFCFFFF723200000632000015
:1020D000B0B504460F487844052100F009FE0B4DC9
:1020E00080210022284600F01BFE2878152808D8F9
:1020F000012181400648014203D0002C01D000207C
:10210000B0BDFFF75DFD411E8841B0BD5009002004
:1021100020702000EE300000F0B581B0009205463E
:102120004A4CA1420FD00F46484C4026204631462B
:1021300002F06AFC009A402A00D332462046394613
:1021400002F06BFC414CA07801280ADC00282ED05C
:1021500001286AD1E01C0421FEF732FA4021204612
:1021600030E002282CD005285FD12079E1780902DF
:102170000818374E3168002781425DD13068002849
:1021800023D00098401F82B232490B68934200D29C
:102190000868224681B23B2900D33B2085B22E4CF1
:1021A0002068511D2A4602F038FC246833E00027DD
:1021B000A77167712771E77040212046A8473BE06F
:1021C00022484021A847002736E0A079617909021A
:1021D00009182248016001684122920091422BD8DF
:1021E00000681C49086060782278120210181C4AA6
:1021F00010600A680098C01F83B29A4200D2086833
:1022000081B2392900D3392085B2E11D154C204611
:102210002A4602F0FEFB0F480168491B0160601965
:102220000D4908603068401C30600A48006800288A
:1022300001D0012707E00227054800210160064878
:10224000016004480160384601B0F0BD040B002075
:10225000440B00204C0B0020500B0020480B0020AA
:10226000540B0020D80900200348002101600348D6
:102270000160034801607047440B0020500B0020B0
:102280004C0B0020F0B581B0274A1568274B196820
:10229000002921D0002D1FD00090274C671D3B2620
:1022A0003846314602F0B0FB204A0520A070234892
:1022B0000168090A2170006860701D490868000AF9
:1022C000E070086820710968106800290CD03B286C
:1022D00000D81668384612E01548002101601160E8
:1022E0001448017019601DE0392801D9392600E031
:1022F00016681068000A60711068A071E01D294618
:10230000324602F08AFB094B009A07491868801B85
:102310001860A819086006490868401C086006484B
:102320004021904701B0F0BD500B00204C0B002025
:10233000440B0020DC0A0020040B0020540B00207A
:1023400080B500290BD0064A00231360054A1160AE
:10235000054A064B1360064A1160FFF793FF80BDE4
:10236000440B00204C0B0020500B0020D80900200B
:10237000480B002081B0F0B590B01593099000286B
:1023800000D1ADE10D46022900D2A9E11446099819
:10239000294602F039FB15A80B902078002800D1BF
:1023A0009EE1691E0891012106910026089D0028E2
:1023B00005D0252803D0A0194078761CF7E7AE4257
:1023C00000D32E4609982146324602F026FBAD1B6B
:1023D000089500D184E1099880190990A05DA4199D
:1023E000252800D077E1641C0020202307460790B1
:1023F0002178641C00222D290DDC1046F8D02529F7
:1024000000D1E1E02A2900D064E12078732800D0CF
:1024100061E1022028E047292BDC0A46303A0A2AEB
:1024200011D20A971F4630220B465340079D2B437B
:1024300000D03A460A23079D6B435918303907915B
:1024400013460A9FD4E72E2900D043E120782A289A
:1024500000D040E16078482804D0732802D0682872
:1024600000D03BE1641C01200B990A1D0B920F6800
:10247000BEE7672909DC62290FDC482900D1A5E005
:10248000582900D026E1012020E0722917DC6829B4
:1024900000D19FE0702918D01CE1632900D19EE093
:1024A000642900D016E10B98011D0B910068C1173B
:1024B00042184A40C10F002002900A270DE07329FC
:1024C00000D199E0782900D004E1002002900B9817
:1024D000011D0B91026800211027079E0A92974266
:1024E0000393049101D9012511E0721E3846054677
:1024F0001646002138462A460B4602F057FA4A1E75
:1025000091410A9A904202D8721E0029EFD0079694
:10251000002604990029059401D1019101E0F043BE
:102520000190039B0798401A0029069C09D0D9B254
:1025300000263029344604D10CA92D220A70012628
:10254000069C811E0D290BD8411E09D00CA88019AC
:10255000DAB202F066FA0798301801994018461E60
:10256000002C03D10CA82D218155761C002D1AD0EA
:102570003C460298002802D0604F7F4401E05E4F45
:102580007F440A98294602F085F9214602F008FAAC
:10259000785C0CA988552846214602F07BF9761C08
:1025A000AC420546EDD9089CA64200D326460CA9AC
:1025B0000998324602F031FAA41B0894059C00D118
:1025C0008EE00998801984E025200CE02546484AD1
:1025D0007A4402E02546474A7A44069B10E00B986D
:1025E000011D0B910068099908700898401E089019
:1025F00076D00998401C6CE025463C4A7A4400237A
:102600000B990C1D0B94C0B2096802283CD001281C
:102610002C460AD00028374607D1254600200C5CFE
:10262000401C002CFBD1471E2C46002B20D0002F35
:10263000089D4FD07800281A0A90022D50D32846C2
:102640000B7825461C09145D099E34700F241C402C
:10265000135D7370022843D02C460546851E099BE6
:102660009B1C0993491C7F1EE7D10A98089031E012
:10267000089DAF423E4601D32E462F46099832466A
:1026800002F0CBF9AD1B0DE0087800282C4621D1D3
:10269000089DAF4200D32F4620220998394602F008
:1026A000C0F9ED1B08951BD00998C019099007982F
:1026B000B0420FD9851B089EB54200D33546202273
:1026C0000998294602F0ADF9761B089608D00998BA
:1026D000401909902078002802D066E62A20FAE7FF
:1026E000002010B0F0BC02BC01B00847CD2B0000A8
:1026F000092C0000F12B0000492C00005F2C000089
:1027000010B50023052A13D30C79521FA2420FD112
:102710000A7802704A7842708A788270CA78C270E9
:102720000A7902710A79002A00D04A1D82600123C9
:10273000184610BD7A460249C91C891A401A7047CA
:102740003527D0C080B50449884204D30349884264
:1027500001D2FFF7EFFF80BD0000D0C00058D0C00D
:10276000425C1206401841780904891882781202E6
:102770008918C0780818704710B594B003AC0420CD
:10278000607041202070A01C0849091D402202F001
:1027900040F900200290422001900094092001039A
:1027A0006846FFF761F814B010BDC046240500204C
:1027B000F0B597B0044606AF781C402102F024F92A
:1027C0004120019038702320205C212801D0042171
:1027D00000E0052102942034009161182025212871
:1027E0002E4600D00646B81B2130324602F011F9C1
:1027F0000098801C8119C8B20019401E0078212859
:1028000000D1491CC9B26118212800D005463846BC
:102810004130401B2A4602F0FCF869200299085C0E
:1028200001997854002005904220049003970920D4
:10283000010303A8FFF718F817B0F0BDB0B58CB0CE
:10284000014604AC202520462A4602F0E2F800208A
:102850000390029501940920010301A8FFF704F8F1
:102860000CB0B0BDF0B581B00446002916D029489F
:10287000294F385C012832D11646A32080003D182C
:10288000626820462946FDF7F4FC002825D0012087
:102890003870002E28D0FEF75BF923E0C9208100B4
:1028A0001D4D284602F0C4F81A4801212954002081
:1028B000287019204601A9192046FDF799FC002827
:1028C0000BD0AA5D5F20C00029182046FDF7A6FCAA
:1028D000002802D00920000302E0114800E00F4860
:1028E000FFF702F801B0F0BD022038701920400156
:1028F000395C5F20C00038182A46FDF7CBFD002860
:1029000003D42846FFF754FFECE700203870054851
:10291000E6E7C046F60200002405002007B00000EC
:10292000876A000008B0000070B584B00446002932
:102930001CD03748374D285C022836D113468120F9
:102940008600A85962681118002B32D0FF235B0063
:10295000994256D82818011D2046FDF78AFC002808
:102960004FD0A85961684018A8511BE0C9208100C8
:10297000284D284602F05CF8254802212954002001
:10298000287019204601A9192046FDF731FC0028BE
:102990000DD0AA5D5F20C00029182046FDF73EFC3F
:1029A000002804D0092000032CE01B482AE01D4821
:1029B00028E0FF235B00994223D82818011D2046F8
:1029C000FDF757FC00281CD0A85961684018A85191
:1029D000002103910290281D01904120C0002C1875
:1029E00001A82146FDF7FCFD01280FD10120287028
:1029F000A320800029182046FEF742FAFDF7C8FF01
:102A000002E00748FEF770FF04B070BD0348F9E725
:102A1000F60200002405002007B0000005B0000009
:102A200004B00000876A000001DF002900D1704770
:102A30000846FFF70CF801DF7047000080B584B04E
:102A4000002002900190034801A9FFF7EDFF04B0B8
:102A500080BDC0463801006080B582B00020019082
:102A600002486946FFF7E0FF02B080BD3C0200600B
:102A700080B584B00191009002486946FFF7DBFF02
:102A800004B080BDF112016080B582B000200190D9
:102A900002486946FFF7CFFF02B080BD17B600605D
:102AA00080B586B000AF0FC702486946FFF7C3FF85
:102AB00006B080BDCD14016080B584B000210291C4
:102AC0000190034801A9FFF7B6FF04B080BDC046DE
:102AD00061BC006080B586B001AB07C3024801A9A4
:102AE000FFF7A9FF06B080BD5AC3006080B584B06F
:102AF00000AB07C302486946FFF79DFF04B080BDE5
:102B000040CB006080B584B00191009002486946D6
:102B1000FFF791FF04B080BDB0CD006080B584B0F8
:102B20000191009002486946FFF785FF04B080BD1F
:102B3000541C016080B584B0019100900248694640
:102B4000FFF779FF04B080BDB42F016080B584B079
:102B50000191009002486946FFF76DFF04B080BD07
:102B6000D6F1006080B584B0002102910190034845
:102B700001A9FFF760FF04B080BDC046CEF200603F
:102B800010B588B00A9C05940493039202910190B9
:102B9000024801A9FFF74FFF08B010BD69F30060BC
:102BA00010B588B00A9C0594049303920291019099
:102BB000024801A9FFF73FFF08B010BDB9F500605A
:102BC00080B586B001AB07C3024801A9FFF733FF08
:102BD00006B080BD020E016080B586B001AB07C3B0
:102BE000024801A9FFF727FF06B080BD4D2701600D
:102BF00010B58AB00E9C07940D9C06940C9C05940D
:102C00000493039202910190024801A9FFF713FF78
:102C10000AB010BDA848016080B582B000200190C4
:102C200003486946FFF700FFC0B202B080BDC0464E
:102C30004F9F006010B588B00A9C059404930392DE
:102C400002910190024801A9FFF7EEFE08B010BD05
:102C5000BA53006080B584B0019100900248694683
:102C6000FFF7E2FE04B080BDFCA8006080B582B032
:102C70000020019003486946FFF7D6FEC0B202B0BB
:102C800080BDC0463CA0006080B584B000210291A8
:102C90000190034801A9FFF7C7FE04B080BDC046FC
:102CA0005864006080B582B00020019002486946F7
:102CB000FFF7BAFE02B080BD6E6A006080B586B0D4
:102CC00001AB07C3024801A9FFF7AEFE06B080BD05
:102CD000D474006080B584B0002102910190034853
:102CE00001A9FFF7A1FE04B080BDC046BE9A0060F6
:102CF00080B584B00191009002486946FFF794FEC8
:102D000004B080BD8183006080B582B00020019056
:102D100002486946FFF788FE02B080BDBB840060B0
:102D200080B586B001AB07C3034801A9FFF77CFE5D
:102D300080B206B080BDC046E485006080B582B038
:102D40000020019002486946FFF76EFE02B080BD88
:102D5000B187006080B584B00021029101900348E2
:102D600001A9FFF761FE04B080BDC046060B0160FB
:102D700080B584B0002102910190034801A9FFF7BA
:102D800053FEC0B204B080BD8B9C0060024900209D
:102D900008600249086070475C0B0020580B002057
:102DA00010B507480221C1700121817000244470D0
:102DB0004F2101700421FFF79BFF204610BDC04644
:102DC0005009002070B582B06D4600242C7103209C
:102DD000E8700220A8706C704F262E7005212846DE
:102DE000FFF786FF0120E870A8706C702E70042138
:102DF0002846FFF77DFF204602B070BD10B582B0B7
:102E000001A80221C17001218170002444704F216A
:102E100001700421FFF76CFF204602B010BD0000D6
:102E200070B582B0144800240460144804606D46F4
:102E3000AC716971012028710421E9700526AE701A
:102E40006C704F242C70012A05DC002A0AD0012A5C
:102E50000AD1084606E0022A03D0032A04D1022040
:102E600000E00320694688716846C3710821FFF7B6
:102E70003FFF002002B070BD580B00205C0B00200B
:102E8000B0B582B00D4668460024447140210171FE
:102E9000C570032181704470502101700621FFF735
:102EA00027FF280601D5074800E0054801687F2272
:102EB00015400122AA400A430260204602B0B0BD7C
:102EC0005C0B0020580B0020B0B582B00D46684660
:102ED0000024447180210171C57003218170447008
:102EE000502101700621FFF703FF280601D507488E
:102EF00000E0054801687F2215400122AA40914365
:102F00000160204602B0B0BD5C0B0020580B0020D1
:102F1000080601D5054800E0034802787F200140FB
:102F200001208840104070475C0B0020580B0020A7
:102F300010B582B0684601710321C1700221817011
:102F4000002444704F2101700521FFF7D1FE204677
:102F500002B010BDB0B582B01C461546684643713C
:102F600020220271C17050210170D91C8170090AA0
:102F700041700621FFF7BCFE28462146FFF7B8FE48
:102F8000002002B0B0BD10B582B068464271302258
:102F90000271C170032181700024447050210170BE
:102FA0000621FFF7A5FE204602B010BDF0B581B0A6
:102FB000002814D015460E4604460746DC37452047
:102FC0008100204601F020FD002E00D07E6125709A
:102FD000012038702046FFF7D9FE002000E00220D3
:102FE00001B0F0BDB0B50446DC200121215417200A
:102FF000C5436019432189004058002806D0406825
:10300000FFF7A0FB02462179204690470835F0D112
:103010002046FFF7F3FE2046FFF7C2FE0020B0BDBA
:10302000002A08D003460020022B03D8DB00C91871
:10303000F423CA5070470220704780B5FFF7C2FEE4
:10304000002080BDF0B581B00C4605460026F4276F
:103050002846314600F05FF9002807D0E85900689B
:10306000FFF770FB02462846214690470837761C3A
:10307000032EEDD1002001B0F0BDF0B581B00C46BB
:1030800005460026F4272846314600F044F900287A
:1030900007D0E8594068FFF755FB0246284621460D
:1030A00090470837761C032EEDD1002001B0F0BD0B
:1030B00070B504460646D43635461435284600F029
:1030C00061FBD42001212150EE20205A7060317D17
:1030D0001F200840022808D001280BD000280ED15C
:1030E0002046294600F022F90EE02046294600F04D
:1030F000C6FA09E02046294600F09DFA04E0802047
:1031000001402046FFF7BCFE002070BDF0B583B043
:10311000029204460646DC36019100291AD00027A7
:10312000F4252046394600F0F6F800280DD0605905
:103130008069002809D03178032906D1FFF702FB06
:10314000034620460199029A984708357F1C032FB1
:10315000E7D12EE020468030416D032929D1006857
:10316000E16F81420AD9091AE167814200D3014621
:103170008AB22046029900F01FFD1AE00025F427CC
:103180002046294600F0C7F800280BD0E059006916
:10319000002807D03178032904D1FFF7D3FA01467C
:1031A0002046884708376D1C032DE9D1204600F0E2
:1031B0000AFD002003B0F0BDF0B581B0044607461B
:1031C000D437009100291AD03D460026F427204626
:1031D000314600F0A0F800280CD0E05940690028E2
:1031E00008D0297A032905D1FFF7ACFA0246204618
:1031F000009990470837761C032EE8D145E03868DF
:1032000002283CD1E069256AA84209D9401BE06147
:10321000F96B4919F96382B2204600F0BFFC2EE039
:10322000A6693046294601F0BBFBAE420CD300290B
:103230000AD17868864207D20025204629462A46C8
:1032400000F0ACFC7D601AE00025F42620462946FB
:1032500000F061F800280BD0A059C068002807D002
:10326000397A032904D1FFF76DFA014620468847D1
:1032700008366D1C032DE9D1204600F0B0FC387BE8
:10328000012802D1394600203873002001B0F0BD7A
:1032900070B50446DC2001212154802040212150BA
:1032A00021620025F4262046294600F034F8002843
:1032B00007D0A0594068FFF745FA02462179204619
:1032C000904708366D1C032DEDD1002070BD0174B0
:1032D00000207047002070470020704770B50446FA
:1032E000DC20205C032814D10025F4262046294642
:1032F00000F011F8002808D0A059C069002804D0B7
:10330000FFF720FA01462046884708366D1C032D3A
:10331000ECD1002070BD022906D8C9004018F42164
:103320004058411E884170470020704780B54A7858
:10333000042A08DD072A0FDC052A14D0062A1BD12F
:1033400000F021F81DE0002A10D0012A17D0032A2E
:1033500012D100F02AF914E0082A0AD0092A0BD168
:1033600000F0B1F80DE000F08BF80AE000F0F9F899
:1033700007E000F0DFF804E000F06EFB01E000F091
:1033800031F9002080BDB0B582B00D46044601A8D9
:10339000002101802046F0306B881A0A052A11DCD2
:1033A000012A1AD0022A21D0032A32D1D9B2022905
:1033B00034DC002958D001295CD0022929D10068C9
:1033C000C0680CE0062A19D0072A1FD00F2A20D186
:1033D0000068C069002802D11BE000680068FFF7A0
:1033E000B1F90246207C01A990472BE040680028F3
:1033F00029D0217C00291FD0C06A1EE0217C002931
:1034000007D14068002804D0406B16E0217C0029D9
:103410000DD02046294600F01FFB23E0032926D0CB
:1034200004292AD00529F4D100688069D7E74068CB
:103430000028EED0006B00E0806AFFF783F90146B8
:1034400001A88847014601A80288002A0AD0E88816
:10345000002807D0824200D3024601A802802046FD
:1034600000F086FB02B0B0BD00684068B7E70068B6
:103470000069B4E700688068B1E700684069AEE7BA
:1034800070B504468888002807D1C888002804D170
:103490002646DC363078032803D1204600F0DCFADB
:1034A00070BD88787F250540B57020462946FFF716
:1034B0003FFD204600F087FB002D01D0022000E0F8
:1034C0000120307070BD70B50D4604468E78022E16
:1034D0001CD2DC20215C2046DC30032906D00229E6
:1034E00014D1002E22D00321017008E0002E12D04A
:1034F0006068B0421AD0C1B22046FFF7BEFD6660D8
:1035000020463146FFF79EFD02280FD1204629466E
:1035100000F0A2FA70BD0021616002210170204616
:103520003146FFF7AAFD204600F04DFB204600F093
:103530004AFB70BD80B5CA88012A0AD1DC22825CB0
:10354000032A09D0022A04D10021816001460831F2
:1035500003E000F081FA80BD011D012200F008FBAC
:1035600080BDB0B50446DC20205CFE220240022A69
:103570000FD12046DC300121E16025460C35806802
:1035800000280AD0204600F02AFBE1680220084308
:1035900004E0204600F060FAB0BD0320E0600222A3
:1035A0002046294600F0E4FAB0BDB0B5044648888C
:1035B000012816D10D46E420012121502879022846
:1035C0000CD8C0002018F4214058002806D080688C
:1035D000FFF7B8F80246204629469047204600F0FB
:1035E000F2FAB0BDB0B50D460446DC20205CFE21E9
:1035F000014002291AD1688801281BD12046DC30FD
:1036000000218160287902280CD8C0002018F421FC
:103610004058002806D08068FFF794F802462046FC
:1036200029469047204600F0CEFAB0BD20462946F4
:1036300000F012FAB0BDB0B50D460446DC20205CA7
:10364000032816D12879022813D8C0002018F421A5
:10365000405800280DD08068FFF774F802462046D5
:1036600029469047E888002807D1204600F0ABFAA9
:1036700003E02046294600F0EFF90020B0BDB0B5C8
:1036800082B00D46044609797F200840072804D3FC
:103690002046294600F0E0F971E0022912D82A7884
:1036A00060231340202B0DD1CA00A218F423D25856
:1036B000002A07D09068FFF745F8024620462946C1
:1036C00090475CE06A78002A0AD0012A11D0032AC8
:1036D00055D1DC20205C03281AD002280FD0D7E770
:1036E000DC22A25C032A2ED0022AD1D100280BD1E1
:1036F00045E0DC22A25C032A31D0022AC8D1802016
:103700000A460243802A3AD02046FFF7B9FB36E04A
:103710006888002807D180200843802803D02046ED
:10372000FFF7AEFB2979022926D8C8002018F4211A
:103730004058002820D08068FFF704F80246204651
:103740002946904718E02046FFF7E2FB411E8841DA
:1037500001A908800222204600F00AFA0FE06A88D8
:10376000002A0CD1002807D02046FFF7ADFB2879AE
:10377000022801D8C000D9E7204600F024FA002032
:1037800002B0B0BD0A7802704A7842708A78CB786D
:103790001B029A1842800A794B791B029A18828080
:1037A0008A79C97909028918C180704710B5044621
:1037B0008021FFF765FB00212046FFF761FB10BD6C
:1037C000F0B583B00E46054602A80024048001A887
:1037D000047009786020084010D0202837D1707814
:1037E00001460A39022932D302281BD0032819D0F6
:1037F0002846314600F030F9022428E070780B2882
:1038000013D00A280ED0062821D1F07800242128D0
:103810000FD022282246214616D102AF384600F0AA
:1038200049F80AE001A901220EE0284600F0CBF990
:103830000DE002AF384600F029F801463A88F088DA
:10384000824200D302463A80284600F091F9204691
:1038500003B0F0BDF0B581B00446822103264025B7
:1038600032462B46FFF7DCFA02272046394632461D
:103870002B46FFF7D5FA204639462A46FFF783FB49
:10388000002001B0F0BD0020704700000146EC2090
:10389000064A125C0020002A01D0034600E00923FA
:1038A0000B80002A01D1024878447047600B002049
:1038B000441900000146EC20064A125C0020002A50
:1038C00001D0034600E022230B80002A01D10248E8
:1038D00078447047600B00202519000080B502294C
:1038E00003D103487844FEF7CDFC002080BDC046DC
:1038F000B9E2FFFFB0B502291AD1144602214022D5
:10390000FFF741FB0B4DA879002811D10220FEF7EB
:10391000E3F80246094878442146FEF7FDFB0228F9
:1039200006D1072028700120A8710348006868802C
:103930000020B0BDDC0A0020480B002087E2FFFF1A
:1039400070B504468321032540262A463346FFF7F7
:1039500067FA204629462A463346FFF761FA204691
:1039600029463246FFF70FFB002070BD002070474C
:103970000020704780B5032903D103487844FEF73F
:1039800081FC002080BDC04631E2FFFFB0B50329B5
:103990001AD1144603214022FFF7F5FA0B4DA879FE
:1039A000002811D10320FEF797F802460948784411
:1039B0002146FEF7B1FB022806D10B202870052016
:1039C000A8710348006868800020B0BDDC0A0020B0
:1039D000480B0020FFE1FFFF1220088001487844D7
:1039E0007047C0465A1A00000420088001487844F5
:1039F0007047C0465C1A00000E20088001487844D9
:103A00007047C046501A00000E20088001487844D4
:103A10007047C0464E1A00000A20088001487844CA
:103A20007047C0464C1A00000E20088001487844B8
:103A30007047C0462E1A00000E20088001487844C6
:103A40007047C0461E1A000039200880014878449B
:103A50007047C046C917000080B50A7852B2002AE4
:103A600002D4FFF7A3FE80BD4A78772A0CD0062A3D
:103A7000F7D14A88144B9A42F3D1CA88122A00D34C
:103A80001222124979441CE08A88042A06D1CA8885
:103A9000282A00D328220E49794412E08A88052A70
:103AA00006D1CA88922A00D392220A49794408E0B2
:103AB0008A88072AD5D1CA88B22A00D3B2220649F9
:103AC000794400F055F880BDEE030000EC170000CB
:103AD000DC190000D617000054180000B0B50446E9
:103AE000452085001548294600F08EFF14480C300B
:103AF000122100F089FF002C1BD0104C20462946D3
:103B000000F082FF0F497944002520462A46FFF73E
:103B10004DFA0D4A7A4428462146FFF781FA0120E2
:103B20000A4A7A442146FFF77BFA2046FFF785FAD6
:103B3000B0BD0248FFF756FAB0BDC046600B00208A
:103B4000DC0A00204A170000B4180000DE1800004C
:103B500040210180014878447047C0464619000062
:103B60000A210180014878447047C0467619000058
:103B7000B0B50C46D421022343508261C261014694
:103B8000D431CC63016A914200D80A4693B2002531
:103B900029462246FFF7DEF92846B0BDB0B50C46EF
:103BA000016A914200D80A4693B20025294622466E
:103BB000FFF7D0F92846B0BD10B500242146FFF725
:103BC000E2F9204610BD10B5D42104224250002451
:103BD000214622462346FFF7BDF9204610BD10B509
:103BE000D42105224250002421462246FFF7CBF97A
:103BF000204610BD10B511490A780120012A1BD8B2
:103C0000521E0C235343CB189A8B002A14D05969A7
:103C1000002911D01B8B002B05D194006418241FA0
:103C20002468E41C08D1934205D29A005118091F58
:103C30000968891C00D0002010BDC046480800203B
:103C400010B50E490A780120012A16D8521E0C23FD
:103C50005343CB189A8B002A0FD0596900290CD0F6
:103C60001B8B541E9C4208DD921E9A4204DD9A0072
:103C700051184968891C00D0002010BD4808002058
:103C80000948017800290CD00C224A431118C88930
:103C90008989814201D9012004E0814201D2FF20BB
:103CA00000E0002040B270474808002070B501468F
:103CB000154A1078012826D8401E0C234343D218F9
:103CC000958B002D1FD05469002C1CD0012D1AD0CB
:103CD000138B6E1E9E4216DD16461836AD1E9D4293
:103CE0000ADB9D002C196468A51C0CD0E41C03D1D0
:103CF00000213180518304E05C1C3480538300290F
:103D000001D000F039F870BD4808002080B50120CE
:103D1000FFF7CCFF80BD0000B0B516490878012838
:103D200026D8401E0C22424389188A8B002A1FD0B5
:103D30004C69002C1CD0012A1AD00D8B0B4618336D
:103D4000002D09D0AA001219121F1268921C0FD060
:103D50006A1E1A804D8309E095002C19241F2468DF
:103D6000E41C05D1941E1C80521E4A8300F004F806
:103D7000B0BDC04648080020F0B581B004460C2014
:103D800060431A490E187069318B8900405803212D
:103D9000C943884227D8374618371436FEF7D2FC75
:103DA00031683A889200895805680846FEF7CAFCCF
:103DB000002D06D00068FEF7C5FC01462046884766
:103DC00011E08068FEF7BEFC05463068398889003E
:103DD0004058FEF7B7FC4068FEF7B4FC02462046A8
:103DE000294600F05DF801B0F0BDC046480800204B
:103DF000F0B581B029480178012925D84C1E0C2145
:103E000061434518A98B00291ED0686900281BD082
:103E10002A8B8A4218D22F4614372E461836910024
:103E20004058FEF78FFC806800280FD03868318832
:103E300089004058FEF786FC8068FEF783FC014647
:103E40000022204600F02CF801B0F0BD28461C30BE
:103E500000880028F8D0801E32889042F4DB396850
:103E600093005B185B68DF1C10D09B1CECD11346E1
:103E7000920052185268921C04D15B1C33809AB293
:103E80009042F5DA581C30806B8302E000203080CD
:103E900068832046FFF770FFD6E7C0464808002039
:103EA00070B5002800D070BD14460D46194E301D67
:103EB0001A2100F0A9FD002DF5D02846FEF742FC9E
:103EC0007061B18B8A008258521C06D0491C8AB29C
:103ED00092008258521CF9D1B183002C16D0204692
:103EE000FEF730FC04467069318B89004058411C54
:103EF0000CD0FEF727FCA04208D0308B7083401C0A
:103F00003083716980B280000858F0E70020FFF725
:103F100033FF70BD4808002080B50A49884208D0A8
:103F20000949884208D00949884208D1FFF7F4FEC0
:103F300005E0FFF75DFF02E00120FFF7B7FE00207C
:103F400080BDC046030000800200008001000080A8
:103F500010B50146002000290FD1084CA18B228BFF
:103F60008A420AD26069FEF7EDFB218B8900405836
:103F7000FEF7E8FB4068FEF7E5FB10BD48080020AF
:103F800080B503480078401EFFF7E2FF80BDC046C1
:103F90004808002010B5044600F0E6FB24206043EA
:103FA00008490818C82105224254C421064A7A4407
:103FB0004250D421054A7A444250C1210122425440
:103FC00010BDC046480800203A1500005FFFFFFF03
:103FD00080B500F063FB002807D0A12203498A5C6A
:103FE000112A02D1B822024B8B5280BD4808002012
:103FF0000A80000010B50446FFF7CCFF2420604380
:1040000004490818D021044A7A444250204600F05E
:1040100085FB10BD48080020C5FFFFFFF0B581B04B
:10402000009316460F460546FFF7B4FF094C61683A
:10403000221D0A23384600F055F924206843201831
:10404000D4214650D021009A4250284600F066FB09
:1040500001B0F0BD4808002010B50446FFF790FFFE
:104060004168044A7A44044B7B442046FFF7D6FF5C
:1040700010BDC046150000002500000080B50349B2
:10408000794400F0F9F8002080BDC046D5FFFFFF5D
:1040900010B50446FFF774FF06C8204600F04EF83E
:1040A00010BD0000F0B583B000920E4602901A4C8D
:1040B000277B0025E8430190FFF7E2FD012804D0AB
:1040C000401C06D10198606000E06560A560E56075
:1040D00025612773029800F047FB4120800020589B
:1040E000304301D10D4E7E44009F221D0A233046ED
:1040F000019900F0F7F8A060002805D0401E616823
:10410000814205D9606003E06560A560E5602561D6
:104110000298B84703B0F0BD48080020E509000048
:1041200010B50446FFF714FF4168034A7A4420465D
:10413000FFF7B8FF10BDC04629FFFFFFF0B583B001
:1041400015460E460746464CA034202220463946E6
:1041500000F063FC7878102818DC01282DD00228A4
:1041600034D0102878D1002E58D03D498D68304683
:104170000E46FEF7E7FA03467068B168401C0090EF
:104180000191012D55D8394A7A4454E0014611393C
:10419000032961D20F21084001285DD13048068AE9
:1041A000002E59D07F2E00D37F260291002D19D0EA
:1041B0002846FEF7C7FA2A4F18E0FFF71BFD002834
:1041C0004AD02748406800280AD045E0FFF738FD6C
:1041D000002841D0224948688968491E88423BD15D
:1041E000002439E0412080001D4F3858F9894018DB
:1041F00000903D46203580211E4A7A4428463346A9
:10420000FEF7B8F8BC203D50397B029801401548B4
:104210000F2900D0801CB82178521DE0104E716823
:10422000B0680090304620304B1C8021104A7A4400
:1042300004E00D4A7A44304620308021FEF79AF897
:1042400030462030BC2170500648317B09090E29C8
:1042500000D8801CB8217052204603B0F0BDC04683
:10426000480800200880FFFF541300008B0900005D
:10427000651300001409000080B5164A90420BD067
:10428000154A904213D0154A90420FD11448426803
:10429000002A1BD0521E14E011498868002803D060
:1042A0004968401E884201D1FFF7A2FD80BD0C483D
:1042B000426883685B1E9A4202D1FFF727FD80BDEA
:1042C000521C42600078401E884780BDFFF724FDE5
:1042D00080BDC04603000080020000800100008015
:1042E00048080020F0B58DB00023938102935381DC
:1042F0004B1C059303D053688B4200D8AEE0049169
:104300000392002802D0FEF71DFA03E0412080004E
:1043100054490858044600F0CDFB014601200290A4
:10432000012900DA9AE066184E48027B0F200C90B3
:1043300002400020079001940896B442204600D81D
:104340003046001B0690002320460994E518B5422C
:1043500039D21F460A905B1C180624D000210B930B
:104360001E46207840B2C3B2202B0CD300280AD4BA
:104370003D4878441818203803780F2A08D10C9843
:104380000340C91806E00A2B08D00D2B02D105E026
:1043900018090918761E641C3006E2D17229089E9D
:1043A000099C0B9B11D8297808460938022806D3A6
:1043B000202904D02D2902D05F2900D00A9D28464B
:1043C0000A29C3D103E0069B01E03B460A98E118A5
:1043D000B14215D2002B13D0A04211D007461D4682
:1043E000481E03782C2B06DC18460938022806D311
:1043F000202B04D018E02D2B01D05F2B14D12B469D
:1044000005980028049906D00798884203D103989C
:10441000406888421DD8E418B44202D20798401C74
:104420000790B44289D310E009782C292B4606DC8A
:10443000084609380228E3D32029E1D003E02D29DA
:10444000DED05F29DCD03B1BDAE70798401C0290E6
:1044500004E003998B810198201A488102980DB0DD
:10446000F0BDC0464808002027120000F0B581B01A
:104470000646FFF785FD0546114F3C46A034202235
:104480002046314600F0C9FA70780F2806DC012872
:104490000AD0022811D1FFF7D3FB07E0102809D07A
:1044A00011280AD1686806E0FFF7A4FB002804D0B1
:1044B000002402E02868BC217850204601B0F0BDFD
:1044C0004808002010B5044600F04EF9242060434F
:1044D0000B490818C82105224254C421094A7A44CC
:1044E0004250D421084A7A444250D021074A7A44A3
:1044F0004250C12101224254204600F00FF910BD64
:10450000480800201E1100002FFAFFFF7BFFFFFF6D
:10451000F0B581B00646FFF733FD0546144F3C4623
:10452000A03420222046314600F077FA70780F2818
:1045300007DC012811D0022812D00F2815D12868D5
:1045400008E01038022810D2A120385C0007800E45
:1045500028184068BC21785007E0FFF74BFB01E0CA
:10456000FFF76EFB002800D00024204601B0F0BD0C
:104570004808002010B5044600F0F6F824206043F7
:1045800008490818C82106224254C421064A7A4420
:104590004250D421054A7A444250C121012242545A
:1045A00010BDC046480800200E1100007FF9FFFF33
:1045B000F0B581B00646FFF7E3FC0546114F3C46D7
:1045C000A03420222046314600F027FA70780F28C8
:1045D00006DC01280AD0022811D1FFF731FB07E0E1
:1045E000102809D011280AD1686806E0FFF702FBFD
:1045F000002804D0002402E02868BC21785020461E
:1046000001B0F0BD4808002010B5044600F0ACF839
:10461000242060430B490818C82105224254C421B4
:10462000094A7A444250D421084A7A444250D0215F
:10463000074A7A444250C12101224254204600F0E8
:104640006DF810BD480800203A110000EBF8FFFF9C
:104650007BFFFFFF80B5FFF75BFF002807D0A1229B
:1046600003498A5C102A02D3B8220A238B5280BDE8
:104670004808002010B50446FFF77CFF2420604363
:1046800004490818D021044A7A444250204600F0D8
:1046900045F810BD48080020C9FFFFFFF0B581B004
:1046A0000646FFF76DFC0546114F3C46A03420221C
:1046B0002046314600F0B1F97078022804D0012874
:1046C00008D1FFF797FA01E0FFF7BAFA00280BD0FC
:1046D000002409E0A120385C0106090F04D000077E
:1046E000800E2858BC217850204601B0F0BDC0464D
:1046F0004808002010B5084C207800280AD1204630
:10470000C030242100F080F900206061A061E061E8
:1047100001202070401E10BD48080020B0B504469E
:104720001048017800290ED0621C8A420BD1242146
:1047300061434518FDF7B0FAC220002129522046F6
:1047400000F022F8B0BD0022D243A21A531E9A41B3
:104750004B1E99410A4204D14178AA2901D169210D
:104760004170B0BD4808002010B50446FDF794FA2A
:10477000002C00D010BD0348C030242100F044F9C3
:1047800010BDC04648080020F0B581B004460420A2
:10479000FEF7EEFA002839D0972837D0242060435E
:1047A0001B490C18C420205800282FD02546C4359A
:1047B0002646C2362746D037C8343088217880B2A2
:1047C000884223D2FEF7A0FA00281FD1FEF724FA70
:1047D000AA2803D1FEF74AFAAA2817D128683188F7
:1047E000490140183968002902D08847002807D0BD
:1047F000012803D12868318849014018FCF75AFD87
:104800003088401C308029680029D7D101B0F0BD24
:104810004808002080B5002802D0FDF7ADFF02E077
:104820000248FDF761F8FDF7F7F880BD85690000E3
:10483000B0B5002814D0114D022028701920400175
:10484000295C5F20C0002818A3229200AC182246E1
:10485000FBF720FE002808D42046FDF7A9FF09E059
:10486000064800210170064802E000202870054833
:10487000FDF73AF8FDF7D0F8B0BDC046240500209A
:104880008569000008B00000130A435440184270C4
:1048900070470000002243088B4274D303098B4207
:1048A0005FD3030A8B4244D3030B8B4228D3030C00
:1048B0008B420DD3FF22090212BA030C8B4202D3A2
:1048C0001212090265D0030B8B4219D300E0090ACA
:1048D000C30B8B4201D3CB03C01A5241830B8B42D3
:1048E00001D38B03C01A5241430B8B4201D34B03BC
:1048F000C01A5241030B8B4201D30B03C01A524121
:10490000C30A8B4201D3CB02C01A5241830A8B42A5
:1049100001D38B02C01A5241430A8B4201D34B028E
:10492000C01A5241030A8B4201D30B02C01A5241F2
:10493000CDD2C3098B4201D3CB01C01A52418309A6
:104940008B4201D38B01C01A524143098B4201D3E0
:104950004B01C01A524103098B4201D30B01C01A0B
:104960005241C3088B4201D3CB00C01A5241830885
:104970008B4201D38B00C01A524143088B4201D3B2
:104980004B00C01A5241411A00D201465241104612
:104990007047FFE701B5002000F006F802BDC046F1
:1049A0000029F7D076E770477047C046F0B5CE468D
:1049B000474680B5070099463B0C9C4613041B0CE8
:1049C0001D000E0061460004140C000C45434B43CF
:1049D00060436143C0182C0C20188C46834203D9D5
:1049E00080235B029846C444494679437243030CD2
:1049F00063442D042D0CC918000440198918C0BC4B
:104A0000B946B046F0BDC04610B5002200F009F826
:104A100010BD10B500F010F810BD10B500F015F87D
:104A200010BD0B0010B511001A0000F021F810BDE8
:104A300010B500F046F810BD002310B59A4200D121
:104A400010BDCC5CC4540133F8E710B5884202D9DC
:104A50008B18984203D3002307E08B5C8354013A00
:104A6000FBD210BDCC5CC45401339A42FAD1F8E7B2
:104A700003008218934200D1704719700133F9E79F
:104A8000F0C041464A4653465C466D4676467EC077
:104A90002838F0C80020704710307CC890469946EE
:104AA000A246AB46B54608C82838F0C8080000D171
:104AB000012018470023C25C0133002AFBD1581E95
:104AC000704710B50A000021FFF7D2FF10BD270084
:104AD0002F00F80000000000020EFFFFFFFFFFFFA5
:104AE000FFF738A13B4B920E9411AE6DA5F40B036A
:104AF00058B10800000000000010FFFFFFFFFFFF9B
:104B0000FFFFB781126DCAE7B2321E66A241ADC681
:104B10004D2F252E2A7300257300436F6E66697230
:104B20006D205075626B657900506174680041704A
:104B300070726F76650052656A6563740030783014
:104B400034252E2A4800526576696577005478002E
:104B50004163636F756E74204164647265737300A2
:104B600054617267657420416464726573730053A5
:104B7000656C6563746F720043616C6C6461746131
:104B8000202333003078252E2A48004861736800BE
:104B900043616C6C646174613A0000009C4ED0C04B
:104BA0001A4BD0C00946D0C09C4BD0C000000000BA
:104BB00000000000294BD0C0000200202141D0C0DD
:104BC000B44BD0C00000000000000000224BD0C059
:104BD0003C0200202141D0C0CC4BD0C000000000DE
:104BE00000000000C908D0C0000000000000000064
:104BF00000000000E44BD0C0FFFFFFFF144FD0C007
:104C00002E4BD0C0C544D0C0FC4BD0C0F44BD0C05C
:104C100000000000D908D0C0000000000000000023
:104C200000000000144CD0C0FFFFFFFF2C4ED0C08E
:104C3000364BD0C0C544D0C02C4CD0C0244CD0C0C2
:104C400000000000A44BD0C0BC4BD0C0D44BD0C09F
:104C5000044CD0C0344CD0C0FFFFFFFF9C4ED0C0EE
:104C6000464BD0C04D4BD0C07546D0C05C4CD0C078
:104C70000000000000000000504BD0C0C80200201F
:104C80002141D0C0784CD0C00000000000000000DE
:104C9000604BD0C00C0300202141D0C0904CD0C04C
:104CA00000000000000000006F4BD0C05003002047
:104CB0002141D0C0A84CD0C000000000000000007E
:104CC00070030020900300202141D0C0C04CD0C010
:104CD0000000000000000000D1030020F1030020CC
:104CE0002141D0C0D84CD0C000000000000000001E
:104CF000784BD0C0320400202141D0C0F04CD0C04D
:104D000000000000000000009C4ED0C0464BD0C008
:104D10008B4BD0C07546D0C0084DD0C000000000FD
:104D2000000000008B4BD0C0D80400202141D0C02F
:104D3000244DD0C00000000000000000144DD0C081
:104D40002C4DD0C0044CD0C0344CD0C0FFFFFFFF6E
:104D5000535441524B4E45540000000000000000E7
:104D6000FFFFFF00FFFFFFFF7FFE7FFE3FFC3FFCDA
:104D7000018007E00FF01FF80FF08FF1C7E3E7E7BE
:104D8000FFFFFFFF10000000100000000100000006
:104D90005C4DD0C0644DD0C000000000FFFFFF009C
:104DA000E001FEC1FD387F06DF81FFC47FF3FFBC59
:104DB0001FE7E7F13FF80778000000000E00000051
:104DC0000E00000001000000984DD0C0A04DD0C0E2
:104DD00000000000FFFFFF000000FEC1FF3030ECCC
:104DE0000D03C3DE3030EC0D03C3C0F03FF8070005
:104DF000000000000E0000000E0000000100000096
:104E0000D04DD0C0D84DD0C000000000FFFFFF0043
:104E1000008001E6C071383807FC001E8007F003EF
:104E2000CEC1E13870061800000000000E0000003E
:104E30000E00000001000000084ED0C0104ED0C08F
:104E400000000000FFFFFF00000000000C8007F0E2
:104E500003FEC1FFF03FF003CC0033C00C000000A4
:104E6000000000000E0000000E0000000100000025
:104E7000404ED0C0484ED0C000000000FFFFFF00F1
:104E8000000000001EE01F1C0E03638C19630C0C55
:104E900087837F8007000000000000000E000000F4
:104EA0000E00000001000000784ED0C0804ED0C03F
:104EB00000000000FFFFFF0048124208040000004D
:104EC0000700000001000000B04ED0C0B84ED0C0B6
:104ED00000000000FFFFFF00218424010400000007
:104EE0000700000001000000D04ED0C0D84ED0C056
:104EF00000000000FFFFFF00000000000000C000F5
:104F0000380067E0381C9C037E000F800100000021
:104F1000000000000E0000000E0000000100000074
:104F2000F04ED0C0F84ED0C0696E766F6B65000051
:104F300004049EE3EBA8C1600700EE1B87EB599FBA
:104F400016716B0B1022947733551FDE4050CA68E0
:104F50000403CA0CFE4B3BC6DDF346D49D06EA0EA5
:104F6000D34E621062C0E056C1D0405D266E10265E
:104F70008A040234287DCBAFFE7F969C748655FC54
:104F8000A9E58FA8120B6D56EB0C1080D17957EB69
:104F9000E47B03B056F100F96FB21E889527D41F49
:104FA0004E39940135DD7A6C94CC6ED0268EE89E15
:104FB00056150404FA56F376C83DB33F9DAB26560A
:104FC000558F3399099EC1DE5E3018B7A6932DBA6E
:104FD0008AA37803FA0984C931C9E38113E0C0E4E4
:104FE0007E4401562761F92A7A23B45168F4E80F08
:104FF000F5B54D0404BA4CC166BE8DEC764910F788
:105000005B45F74B40C690C74709E90F3AA372F0DA
:10501000BD2D69970040301CF5C1751F4B971E468A
:10502000C4EDE85FCAC5C59A5CE5AE7C48151F278C
:10503000B24B219C04054302DCB0E6CC1C6E44CC90
:10504000A8F61A63BB2CA65048D53FB325D36FF101
:105050002C49A5820201B77B3E37D13504B3480401
:105060006268D8AE25CE98AD783C25561A879DCC7F
:1050700077E99C2426537461726B6E6574006973C2
:105080002072656164790056657273696F6E0032D3
:105090002E302E300041626F7574005175697400B6
:1050A000537461726B6E65742041707000286329BF
:1050B0002032303232204C65646765720042616391
:1050C0006B000000844DD0C07550D0C07E50D0C061
:1050D0007546D0C0C450D0C00000000000000000E1
:1050E0008750D0C08F50D0C0F53FD0C0E050D0C066
:1050F0000000000000000000F919D0C0000000000E
:105100000000000000000000F850D0C0FFFFFFFFCB
:10511000F44DD0C09550D0C0C544D0C01051D0C0BF
:105120000851D0C0000000000D1AD0C000000000DF
:1051300000000000000000002851D0C0FFFFFFFF6A
:10514000644ED0C09B50D0C0C544D0C04051D0C0E8
:105150003851D0C000000000D050D0C0E850D0C0BE
:105160001851D0C04851D0C0FDFFFFFFFFFFFFFF27
:10517000A050D0C0AD50D0C0F53FD0C07051D0C00D
:1051800000000000000000003D1AD0C00000000038
:1051900000000000000000008851D0C0FFFFFFFFAA
:1051A000BC4DD0C0BD50D0C0C544D0C0A051D0C0AF
:1051B0009851D0C0000000007851D0C0A851D0C094
:1051C000FDFFFFFFFFFFFFFF6000020000303132F4
:1051D000333435363738396162636465663031326D
:1051E00033343536373839414243444546000000B0
:1051F00009211101000122220006A0FF0901A101DD
:105200000903150026FF007508954081080904155B
:105210000026FF00750895409108C0050F3900026F
:105220001810050038B60834A909A0478BFDA076F0
:105230008815B66500011E001C100500DF60DDD872
:105240008945C74C9CD2659D9E648A9F00000306D9
:10525000B2007700D939D0C0E939D0C0F939D0C00F
:10526000093AD0C0193AD0C0293AD0C0393AD0C092
:10527000493AD0C012034D0053004600540031009B
:1052800030003000770092000000000105000100AE
:1052900088000000070000002A0044006500760036
:1052A00069006300650049006E00740065007200CB
:1052B0006600610063006500470055004900440036
:1052C00073000000500000007B00310033006400D8
:1052D000360033003400300030002D00320043002F
:1052E000390037002D0030003000300034002D0030
:1052F00030003000300030002D00340063003600F4
:1053000035003600340036003700360035003700EF
:1053100032007D00000000000A00000000000306CB
:10532000B200080001000000A8000800020001000F
:10533000A0001400030057494E55534200000000DE
:105340000000000000008400040007002A00440060
:105350006500760069006300650049006E00740016
:10536000650072006600610063006500470055003B
:10537000490044007300000050007B0043004500DA
:105380003800300039003200360034002D0034007F
:105390004200320034002D00340045003800310056
:1053A0002D0041003800420032002D00350037004A
:1053B0004500440030003100440035003800300022
:1053C000450031007D000000000000005538D0C0CD
:1053D0008738D0C0C137D0C00000000000000000F6
:1053E000DD38D0C0F538D0C000000000000000005B
:1053F00000000000513BD0C0513BD0C0513BD0C059
:10540000613BD0C04139D0C06D39D0C07139D0C0F6
:1054100000000000000000007539D0C08D39D0C0F8
:10542000000000000000000000000000513BD0C060
:10543000513BD0C0513BD0C0613BD0C012011002E3
:1054400000000040972C1110010201020301040327
:1054500009040E034C0065006400670065007200DB
:105460000E034E0061006E006F00200053000A031F
:10547000300030003000310028000000000104003E
:105480000100000000000000010157494E55534241
:10549000000000000000000000000000000000000C
:1054A00009024000020102C03209040000020300A8
:1054B0000002092111010001222200070582034098
:1054C0000001070502034000010904010002FFFF7B
:1054D000FF020705830340000107050303400001A5
:1054E0000A06000200000040010000000300000066
:1054F000000080002000000001000000000000000B
:10550000FFFFFF0000000000000000000501020096
:105510000C0004000700000000000000FFFFFF0077
:105520000000000000000000BC4ED0C005027A0060
:105530000C0004000700000000000000FFFFFF0057
:105540000000000000000000DC4ED0C00710060084
:105550000C0074002000000000000000FFFFFF00AE
:105560000000000008800000000000000711060095
:105570001A0074002000000000000000FFFFFF0080
:1055800000000000088000000000000025732028B3
:1055900025642F2564290025642F256400333346B4
:1055A00077669A8923343466663344334568666780
:1055B00067886668676868333365666556AA787772
:1055C00077886666888834457866AB899977997854
:1055D00066768876AB68676745454567566767773F
:1055E00056776756677734456734AA777777774574
:1055F000564577679A6767564566456676000000A8
:1056000003000000000080002000000001000000F6
:1056100000000000FFFFFF0000000000000000008D
:10562000050102000C00040007000000000000005B
:10563000FFFFFF000000000000000000BC4ED0C0D3
:1056400005027A000C0004000700000000000000C2
:10565000FFFFFF000000000000000000DC4ED0C093
:1056600005103800020010001000000000000000CB
:10567000FFFFFF00000000000A80000000000000A3
:10568000071100001C008000200000000000000046
:10569000FFFFFF0000000000088000000000000085
:1056A0000300000000008000200000000100000056
:1056B00000000000FFFFFF000000000000000000ED
:1056C000050102000C0004000700000000000000BB
:1056D000FFFFFF000000000000000000BC4ED0C033
:1056E00005027A000C000400070000000000000022
:1056F000FFFFFF000000000000000000DC4ED0C0F3
:10570000050F10000800100010000000000000004D
:10571000FFFFFF000000000000000000000000008C
:10572000071029000C00800020000000000000008D
:10573000FFFFFF0000000000080000000000000064
:10574000071129001A00800020000000000000005E
:10575000FFFFFF0000000000080000000000000044
:105760000300000000008000200000000100000095
:1057700000000000FFFFFF0000000000000000002C
:10578000050102000C0004000700000000000000FA
:10579000FFFFFF000000000000000000BC4ED0C072
:1057A00005027A000C000400070000000000000061
:1057B000FFFFFF000000000000000000DC4ED0C032
:1057C000051038000200100010000000000000006A
:1057D000FFFFFF00000000000A8000000000000042
:1057E000071100001C0080002000000000000000E5
:1057F000FFFFFF00000000000A8000000000000022
:04000005C0D0000166
:00000001FF
