:02000004C0DE5C
:100000002DE9F0418CB062B602F0D0F8254F4FF4E4
:1000100088746D4600264FF0010800BF09EB070009
:10002000214605F071FB284605F0B0FB81B2052999
:10003000ADF82C001CD021BB284603F0F1F90A9042
:1000400002F000FA304604F039F9404604F036F97F
:1000500002F096F802F004F803F0D8F9A84202D1B1
:100060000A9803F0DDF9BDF82C000028D6D017E07F
:100070000A98ADF82C6003F0D3F90A9803F0D0F990
:10008000CCE70A980024ADF82C4003F0C9F90A988F
:1000900003F0C6F902F048F820460CB0BDE8F08144
:1000A00002F087F8A8030000F0B5F5B06DAE0D467C
:1000B000074630462021144605F026FB142C18D3A1
:1000C00002A84FF4807101F0B3F8C0B9202001906C
:1000D00002A801213A464023009601F0A1F870B928
:1000E00002A801F099F806F10C012846142205F047
:1000F0000EFB0020132C88BF012075B0F0BD02F06C
:1001000058F800002DE9F04D8EB090F800B004468C
:100110000BF07F0ABAF1050F0D910B9200F0B98038
:10012000208B154600F0E0FA002800F0B28090F82D
:1001300006C020894FF0000E08900D98002800F0AE
:100140008681002D00F08381E18843F23903643118
:1001500089B2208BCDE900310D99EAB20026CDE9B4
:1001600003120021002243F239030027D046CDF8C4
:1001700028C002960C97059600F0F2FAE188052D4A
:100180001FFA80FACDF818B0C0F0AC81514580F06C
:10019000A981208BEB4A002603217A44642343F291
:1001A0003907CDE90073CDE90262049100210022F4
:1001B00043F23903059600F0D3FA0D9AE1884FEA2D
:1001C000550EB6EB550F02EB55020C9200F08B81E9
:1001D000DDF828C08A4540F28881B5EB0E0700F0B3
:1001E000848180B20990002643F23903208BCDE947
:1001F00000310D995FFA8EF24FF0000ACDE903123B
:100200000021002243F23903F346CDF808A0CDF8CF
:1002100014A000F0A5FAE18843F2390385B2208BDF
:10022000CDE900310C99FAB2CDE903120021002288
:1002300043F23903CDF808A0CDF814A000F090FAED
:10024000099980B26A18E18802EB000A8A4540F2F7
:100250004482012E06D046B9DE46DDF828C0ABF157
:10026000010E05E00C9801300C90DDF828C0DE4648
:100270000B9DBEF1000F18BF8A4540F23681DDE9C3
:100280000C20801A47194FF0010020EA0606ABD176
:100290002BE100200C9000204FF0000E08904FF052
:1002A000000C0020079000200990E3882689E77A57
:1002B00058087108B0EB560F0A4638BF5A08BA42C0
:1002C000B84603D888422CBF88468046AAF1010070
:1002D000042807D3BAF1060F00F0BC80BAF1070F6B
:1002E00040F0D080BAF1040F08BF002F0BD0BBF153
:1002F000810FCDF828C00FDCBBF1020F13D0BBF18A
:10030000070F10D0C1E02069B4F90210B4F904203D
:10031000009603F0C5F8B5E0BBF1870F03D0BBF141
:10032000820F40F0B2806069B4F90210B4F9042081
:10033000BAF1070F08BFA2EB0C02089F08BF3E46A8
:100340000096754603F0ACF8AC460B98DDF828E053
:10035000002800F097800D98002800F09380BAF1F3
:10036000040F00F08F805846D4F8108062690BF0BB
:100370007D00012806D1207B0128404604BF10469D
:1003800042468046079EB4F90210099DB346208B71
:10039000B4F904706B18BAF1070F08BFCEF1000B67
:1003A000E1880BEB070E491BBAF10707258918BF37
:1003B0003746CDE900E10D99ED1B0026CDE9031C80
:1003C000414602950596154600F0CAF90C99002998
:1003D00058D0B4F90420E188DDF824A00895B4F8D9
:1003E00018E083B20BEB02002A462589A1EB0A062E
:1003F000BC49ED1B79444FF0030CCDE90006CDE973
:100400000251704641460026CDF810C0059600F016
:10041000A7F9E3882589B4F90410A3EB0A0683B28F
:10042000E81B0B9F0D9D0BEB01022F440C9D218BB4
:10043000CDE9002602AA7F1BA1C2089A4FF0000C4A
:1004400008464146CDF814C000F08AF91AE00020B1
:100450000C9026E7B4F90210B4F90420237B20693C
:100460003944012B3A4404D0A37A9F4201D9FB1AA4
:1004700000E000236669FF25CDE900533B46029664
:1004800000F062FA0EB0BDE8F08D207BCDF820E0E0
:10049000012859D1B4F902102069B4F9042041446B
:1004A000A3EB4803009602F0FBFFB4F90420238974
:1004B0002069B4F902104244A3EB48074346009771
:1004C00002F0EEFFB4F90220E188B4F90430278984
:1004D0002069A2EB0802114408EB0302A7EB4807CE
:1004E000434694E0AE46DDF828C0208B00F440423D
:1004F000B2F5004F05D0B2F5804F08D1A1EB0A014B
:1005000002E04908A1EB5A0121EAE17100E0002173
:10051000DDF818B000F44050C246B0F5005F099114
:1005200006D0B0F5805F09D12089A0EB0C0006E071
:1005300020896FEA5C0101EB500000E00020079089
:10054000B3E600BFCF560000B4F902106069B4F9F9
:1005500004204144A3EB4803009602F0A1FFB4F944
:10056000042023896069B4F902104244A3EB4807D0
:100570004346009702F094FFB4F902306FEA080294
:10058000E188B4F904701A4423896069114408EBC6
:100590000702A3EB48074346009702F081FFB4F936
:1005A0000210E3882069B4F90420A77A4144A3EB40
:1005B0004803009702F074FFB4F904202389B4F9CA
:1005C00002101A44E3882069A77A4144013AA3EB58
:1005D0004803009702F064FFB4F9042027892069DA
:1005E000B4F90210A37A4244A7EB4807009702F03F
:1005F00057FFE188B4F90220B4F904302789206953
:10060000114408EB0302A37A0139A7EB48070097CE
:1006100002F046FFDDF820C0B8F1020FFFF495AEFE
:10062000207BCDF818B001284FF0000B04D0A07A41
:10063000B8EB000028BF8346B4F90210B4F90420D7
:10064000D4E90407C02341444244CDE9003B43467A
:10065000029700F079F9E188A27AB4F90230B4F98E
:10066000047020691944424466693023891A08EBF2
:100670000702CDE9003B4346029600F065F9B4F964
:1006800004202389A77AB4F902101A4408EB07035F
:1006900020696769D21A0C234144CDE9003B4346E7
:1006A000029700F051F9E188A27AB4F90230B4F966
:1006B0000470194442442389891ABA1A2069676967
:1006C0001A440323CDE9003B4346029700F03CF96E
:1006D000DDF818B0DDF820C037E6DDF828C0DE46CA
:1006E00003E700BF75540000F0B581B00E490F4E0E
:1006F0007944044608687E446FF31F3488B106EBE2
:10070000800151F8045C471E284602F00DFC006889
:10071000A0423846F2D1284601B0BDE8F04002F0D0
:1007200003BC002001B0F0BDD0640000BE64000036
:1007300080B586B09C464FF0000E43F23903CDE9F8
:100740000031CDE902E20021002243F23903CDF865
:1007500014E0CDF810C000F003F880B206B080BD00
:100760002DE9F04DA0B0289F43F2390583EA050634
:100770007D4056EA0504254608BF27460F970B9390
:1007800018BF1D460892CDE91021FFF7ADFF0028E4
:1007900000F0C980DDF8B0A08346B4FA84F0BAF165
:1007A000000F4FEA50100D9000F0BF80DDE92910D6
:1007B0009BF8042029440E910F992B9B0844079025
:1007C000012090400A92099013F8014BBBF80810E1
:1007D0009BF805E08C4203D3BBF80A00A0420FD27D
:1007E000C02C03D304F03F04002605E060B2B0F152
:1007F000FF3F65DD002600244FF000081CE000BF2D
:10080000DBF81000671A0C93764602F08DFBDBF8DC
:100810000C100446084602F087FB00EB8700418875
:10082000DBF80C0004EB010802F07EFBB6460C9BE3
:1008300010F827409BF807600F9A0D98002805EBE9
:10084000040005D00E99A9B30E99884232D975E0FB
:100850000E9988420ADD0F9A0799724402EB0E0046
:100860000B9F884210460F9201DD6BE02F46B8F1D6
:10087000000F14D0B4460A9E09990EFB06F060439F
:10088000009110A90191CDE9038038461146224616
:100890001D4673460296664602F0E8FD07E008989A
:1008A00039461D462346CDF800E002F0F9FDA019B7
:1008B0002B463844BAF1010A05467FF485AF35E08E
:1008C000A0064FF00F00CDF818E00C9358BF0E2093
:1008D000FFF70AFFF0B10746006902F025FBF9684F
:1008E0008046084602F020FB04F01F0400EB840061
:1008F0004188F868884402F017FB10F824409BF800
:1009000006000F9AB97997F805E010440C9B421A3B
:10091000002692E70F9A0C9BDDF818E000260024D1
:100920004FF0000889E7002508E028460D9909B135
:10093000054603E080B20F9940EA0145284620B001
:10094000BDE8F08DA8B2F6E72DE9F04D98B017920A
:10095000219A07469E1A002A104618BF012000253A
:10096000002E1296C8BF0125002B1393169100F19B
:10097000C281139E209928401590C6F10100119064
:1009800001F00100129B109001F002000C90581E23
:10099000079001F004000D9001F008000B9001F0A9
:1009A00010000F9001F020000A9001F040000E901E
:1009B00001F0800009901698911B1044801B039150
:1009C000C3F10101CDE9051001304FF0000B4FF0EC
:1009D000FF314FF0010A4FF000080490089700BF64
:1009E00010984C1C149128B90C98002853D01598D5
:1009F00018BB46E01598C8B31798A2460844451C92
:100A000007983C46169F331A22984FF0010C39463E
:100A10002A46CDF800C002F043FD0599F01927469B
:100A2000129B54464FF0010A014438462A46CDF83D
:100A300000A002F035FD0C9868B31398B0421798E7
:100A400006EB00050AD0039814992A460844831C33
:100A500022981699CDF800A002F022FD069814996C
:100A6000129B0844811C38462A4610E017983346EA
:100A7000421816993846CDF800A002F011FD0C98E6
:100A800048B1179816993044421E38462346CDF88F
:100A900000A002F005FD0D9830B90B9800285DD03C
:100AA000159830BB38E000BF159800281698A0EBC9
:100AB000060525D017981499DDF81CA00844471C9A
:100AC00022984FF0010CA6EB0A0329463A46CDF8CE
:100AD00000C002F0E5FC0898129BA5EB0A014FF05C
:100AE000010A3A46089FCDF800A002F0D9FC0B9805
:100AF000A0B31398B04218D11798351824E000BF5E
:100B0000179814993346421838462946CDF800A064
:100B100002F0C6FC0B9808B31698234600EB0B01B5
:100B200017983044421E384614E01698149A00EB89
:100B30000B011798CDF800A0351803981044831CBA
:100B400022982A4602F0ACFC0498129B00EB0B01A1
:100B500038462A46CDF800A002F0A2FC0F9828B92A
:100B60000A98002855D0159828BB49E01598DDF85B
:100B70005CA0DA44C0B30798CDF80880A0463C4694
:100B8000169F331A2298394652460125009502F0E5
:100B900087FC0599F0192746129B4446DDF808802A
:100BA0000144384652464FF0010ACDF800A002F049
:100BB00077FC0A9868B313981499B0421798A0EB81
:100BC00006050AD003982A460844831C22981699E1
:100BD000CDF800A002F064FC14990698129B08441A
:100BE000811C38462A4610E016993846524633464C
:100BF0004FF0010ACDF800A002F052FC0A9840B173
:100C000017981699821B38462346CDF800A002F0AB
:100C100047FC0E9830B90998002857D0159818BB92
:100C200033E000BF1698871B15980028179800EB33
:100C30000B051FD0A246079C22984FF0010C331BD6
:100C400039462A46CDF800C002F02AFC391B089F1D
:100C5000129B54464FF0010A38462A46CDF800A0B0
:100C600002F01EFC099888B31398B04215D117986A
:100C7000851B21E0089839462A4633460746CDF8B9
:100C800000A002F00DFC099800B31698234600EB73
:100C90000B011798821B384614E01698149A00EB43
:100CA0000B011798CDF800A0851B03981044831CF6
:100CB00022982A4602F0F4FB0498129B00EB0B01E9
:100CC00038462A46CDF800A002F0EAFB08F10108F8
:100CD000119A701E4146012AACBF091A304602EB38
:100CE000410101311191ABF1010B84422146139670
:100CF0000646FFF675AE18B0BDE8F08D2DE9F04D53
:100D000088B00E468968022926D8B0F90220B0F9C9
:100D1000040007920690F0680122D6E9007B02FAEF
:100D200001F802F001F93169D6F808A00546084635
:100D300002F0FAF80446B168D6E900025B4648437F
:100D400050430490DDE906103A46CDE90085CDF820
:100D500008A0039402F08AFB08B0BDE8F08D000003
:100D60002DE9F04581B00746581E09284FF00000D4
:100D700016D81C4690468A46012600253846294644
:100D800002F0F0F848F805000435A6424FF00000E4
:100D900028BF0120554503D8A64206F10106EDD330
:100DA00001B0BDE8F08500002DE9F04D84B0154696
:100DB0000A460191013909290393029158D807463F
:100DC0002D484FF0000A78444FF000084FF0000B18
:100DD000009000BF039957F82A0005EB0B04A1EB24
:100DE0000B06009A20F000432046314601F0C6FE73
:100DF000204604F0D9FCB8B3B04235D257F82A10D7
:100E00008344B1F1FF3F11DC03981C4A05EB0B044E
:100E1000A0EB0B067A442046314601F0AFFE204697
:100E200004F0C2FC00B3B0421ED283440298504585
:100E300011D00398124A05EB0B04A0EB0B067A4481
:100E40002046314601F09AFE204604F0ADFC58B130
:100E5000B04209D2834408F1010801981FFA88FAC8
:100E60008245B7D3012004E00399284604F04CFCE6
:100E7000002004B0BDE8F08D144A00002E4A0000A6
:100E8000B24900008268891805D2426891429EBF2B
:100E900081600120704700207047D0E901C39C4564
:100EA0000AD00268D25C0A708168013106D24268B9
:100EB000914298BF816001E000200870BCEB030004
:100EC00018BF0120704770B504464068A3680D46FE
:100ED000C61A072E05D92068194632B102F07BF8F0
:100EE00005E00020C5E900000DE002F047F8A26827
:100EF000C5E9000112F1090F05D8616802F1080087
:100F0000884298BFA0600020072E88BF012070BDD6
:100F1000B0B504460D460068D4E901210844511AD1
:100F20002A4604F02DFAB0F1FF3F07DDA168091849
:100F300007D26268914298BFA16002E00021C5E932
:100F40000011C043C00FB0BDB0B5044615460A46F7
:100F50000068D4E901310844591A2B46FFF700FF15
:100F600040B1A26802EB8501914203D362689142CD
:100F700098BFA160B0BDB0B5D0E901531446ED1AD9
:100F8000954206D80068C218084611462A4604F061
:100F9000C0FB0020A54298BF0120B0BDB0B50446FB
:100FA000D0E9013015461A1AAA4284BF0020B0BD0C
:100FB000236803440846194604F0ABFBA0684019B7
:100FC00003D26168884298BFA0600120B0BDB0B56F
:100FD00014460246512001230D4600F015F938B998
:100FE00005F109012046402204F093FB0020B0BD2A
:100FF00001F0DFF8F0B59DB011AC2821204604F0D7
:1010000083FB2D4D09EB050090F8CC2200F52971EA
:10101000204600F053F805A804F0B8FB84B2002C79
:10102000ADF840003ED105AC204602F0F9F90F9032
:1010300048201C9009EB05006F461CA900F128020E
:1010400020231BAEC7E90032B96000F1080311A8E4
:1010500040F201610322FE6000F0D2F800BBDDE93E
:101060001B6702F0D3F9A04202D10F9802F0D8F921
:1010700011A8282104F054FBBDF8400080B9002FCE
:101080000AD4484609EB050006F0010180F87070AB
:1010900080F87110002001E04FF0FF301DB0F0BD6E
:1010A00001F087F80F980021ADF8401002F0B8F970
:1010B000204601F07EF800BFD80000002DE9F04D79
:1010C000A0B08846054617A82021174604F01CFB4F
:1010D0000EA8212104F018FB02A804F057FB84B2EB
:1010E000002CADF8340079D102A802F099F9022F52
:1010F0000C906FD3D8F800003D4988426AD1019521
:1011000021240EAD3A466F460026204641462B4626
:101110003E6002F009F98DF8586017AE2027284686
:10112000214632463B4600F07FF832491FAB7944F6
:1011300030463A4600F080F808BB2F4E00210DF1F2
:10114000380B212717AD20247E440DF17C0800BF09
:101150001F98B0F1FF3F14DD01F1010A58463946EE
:101160002A4623468DF858A000F05EF828463146FE
:101170002246434600F060F800285146E8D001F0CE
:1011800018F81E4A20217A4417A80B4600F058F898
:101190000028F4D1019B512017A9202200F038F833
:1011A000002802ACEBD102F031F9A04202D10C9838
:1011B00002F036F917A8202104F0B2FA0EA8212176
:1011C00004F0AEFABDF834000028D8D1002020B0D9
:1011D000BDE8F08D4BF2010000F0EBFF0C98002110
:1011E000ADF8341002F01CF9204600F0E2FF00BF19
:1011F000550A0080965A00007C5A00005E5A000092
:1012000003B44FF0240027E003B44FF02A0023E09A
:1012100003B44FF02B001FE003B44FF039001BE084
:1012200003B44FF03C0017E003B44FF03E0013E06E
:1012300003B44FF04E000FE003B44FF051000BE049
:1012400003B44FF0550007E003B44FF0620003E031
:1012500003B44FF07B00FFE700490847018080009E
:10126000B0B504464068B0F5FF7F01D9F92049E0E8
:10127000204600220D46FFF726FE20B32068A16815
:101280000844286120461421FFF7FCFDE8B105F170
:10129000080120460022FFF716FEC0B105F1180133
:1012A0002046FFF735FEA96998B9E8695FEA500062
:1012B0004FEA3102D2F1E8024FF0000272EB000077
:1012C00007D2FC201EE0FF201CE0FE201AE0FD20DB
:1012D00018E02068A268104468612046FFF7D2FD3C
:1012E00068B105F114030DCB03F072F848B1D4E9ED
:1012F00001126FF006008A4208BF012002E0FB20C5
:1013000000E0FA2040B2B0BD80B584B001785A291F
:1013100017D141780022012903920292019217DD30
:10132000022921D0032935D004294FD18178002901
:101330004FD003295DD8C27842F08003802B4CD077
:1013400057E04FF4DC4004B0BDE8804000F084BEBC
:10135000A9B301293AD1817800294AD1C07800285F
:1013600047D100F005FA48E08178012941D8C278D8
:10137000002A3ED18268002A41D000790029CDE9B7
:1013800001204FF00000039001A818BF012100F0D8
:1013900003FA32E0817802292BD8C278022A28D2B7
:1013A000836863B30079002ACDE901304FF0000073
:1013B000039001A818BF012201F08CFE1DE0817886
:1013C000B9B9C078A8B900F033FA16E04FF4DA40A2
:1013D00011E0C278802A0CD1802283687BB1007929
:1013E000D209CDE901300020039001A801F0CCFE24
:1013F00003E046F6862000F02FFE04B080BD46F6DE
:101400008720F8E7024859F800100120084700BF7C
:1014100068000000024859F800100020084700BF8B
:101420006800000070B586B02C4D09EB050090F8FF
:10143000A00219F80510084305D000214BF207005F
:1014400009F805103CE026483C2109EB0004204641
:1014500004F05AF909EB050090F8CC1200F5297058
:1014600022463C23FFF7A0FC40B31E4E2B2109EB84
:10147000060004F049F901AC2046142104F044F9B7
:1014800009EB0500083021461422FEF70DFEE0B1FD
:10149000164A09EB06007A442B211423009401F02C
:1014A0006DFB13491048794449F800101149002098
:1014B00079440022002403F083F90BE04BF2010091
:1014C00006B0BDE8704000F0C7BD4BF2020000F06E
:1014D000C3FD0446204606B070BD00BFD800000022
:1014E000000000003C00000068000000CC43000049
:1014F000333E0000FC570000F0B589B02D4D09EBDC
:10150000050090F8A002022842D119F80500012830
:101510003ED1294F1E2109EB070004F0F5F801AC7C
:1015200020461E2104F0F0F809EB0500D0E98623DF
:10153000032620461E21009600F0D2F890B3214ADF
:1015400009EB07007A441E211E23009401F016FBCC
:101550001A482B2109EB0004204604F0D5F809EBCA
:101560000500D0F82072184A20467A442B21142313
:10157000009701F003FB15491148794449F8001020
:101580001349002079440022002403F019F90EE0E9
:1015900000214BF2070009F8051009B0BDE8F04042
:1015A00000F05ABD4BF2030000F056FD0446204601
:1015B00009B0F0BDD80000006C0000003C00000045
:1015C0006800000031430000F84200007B3D00004D
:1015D00074570000B0B582B01A4D09EB050090F8C1
:1015E000A002012824D119F80500012820D11648AD
:1015F000442109EB0004204604F086F8144A09EB64
:10160000050000F108057A44204644212023009576
:1016100001F0B4FA0F490D48794449F800100E4919
:1016200000207944002203F0CBF8002002B0B0BDC6
:1016300000214BF2070009F8051002B0BDE8B040E8
:1016400000F00ABDD80000008C0000006800000017
:101650005C420000213D0000065700002DE9F041EA
:1016600001B315460446A1F101080027002600BF7A
:10167000B5F10A0073F1000016D3284619460A2274
:10168000002303F0B5FE0B4600EB8001A5EB410102
:1016900041F03001FAB20137A154F9B2884505464C
:1016A000E6D81AE0002618E0F9B205F13000621819
:1016B00000236054537079B122782070481E0228AC
:1016C000625409D3012100BF225C635C625423543D
:1016D000013801318142F7D301263046BDE8F0815F
:1016E0002DE9F04186B06C46884605462046152116
:1016F0001E46174604F008F8204615213A463346A0
:10170000FFF7ACFF78B36F460C9E384604F04CF8F8
:10171000B04210D931180131414524D2841B2846EA
:101720003946224603F0F3FF28192E2100F8011B49
:101730003919324613E0321A911C414513D2302335
:10174000A81C2E272B706F7032B100270137BEB254
:10175000B24200F8013BF9D8A8EB0102694604F057
:101760002BF8012000E0002006B0BDE8F081000069
:1017700080B584B00748784401F0D6FB019008207A
:1017800002900020039001A84FF4104100F01CFCCF
:1017900004B080BDB4400000F0B59DB0234F0C46AE
:1017A00009EB0706054630464FF4347103F0B8FFE5
:1017B000002086F8A00209F8070013A8282103F0EA
:1017C000A3FF68464C2103F09FFF06F533712846BE
:1017D000FFF763FB08B309EB070090F8CC2200F594
:1017E00029712846FFF7B0FBB8B109EB070696F858
:1017F000CC2213AD06F529712846FFF75FFC06F1F0
:10180000080269462846FFF7E2FB2846282103F034
:1018100087FF44B1FFF706FE03E046F6872000F09D
:101820001BFC1DB0F0BD01F0EFFBFAE7D800000093
:1018300080B584B001200DF101018DF80100002078
:10184000019103218DF802008DF80300CDE902100B
:1018500001A84FF4104100F0B7FB04B080BD00F0C8
:1018600036BE0000F0B581B0DFF8A05619F80500CB
:101870000D2805DC052800F0FA800D2812D087E03D
:101880000E2800F06A81152840F08280DFF8880673
:1018900048448079012805D109EB050080790007CB
:1018A00040F13083DFF86856012009F8050009EBA4
:1018B000050400206060204601F052FD042001F084
:1018C000BDFD0028606000F01583972800F01283AA
:1018D000692840F06A8200F0CFFD00F0CFFDDFF80C
:1018E0003446002009EB0406A6F8CA00042001F0E3
:1018F000A5FDD6F8CC1009EB05020029506000F0D8
:10190000F982002800F0F682972800F0F38209EBB4
:101910000400B0F8CA1090F8D000814280F0EA824A
:1019200001F0F6FCAA2804D101F00EFDAA2840F02F
:10193000E18209EB0401B1F8CA0091F8D02090428D
:1019400080F07881014609EB0402D2F8D830D2F851
:10195000CC2002EB40103BB1984760B109EB040189
:10196000D1F8CC20B1F8CA1089B2012808BF02EB27
:10197000411000F0ACFD09EB0403B3F8CA0093F882
:10198000D020411C88B29042A3F8CA10DBD351E1A9
:10199000DFF87C55012009EB050409F80500002655
:1019A0002046666001F0DCFC042001F047FD692858
:1019B000606040F0458100F05FFD00F05FFDDFF802
:1019C0005445042009EB0407A7F8CA6001F036FD6E
:1019D000D7F8CC1009EB05020029506000F08A828C
:1019E000002800F08782972800F0848209EB040029
:1019F000B0F8CA1090F8D000814280F07B8201F0EC
:101A000087FCAA2804D101F09FFCAA2840F072822A
:101A100009EB0401B1F8CA0091F8D020904280F09F
:101A20000981014609EB0402D2F8D830D2F8CC2063
:101A300002EB40103BB1984760B109EB0401D1F8CB
:101A4000CC20B1F8CA1089B2012808BF02EB4110BE
:101A500000F03DFD09EB0403B3F8CA0093F8D02071
:101A6000411C88B29042A3F8CA10DBD3E2E0DFF851
:101A7000A064012009F8060009EB0604002060605C
:101A8000204601F06DFC042001F0D8FC00286060C5
:101A900000F03082972800F02D82692840F0CD8137
:101AA00000F0EAFC00F0EAFCDFF86844002009EBF3
:101AB0000405A5F8CA00042001F0C0FCD5F8CC103C
:101AC00009EB06020029506000F01482002800F0A3
:101AD0001182972800F00E8209EB0400B0F8CA10BA
:101AE00090F8D000814280F0058201F011FCAA2814
:101AF00004D101F029FCAA2840F0FC8109EB040183
:101B0000B1F8CA0091F8D020904280F0938001464D
:101B100009EB0402D2F8D830D2F8CC2002EB401006
:101B20003BB1984760B109EB0401D1F8CC20B1F882
:101B3000CA1089B2012808BF02EB411000F0C7FCAF
:101B400009EB0403B3F8CA0093F8D020411C88B213
:101B50009042A3F8CA10DBD36CE0DFF8B463012035
:101B600009EB060509F80600002728466F6001F01A
:101B7000F7FB042001F062FC6928686040F0A9804E
:101B800000F07AFC00F07AFCDFF88843042009EBCF
:101B90000405A5F8CA7001F051FCD5F8CC1009EB8A
:101BA00006020029506000F0A581002800F0A28103
:101BB000972800F09F8109EB0400B0F8CA1090F854
:101BC000D000814280F0968101F0A2FBAA2804D1C6
:101BD00001F0BAFBAA2840F08D8109EB0401B1F8AD
:101BE000CA0091F8D020904224D2014609EB0402A9
:101BF000D2F8D830D2F8CC2002EB40103BB1984755
:101C000060B109EB0401D1F8CC20B1F8CA1089B257
:101C1000012808BF02EB411000F059FC09EB040356
:101C2000B3F8CA0093F8D020411C88B29042A3F8C0
:101C3000CA10DBD3904240F05D8101F00DFC59E108
:101C4000B44C09EB0400D0F8CC00002800F0488127
:101C500009EB0400B0F8CA1090F8D000814280F07F
:101C60003F8101F055FBAA2804D101F06DFBAA28A1
:101C700040F0368109EB0401B1F8CA0091F8D02098
:101C8000904280F02981014609EB0402D2F8D83055
:101C9000D2F8CC2002EB40103BB1984760B109EB81
:101CA0000401D1F8CC20B1F8CA1089B2012808BFCC
:101CB00002EB411000F00BFC09EB0403B3F8CA007F
:101CC00093F8D020411C88B29042A3F8CA10DBD30D
:101CD00002E1904D044609EB0500D0F8E400A0B104
:101CE000B0F1640238BF002209EB05016428C1F895
:101CF000E4200AD8D1F8E01039B109EB0500D0F89A
:101D0000E820C0F8E42000208847002C00F0F28092
:101D1000972C00F0EF8009EB0500D0F8CC000028EC
:101D200040D009EB0500B0F8CA1090F8D00081420D
:101D300038D201F0EDFAAA2803D101F005FBAA2858
:101D400030D109EB0501B1F8CA0091F8D0209042DA
:101D500024D2014609EB0502D2F8D830D2F8CC20C3
:101D600002EB40103BB1984760B109EB0501D1F897
:101D7000CC20B1F8CA1089B2012808BF02EB41108B
:101D800000F0A5FB09EB0503B3F8CA0093F8D020D7
:101D9000411C88B29042A3F8CA10DBD3904208BF1E
:101DA00001F05AFB09EB05009CE05A4C09EB0400DA
:101DB000D0F8CC00002800F0938009EB0400B0F8C4
:101DC000CA1090F8D000814280F08A8001F0A0FA19
:101DD000AA2804D101F0B8FAAA2840F0818009EBC2
:101DE0000401B1F8CA0091F8D020904274D20146A3
:101DF00009EB0402D2F8D830D2F8CC2002EB401024
:101E00003BB1984760B109EB0401D1F8CC20B1F89F
:101E1000CA1089B2012808BF02EB411000F057FB3D
:101E200009EB0403B3F8CA0093F8D020411C88B230
:101E30009042A3F8CA10DBD34EE0364C09EB040005
:101E4000D0F8DC0028B109EB0501C978490800F099
:101E500065FB09EB0400D0F8CC00002840D009EB6A
:101E60000400B0F8CA1090F8D000814238D201F0D6
:101E70004FFAAA2803D101F067FAAA2830D109EB5A
:101E80000401B1F8CA0091F8D020904224D2014652
:101E900009EB0402D2F8D830D2F8CC2002EB401083
:101EA0003BB1984760B109EB0401D1F8CC20B1F8FF
:101EB000CA1089B2012808BF02EB411000F007FBED
:101EC00009EB0403B3F8CA0093F8D020411C88B290
:101ED0009042A3F8CA10DBD3904208BF01F0BCFACD
:101EE00009EB0400B0F8CA1090F8D000814228BF76
:101EF00001F074FA01F072FA08B900F061F90120FA
:101F000001B0F0BD052000F054F900BFB804000096
:101F1000E4050000A8030000F006000010B5044628
:101F200000F0070001280AD0022811D10A484844CD
:101F300039B101F047FA200648BF01F0DFF900206F
:101F400010BD4FF482710022BDE8104001F050BA7C
:101F5000022000F02EF900BFEC0500000348044AFF
:101F6000002149F8001009F802107047D000000065
:101F7000D400000010B5124C19F8040002280CD04F
:101F8000012810D060B90F48012239F80010002054
:101F900009F8042000F024FB10BD002009F804001B
:101FA0004FF0FF3010BD0748022239F80010102012
:101FB00009F8042000F014FB012109F8041010BDF9
:101FC000D4000000D000000070B50C46B8B1054642
:101FD0004068A968401AB0F5817F0CD81B484FF4BF
:101FE000827209EB00012846FEF7C5FF18B1D5E95A
:101FF0000101411A04E000214FF4304400E00021C7
:102000001248134D4844224649F8051003F0E7F9F9
:10201000104C59F8050019F80410023001294FF04E
:10202000000649F8050009D002290BD181B2202011
:1020300000F0D6FA002149F8051000E0002009F868
:10204000046070BD4FF0FF3070BD00BFEC050000B4
:10205000D0000000D400000001460020FFF7B4BF0C
:102060002DE9F0458FB0FFF779FF2D484FF434711B
:10207000484403F055FBDFF8ACA06C4600260CADDD
:1020800046F68728204603F081FB87B2ADF82C0086
:1020900057B1052F3BD00A98ADF82C6001F0C0F97C
:1020A0003846FFF7D9FF16E0204601F0B9F90A904B
:1020B000CDE90C660E96FFF75DFF00281FD402469F
:1020C00009EB0A01284600F00DFF88B12846FFF70A
:1020D0001BF9002813D401F099F9A04202D10A9803
:1020E00001F09EF9BDF82C000028CBD00DE000BF18
:1020F0004046FFF7B1FF0A9801F092F9C2E70A984B
:1021000001F08EF90FB0BDE8F08500F052F80A98A2
:102110000021ADF82C1001F083F9052000F049F8FA
:10212000D8000000EC05000010B58CB06C462046CD
:1021300003F02CFB0104ADF82C000BD001F066F984
:10214000A04202D10A9801F06BF9BDF82C0040B909
:102150000CB010BD684601F063F90A90FF2001F051
:1021600023F900F026F800000249002079440022FB
:1021700002F026BB904E0000FF2001F015F9000090
:1021800080B5074819F8000008B902F0CBFF0549EF
:10219000002079440022BDE8804002F011BB00BF5E
:1021A000A80300000A4E0000FFF7EABF002001F07C
:1021B00037B9044601F02AF9214603F0EDFA000090
:1021C00002480521784401F0FDB800BF484E0000E8
:1021D00010B51C484844C078032809DC012812D0F7
:1021E000022824D118484844BDE8104001F054BCEE
:1021F00004281DD0082818BF10BD13484844BDE866
:10220000104001F046BC1048012109EB00042046B3
:1022100001F039FC204601F017FC0C4809EB0001E5
:10222000897959B948440C30122103F06DFA10BD78
:1022300005484844BDE8104001F029BC0520FFF7DF
:10224000B8FF00BFB804000074070000F0060000EB
:1022500000F07F00052884BF0020704702494944F0
:102260000844007B704700BFF006000080B51C4AA0
:1022700009EB02010879C978042801F07F010CD02C
:1022800002281BD0012818D1174809EB0201484445
:102290000631BDE8804001F0E8BA052988BF80BD5D
:1022A00010484A4453794844DFF83CC0084403735B
:1022B00009EB0C00063201F005FB80BD0529FCD8B6
:1022C0000848094B484400EB41004FF0000C4A44D9
:1022D000A0F812C009EB0300063201F047FB80BDF5
:1022E000B8040000F006000074070000FF2A88BF51
:1022F000704770B5044612480E46502109F8001088
:102300004844D11C15460A0A817044F08001C1700E
:102310002021017106214270457101F053F83046C9
:10232000294601F04FF8074804F07F01484400EBCC
:1023300041004FF4FA614182BDE87040704700BF30
:10234000B8040000F00600000A460146822014236B
:10235000FFF7CCBF0A46014683201423FFF7C6BF10
:1023600080B5354909EB0102537819F801009278DC
:102370000F2842EA03220DDD102814D0162816D0AB
:102380001A284AD109EB0100C078032845D102F090
:10239000E1FE48E00E2824D00F283ED1012A04D1C6
:1023A000FFF716FF3FE0032A3BD2002080BD234801
:1023B00019F80030BBBB09EB000C06238CF8063083
:1023C0000A2309F800301E48494448440331B2F555
:1023D000807F88BF40F20112ACF8022003F097F929
:1023E00021E0DFF858C009EB0C018A6864328A608A
:1023F0000E2100BF09EB0C0232F8112052B1134636
:10240000642A98BF6423643B09EB0C00642A20F81B
:1024100011300AD901390829ECD10220FFF722FA3C
:1024200080BDFFF723FF012080BD002009F80C00CC
:102430000520FFF7BEFE00BFB8040000F006000054
:10244000EC05000080B500F04EFF0D280DD20848C5
:102450002021484403F058F900F0E8FA054800212B
:1024600049F800104844416080BDFF2000F09CFF07
:10247000F00600001007000070470000034800212C
:1024800049F8001048444160704700BF1007000041
:10249000B0B588B00546084600F046FDA8B1044630
:1024A000006990B1284600F03FFD01AD0146284685
:1024B0001C2203F02CF9D4E90001ADF80A00ADF8B4
:1024C0000C1028462146FEF719FC08B0B0BDB0B587
:1024D00000F02AFD0446C06900F026FD217811F0C5
:1024E0007F0108BFB0BD054650B1052901D1A07ECE
:1024F00070B1284603F058F982B22046294602E01E
:102500002046002100220023BDE8B040FDF7FABDBF
:1025100020462946BDE8B040FFF7BABFB0B110B5BC
:10252000DFF864E0844659F80E000B4609EB0E0113
:102530004968984202BF013109EB0E02516040EA3E
:10254000030023B1024649F80E0008E0704700225C
:1025500009EB0E0449F80E20626040F000409A42F8
:102560001EBF09EB0E0200235360082908D3074A57
:102570004A4312F1AA3F38BF40F0804020F00040AB
:10258000BDE81040604700BF10070000ABAAAAAA30
:10259000F0B581B01148012509EB000609F800509B
:1025A000B11C01204FF4817200F0F2FE04467070FD
:1025B000871940F20110F91C021B022000F0E8FE0E
:1025C00004442644B870F57000F0D8FE30719020B5
:1025D00000217071E01DB17101B0F0BDEC0500008B
:1025E0002DE9F04D82B083464007884608D05FFA57
:1025F0008BF01FFA88F102B0BDE8F04DFFF78EBCFA
:102600008948874F78440090884D844C7D4400264B
:10261000DA465FEA08400AF0100000F085800028E2
:1026200040F08280019000BF00F0D8FE50B109EB6D
:1026300004004FF49671002200F0DAFE012000F051
:10264000FDF8F1E709EB070019F80710866809297A
:1026500006DD0A290CD00B2926D17648784402E001
:10266000009807291DD11FFA88F100F067FA24E0CD
:102670001FFA88F6B6F5827F00F2CD80532009F864
:10268000040009EB04004FEA18214170032180F88F
:10269000028000F097FE63483146484400F092FE05
:1026A0002BE0002900F0B4805FFA8BF01FFA88F16C
:1026B000FFF734FC002840F0AB8019F80700E0B1C8
:1026C00006F5FA662846052100F07CFE09EB0400B9
:1026D0004FF49671002200F08BFE09EB0700806832
:1026E000B04280F08F80FFF73BFE00F077FE0028BD
:1026F000ECD119F807000028E4D1002009EB07010C
:102700005FEA8B6209F807008871488076D44848F0
:102710000521784400F056FE4FFA8BF0B0F1FF3FF0
:1027200001984FF0000670DD38B95FEA4A6061D465
:1027300009EB070009F807608671AA46394D09EBD5
:10274000070046803C480521784400F03BFE09EB39
:1027500004004FF49671002200F04AFE032815D3BE
:1027600009EB04014A78897841EA02210331814268
:102770000CD1FFF7F5FD19F807000028E2D009EBAE
:10278000070040880028DDD004E000BF09F807609A
:10279000D5E700BF19F80510B0292FD109EB0501C5
:1027A0004978A7290ED0012901BF09EB05018A78D4
:1027B000C97851EA020121D1FFF7EAFE80460BF009
:1027C000070B0FE009EB05018A78C978114315D191
:1027D000902009F8050009EB05006BF07F0B4FF026
:1027E0000208467055465FEA4B705FFA8BFA3FF479
:1027F00010AFFCE609EB07004088053880B202B054
:10280000BDE8F08D0520FFF7D4FC052000F0CCFDDD
:102810000420FFF7CEFC0220FFF7CBFCB804000039
:10282000F0060000EC05000041FDFFFF004A00003B
:10283000FA480000F5FCFFFFC4480000B0B50446AC
:1028400011480521784400F0BDFD0D4D4FF49671FF
:1028500009EB0500002200F0CBFD19F80500152852
:1028600008D80121074A01FA00F0104202D00CB149
:102870000020B0BDFFF774FD002818BF0120B0BDD7
:10288000B804000020702000C84700002DE9F04582
:1028900081B0DFF87CA10E4609EB0A0114468E4296
:1028A00080460ED009EB0A0738464021402502F049
:1028B0002BFF402C38BF2546384631462A4602F0C9
:1028C00028FF09EB0A00807801280BDCB0B301284F
:1028D00040F0968009EB0A04E01C0421FEF7B4FCEA
:1028E000204639E0022835D0052840F0898009EBE0
:1028F0000A00484EC178007959F8062040EA0120C4
:1029000082422BD159F80600B8B34349601F59F8E9
:10291000012083B29A4238BF59F8010081B23B29A5
:102920003E4928BF3B2059F8015084B209EB0A0008
:10293000411D2846224602F0ECFE52E009EB0A0057
:102940000024014601F8034FCC708C7040210471C3
:10295000C04704E009EB0A004021C04700242D488D
:10296000002149F800102C482C4A49F8001049F879
:102970000210204601B0BDE8F08509EB0A0041795C
:102980008279274842EA012149F8001059F80010DD
:10299000B1F5827FE2D859F800001F4909EB0A021D
:1029A00049F8010019F80A0052781E4B42EA002249
:1029B00049F80320E01F59F8012083B29A4238BF3A
:1029C00059F8010081B23929174928BF392084B24A
:1029D00009EB010509EB0A00C11D2846224602F059
:1029E00096FE0E4928190C4A49F8010059F80200D0
:1029F000001B49F8020059F80600013049F80600AA
:102A0000054859F8000008B10124B2E70224A6E7FE
:102A10001807000058070000600700006407000066
:102A20005C07000068070000EC0500000548002175
:102A300049F800100448054A49F8001049F8021006
:102A4000704700BF580700006007000064070000DF
:102A50002DE9F04D334EDFF8D0A059F8061061B3E0
:102A600059F80A404CB3DFF8CC80834609EB0805DF
:102A7000681D3B2102F048FE2F482C4F59F80010EA
:102A8000090A09F8081059F8000068700520A870B4
:102A900059F80700000AE87059F80700287159F83A
:102AA000071059F80600A9B13B2809EB080094BFAC
:102AB00059F806503B2505301BE01C48002149F819
:102AC00000101B4849F8061049F80A1009F80010D0
:102AD000BDE8F08D392894BF59F80650392559F8CA
:102AE000060009EB0801000A487159F806008871D0
:102AF000C81D21462A4602F00CFE601949F80A005A
:102B000059F806005B46401B49F8060059F80700D3
:102B10004021421C09EB080049F80720BDE8F04DB0
:102B2000184700BF60070000640700005807000056
:102B3000F0060000180700006807000091B1DFF8F8
:102B400028C00023094A49F80C30DFF824C04A4461
:102B5000084B49F80C20084A49F8031049F80210BC
:102B6000FFF776BF704700BF58070000EC05000074
:102B700064070000600700005C07000081B02DE9D9
:102B8000F04D89B00028119300F09C810E46022977
:102B9000C0F0988131461546804602F0B5FD287890
:102BA00011A90028049100F08D81741E002700BF38
:102BB00030B1252804D0E81940780137F8E700BF84
:102BC000A74228BF2746404629463A4602F0A1FDC3
:102BD000E41B00F07781E85DB84425283D4440F0CF
:102BE0005F8101354FF0000B2022002600200135C7
:102BF00015F8011C01352D2912DC4FF00000F7D02B
:102C0000252900F0E6802A2940F048812B4613F858
:102C1000010D732840F05481049902201D4625E0DF
:102C2000472927DCA1F130030A2B0DD281F03003B4
:102C300053EA0B030BEB8B0301EB430108BF30227C
:102C4000A1F1300B013DD2E72E2940F0278115F884
:102C5000010C2A2840F034812878482804D07328B1
:102C600002D0682840F02B81049901200B1D0493A9
:102C70000E68BCE767290CDC622912DC482900F0E9
:102C8000AC80582940F00A81CDF80C804FF0010C3F
:102C900027E072291BDC682900F0A28070291CD073
:102CA000FCE0632900F0A180642940F0F7800498DB
:102CB000CDF80C80011D049100680028074600D55E
:102CC0004742C00F4FF0000C4FF00A0810E0732984
:102CD00000F09580782940F0E1804FF0000CCDF8AD
:102CE0000C8004984FF01008011D04910768002023
:102CF000B84502D94FF0010A0FE0ABF1010341469C
:102D00008A46A8FB0116002E18BF0126B9429B4631
:102D100003D8002EABF10103F2D00028034618BF00
:102D20004FF0FF3348B1D1B230290AD12D2101260D
:102D30004FF0010E8DF8141006E04FF0010E002642
:102D400002E000264FF0000EABEB0000811E0D29C3
:102D500011D8411E0FD005A83044D2B2CDF808C01A
:102D6000CDE9003E02F0D7FC009906EB0B00DDE94F
:102D700001EC0844461EBEF1000F05A902BF2D203C
:102D800088550136BAF1000F16D0544A54487A4497
:102D90007844BCF1000F08BF104600BFB7FBFAF340
:102DA000D045B3FBF8F2BAFBF8FA02FB1832825CAA
:102DB0008A5506F10106F1D9A64228BF2646DDF85C
:102DC0000C803246404602F0A4FCA41B7AD0B044EA
:102DD00064E0013C4FF025000DE03E4A7A4401E0FA
:102DE0003D4A7A444FF0010C0DE00498013C00F19B
:102DF00004010491006808F8010B4FD162E0344AE5
:102E00004FF0000C7A440499C0B20B1D049309687A
:102E1000022841D0012808D03E4630B9002000BF2A
:102E20000B5C0130002BFBD1461EBCF1000F1BD008
:102E3000A6B3A4EB460000BF022C43D30B78022CB0
:102E40004FEA1317D75D03F00F0388F80070D35CC7
:102E500088F8013036D0023C08F10208013E01F149
:102E60000101E9D1044619E0A64228BF26464046A2
:102E7000324602F04EFCA41B24D03746BB45B0447A
:102E80000CD9ABEB0706A64228BF26464046314682
:102E9000202202F040FC98E7087828B115F8010DCF
:102EA00000287FF483AE0DE0A64228BF26464046A8
:102EB0003146202202F02FFCA41BDFD102E02A20A1
:102EC000013DEDE7002009B0BDE8F04D01B07047CD
:102ED0000D420000454200002F42000083420000E6
:102EE00091420000052A14D30B79053A9A4210D179
:102EF0000A7802704A7842708A788270CA78C27002
:102F00000A7902710A79002A18BF4A1D82600120DD
:102F100070470020704700007A460249C91C891A90
:102F2000401A7047192FDEC00A4981420A4906D863
:102F3000814204D380B5FFF7EFFFBDE88040074929
:102F40008842074A05D3904288BF7047401A4A46D4
:102F5000104470470000DEC00078DEC000007ADA5E
:102F600000787ADA4218405C517893780904D27874
:102F700041EA006040EA03201044704780B54218DF
:102F800010F801C0517893780904D07841EA0C61B7
:102F900092F804E041EA0321014450794FEA0E63BC
:102FA00043EA00409379D27940EA0320104480BD7F
:102FB0004218405C517840EA012080B270474218C4
:102FC000405C51789378D27840EA012040EA03408F
:102FD00040EA0260704780B54218405C51789378AF
:102FE00092F804E040EA0120517940EA03409379E5
:102FF00092F803C04EEA0121D27941EA034140EA46
:103000000C6041EA026180BD10B594B00D494120C9
:103010008DF80E0004200DF10E0449448DF80F00C8
:10302000A01C0831402202F072FB422001900020D7
:10303000029068464FF410410094FEF7C5FF14B0AB
:1030400010BD00BFD80000002DE9F04194B00DF193
:103050000E0808F101004021402402F055FB1C48F5
:103060008DF80E4009EB000696F82B400427212C22
:1030700004BF05272024A8EB040006F12805213011
:10308000E919224602F043FBB81C0119C8B22844D2
:1030900010F8012C08F14100212A04BF013120223F
:1030A000C9B2801A294402F032FB96F871004FF43D
:1030B00010418DF84F004220019000200290684698
:1030C000CDF80080FEF780FF14B0BDE8F08100BFAE
:1030D000D800000070B52B4E0446B9B109EB0600CC
:1030E00090F8A002012834D11546626809EB060069
:1030F00000F108012046FDF751FF38B3012009F81F
:10310000060065B3BDE87040FEF764BA09EB06053A
:1031100028464FF4347102F003FB012085F8A00229
:10312000002009F8060005F533712046FDF7B5FECD
:1031300060B109EB060090F8CC2200F52971204619
:10314000FDF702FF10B14FF4104004E046F687206F
:1031500001E04BF20700BDE87040FEF77DBF0220A2
:1031600009F80600FDF746FFB0F1FF3F03DDBDE8BB
:103170007040FFF769BF00214BF2080009F8061004
:10318000E9E700BFD800000070B5F0B0044651B3C5
:10319000504D09EB050090F8A002022844D109EB3C
:1031A00005001346D0F808026268002B02EB00010C
:1031B00040D0B1F5FF7F0FD909EB0501084400F1BC
:1031C00008012046FDF7EAFE002873D009EB05014F
:1031D0006068D1F80812014409EB05024FF4104071
:1031E000C2F8081268E03B4E4FF4347109EB060553
:1031F000284602F095FA022085F8A002002009F87E
:10320000060005F533712046FDF747FE78B109EB5E
:10321000060090F8CC2200F529712046FDF794FEB7
:1032200028B14FF4104047E04BF2070044E046F667
:10323000872041E0B1F5FF7F3CD809EB0501084448
:1032400000F108012046FDF7A9FE98B309EB05013E
:103250006068D1F8082201F108031044C1F808029F
:10326000CDE96D3000206F9001F504716DA8FDF778
:10327000F7FF012825D1012009F8050002A84FF425
:103280008071FDF7D5FF10BB09EB0500D0F80832BF
:1032900000F1080200F50C702026009002A8012120
:1032A0000196FDF7BDFF90B902A8FDF7B5FFFEF747
:1032B00023F90AE04BF2040070B0BDE87040FEF75D
:1032C000CBBE4BF20500FEF7C7FE70B070BDFEF737
:1032D00070FF00BFD800000001DF002900D1704757
:1032E0000846FEF766FF80B582B00020CDE90000F9
:1032F00069460120FFF7F0FF02B080BD80B582B0C3
:103300000020019069460220FFF7E6FF02B080BD71
:1033100080B582B00020019069469F20FFF7DCFF56
:10332000C0B202B080BD000080B586B00DF1040EC1
:10333000DDF820C08EE80F10024801A9FFF7CCFF8E
:1033400006B080BD5300000580B582B0002001901A
:103350006946A020FFF7C0FFC0B202B080BD0000E8
:1033600080B582B000900020019003486946FFF7C5
:10337000B3FF02B080BD00BF6400000180B582B021
:103380000020019069466A20FFF7A6FF02B080BDC9
:1033900080B584B001AB07C3024801A9FFF79CFFC9
:1033A00004B080BD7400000382B000900020019042
:1033B00003486946FFF790FFFFDE00BFFEE700BF4E
:1033C0009A00000180B582B0CDE90001024869464B
:1033D000FFF782FF02B080BD8300000280B582B09B
:1033E0000020019069468420FFF776FF02B080BD7F
:1033F00080B584B001AB07C3034801A9FFF76CFF98
:1034000080B204B080BD00BF8500000380B582B0EB
:103410000020019069468720FFF75EFF02B080BD63
:1034200080B582B000900020019003486946FFF704
:1034300053FF02B080BD00BF0B01000180B582B018
:1034400000900020019003486946FFF745FFC0B295
:1034500002B080BD9C00000180B582B000200190C8
:1034600069467A20FFF738FF02B080BD70B58AB098
:10347000DDF848C0DDE9104EDDE90E650190074832
:10348000029101A9039204930596CDE90654CDE972
:1034900008ECFFF721FF0AB070BD00BF7C000009F7
:1034A00080B586B00DF1040EDDF820C08EE80F1057
:1034B000024801A9FFF710FF06B080BD7D0000059E
:1034C00004480021044A49F80010002049F802107D
:1034D000704700BF6C0700007007000080B5084807
:1034E0004F2109F8001048440021417001218170EA
:1034F0000221C1700421FFF765FF002080BD00BFDD
:10350000B804000070B582B002208DF805000320D9
:103510000DF103044F2500268DF8060020460521F5
:103520008DF803508DF804608DF80760FFF74AFFAF
:1035300001208DF805008DF80600204604218DF845
:1035400003508DF80460FFF73DFF002002B070BD0E
:1035500080B582B04F208DF8040000208DF8050062
:1035600001208DF8060002208DF8070001A8042133
:10357000FFF728FF002002B080BD000080B582B0B8
:103580001A484FF0000C49F800C04F208DF8000099
:103590000520DFF854E08DF8020004208DF80300C8
:1035A0000120012A49F80EC08DF801C08DF80400F1
:1035B0008DF805108DF806C004DC52B1012A0AD13D
:1035C000042006E0022A03D0032A04D1022000E0EE
:1035D00003208DF80600684608218DF80730FFF7B4
:1035E000F1FE002002B080BD6C07000070070000F3
:1035F00010B582B00C46502003218DF80200002047
:103600008DF8041040218DF803008DF806108DF818
:1036100007000DF1020006218DF80540FFF7D2FEEC
:103620000A4A2306084B4A4404F07F004FF0010188
:1036300058BF09EB0302136801FA00F043EA0001E6
:103640000020116002B010BD700700006C07000080
:1036500010B582B00C46502003218DF802000020E6
:103660008DF8041080218DF803008DF806108DF878
:1036700007000DF1020006218DF80540FFF7A2FEBC
:103680000A4A2306084B4A4404F07F004FF0010128
:1036900058BF09EB0302136801FA00F023EA0001A6
:1036A0000020116002B010BD700700006C07000020
:1036B0000848074A48440B0658BF09EB0200007847
:1036C00001F07F01012202FA01F10840704700BFBA
:1036D000700700006C07000080B582B04F208DF8A5
:1036E000030000208DF8040002208DF8050003205F
:1036F0008DF806008DF807100DF103000521FFF786
:1037000061FE002002B080BDB0B582B050208DF8BF
:103710000200D81C1546020A8DF8040020208DF8FE
:1037200005108DF806000DF1020006211C468DF8EB
:1037300003208DF80730FFF745FE28462146FFF7A6
:1037400041FE002002B0B0BD80B582B050208DF89F
:10375000020000208DF8030003208DF804003020C3
:103760008DF805108DF806000DF1020006218DF888
:103770000720FFF727FE002002B080BD98B170B58A
:103780000E464FF48A711546044601F0BDFF0EB196
:10379000C4F8F060012084F8DC0020462570FFF7B3
:1037A0008FFE002070BD022070470000B0B50446B7
:1037B0000120F42584F8DC00605930B14068FFF73F
:1037C000B3FB21790246204690470835B5F5867F40
:1037D000F2D12046FFF7BCFE2046FFF77FFE002017
:1037E000B0BD3AB102289CBF01EBC000C0F8F42084
:1037F000002070470220704780B5FFF783FE00204D
:1038000080BD000070B50C460546002628463146AE
:1038100000F05FF950B105EBC600D0F8F400006885
:10382000FFF782FB02462846214690470136032EC9
:10383000ECD1002070BD000070B50C460546002696
:103840002846314600F045F950B105EBC600D0F8E6
:10385000F4004068FFF768FB02462846214690477F
:103860000136032EECD1002070BDB0B500F1E805A3
:103870000446284600F062FB94F8E8000121B4F801
:10388000EE20C4F8D41000F01F010229C4F8D8209B
:1038900007D001290AD071B92046294600F025F940
:1038A0000EE02046294600F0CDFA09E020462946E0
:1038B00000F0A6FA04E000F080012046FFF798FE31
:1038C0000020B0BDF0B581B015460446E1B10E460A
:1038D000002700BF2046394600F0FBF880B104EB1A
:1038E000C700D0F8F400806950B194F8DC100329C7
:1038F00006D1FFF719FB0346204631462A46984772
:103900000137032FE6D12DE0D4F8D400032829D1C4
:10391000D4E91F1081420AD9091AE167814238BFF0
:10392000084682B22046294600F037FD1AE00025FD
:103930002046294600F0CDF870B104EBC500D0F860
:10394000F400006940B194F8DC10032904D1FFF7BA
:10395000EBFA0146204688470135032DE8D1204681
:1039600000F021FD002001B0F0BD000070B504465C
:10397000E1B10D46002600BF2046314600F0A9F80F
:1039800080B104EBC600D0F8F400406950B194F85F
:10399000DC10032906D1FFF7C7FA02462046294664
:1039A000904700BF0136032EE6D14AE0D4F8D40098
:1039B00002283FD1D4E9071081420BD90A1AD4F862
:1039C0001011E261014492B22046C4F8101100F0D7
:1039D000D7FC2FE0A169814211D3B1FBF0F202FBC9
:1039E000101060B9D4F8D800814208D220460021D6
:1039F0000022002500F0C4FCC4F8D8501AE00025CD
:103A00002046294600F065F870B104EBC500D0F8F7
:103A1000F400C06840B194F8DC10032904D1FFF72A
:103A200083FA0146204688470135032DE8D1204618
:103A300000F0C4FC94F8E000012804BF002084F8E2
:103A4000E000002070BD0000B0B504464020C4F87E
:103A5000800020620120002584F8DC0020462946F1
:103A600000F037F850B104EBC500D0F8F40040681E
:103A7000FFF75AFA21790246204690470135032D77
:103A8000ECD10020B0BD0246002011747047002028
:103A90007047002070470000B0B5044690F8DC0085
:103AA000032814D1002500BF2046294600F011F854
:103AB00050B104EBC500D0F8F400C06920B1FFF7A5
:103AC00033FA0146204688470135032DECD100200A
:103AD000B0BD022984BF0020704700EBC100D0F8C0
:103AE000F400002818BF0120704780B54A78042AE6
:103AF00008DD072A0EDC052A13D0062A1AD100F0A9
:103B000020F81CE082B1012A17D0032A12D100F05C
:103B10002FF914E0082A0AD0092A0BD100F0B6F8D0
:103B20000DE000F091F80AE000F0FEF807E000F088
:103B3000E5F804E000F07EFB01E000F037F900203A
:103B400080BDB0B582B00D4649880446080A0022FF
:103B50000528ADF8062012DC01281BD0022825D04C
:103B6000032835D1C8B2022837DC00285CD00128F0
:103B700062D002282CD1D4F8F000C0680DE00628ED
:103B80001DD0072822D00F2822D1D4F8F000C06918
:103B900018B91DE0D4F8F0000068FFF7C5F9237CE0
:103BA00002460DF10601184690472DE0D4F8F400C6
:103BB000E8B1217C00290CBF806AC06A1EE0207C2D
:103BC00030B9D4F8F40018B1406B17E0207C80B114
:103BD0002046294600F02EFB24E0032828D00428A4
:103BE0002ED00528F4D1D4F8F0008069D5E7002163
:103BF0000BE0D4F8F4000028EAD0006BFFF794F94A
:103C000001460DF1060088470146BDF8060048B19F
:103C1000EA883AB1904238BF02462046ADF8062005
:103C200000F09AFB02B0B0BDD4F8F0004068B4E7F1
:103C3000D4F8F0000069B0E7D4F8F0008068ACE791
:103C4000D4F8F0004069A8E7B0B58A8804462AB9DC
:103C5000C88818B994F8DC00032804D12046BDE8D0
:103C6000B04000F0E7BA887800F07F05204629468A
:103C700084F8DE50FFF730FD204600F094FB002D65
:103C80000CBF0120022084F8DC00B0BD70B58E7836
:103C90000D46022E04461AD294F8DC00032807D001
:103CA000022814D12EB30320666084F8DC0008E0FB
:103CB0009EB16068B0421CD0C1B22046FFF7BCFD87
:103CC000666020463146FFF79DFD022811D120464F
:103CD0002946BDE8704000F0ADBA022084F8DC004F
:103CE0000020606020463146FFF7A6FD204600F028
:103CF0005AFB2046BDE8704000F055BBCA88012A37
:103D000018BF00F097BA90F8DC20032A06D0022AE8
:103D100008D10022014641F8082F00E0011D0122D0
:103D200000F01ABB00F086BAB0B5044690F8DC008B
:103D300000F0FE0002280DD10120254645F80C0FA9
:103D4000D5F8D80058B1204600F038FBE06840F0C4
:103D5000020305E02046BDE8B04000F06BBA032343
:103D6000204629460222E360BDE8B04000F0F4BAE4
:103D7000B0B50D464988012918BFB0BD0446287961
:103D800001210228C4F8E4100BD804EBC000D0F8DD
:103D9000F40030B18068FFF7C7F802462046294694
:103DA00090472046BDE8B04000F0FDBAB0B50446EB
:103DB00090F8DC000D4600F0FE0002281AD1688859
:103DC000012818BFB0BD287900210228C4F8E410EA
:103DD0000BD804EBC000D0F8F40030B18068FFF7D6
:103DE000A3F802462046294690472046BDE8B04049
:103DF00000F0D9BA20462946BDE8B04000F01ABA12
:103E0000B0B5044690F8DC000D46032814D128799B
:103E1000022811D804EBC000D0F8F40060B180682B
:103E2000FFF782F80246204629469047E88838B9CD
:103E3000204600F0B8FA03E02046294600F0FAF9DF
:103E40000020B0BDB0B582B00D460979044601F03E
:103E50007F02072A04D32046294600F0EBF96AE0E6
:103E6000022911D8287800F0600020280CD104EB3A
:103E7000C100D0F8F40038B18068FFF755F8024669
:103E800020462946904756E0687800B3012826D09E
:103E9000032850D194F8DC00032824D1688838B96D
:103EA00041F08000802803D02046FFF7A1FB29794C
:103EB00002293DD804EBC100D0F8F400C0B38068FB
:103EC000FFF732F8024620462946904730E094F842
:103ED000DC00032811D00228BDD152B92BE094F8A0
:103EE000DC00032818D00228B5D141F080008028DA
:103EF00021D02046FFF77CFB1DE02046FFF7D8FBD2
:103F0000002818BF0120ADF806000DF1060120467B
:103F1000022200F021FA0EE0688860B942B1204622
:103F2000FFF796FB2879022802D804EBC000C3E70C
:103F3000204600F038FA002002B0B0BD0A780270C6
:103F40004A7842708A78CB7842EA032242800A7922
:103F50004B7942EA032282808A79C97942EA0121B7
:103F6000C180704710B580210446FFF741FB204611
:103F70000021BDE81040FFF73BBBB0B582B00D4655
:103F800009780446002011F06001ADF806008DF8B4
:103F9000050010D020293CD16878A0F10A0102293F
:103FA00036D3022818D0032816D02046294600F020
:103FB00041F902202DE068780B2812D00A280BD096
:103FC000062825D1E87821280FD022281BD10DF111
:103FD000060000F04DF80CE00DF10501204601222D
:103FE00014E0204600F0DFF912E00DF1060000F0C9
:103FF00029F8BDF80630EA880146934238BF1A46D0
:10400000ADF8062001E000220021204600F0A4F9CE
:10401000002002B0B0BD10B5822103224023044627
:10402000FFF7ACFA2046022103224023FFF7A6FA4D
:10403000204602214022FFF787FB002010BD002010
:1040400070470000084A014609EB020090F8EC00B6
:104050000023002805484FF0000278440CBF0923D4
:1040600010460B80704700BF74070000DA2F000075
:10407000084A014609EB020090F8EC0000230028F2
:1040800005484FF0000278440CBF222310460B80F5
:10409000704700BF74070000B72F0000022906D147
:1040A00080B504487844FEF7D3FCBDE8804000208A
:1040B000704700BFA1E2FFFFB0B502291FD114462F
:1040C00002214022FFF740FB0E4D09EB05008079ED
:1040D000A8B90220FEF7BCF802460C4821467844F5
:1040E000FEF7D4FB02280AD1072109EB050009F8E5
:1040F00005100121044A817159F802104180002005
:10410000B0BD00BFF00600005C07000067E2FFFFE3
:1041100010B58321032240230446FFF72FFA2046DF
:10412000032103224023FFF729FA204603214022DE
:10413000FFF70AFB002010BD0020704700207047E9
:10414000032906D180B504487844FEF781FCBDE818
:1041500080400020704700BF09E2FFFFB0B503298F
:104160001FD1144603214022FFF7EEFA0E4D09EB52
:1041700005008079A8B90320FEF76AF802460C48CA
:1041800021467844FEF782FB02280AD10B2109EB75
:10419000050009F805100521044A817159F802103B
:1041A00041800020B0BD00BFF00600005C070000A9
:1041B000CFE1FFFF0248122278440A80704700BF17
:1041C000C83000000248042278440A80704700BFCB
:1041D000CA30000002480E2278440A80704700BFAF
:1041E000BE3000000248182278440A80704700BFA1
:1041F000BC30000002480A2278440A80704700BFA1
:10420000C43000000248182278440A80704700BF7A
:104210009C3000000248182278440A80704700BF92
:104220008C3000000248392278440A80704700BF71
:10423000372E000080B591F90020B2F1FF3F03DD79
:10424000BDE88040FFF78EBE4A78772A0DD0062A57
:10425000F6D14A8840F2EE339A42F1D1CA88122A46
:1042600028BF1222114979441CE08A88042A06D109
:10427000CA88282A28BF28220D49794412E08A8852
:10428000052A06D1CA88922A28BF92220949794470
:1042900008E08A88072AD3D1CA88B22A28BFB22266
:1042A0000549794400F058F880BD00BF522E000047
:1042B0004C3000003C2E0000BA2E0000B0B5194D65
:1042C000044609EB05004FF48A7101F01DFA164807
:1042D000122148440C3001F017FAECB109EB050447
:1042E00020464FF48A7101F00FFA104920467944B4
:1042F0000022FFF743FA0E4A00207A442146FFF7D6
:1043000070FA0C4A01207A442146FFF76AFA2046E7
:10431000BDE8B040FFF770BA09EB0500BDE8B0405A
:10432000FFF744BA74070000F0060000AA2D000051
:10433000162F0000422F0000014602484022784418
:104340000A807047B22F0000014602480A227844D2
:104350000A807047E22F000080B58C460221C0F829
:10436000D410016AC0E90622C0F810C1914288BF8A
:1043700011468BB200216246FFF7C6F9002080BDCE
:1043800080B5036A8C46934288BF13469BB20021D6
:104390006246FFF7B9F9002080BD80B50021FFF724
:1043A000D3F9002080BD80B50421C0F8D4100021CD
:1043B00000220023FFF7A8F9002080BD80B5052169
:1043C000C0F8D41000210022FFF7BEF9002080BD04
:1043D00010B552EA030115D000214FF0000C00BFC8
:1043E00010F901E001314CF1000CBEF1000F03D4D3
:1043F0008C1A7CEB0304F3D30020BEF1FF3FC8BF4F
:10440000012010BD012010BD154919F80100012837
:1044100023D8013809EB010200EB400302EB8300D3
:10442000808CD0B109EB010202EB8302D269A2B108
:10443000494401EB8301098C29B902EB800353F84D
:10444000043C033309D1814205D202EB810050F8CC
:10445000040C023001D0002070470120704700BFDB
:10446000A8030000134819F8001001291FD80139CA
:1044700009EB000201EB410302EB8301898CB1B12E
:1044800009EB000202EB8302D26982B1484400EBDF
:104490008300008C4B1E834209DD0239814204DD1A
:1044A00002EB80004068023001D0002070470120FC
:1044B000704700BFA80300000A4819F8001069B14E
:1044C00001EB4101484400EB8100818AC08A8142AE
:1044D00001D9012003E001D2FF2000E0002040B21A
:1044E000704700BFA8030000114819F80010012907
:1044F0001BD8013909EB000201EB410102EB8102FB
:10450000928C92B109EB000303EB8103DB6963B189
:10451000484400EB8100008C904206D253F8200002
:1045200010F1040F98BFFEF7FFBC0020704700BFDA
:10453000A803000070B5214A19F8021001293CD8DF
:104540008646481E09EB020100EB400301EB8301A4
:10455000898C91B309EB020505EB8305ED6965B321
:1045600001292AD009EB020404EB830C3CF8204F0C
:104570004E1EA64221DD0239A1420FDB05EB84016C
:1045800049688D1C08BF70BD033107D14A44002122
:1045900002EB8302ACF8001051840AE009EB02013F
:1045A00001EB83014C84611CBEF1000FACF80010DC
:1045B00003D0BDE8704000F04DB870BDA803000006
:1045C0000120FFF7B7BF000010B5214919F801001D
:1045D000012813D8013809EB010300EB400203EB7B
:1045E00082039B8C53B109EB010404EB8204D4F8E1
:1045F0001CE0BEF1000F18BF012B00D110BD09EB6C
:10460000010404EB820C3CF8204F6CB10EEB8403E8
:1046100053F8043C0233F1D0494401EB82014C844D
:10462000611EACF800100EE00EEB830454F8044C4D
:10463000033418BF10BD49449C1E013B01EB8201AD
:10464000ACF800404B84BDE8104000F003B800BF58
:10465000A8030000F0B581B01E49044609EB010033
:1046600004EB440100EB810555F81C0F2E4636F88B
:10467000041F50F8210010F1040F84BF01B0F0BDF9
:10468000FEF752FC29683288076851F82200FEF7CD
:104690004BFC47B10068FEF747FC0146204601B0DD
:1046A000BDE8F04008478068FEF73EFC2968328884
:1046B000054651F822100846FEF736FC4068FEF722
:1046C00033FC02462046294601B0BDE8F04000F028
:1046D00077B800BFA80300002DE9F04581B0374D41
:1046E00019F80500012858D8A0F1010A09EB0500C6
:1046F0000AEB4A0600EB860434F8240F00284CD05D
:1047000009EB050101EB860757F81C1F002944D06F
:1047100009EB050202EB860838F8202F82423CD2D2
:1047200051F82200FEF700FC806888B13868B8F8BC
:10473000001050F82100FEF7F7FB8068FEF7F4FB4D
:1047400001465046002201B0BDE8F04500F038B8FF
:10475000208810B3B8F80020023890421DDB396879
:1047600001EB82035B68DF1C1AD0023315D11346BC
:1047700001EB82025268023205D101339AB29042B3
:10478000A8F80030F4DA09EB050000EB860043845A
:10479000591C5046A8F800100BE001B0BDE8F085A8
:1047A00009EB0500002100EB8602A8F80010504636
:1047B000518401B0BDE8F045FFF74CBFA8030000ED
:1047C00070B500B170BD214E0D4609EB06000430F6
:1047D0002221144600F098FF002DF3D02846FEF762
:1047E000A3FB09EB0602918CD06150F82120013225
:1047F00009D000BF01318AB250F822200132F9D12C
:1048000009EB06008184E4B12046FEF78DFB09EB3D
:104810000601CA69098C52F821104A1C11D00446BD
:104820000846FEF781FBA0420BD009EB0600028C84
:10483000C169531C9DB251F8251042844A1C03845F
:10484000EED10020BDE87040FFF704BFA8030000D0
:1048500080B50A49884208D00949884208D00949E8
:10486000884208D1FFF7B0FE05E0FFF735FF02E010
:104870000120FFF75FFE002080BD00BF0300008025
:10488000020000800100008010B5A8B90B4809EBB8
:1048900000018A8C098C91420ED209EB0004E06978
:1048A000FEF742FB218C50F82100FEF73DFB4068EB
:1048B000BDE81040FEF738BB002010BDA803000083
:1048C000024819F800000138FFF7DEBFA803000016
:1048D00080B5FFF709FE38B1044819F80000013827
:1048E000FFF7B8FE012080BD002080BDA8030000B6
:1048F00010B5044600F080FC0A480B4A484404EB1B
:10490000C4017A4400EB81000521C0F8CC2080F876
:10491000D010064A01217A4480F8C910C0F8DC2082
:1049200010BD00BFA80300003A2A000037FFFFFFB8
:1049300080B500F0C7FB58B1064909EB010292F8B7
:10494000A920112A02BF494448F20A02A1F8C02056
:1049500080BD00BFA803000010B50446FFF7C8FFE4
:104960000748084A484404EBC40100EB81017A443B
:104970002046C1F8D820BDE8104000F00DBC00BFB3
:10498000A8030000BFFFFFFF2DE9F0410D461449C9
:104990009046064609EB010200EBC00002EB8007DF
:1049A0000720104987F8D000012087F8C900107B44
:1049B0007944C7F8CC1052F8041F00071C464FF08A
:1049C0000803284608BF0A2300F094F9C7F8D84026
:1049D0003046C7F8DC80BDE8F04100F0DDBB00BF29
:1049E000A80300002C2A000010B50446FFF768FF5A
:1049F0004168044A044B7A447B442046BDE8104099
:104A0000FFF7C2BF130000002500000080B5034976
:104A1000794400F031F9002080BD00BFD5FFFFFFD1
:104A200010B50446FFF74CFFD0E900122046BDE860
:104A3000104000F06DB800002DE9F04581B0DFF8BE
:104A40009C800D4609EB08010E7B92460446FFF759
:104A500033FD01280CD0013010D109EB080707F114
:104A60000800142100F050FE4FF0FF30786005E0A0
:104A700009EB08000430182100F046FE09EB080796
:104A800020463E733E1D00F0B7FBD7F80C0108230B
:104A900028431348397B784418BF284609074FF04C
:104AA000FF31324608BF0A2300F024F9B86048B14C
:104AB00009EB080149680138814284BF09EB08010C
:104AC000486005E009EB08000430182100F01CFEE6
:104AD0002046514601B0BDE8F0450847A803000054
:104AE000F90D000010B50849044609EB0100F0215A
:104AF00001732046FFF7C8FE4168044A20467A4405
:104B0000BDE81040FFF798BFA8030000E7FEFFFFD5
:104B10002DE9F04182B0DFF84881064609EB080034
:104B200014460D46A8303146202200F0F2FD707880
:104B3000102820DC012836D002283DD0102840F073
:104B40008980002D45D009EB0806B0684649474CDE
:104B500001287C442846794488BF0C46FEF7E4F9D6
:104B60000346D6E9010580210130009006F12800B6
:104B70002246019537E0A0F1110103296AD200F025
:104B80000F00461E022E65D809EB080000EB460018
:104B9000858A002D5ED07F2D28BF7F25BCB320469F
:104BA000FEF7C2F937E0FFF72FFC002852D009EBDF
:104BB0000800406858B14DE0FFF754FC002849D088
:104BC00009EB0800D0E901010139884242D10020F7
:104BD00043E009EB0800D0E90116254A4B1C2830B8
:104BE0007A4480210096FDF7C9FF09EB08001D49B2
:104BF000027B0231EF2A84BF48F20801CFF6FF7131
:104C0000A0F8C01000F12801C0F8C41022E009EBA0
:104C10000800D0F80C0109EB080707EB4601C98929
:104C2000144A07F1280446187A44204680212B466E
:104C30000096FDF7A3FF387B0A4900F00F00023110
:104C4000C7F8C4400F2804BF48F20801CFF6FF712F
:104C5000A7F8C01009EB0800A83002B0BDE8F08149
:104C6000A80300000880FFFF8F0C0000D50C000097
:104C7000BE0C0000CA0B00001A4A90420ED01A4A1D
:104C8000904217D0194A904218BF7047184809EB54
:104C90000002526812B3A2F1010C17E0144809EBAC
:104CA0000001896821B1484440680139814217D127
:104CB000FFF712BD0E4809EB0002D2E90123013BC8
:104CC0009A4208BFFFF77CBC02F1010C19F80030D2
:104CD00009EB0002581EC2F804C00847FFF774BC75
:104CE000704700BF030000800200008001000080C8
:104CF000A80300002DE9F04D88B00E46074602F1EA
:104D00000A000C210793144600F0FEFC701C04906E
:104D100004D06068B04201D8002097E027B138463F
:104D2000FEF702F9824603E04A484844D0F80CA155
:104D3000504600F039FD0128C0F285800AEB000BD7
:104D400000220023002502945046CDF804A00396CB
:104D500000265746CDE905320AEB0608D8451DD294
:104D6000741C0798E3B2002152460095FBF7E0FC63
:104D7000722813D898F80000A0F10901022907D37E
:104D8000202805D02D2803D05F2818BFB84600BFC3
:104D90000A2826464746DFD102E000BF3446B8461F
:104DA0000AEB040058450FD2039E74B1D0450CD0D5
:104DB00010F8011C2C292FDCA1F10902022A04D3CE
:104DC000202902D02CE000BF039E0498DDE90532C3
:104DD00078B1B2420DD102984068B04209D9019829
:104DE0000299AAEB000001EB4301012B48810C82E0
:104DF00029D80133A244022B4FF0000088BF0120C4
:104E0000DA454FF0000138BF0121084018BF0023E8
:104E1000DA4502449CD318E02D29D6D05F29D4D09E
:104E200000782C2808DCA0F109010229CDD3202824
:104E300018BFA8EB0A04C8E72D28C6D05F28C4D045
:104E4000A8EB0A04C1E7012000E0501C08B0BDE84F
:104E5000F08D00BFA803000070B50546FFF730FDD8
:104E6000134E044609EB0600A8302946202200F024
:104E700050FC68780F2806DC01280AD0022812D1DD
:104E8000FFF7F0FA07E0102808D011280BD160686E
:104E900005E0FFF7B9FA30B1002070BD206809EBDA
:104EA0000601C1F8C40009EB0600A83070BD00BFC0
:104EB000A803000010B5044600F09EF90E4804EB6C
:104EC000C40148440D4A00EB810105207A4481F871
:104ED000D0000120C1F8CC2081F8C9000848094A57
:104EE00078447A44C1F8D8002046C1F8DC20BDE8F7
:104EF000104000F051B900BFA8030000F0250000E9
:104F000075FFFFFF6BF9FFFF70B50546FFF7D8FC93
:104F1000194E044609EB0600A8302946202200F06D
:104F2000F8FB68780F280BDC012818D0022819D06C
:104F30000F281CD1206809EB0601C1F8C40016E057
:104F40001038022813D209EB060090F8A91001F0DE
:104F50000F0104EB81014968C0F8C41007E0FFF7B6
:104F600053FA01E0FFF77EFA08B1002070BD09EBAB
:104F70000600A83070BD00BFA803000010B50446AD
:104F800000F03AF90A480B4A484404EBC4017A4459
:104F900000EB81000621C0F8CC2080F8D010064A32
:104FA00001217A4480F8C910C0F8DC2010BD00BF90
:104FB000A8030000CE250000ABF8FFFF70B5054642
:104FC000FFF77EFC134E044609EB0600A830294685
:104FD000202200F09EFB68780F2806DC01280AD00A
:104FE000022812D1FFF73EFA07E0102808D0112856
:104FF0000BD1606805E0FFF707FA30B1002070BD03
:10500000206809EB0601C1F8C40009EB0600A830CE
:1050100070BD00BFA803000010B5044600F0ECF816
:105020000E4804EBC40148440D4A00EB8101052001
:105030007A4481F8D0000120C1F8CC2081F8C90061
:105040000848094A78447A44C1F8D8002046C1F893
:10505000DC20BDE8104000F09FB800BFA8030000AE
:10506000EC25000075FFFFFF07F8FFFF80B5FFF795
:105070004BFF58B1064909EB010292F8A920102A0A
:1050800022BF494448F20A02A1F8C02080BD00BFF7
:10509000A803000010B50446FFF770FF0748084A50
:1050A000484404EBC40100EB81017A442046C1F876
:1050B000D820BDE8104000F06FB800BFA803000082
:1050C000BFFFFFFF70B50546FFF7FAFB144E04461D
:1050D00009EB0600A8302946202200F01AFB687868
:1050E000022804D0012807D1FFF78EF901E0FFF76D
:1050F000B9F980B1002070BD09EB060090F8A90055
:1051000010F0F00F07D000F00F0054F8200009EB6A
:105110000601C1F8C40009EB0600A83070BD00BF4D
:10512000A8030000B0B50A4C19F8040068B909EBEF
:10513000040505F1C800242100F0E6FA0020C5E9C5
:1051400007006862012009F804000138B0BD00BF03
:10515000A803000080B5FFF7BBFB00B180BD0D4880
:1051600019F80010012909D109EB000100220020E3
:10517000A1F8CA20BDE8804000F00EB80029EDD1AA
:1051800009EB00014978AA2902BF4844692141700E
:1051900080BD00BFA8030000B0B5164D044619F845
:1051A000051099B1601C884210D1FDF765F909EB33
:1051B000050004EBC40100EB8101002201F1C800ED
:1051C000A1F8CA20BDE8B04000F026B8002918BFF9
:1051D0000121B4F1FF3018BF0120084218BFB0BD53
:1051E00009EB05004078AA2802BF09EB05006921F8
:1051F0004170B0BDA803000010B50446FDF73CF9AE
:1052000004B110BD034824214844C83000F07CFAA2
:1052100010BD00BFA80300002DE9F04581B0044691
:10522000FEF776F8AA2803D1FEF78EF8AA284FD108
:105230006078A0B3608894F80880404531D2DFF8E8
:1052400098A0471C460100BF0130608019F80A0091
:10525000616801EB060568B100EBC00009EB0A01CB
:1052600001EB8000D0F8B41021B128468847A0B1E6
:10527000012800D1284628B1012808BF2846FCF79C
:10528000EEFA03E009EB0A00407808BB207A874277
:1052900007D2608801372036D6E70020EBE74FF0D1
:1052A00000086088404513D1FEF7D6F86088E168B1
:1052B0000130608019B100200025884720B10648E0
:1052C00021784844417003E00348658048444570B4
:1052D00001B0BDE8F08500BFA803000080B510B1A3
:1052E000FDF792FE03E046F68510FCF7B5FEBDE83B
:1052F0008040FCF745BF000010B558B10E4C0220AD
:1053000009F80400FBF776FEB0F1FF3F09DDFDF779
:105310009BFE0DE00848002109F8001046F68510B4
:1053200004E0002009F804004BF20800FCF794FEAA
:10533000BDE81040FCF724BFD800000010B558B1FC
:105340000E4C022009F80400FBF754FEB0F1FF3FB9
:1053500009DDFDF779FE0DE00848002109F800108D
:1053600046F6851004E0002009F804004BF208001E
:10537000FCF772FEBDE81040FCF702BFD800000049
:1053800010B5E1B114460278FF2A0DD0FE2A14D0E0
:10539000FD2A17D1032912D30121FDF709FE0021AF
:1053A000C4E90001032010BD092908D30121FDF73C
:1053B00012FEC4E90001092010BD052907D24FF0F3
:1053C000FF3010BD0020C4E90020012010BD0121E4
:1053D000FDF7F5FD0021C4E90001052010BD130A09
:1053E00000EB010C43548CF801207047704700BF5C
:1053F00053B94AB9002908BF00281CBF4FF0FF313C
:105400004FF0FF30FFF7F2BFADF1080C6DE904CEAD
:1054100000F006F8DDF804E0DDE9022304B070478F
:105420002DE9F04F099E0D4604460F46002B47D14B
:105430008A4294465FD9B2FA82F343B1C3F12001A4
:105440009F4002FA03FC9C4020FA01F10F434FEA0F
:105450001C451FFA8CFE220CB7FBF5F105FB1177FA
:1054600001FB0EF042EA0742904208D91CEB02020F
:1054700001F1FF3702D2904200F234813946121A0C
:10548000A4B2B2FBF5F005FB102200FB0EFE44EACD
:105490000244A64508D91CEB040400F1FF3202D2F5
:1054A000A64500F21981104640EA0140A4EB0E0423
:1054B00000211EB1DC400023C6E90043BDE8F08FA7
:1054C0008B4208D9002E00F0FB800021C6E90005C0
:1054D0000846BDE8F08FB3FA83F100294BD1AB4207
:1054E000C0F0F180824240F2EE800846002EE5D006
:1054F000C6E90047E2E702B9FFDEB2FA82F3002B09
:1055000040F09D808D1A4FEA124E97B20121B5FBF3
:10551000FEF20EFB1250250C45EA004507FB02F097
:10552000A8420FD91CEB050502F1FF382CBF4FF044
:1055300001094FF00009A84203D9B9F1000F00F0AA
:10554000CE8042462D1AA4B2B5FBFEF00EFB1055DC
:1055500000FB07F744EA0544A74208D91CEB040402
:1055600000F1FF3502D2A74200F2B3802846E41BC7
:1055700040EA02409DE7C1F120078B4005FA01F4A3
:1055800022FA07FCFD408A404CEA030C20FA07F39C
:105590004FEA1C491C431FFA8CFE00FA01F3200C51
:1055A000B5FBF9F809FB185540EA054508FB0EF074
:1055B000A8420FD91CEB050508F1FF3A2CBF4FF0AC
:1055C000010B4FF0000BA84203D9BBF1000F00F014
:1055D0008C80D0462D1AA4B2B5FBF9F009FB10550A
:1055E00000FB0EFE44EA0545AE4507D91CEB050558
:1055F00000F1FF3401D2AE457ED8204640EA084093
:10560000A5EB0E05A0FB029845454C46C64602D3C5
:1056100006D14B4504D20138B9EB020468EB0C0EFD
:10562000002E6FD01A1B65EB0E0522FA01F305FA66
:1056300007F7CD4000211F43C6E900753EE702FA97
:1056400003FCC3F1200001FA03F24FEA1C4EC140F3
:1056500024FA00F51FFA8CF79C401543B1FBFEF0CD
:105660002A0C0EFB101142EA014200FB07F19142A5
:105670000ED91CEB020200F1FF382CBF4FF00109DC
:105680004FF00009914202D9B9F1000F31D04046E4
:10569000521AADB2B2FBFEF10EFB112245EA0245F1
:1056A00001FB07F2AA4207D91CEB050501F1FF38FF
:1056B00001D2AA4223D84146AD1A41EA004126E769
:1056C00031463046FAE6841A65EB030301201F4693
:1056D0000CE7644402384AE764440238E4E6023ADC
:1056E00065442FE702396244C9E6A8F1020865441F
:1056F00070E702386244CBE7023865447EE702393E
:105700006544D9E73146D9E6002200F004B800F03C
:105710000DB800F018B813460A46194600F02DB827
:1057200000F000B80A46002100F027B80A44431EE2
:10573000914200D1704710B511F8014B914203F826
:10574000014FF9D110BD884210B501EB020402D916
:105750008442234607D8431EA14208D011F8012BEA
:1057600003F8012FF8E7024401468A4200D110BD38
:1057700013F8014D02F8014DF7E702440346934246
:1057800000D1704703F8011BF9E70000EC46A0E8E0
:10579000F05F4FF000007047B0E8F05FE5460800AA
:1057A00008BF0120704700BF034613F8012B002AF1
:1057B000FBD1181A013870470139034610B532B1D0
:1057C00011F8014F013A03F8014B002CF7D11A44AC
:1057D0000021934200D110BD03F8011BF9E72564B5
:1057E00000417070726F7665002573202825642F44
:1057F000256429002F00252E2A730052656A6563EF
:1058000074004861736800537461726B6E65742034
:1058100041707000436F6E6669726D2041646472FE
:1058200065737300416D6F756E740025730053547A
:1058300041524B4E455400537461726B6E65740057
:10584000312E302E3000270056657273696F6E005E
:1058500041626F7574002863292032303232204C47
:105860006564676572003078252E2A48002E2E2E3A
:10587000004164647265737300424F4C20252E2AE8
:10588000730051756974004261636B0052657669FB
:1058900065770000697320726561647900506174F6
:1058A000680025642F2564000000000000B06DC36F
:1058B0000600802D490000000000000012C94FF9C9
:1058C0004B241200000088B72C0E87A61F02000090
:1058D00038B1C60AFBF98D35D6C801000000007842
:1058E000D8B0C1C1DB3D7BBE01000000B0040000A8
:1058F000004066333366042066CCCC660200D3FEDB
:105900009E070000000000C0303FC3000000000000
:1059100000C01A000000F00F00000000C0060000E8
:1059200023C68C11030000003C6666666666663C12
:1059300000000000C679188661180000008E0D0670
:10594000C370183E000000000F0CC681C1601E002D
:1059500000000030383834347E303000000080677A
:10596000181E86611E000000380C043E6666663C08
:10597000000000001F0C06C360300C000000003C5B
:1059800066663C6666663C000000003C6666667CB7
:1059900060301C000000006CC00600006CC01A00E3
:1059A00000606686611800000000003FF003000000
:1059B00000000CC33033030000C083618E01180661
:1059C000000000E0C398DD5B2FBDF67E06E0070017
:1059D0000000183C3C7E667EE7C3000000009FCDBF
:1059E000E6B1D96C3E000000009EC16030180C3C4E
:1059F000000000003E6666666666663E0000008047
:105A000067189E61181E0000806F189E61180600BE
:105A100000007C0606766666667C0000000066660E
:105A2000667E6666666600000060666666060080E2
:105A300031C618638CB10300E666361E3E3666E654
:105A40000000008061188661183E000000709CE331
:105A5000BCE73DEF59CD6E760300000000009C3995
:105A6000F3E6CD9E3D73E60000000000F8183366B3
:105A7000CC9831637C00000000009FCD66F3190CC8
:105A80000600000000F8183366CC9831637CC00033
:105A90000300001E3636361E363666000000006FE4
:105AA000180E87E71E0000C0CF300CC3300C00007A
:105AB00000666666666666663C000000C03CCFB362
:105AC000E7790C00000098B3DDEC6635AB71873BDD
:105AD000D8000000000000C3663C3C3C3C66C300AC
