:02000004C0DE5C
:100000002DE9F0418CB062B602F000F9254F4FF4B3
:1000100088746D4600264FF0010800BF09EB070009
:10002000214605F019FE284605F058FE81B2052943
:10003000ADF82C001CD021BB284603F099FC0A9097
:1000400002F038FA304604F0E1FB404604F0DEFBF3
:1000500002F0C6F802F00EF803F080FCA84202D1CC
:100060000A9803F085FCBDF82C000028D6D017E0D4
:100070000A98ADF82C6003F07BFC0A9803F078FC3A
:10008000CCE70A980024ADF82C4003F071FC0A98E4
:1000900003F06EFC02F078F820460CB0BDE8F08169
:1000A00002F0B8F8300400002DE9F04D8EB090F861
:1000B00000B004460BF07F0ABAF1050F0D910B92C8
:1000C00000F0B980208B154600F0E0FA002800F01F
:1000D000B28090F806C020894FF0000E08900D986D
:1000E000002800F08681002D00F08381E18843F232
:1000F0003903643189B2208BCDE900310D99EAB220
:100100000026CDE903120021002243F23903002723
:10011000D046CDF828C002960C97059600F0F2FA6A
:10012000E188052D1FFA80FACDF818B0C0F0AC8137
:10013000514580F0A981208BEB4A002603217A44A7
:10014000642343F23907CDE90073CDE902620491DB
:100150000021002243F23903059600F0D3FA0D9AEC
:10016000E1884FEA550EB6EB550F02EB55020C92A3
:1001700000F08B81DDF828C08A4540F28881B5EB1C
:100180000E0700F0848180B20990002643F2390303
:10019000208BCDE900310D995FFA8EF24FF0000A05
:1001A000CDE903120021002243F23903F346CDF8D2
:1001B00008A0CDF814A000F0A5FAE18843F23903B5
:1001C00085B2208BCDE900310C99FAB2CDE903124A
:1001D0000021002243F23903CDF808A0CDF814A085
:1001E00000F090FA099980B26A18E18802EB000ADF
:1001F0008A4540F24482012E06D046B9DE46DDF83B
:1002000028C0ABF1010E05E00C9801300C90DDF830
:1002100028C0DE460B9DBEF1000F18BF8A4540F294
:100220003681DDE90C20801A47194FF0010020EAE1
:100230000606ABD12BE100200C9000204FF0000E01
:1002400008904FF0000C0020079000200990E388F0
:100250002689E77A58087108B0EB560F0A4638BF6E
:100260005A08BA42B84603D888422CBF884680460E
:10027000AAF10100042807D3BAF1060F00F0BC80F0
:10028000BAF1070F40F0D080BAF1040F08BF002F79
:100290000BD0BBF1810FCDF828C00FDCBBF1020FF2
:1002A00013D0BBF1070F10D0C1E02069B4F90210E0
:1002B000B4F90420009603F09BFBB5E0BBF1870F77
:1002C00003D0BBF1820F40F0B2806069B4F9021034
:1002D000B4F90420BAF1070F08BFA2EB0C02089F83
:1002E00008BF3E460096754603F082FBAC460B986D
:1002F000DDF828E0002800F097800D98002800F035
:100300009380BAF1040F00F08F805846D4F8108023
:1003100062690BF07D00012806D1207B0128404650
:1003200004BF104642468046079EB4F90210099D5C
:10033000B346208BB4F904706B18BAF1070F08BFED
:10034000CEF1000BE1880BEB070E491BBAF1070752
:10035000258918BF3746CDE900E10D99ED1B002630
:10036000CDE9031C414602950596154600F0CAF9F1
:100370000C99002958D0B4F90420E188DDF824A0B4
:100380000895B4F818E083B20BEB02002A462589E1
:10039000A1EB0A06BC49ED1B79444FF0030CCDE9F3
:1003A0000006CDE90251704641460026CDF810C046
:1003B000059600F0A7F9E3882589B4F90410A3EBAA
:1003C0000A0683B2E81B0B9F0D9D0BEB01022F4425
:1003D0000C9D218BCDE9002602AA7F1BA1C2089AA1
:1003E0004FF0000C08464146CDF814C000F08AF9E1
:1003F0001AE000200C9026E7B4F90210B4F90420AA
:10040000237B20693944012B3A4404D0A37A9F42CC
:1004100001D9FB1A00E000236669FF25CDE90053EE
:100420003B46029600F062FA0EB0BDE8F08D207BEC
:10043000CDF820E0012859D1B4F902102069B4F9AF
:1004400004204144A3EB4803009603F0D1FAB4F929
:10045000042023892069B4F902104244A3EB480721
:100460004346009703F0C4FAB4F90220E188B4F9D6
:10047000043027892069A2EB0802114408EB03022B
:10048000A7EB4807434694E0AE46DDF828C0208B32
:1004900000F44042B2F5004F05D0B2F5804F08D1CC
:1004A000A1EB0A0102E04908A1EB5A0121EAE1713E
:1004B00000E00021DDF818B000F44050C246B0F56D
:1004C000005F099106D0B0F5805F09D12089A0EBCB
:1004D0000C0006E020896FEA5C0101EB500000E0AF
:1004E00000200790B3E600BFE95D0000B4F90210F8
:1004F0006069B4F904204144A3EB4803009603F07B
:1005000077FAB4F9042023896069B4F902104244EF
:10051000A3EB48074346009703F06AFAB4F90230A8
:100520006FEA0802E188B4F904701A44238960690B
:10053000114408EB0702A3EB48074346009703F07A
:1005400057FAB4F90210E3882069B4F90420A77AB5
:100550004144A3EB4803009703F04AFAB4F904209E
:100560002389B4F902101A44E3882069A77A414428
:10057000013AA3EB4803009703F03AFAB4F90420D8
:1005800027892069B4F90210A37A4244A7EB4807EF
:10059000009703F02DFAE188B4F90220B4F9043091
:1005A00027892069114408EB0302A37A0139A7EBDC
:1005B0004807009703F01CFADDF820C0B8F1020FDD
:1005C000FFF495AE207BCDF818B001284FF0000B5A
:1005D00004D0A07AB8EB000028BF8346B4F902101B
:1005E000B4F90420D4E90407C02341444244CDE9CE
:1005F000003B4346029700F079F9E188A27AB4F90A
:100600000230B4F904702069194442446669302309
:10061000891A08EB0702CDE9003B4346029600F039
:1006200065F9B4F904202389A77AB4F902101A44B1
:1006300008EB070320696769D21A0C234144CDE90E
:10064000003B4346029700F051F9E188A27AB4F9E1
:100650000230B4F90470194442442389891ABA1A41
:10066000206967691A440323CDE9003B434602979A
:1006700000F03CF9DDF818B0DDF820C037E6DDF811
:1006800028C0DE4603E700BF8F5B0000F0B581B0F5
:100690000E490F4E7944044608687E446FF31F34B8
:1006A00088B106EB800151F8045C471E284602F031
:1006B000C7FE0068A0423846F2D1284601B0BDE826
:1006C000F04002F0BDBE002001B0F0BDDC6C0000C7
:1006D000CA6C000080B586B09C464FF0000E43F215
:1006E0003903CDE90031CDE902E20021002243F2D5
:1006F0003903CDF814E0CDF810C000F003F880B253
:1007000006B080BD2DE9F04DA0B0289F43F2390519
:1007100083EA05067D4056EA0504254608BF2746BC
:100720000F970B9318BF1D460892CDE91021FFF7D4
:10073000ADFF002800F0C980DDF8B0A08346B4FA10
:1007400084F0BAF1000F4FEA50100D9000F0BF8016
:10075000DDE929109BF8042029440E910F992B9B69
:1007600008440790012090400A92099013F8014B29
:10077000BBF808109BF805E08C4203D3BBF80A00D5
:10078000A0420FD2C02C03D304F03F04002605E0A2
:1007900060B2B0F1FF3F65DD002600244FF0000895
:1007A0001CE000BFDBF81000671A0C93764602F0DD
:1007B00047FEDBF80C100446084602F041FE00EB51
:1007C00087004188DBF80C0004EB010802F038FEDA
:1007D000B6460C9B10F827409BF807600F9A0D98BF
:1007E000002805EB040005D00E99A9B30E998842A4
:1007F00032D975E00E9988420ADD0F9A0799724442
:1008000002EB0E000B9F884210460F9201DD6BE059
:100810002F46B8F1000F14D0B4460A9E09990EFB7A
:1008200006F06043009110A90191CDE9038038469C
:10083000114622461D4673460296664603F0BEF8F0
:1008400007E0089839461D462346CDF800E003F03E
:10085000CFF8A0192B463844BAF1010A05467FF4B7
:1008600085AF35E0A0064FF00F00CDF818E00C93EF
:1008700058BF0E20FFF70AFFF0B10746006902F0EB
:10088000DFFDF9688046084602F0DAFD04F01F0437
:1008900000EB84004188F868884402F0D1FD10F82C
:1008A00024409BF806000F9AB97997F805E01044A8
:1008B0000C9B421A002692E70F9A0C9BDDF818E079
:1008C000002600244FF0000889E7002508E02846AC
:1008D0000D9909B1054603E080B20F9940EA014540
:1008E000284620B0BDE8F08DA8B2F6E72DE9F04D1E
:1008F00098B01792219A07469E1A002A104618BFF0
:1009000001200025002E1296C8BF0125002B13934D
:10091000169100F1C281139E209928401590C6F1CE
:100920000100119001F00100129B109001F00200F3
:100930000C90581E079001F004000D9001F0080083
:100940000B9001F010000F9001F020000A9001F0D0
:1009500040000E9001F0800009901698911B104401
:10096000801B0391C3F10101CDE9051001304FF067
:10097000000B4FF0FF314FF0010A4FF000080490D8
:10098000089700BF10984C1C149128B90C980028A7
:1009900053D0159818BB46E01598C8B31798A246CF
:1009A0000844451C07983C46169F331A22984FF07E
:1009B000010C39462A46CDF800C003F019F8059914
:1009C000F0192746129B54464FF0010A014438465D
:1009D0002A46CDF800A003F00BF80C9868B31398E2
:1009E000B042179806EB00050AD0039814992A46DE
:1009F0000844831C22981699CDF800A002F0F8FF55
:100A000006981499129B0844811C38462A4610E027
:100A100017983346421816993846CDF800A002F0D0
:100A2000E7FF0C9848B1179816993044421E384693
:100A30002346CDF800A002F0DBFF0D9830B90B98EB
:100A400000285DD0159830BB38E000BF159800280D
:100A50001698A0EB060525D017981499DDF81CA070
:100A60000844471C22984FF0010CA6EB0A032946C4
:100A70003A46CDF800C002F0BBFF0898129BA5EBE8
:100A80000A014FF0010A3A46089FCDF800A002F093
:100A9000AFFF0B98A0B31398B04218D11798351830
:100AA00024E000BF17981499334642183846294667
:100AB000CDF800A002F09CFF0B9808B316982346CF
:100AC00000EB0B0117983044421E384614E016988C
:100AD000149A00EB0B011798CDF800A03518039875
:100AE0001044831C22982A4602F082FF0498129B2D
:100AF00000EB0B0138462A46CDF800A002F078FF43
:100B00000F9828B90A98002855D0159828BB49E0B5
:100B10001598DDF85CA0DA44C0B30798CDF80880DA
:100B2000A0463C46169F331A229839465246012564
:100B3000009502F05DFF0599F0192746129B444687
:100B4000DDF808800144384652464FF0010ACDF8DE
:100B500000A002F04DFF0A9868B313981499B042B0
:100B60001798A0EB06050AD003982A460844831C70
:100B700022981699CDF800A002F03AFF1499069831
:100B8000129B0844811C38462A4610E016993846C4
:100B9000524633464FF0010ACDF800A002F028FF7C
:100BA0000A9840B117981699821B38462346CDF80B
:100BB00000A002F01DFF0E9830B90998002857D008
:100BC000159818BB33E000BF1698871B15980028AE
:100BD000179800EB0B051FD0A246079C22984FF0F8
:100BE000010C331B39462A46CDF800C002F000FF45
:100BF000391B089F129B54464FF0010A38462A467B
:100C0000CDF800A002F0F4FE099888B31398B04222
:100C100015D11798851B21E0089839462A46334696
:100C20000746CDF800A002F0E3FE099800B316983D
:100C3000234600EB0B011798821B384614E01698E8
:100C4000149A00EB0B011798CDF800A0851B0398B0
:100C50001044831C22982A4602F0CAFE0498129B74
:100C600000EB0B0138462A46CDF800A002F0C0FE8A
:100C700008F10108119A701E4146012AACBF091AF9
:100C8000304602EB410101311191ABF1010B84427D
:100C9000214613960646FFF675AE18B0BDE8F08DF6
:100CA0002DE9F04D88B00E468968022926D8B0F9A2
:100CB0000220B0F9040007920690F0680122D6E9FC
:100CC000007B02FA01F802F0BBFB3169D6F808A0FC
:100CD0000546084602F0B4FB0446B168D6E90002B6
:100CE0005B46484350430490DDE906103A46CDE99F
:100CF0000085CDF808A0039402F060FE08B0BDE8BE
:100D0000F08D00002DE9F04581B00746581E0928F6
:100D10004FF0000016D81C4690468A460126002552
:100D20003846294602F0AAFB48F805000435A642D9
:100D30004FF0000028BF0120554503D8A64206F118
:100D40000106EDD301B0BDE8F08500002DE9F04DBE
:100D500084B015460A46019101390929039302918D
:100D600058D807462D484FF0000A78444FF0000845
:100D70004FF0000B009000BF039957F82A0005EBD5
:100D80000B04A1EB0B06009A20F0004320463146ED
:100D900002F080F9204604F0C4FFB8B3B04235D267
:100DA00057F82A108344B1F1FF3F11DC03981C4A25
:100DB00005EB0B04A0EB0B067A442046314602F00B
:100DC00069F9204604F0ADFF00B3B0421ED283445F
:100DD0000298504511D00398124A05EB0B04A0EB82
:100DE0000B067A442046314602F054F9204604F0BE
:100DF00098FF58B1B04209D2834408F10108019824
:100E00001FFA88FA8245B7D3012004E003992846E7
:100E100004F022FF002004B0BDE8F08DEA4F00008E
:100E2000B9500000884F00008268891805D24268D6
:100E300091429EBF81600120704700207047D0E939
:100E400001C39C450AD00268D25C0A7081680131F6
:100E500006D24268914298BF816001E0002008708C
:100E6000BCEB030018BF0120704770B50446406812
:100E7000A3680D46C61A072E05D92068194632B157
:100E800002F035FB05E00020C5E900000DE002F0AE
:100E900001FBA268C5E9000112F1090F05D86168DC
:100EA00002F10800884298BFA0600020072E88BF8A
:100EB000012070BDB0B504460D460068D4E901219B
:100EC0000844511A2A4604F003FDB0F1FF3F07DD44
:100ED000A168091807D26268914298BFA16002E038
:100EE0000021C5E90011C043C00FB0BDB0B5044634
:100EF00015460A460068D4E901310844591A2B46C0
:100F0000FFF700FF40B1A26802EB8501914203D3D5
:100F10006268914298BFA160B0BDB0B5D0E90153FD
:100F20001446ED1A954206D80068C21808461146C4
:100F30002A4604F096FE0020A54298BF0120B0BDCD
:100F4000B0B50446D0E9013015461A1AAA4284BF4A
:100F50000020B0BD236803440846194604F081FE12
:100F6000A068401903D26168884298BFA060012040
:100F7000B0BDB0B514460246512001230D4600F025
:100F800037F938B905F109012046402204F069FE1D
:100F90000020B0BD01F03EF9F0B59DB011AC2821A4
:100FA000204604F059FE314E09EB060090F8CC22A1
:100FB00000F52971204600F05DF805A804F08EFECA
:100FC00084B2002CADF8400047D105AC204602F0B9
:100FD000CFFC0F9048201C9009EB06006F461CA91F
:100FE00000F1280220231BADC7E90032B96000F1EF
:100FF000080311A840F201610322FD6000F0F4F83B
:1010000048BB09EB0600DDE91B7500F12802184812
:101010002946784401F0A6FE02F0A0FCA04202D1CD
:101020000F9802F0A5FC11A8282104F021FEBDF8BC
:10103000400080B9002D0AD4484609EB060007F0AD
:10104000010180F8705080F87110002001E04FF02D
:10105000FF301DB0F0BD01F0DDF80F980021ADF8B4
:10106000401002F085FC204601F0D4F86001000039
:10107000035000002DE9F04DA0B08846054617A8A2
:101080002021174604F0E8FD0EA8212104F0E4FD1C
:1010900002A804F023FE84B2002CADF8340040F026
:1010A000838002A802F064FCD8F80010022F0C9094
:1010B000C0F083804548814240F07F800195212423
:1010C0000EAD3A466F460026204641462B463E600E
:1010D00002F0D2FB8DF8586017AE20272846214633
:1010E00032463B4600F094F8394839467844324657
:1010F00001F038FE37491FAB794430463A4600F0DC
:101100008FF830BB344E00210DF1380B212717AD7D
:1011100020247E440DF17C081F98B0F1FF3F1ADDBA
:1011200001F1010A584639462A4623468DF858A04F
:1011300000F06EF8304621462A4601F013FE27499A
:10114000284679442246434600F06AF80028514672
:10115000E2D001F05FF8224A20217A4417A80B461A
:1011600000F062F80028F4D1019B512017A9202239
:1011700000F042F80028ECD102F0F0FB02A988420E
:1011800002D10C9802F0F4FB17A8202104F070FDA6
:101190000EA8212104F06CFDBDF834000028D8D140
:1011A000002020B0BDE8F08D0C980021ADF834107F
:1011B00002F0DEFB204601F02DF80A48784401F0E9
:1011C000D1FD4BF2010001F025F800BF550A008067
:1011D000464F00007C620000204F00003262000099
:1011E0003A620000B04B000003B44FF0240027E047
:1011F00003B44FF02A0023E003B44FF02B001FE0AC
:1012000003B44FF039001BE003B44FF03C0017E08B
:1012100003B44FF03E0013E003B44FF04E000FE074
:1012200003B44FF051000BE003B44FF0550007E05A
:1012300003B44FF0620003E003B44FF07B00FFE71C
:101240000049084701808000B0B504464068B0F509
:10125000FF7F01D9F92049E0204600220D46FFF723
:1012600004FE20B32068A1680844286120461421A8
:10127000FFF7DAFDE8B105F1080120460022FFF78B
:10128000F4FDC0B105F118012046FFF713FEA9696E
:1012900098B9E8695FEA50004FEA3102D2F1E802FA
:1012A0004FF0000272EB000007D2FC201EE0FF208E
:1012B0001CE0FE201AE0FD2018E02068A26810441F
:1012C00068612046FFF7B0FD68B105F114030DCB4E
:1012D00003F026FB48B1D4E901126FF006008A4200
:1012E00008BF012002E0FB2000E0FA2040B2B0BDC0
:1012F00080B584B001785A2917D14178002201299C
:1013000003920292019217DD022921D0032935D0E0
:1013100004294FD1817800294FD003295DD8C278A4
:1013200042F08003802B4CD057E04FF4DC4004B0F7
:10133000BDE8804000F09ABEA9B301293AD1817876
:1013400000294AD1C078002847D100F0FDF948E0D3
:101350008178012941D8C278002A3ED18268002ACA
:1013600041D000790029CDE901204FF00000039021
:1013700001A818BF012100F0FBF932E081780229B1
:101380002BD8C278022A28D2836863B30079002A56
:10139000CDE901304FF00000039001A818BF0122F1
:1013A00002F024F91DE08178B9B9C078A8B900F03D
:1013B00037FA16E04FF4DA4011E0C278802A0CD1F7
:1013C000802283687BB10079D209CDE90130002009
:1013D000039001A802F06CF903E046F6862000F0C5
:1013E00045FE04B080BD46F68720F8E7024859F86C
:1013F00000100120084700BFC4000000024859F84F
:1014000000100020084700BFC4000000B0B582B043
:10141000244D09EB050090F8A00219F805100843C7
:1014200005D000214BF2070009F8051034E01E48F2
:101430003C2109EB0004204604F00EFC09EB0500FA
:1014400090F8CC1200F5297022463C23FFF77EFC71
:1014500000B31648862109EB0004204604F0FCFB8B
:10146000144A09EB050000F108057A44204686215C
:101470004023009501F00EFE0F490D48794449F8CC
:1014800000100E4900207944002203F041FC0020A6
:1014900002B0B0BD4BF2010002B0BDE8B04000F0B8
:1014A000E5BD00BF60010000000000003C0000003E
:1014B000C4000000A14B0000AD430000D65F000057
:1014C000F0B589B0304E09EB060090F8A002022872
:1014D00048D119F80600012844D12C4F1E2109EBF0
:1014E000070004F0B9FB01AC20461E2104F0B4FB58
:1014F00009EB0600D0E98623032520461E2100952E
:1015000000F0DAF8C0B3244A09EB07057A4428460C
:101510001E211E23009401F0BDFD20482946784479
:1015200001F020FC1A482B2109EB0004204604F0AE
:1015300093FB09EB0600D0F82072194A20467A4442
:101540002B211423009701F0A5FD16491148794479
:1015500049F800101449002079440022002403F0C7
:10156000D7FB0EE000214BF2070009F8061009B086
:10157000BDE8F04000F07ABD4BF2030000F076FDCC
:101580000446204609B0F0BD60010000C80000001C
:10159000E8000000C4000000C14A0000A6490000A5
:1015A000C2490000F7420000505F0000B0B582B0B1
:1015B0001A4D09EB050090F8A002012824D119F872
:1015C0000500012820D11648442109EB00042046DB
:1015D00004F042FB144A09EB050000F108057A44C7
:1015E000204644212023009501F054FD0F490D4869
:1015F000794449F800100E4900207944002203F094
:1016000087FB002002B0B0BD00214BF2070009F8B3
:10161000051002B0BDE8B04000F028BD6001000038
:1016200014010000C400000022490000994200009B
:10163000DE5E00002DE9F04101B315460446A1F13C
:1016400001080027002600BFB5F10A0073F1000071
:1016500016D3284619460A22002304F071F90B46D6
:1016600000EB8001A5EB410141F03001FAB20137F6
:10167000A154F9B288450546E6D81AE0002618E0DC
:10168000F9B205F13000621800236054537079B14B
:1016900022782070481E0228625409D3012100BF1D
:1016A000225C635C62542354013801318142F7D3D8
:1016B00001263046BDE8F0812DE9F04186B06C4648
:1016C00088460546204615211E46174604F0C4FAF2
:1016D000204615213A463346FFF7ACFF78B36F46F4
:1016E0000C9E384604F01DFBB04210D93118013170
:1016F000414524D2841B28463946224604F0AFFADD
:1017000028192E2100F8011B3919324613E0321A2C
:10171000911C414513D23023A81C2E272B706F70CB
:1017200032B100270137BEB2B24200F8013BF9D80E
:10173000A8EB0102694604F0FCFA012000E0002059
:1017400006B0BDE8F081000080B584B00748784459
:1017500001F076FE0190082002900020039001A87D
:101760004FF4104100F028FC04B080BD6B4600002F
:10177000F0B59DB0274F0C4609EB070605463046ED
:101780004FF4347104F074FA002086F8A00209F8CE
:10179000070013A8282104F05FFA68464C2104F0E2
:1017A0005BFA06F533712846FFF749FB48B309EBAE
:1017B000070090F8CC2200F529712846FFF796FB28
:1017C000F8B109EB070696F8CC2213AD06F529719E
:1017D0002846FFF74FFC1048784401F0C3FA06F1A1
:1017E000080269462846FFF7C4FB0C48784401F01C
:1017F000B9FA2846282104F03BFA44B1FFF706FE67
:1018000003E046F6872000F031FC1DB0F0BD01F08A
:1018100087FEFAE7600100007F4700003F470000B5
:1018200080B584B001200DF101018DF80100002088
:10183000019103218DF802008DF80300CDE902101B
:1018400001A84FF4104100F0B7FB04B080BD00F0D8
:10185000CBBE0000F0B581B0DFF8A05619F8050046
:101860000D2805DC052800F0FA800D2812D087E04D
:101870000E2800F06A81152840F08280DFF8880683
:1018800048448079012805D109EB050080790007DB
:1018900040F13083DFF86856012009F8050009EBB4
:1018A000050400206060204602F002F8042002F0E7
:1018B0006DF80028606000F01583972800F012830F
:1018C000692840F06A8200F00FFE00F00FFEDFF89A
:1018D0003446002009EB0406A6F8CA00042002F0F2
:1018E00055F8D6F8CC1009EB05020029506000F03D
:1018F000F982002800F0F682972800F0F38209EBC5
:101900000400B0F8CA1090F8D000814280F0EA825A
:1019100001F0A6FFAA2804D101F0BEFFAA2840F0DA
:10192000E18209EB0401B1F8CA0091F8D02090429D
:1019300080F07881014609EB0402D2F8D830D2F861
:10194000CC2002EB40103BB1984760B109EB040199
:10195000D1F8CC20B1F8CA1089B2012808BF02EB37
:10196000411000F041FE09EB0403B3F8CA0093F8FC
:10197000D020411C88B29042A3F8CA10DBD351E1B9
:10198000DFF87C55012009EB050409F80500002665
:101990002046666001F08CFF042001F0F7FF692803
:1019A000606040F0458100F09FFD00F09FFDDFF892
:1019B0005445042009EB0407A7F8CA6001F0E6FFCC
:1019C000D7F8CC1009EB05020029506000F08A829C
:1019D000002800F08782972800F0848209EB040039
:1019E000B0F8CA1090F8D000814280F07B8201F0FC
:1019F00037FFAA2804D101F04FFFAA2840F07282D5
:101A000009EB0401B1F8CA0091F8D020904280F0AF
:101A10000981014609EB0402D2F8D830D2F8CC2073
:101A200002EB40103BB1984760B109EB0401D1F8DB
:101A3000CC20B1F8CA1089B2012808BF02EB4110CE
:101A400000F0D2FD09EB0403B3F8CA0093F8D020EC
:101A5000411C88B29042A3F8CA10DBD3E2E0DFF861
:101A6000A064012009F8060009EB0604002060606C
:101A7000204601F01DFF042001F088FF002860606F
:101A800000F03082972800F02D82692840F0CD8147
:101A900000F02AFD00F02AFDDFF86844002009EB81
:101AA0000405A5F8CA00042001F070FFD5F8CC1099
:101AB00009EB06020029506000F01482002800F0B3
:101AC0001182972800F00E8209EB0400B0F8CA10CA
:101AD00090F8D000814280F0058201F0C1FEAA2872
:101AE00004D101F0D9FEAA2840F0FC8109EB0401E1
:101AF000B1F8CA0091F8D020904280F0938001465E
:101B000009EB0402D2F8D830D2F8CC2002EB401016
:101B10003BB1984760B109EB0401D1F8CC20B1F892
:101B2000CA1089B2012808BF02EB411000F05CFD29
:101B300009EB0403B3F8CA0093F8D020411C88B223
:101B40009042A3F8CA10DBD36CE0DFF8B463012045
:101B500009EB060509F80600002728466F6001F02A
:101B6000A7FE042001F012FF6928686040F0A980F8
:101B700000F0BAFC00F0BAFCDFF88843042009EB5F
:101B80000405A5F8CA7001F001FFD5F8CC1009EBE7
:101B900006020029506000F0A581002800F0A28113
:101BA000972800F09F8109EB0400B0F8CA1090F864
:101BB000D000814280F0968101F052FEAA2804D123
:101BC00001F06AFEAA2840F08D8109EB0401B1F80A
:101BD000CA0091F8D020904224D2014609EB0402B9
:101BE000D2F8D830D2F8CC2002EB40103BB1984765
:101BF00060B109EB0401D1F8CC20B1F8CA1089B268
:101C0000012808BF02EB411000F0EEFC09EB0403D1
:101C1000B3F8CA0093F8D020411C88B29042A3F8D0
:101C2000CA10DBD3904240F05D8101F0BDFE59E166
:101C3000B44C09EB0400D0F8CC00002800F0488137
:101C400009EB0400B0F8CA1090F8D000814280F08F
:101C50003F8101F005FEAA2804D101F01DFEAA284B
:101C600040F0368109EB0401B1F8CA0091F8D020A8
:101C7000904280F02981014609EB0402D2F8D83065
:101C8000D2F8CC2002EB40103BB1984760B109EB91
:101C90000401D1F8CC20B1F8CA1089B2012808BFDC
:101CA00002EB411000F0A0FC09EB0403B3F8CA00FA
:101CB00093F8D020411C88B29042A3F8CA10DBD31D
:101CC00002E1904D044609EB0500D0F8E400A0B114
:101CD000B0F1640238BF002209EB05016428C1F8A5
:101CE000E4200AD8D1F8E01039B109EB0500D0F8AA
:101CF000E820C0F8E42000208847002C00F0F280A3
:101D0000972C00F0EF8009EB0500D0F8CC000028FC
:101D100040D009EB0500B0F8CA1090F8D00081421D
:101D200038D201F09DFDAA2803D101F0B5FDAA2803
:101D300030D109EB0501B1F8CA0091F8D0209042EA
:101D400024D2014609EB0502D2F8D830D2F8CC20D3
:101D500002EB40103BB1984760B109EB0501D1F8A7
:101D6000CC20B1F8CA1089B2012808BF02EB41109B
:101D700000F03AFC09EB0503B3F8CA0093F8D02051
:101D8000411C88B29042A3F8CA10DBD3904208BF2E
:101D900001F00AFE09EB05009CE05A4C09EB040037
:101DA000D0F8CC00002800F0938009EB0400B0F8D4
:101DB000CA1090F8D000814280F08A8001F050FD76
:101DC000AA2804D101F068FDAA2840F0818009EB1F
:101DD0000401B1F8CA0091F8D020904274D20146B3
:101DE00009EB0402D2F8D830D2F8CC2002EB401034
:101DF0003BB1984760B109EB0401D1F8CC20B1F8B0
:101E0000CA1089B2012808BF02EB411000F0ECFBB8
:101E100009EB0403B3F8CA0093F8D020411C88B240
:101E20009042A3F8CA10DBD34EE0364C09EB040015
:101E3000D0F8DC0028B109EB0501C978490800F0A9
:101E40004BFC09EB0400D0F8CC00002840D009EB93
:101E50000400B0F8CA1090F8D000814238D201F0E6
:101E6000FFFCAA2803D101F017FDAA2830D109EB05
:101E70000401B1F8CA0091F8D020904224D2014662
:101E800009EB0402D2F8D830D2F8CC2002EB401093
:101E90003BB1984760B109EB0401D1F8CC20B1F80F
:101EA000CA1089B2012808BF02EB411000F09CFB68
:101EB00009EB0403B3F8CA0093F8D020411C88B2A0
:101EC0009042A3F8CA10DBD3904208BF01F06CFD2A
:101ED00009EB0400B0F8CA1090F8D000814228BF86
:101EE00001F024FD01F022FD08B900F0A1F9012064
:101EF00001B0F0BD052000F08DF900BF40050000E5
:101F00006C060000300400007807000010B504469D
:101F100000F0070001280AD0022811D10A484844DD
:101F200039B101F0F7FC200648BF01F08FFC00201A
:101F300010BD4FF482710022BDE8104001F000BDD9
:101F4000022000F067F900BF740600000348044A4D
:101F5000002149F8001009F80210704758010000EC
:101F60005C01000010B5124C19F8040002280CD0D6
:101F7000012810D060B90F48012239F80010002064
:101F800009F8042000F00AFC10BD002009F8040044
:101F90004FF0FF3010BD0748022239F80010102022
:101FA00009F8042000F0FAFB012109F8041010BD23
:101FB0005C0100005801000070B50C46F0B1054608
:101FC0004068A968401AB0F5817F15D822484FF4BF
:101FD000827209EB00012846FEF79FFF60B1D5E948
:101FE0000032A8681D49101A49F801001E48214610
:101FF000784400F0B7FE0AE04FF43044174800215F
:1020000049F8001017482146784400F0ABFE134D04
:10201000114859F805104844224603F088FC104C3A
:1020200059F8050019F80410023001294FF0000694
:1020300049F8050009D002290BD181B2202000F017
:10204000ADFB002149F8051000E0002009F804600C
:1020500070BD4FF0FF3070BD7406000058010000E5
:102060005C010000CE3F0000623E000001460020FF
:10207000FFF7A2BF2DE9F04D96B0FFF767FF3E488E
:102080004FF43471484403F0F3FD3D48DFF8ECA011
:10209000784406903B4807AC4FF000080DF14C0B1C
:1020A00078440590204603F019FE86B2ADF848004A
:1020B00056B1052E56D01198ADF8488001F058FC65
:1020C0003046FFF7D3FF2BE0204601F051FC119082
:1020D000CDE91388CDF85480FFF744FF002839D4A8
:1020E000064609EB0A015846324601F087F918B353
:1020F0009DF84F009DF850606F469DF84C109DF87C
:102100004D209DF84E30159DC7E900060698BE602B
:10211000FD6000F027FE5846FFF7EAF8002819D4C2
:1021200001F01CFCA04202D1119801F021FCBDF885
:1021300048000028B6D013E0059809EB0A023146A2
:1021400000F010FE46F68720FFF790FF119801F08F
:102150000FFCA7E7119801F00BFC16B0BDE8F08D5D
:1021600000F058F811980021ADF8481001F000FC7B
:10217000052000F04FF800BF600100007406000069
:10218000EB3D0000303E000010B58CB06C462046A0
:1021900003F0A4FD0104ADF82C000BD001F0DEFB30
:1021A000A04202D10A9801F0E3FBBDF82C0040B92F
:1021B0000CB010BD684601F0DBFB0A90FF2001F077
:1021C0009BFB00F027F80000024900207944002220
:1021D00002F09EBDE0550000FF2001F08DFB0000E5
:1021E00080B5074819F8000008B903F043FA05491B
:1021F000002079440022BDE8804002F089BD00BF84
:10220000300400005A550000FFF7EABF002001F03B
:10221000AFBB00000446724604482146784400F0F3
:10222000A1FD01F09BFB214603F05EFDEB3C0000AD
:1022300002480521784401F06DBB00BF88550000BD
:1022400010B51C484844C078032809DC012812D086
:10225000022824D118484844BDE8104001F0C4BE0B
:1022600004281DD0082818BF10BD13484844BDE8F5
:10227000104001F0B6BE1048012109EB00042046D1
:1022800001F0A9FE204601F087FE0C4809EB000191
:10229000897959B948440C30122103F0DDFC10BD96
:1022A00005484844BDE8104001F099BE0520FFF7FD
:1022B000B1FF00BF40050000FC07000078070000E8
:1022C00000F07F00052884BF002070470249494480
:1022D0000844007B704700BF7807000080B51C4AA7
:1022E00009EB02010879C978042801F07F010CD0BC
:1022F00002281BD0012818D1174809EB02014844D5
:102300000631BDE8804001F058BD052988BF80BD79
:1023100010484A4453794844DFF83CC008440373EA
:1023200009EB0C00063201F075FD80BD0529FCD8D3
:102330000848094B484400EB41004FF0000C4A4468
:10234000A0F812C009EB0300063201F0B7FD80BD12
:102350004005000078070000FC070000FF2A88BF46
:10236000704770B5044612480E46502109F8001017
:102370004844D11C15460A0A817044F08001C1709E
:102380002021017106214270457101F0C3FA3046E7
:10239000294601F0BFFA074804F07F01484400EBEA
:1023A00041004FF4FA614182BDE87040704700BFC0
:1023B00040050000780700000A46014682201423E9
:1023C000FFF7CCBF0A46014683201423FFF7C6BFA0
:1023D00080B5354909EB0102537819F8010092786C
:1023E0000F2842EA03220DDD102814D0162816D03B
:1023F0001A284AD109EB0100C078032845D103F01F
:1024000051F948E00E2824D00F283ED1012A04D1EA
:10241000FFF716FF3FE0032A3BD2002080BD234890
:1024200019F80030BBBB09EB000C06238CF8063012
:102430000A2309F800301E48494448440331B2F5E4
:10244000807F88BF40F20112ACF8022003F007FC45
:1024500021E0DFF858C009EB0C018A6864328A6019
:102460000E2100BF09EB0C0232F8112052B11346C5
:10247000642A98BF6423643B09EB0C00642A20F8AB
:1024800011300AD901390829ECD10220FFF7E2F90D
:1024900080BDFFF723FF012080BD002009F80C005C
:1024A0000520FFF7B7FE00BF4005000078070000D9
:1024B0007406000080B501F0BEF90D280DD2084861
:1024C0002021484403F0C8FB00F0A4FB054800218C
:1024D00049F800104844416080BDFF2001F00CFA2B
:1024E00078070000980700007047000003480021AB
:1024F00049F8001048444160704700BF9807000049
:102500002DE9F0418AB00546084600F099FF002801
:1025100062D00446006900285ED0284600F090FF93
:1025200003AD014628461C2203F099FBD4E90001C3
:10253000ADF81200ADF8141028462146FEF7B0FBA6
:1025400001F0F4F9002847D1A268042000FA02F74C
:10255000BDF81200BDF8141050434843C6080121CD
:10256000430718BF01EBD006B8191D3081B2B1F591
:10257000947F0CD9D4E9000723690090194802928E
:1025800078444FF49672019700F0ECFB24E0DFF8FA
:1025900050805E2109F8081009EB0805010A6970EE
:1025A000A8702846032101F0B5F903A81C2101F009
:1025B000B1F9A068012109F80800284601F0AAF93C
:1025C000E06800F03DFFB9B201F0A4F9206900F025
:1025D00037FFB1B201F09EF90AB0BDE8F08100BF4B
:1025E000400500004B38000070B5A0B000F028FF97
:1025F0000446C06900F024FF217811F07F0164D007
:10260000054640B3052902D1A07E00283FD02846C8
:1026100003F087FB82B2204629460023FDF744FDE4
:1026200001F084F9002850D16E46304629468022B8
:1026300003F062FB304603F074FB00F11C0188B22A
:10264000B0F5957F2AD3C11C22484FF49672784486
:1026500000F088FB39E020460021002200230025FD
:10266000FDF722FD01F062F978BB19485E2109F8F7
:10267000001048441C2181700321457001F04AF983
:1026800020461C2120B0BDE8704001F043B920462F
:10269000294620B0BDE87040FFF732BF0C485E22EB
:1026A00009F8002048440A0A81700321427001F0B1
:1026B00031F920461C2101F02DF96C46204603F02B
:1026C00030FB81B2204601F025F920B070BD00BF7B
:1026D0004005000016390000B0B110B5DFF864E025
:1026E000844659F80E000B4609EB0E0149689842E2
:1026F00002BF013109EB0E02516040EA030023B131
:10270000024649F80E0008E07047002209EB0E046B
:1027100049F80E20626040F000409A421EBF09EB6B
:102720000E0200235360082908D3074A4A4312F1D6
:10273000AA3F38BF40F0804020F00040BDE8104084
:10274000604700BF98070000ABAAAAAAF0B581B005
:102750001148012509EB000609F80050B11C0120C1
:102760004FF4817201F0BCF804467070871940F292
:102770000110F91C021B022001F0B2F804442644A7
:10278000B870F57001F0A2F83071902000217071DE
:10279000E01DB17101B0F0BD740600002DE9F04DEF
:1027A00082B083464007884608D05FFA8BF01FFA54
:1027B00088F102B0BDE8F04DFFF7A8BB8948874F0C
:1027C00078440090884D844C7D440026DA465FEAC8
:1027D00008400AF0100000F08580002840F0828058
:1027E000019000BF01F0A2F850B109EB04004FF4D2
:1027F0009671002201F0A4F8012000F0FDF8F1E745
:1028000009EB070019F807108668092906DD0A296F
:102810000CD00B2926D17648784402E0009807298D
:102820001DD11FFA88F100F07DFA24E01FFA88F626
:10283000B6F5827F00F2CD80532009F8040009EB41
:1028400004004FEA18214170032180F8028001F052
:1028500061F863483146484401F05CF82BE00029F8
:1028600000F0B4805FFA8BF01FFA88F1FFF74EFB9F
:10287000002840F0AB8019F80700E0B106F5FA66D1
:102880002846052101F046F809EB04004FF4967143
:10289000002201F055F809EB07008068B04280F093
:1028A0008F80FFF795FD01F041F80028ECD119F871
:1028B00007000028E4D1002009EB07015FEA8B62E2
:1028C00009F807008871488076D448480521784483
:1028D00001F020F84FFA8BF0B0F1FF3F01984FF074
:1028E000000670DD38B95FEA4A6061D409EB070081
:1028F00009F807608671AA46394D09EB0700468042
:102900003C480521784401F005F809EB04004FF438
:102910009671002201F014F8032815D309EB040185
:102920004A78897841EA0221033181420CD1FFF7CC
:102930004FFD19F807000028E2D009EB0700408896
:102940000028DDD004E000BF09F80760D5E700BF2C
:1029500019F80510B0292FD109EB05014978A729ED
:102960000ED0012901BF09EB05018A78C97851EA27
:10297000020121D1FFF7EAFE80460BF0070B0FE0C2
:1029800009EB05018A78C978114315D1902009F81F
:10299000050009EB05006BF07F0B4FF00208467055
:1029A00055465FEA4B705FFA8BFA3FF410AFFCE6D6
:1029B00009EB07004088053880B202B0BDE8F08D11
:1029C0000520FFF727FC052000F096FF0420FFF705
:1029D00021FC0220FFF71EFC4005000078070000E4
:1029E00074060000F5FBFFFFF44F0000EE4E000000
:1029F000A9FBFFFFB84E0000B0B504461148052101
:102A0000784400F087FF0D4D4FF4967109EB0500F7
:102A1000002200F095FF19F80500152808D80121BB
:102A2000074A01FA00F0104202D00CB10020B0BDFC
:102A3000FFF7CEFC002818BF0120B0BD4005000004
:102A400020702000BC4D0000B0B582B005465F206C
:102A50008DF80400080A0C468DF805008DF8061064
:102A600001A8032100F056FFA1B2284600F052FF52
:102A700002B0B0BD2DE9F04581B0DFF87CA10E4673
:102A800009EB0A0114468E4280460ED009EB0A0774
:102A900038464021402503F0DFF8402C38BF25465A
:102AA000384631462A4603F0DCF809EB0A00807804
:102AB00001280BDCB0B3012840F0968009EB0A0432
:102AC000E01C0421FEF7B4FB204639E0022835D093
:102AD000052840F0898009EB0A00484EC17800794A
:102AE00059F8062040EA012082422BD159F806000D
:102AF000B8B34349601F59F8012083B29A4238BFE6
:102B000059F8010081B23B293E4928BF3B2059F8C2
:102B1000015084B209EB0A00411D2846224603F009
:102B2000A0F852E009EB0A000024014601F8034F27
:102B3000CC708C7040210471C04704E009EB0A009E
:102B40004021C04700242D48002149F800102C489E
:102B50002C4A49F8001049F80210204601B0BDE89F
:102B6000F08509EB0A0041798279274842EA012180
:102B700049F8001059F80010B1F5827FE2D859F8F1
:102B800000001F4909EB0A0249F8010019F80A0080
:102B900052781E4B42EA002249F80320E01F59F800
:102BA000012083B29A4238BF59F8010081B2392915
:102BB000174928BF392084B209EB010509EB0A0047
:102BC000C11D2846224603F04AF80E4928190C4A2E
:102BD00049F8010059F80200001B49F8020059F8B1
:102BE0000600013049F80600054859F8000008B110
:102BF0000124B2E70224A6E7A0070000E0070000D6
:102C0000E8070000EC070000E4070000F007000000
:102C1000740600000548002149F800100448054AE0
:102C200049F8001049F80210704700BFE0070000A3
:102C3000E8070000EC0700002DE9F04D334EDFF807
:102C4000D0A059F8061061B359F80A404CB3DFF828
:102C5000CC80834609EB0805681D3B2102F0FCFF90
:102C60002F482C4F59F80010090A09F8081059F894
:102C7000000068700520A87059F80700000AE87085
:102C800059F80700287159F8071059F80600A9B13A
:102C90003B2809EB080094BF59F806503B25053046
:102CA0001BE01C48002149F800101B4849F8061099
:102CB00049F80A1009F80010BDE8F08D392894BFD2
:102CC00059F80650392559F8060009EB0801000AA1
:102CD000487159F806008871C81D21462A4602F03D
:102CE000C0FF601949F80A0059F806005B46401B0E
:102CF00049F8060059F807004021421C09EB08007A
:102D000049F80720BDE8F04D184700BFE80700006C
:102D1000EC070000E007000078070000A0070000B3
:102D2000F007000091B1DFF828C00023094A49F8F4
:102D30000C30DFF824C04A44084B49F80C20084AFC
:102D400049F8031049F80210FFF776BF704700BF3B
:102D5000E007000074060000EC070000E807000030
:102D6000E407000083B02DE9F04D89B00028CDE9DB
:102D70001112139300F078810446007811A90028FD
:102D8000039100F0718100BF002700BF30B12528FA
:102D900004D0E01940780137F8E700BF20463946F3
:102DA000E519FFF751FEE05D25284BD16C1C4FF073
:102DB000000820224FF0000A0020013414F8011C02
:102DC00001342D2912DC4FF00000F7D0252976D0F0
:102DD0002A2940F0FA80234613F8010D732840F0A9
:102DE000F480039902201C4626E000BF47292BDC13
:102DF000A1F130030A2B0DD281F0300353EA08030E
:102E000008EB880301EB430108BF3022A1F1300831
:102E1000013CD2E72E2940F0D88014F8010C2A2872
:102E200040F0D3802078482804D0732802D0682846
:102E300040F0CB80039901200B1D0393D1F800A033
:102E4000BBE700BF2C46CFE0672908DD722911DD02
:102E5000732936D0752939D0782911D0B5E0622987
:102E600018DC482900F09E80582940F0AE804FF0D1
:102E7000010C07E0682900F09880702940F0A580D7
:102E80004FF0000C03981027011D039106680120E4
:102E9000089624E0632900F09C80642940F0958026
:102EA0000398011D03910668B6F1FF3F089612DCF6
:102EB0007642089600200A274FF0000C0FE0A01E73
:102EC0008DE06D4979448C46002172E00398011D24
:102ED0000391066808964FF0000C01200A27B742BC
:102EE00002D94FF0010B10E0A8F10103394600BFF1
:102EF0008B46A7FB0115002D18BF0125B14298464E
:102F000003D8002DA8F10103F2D018B100254FF02D
:102F1000010A0CE0D1B2302906D12D214FF0010A6F
:102F200001258DF8101002E04FF0000A002580F016
:102F30000100A8EB00018B1E0D2B11D801390FD019
:102F40004042019004A82844D2B2CDF808C002F053
:102F50008AFE019905EB0800DDF808C00844451E0B
:102F6000BAF1000F04A802BF2D2141550135BBF174
:102F7000000F15D04549464B79447B44BCF1000F06
:102F800008BF0B46B6FBFBF15F45B1FBF7F2BBFB9D
:102F9000F7FB02FB1711595C415505F10105F1D909
:102FA00029461DE03549794401E0354979448C468C
:102FB0000121039AC0B2131D03931668C0B1012802
:102FC00020D002281DD13078C0B32A48052178448A
:102FD00006E00398011D03910068089008A80121EC
:102FE000FFF732FD14F8010D00287FF4CDAE3BE071
:102FF000002000BF325C0130002AFBD1A0F1010AA1
:1030000000E0BA46A9B1BAF1000F6546EAD000BFA8
:1030100016F8010B012100F00F0705EB1010FFF768
:1030200013FDE8190121FFF70FFDBAF1010AEFD1F5
:10303000D8E730465146FFF707FD09E00AF10105E0
:10304000104801217844FFF7FFFC013DF8D1BA4652
:10305000D045C7D9AAEB08050B4801217844FFF7F2
:10306000F3FC0135F8D3BDE709B0BDE8F04D03B07E
:10307000704700BF532F0000FD4800002B480000A0
:1030800015480000702D0000582D00004948000030
:103090005748000081B02DE9F04D89B00028119308
:1030A00000F09C810E460229C0F0988131461546F9
:1030B000804602F0D1FD287811A90028049100F083
:1030C0008D81741E002700BF30B1252804D0E81977
:1030D00040780137F8E700BFA74228BF274640469F
:1030E00029463A4602F0BDFDE41B00F07781E85D19
:1030F000B84425283D4440F05F8101354FF0000B76
:10310000202200260020013515F8011C01352D294B
:1031100012DC4FF00000F7D0252900F0E6802A29C4
:1031200040F048812B4613F8010D732840F054817C
:10313000049902201D4625E0472927DCA1F1300330
:103140000A2B0DD281F0300353EA0B030BEB8B03F8
:1031500001EB430108BF3022A1F1300B013DD2E762
:103160002E2940F0278115F8010C2A2840F03481DF
:103170002878482804D0732802D0682840F02B8192
:10318000049901200B1D04930E68BCE767290CDC31
:10319000622912DC482900F0AC80582940F00A81ED
:1031A000CDF80C804FF0010C27E072291BDC682958
:1031B00000F0A28070291CD0FCE0632900F0A180FF
:1031C000642940F0F7800498CDF80C80011D04912B
:1031D00000680028074600D54742C00F4FF0000C9A
:1031E0004FF00A0810E0732900F09580782940F02C
:1031F000E1804FF0000CCDF80C8004984FF01008DF
:10320000011D049107680020B84502D94FF0010A5A
:103210000FE0ABF1010341468A46A8FB0116002EE0
:1032200018BF0126B9429B4603D8002EABF101031B
:10323000F2D00028034618BF4FF0FF3348B1D1B297
:1032400030290AD12D2101264FF0010E8DF81410DE
:1032500006E04FF0010E002602E000264FF0000EBF
:10326000ABEB0000811E0D2911D8411E0FD005A81F
:103270003044D2B2CDF808C0CDE9003E02F0F3FCF4
:10328000009906EB0B00DDE901EC0844461EBEF197
:10329000000F05A902BF2D2088550136BAF1000F95
:1032A00016D0544A54487A447844BCF1000F08BF01
:1032B000104600BFB7FBFAF3D045B3FBF8F2BAFBF8
:1032C000F8FA02FB1832825C8A5506F10106F1D940
:1032D000A64228BF2646DDF80C803246404602F062
:1032E000C0FCA41B7AD0B04464E0013C4FF0250040
:1032F0000DE03E4A7A4401E03D4A7A444FF0010C29
:103300000DE00498013C00F104010491006808F804
:10331000010B4FD162E0344A4FF0000C7A4404991B
:10332000C0B20B1D04930968022841D0012808D0BF
:103330003E4630B9002000BF0B5C0130002BFBD1B2
:10334000461EBCF1000F1BD0A6B3A4EB460000BF85
:10335000022C43D30B78022C4FEA1317D75D03F0EE
:103360000F0388F80070D35C88F8013036D0023C37
:1033700008F10208013E01F10101E9D1044619E01A
:10338000A64228BF26464046324602F06AFCA41BED
:1033900024D03746BB45B0440CD9ABEB0706A64258
:1033A00028BF264640463146202202F05CFC98E7C2
:1033B000087828B115F8010D00287FF483AE0DE0E0
:1033C000A64228BF264640463146202202F04BFC4A
:1033D000A41BDFD102E02A20013DEDE7002009B067
:1033E000BDE8F04D01B07047A5440000DD44000089
:1033F000C74400001B45000029450000052A14D3DE
:103400000B79053A9A4210D10A7802704A784270D4
:103410008A788270CA78C2700A7902710A79002AA1
:1034200018BF4A1D826001207047002070470000CD
:103430007A460249C91C891A401A70473134DEC0E5
:103440000A4981420A4906D8814204D380B5FFF770
:10345000EFFFBDE8804007498842074A05D3904204
:1034600088BF7047401A4A46104470470000DEC0CB
:103470000080DEC000007ADA00787ADA4218405C18
:10348000517893780904D27841EA006040EA032039
:103490001044704780B5421810F801C051789378F5
:1034A0000904D07841EA0C6192F804E041EA032172
:1034B000014450794FEA0E6343EA00409379D27990
:1034C00040EA0320104480BD4218405C517840EA35
:1034D000012080B270474218405C51789378D278CE
:1034E00040EA012040EA034040EA0260704780B5AC
:1034F0004218405C5178937892F804E040EA012049
:10350000517940EA0340937992F803C04EEA0121D1
:10351000D27941EA034140EA0C6041EA026180BD90
:1035200010B594B00D4941208DF80E0004200DF126
:103530000E0449448DF80F00A01C0831402202F00F
:103540008EFB422001900020029068464FF410410B
:103550000094FEF731FD14B010BD00BF6001000003
:103560002DE9F04194B00DF10E0808F10100402161
:10357000402402F071FB1C488DF80E4009EB000658
:1035800096F82B400427212C04BF05272024A8EB04
:10359000040006F128052130E919224602F05FFBFC
:1035A000B81C0119C8B2284410F8012C08F14100D8
:1035B000212A04BF01312022C9B2801A294402F015
:1035C0004EFB96F871004FF410418DF84F004220E9
:1035D0000190002002906846CDF80080FEF7ECFCD8
:1035E00014B0BDE8F08100BF6001000070B52E4E40
:1035F0000446F1B109EB060090F8A00201283BD186
:103600001546626809EB060000F108012046FDF747
:1036100097FC70B309EB0602012002F8080B23485F
:1036200020217844FFF79EFB65B3BDE87040FDF7AD
:10363000BDBF09EB060528464FF4347102F018FBB4
:10364000012085F8A002002009F8060005F5337175
:103650002046FDF7F4FB60B109EB060090F8CC22A0
:1036600000F529712046FDF741FC10B14FF41040E0
:1036700004E046F6872001E04BF20700BDE8704009
:10368000FEF7F4BC022009F80600FDF785FCB0F156
:10369000FF3F03DDBDE87040FFF762BF00214BF242
:1036A000080009F80610E9E760010000042A00009C
:1036B00070B5F0B0044659B3584D09EB050090F8C9
:1036C000A002022845D109EB05001346D0F80802F4
:1036D0006268002B02EB000141D0B1F5FF7F10D9E9
:1036E00009EB0501084400F108012046FDF728FC1C
:1036F000002800F0848009EB05016068D1F8081209
:10370000014409EB05024FF41040C2F8081278E0BA
:10371000424E4FF4347109EB0605284602F0A8FA30
:10372000022085F8A002002009F8060005F5337193
:103730002046FDF784FB78B109EB060090F8CC2217
:1037400000F529712046FDF7D1FB28B14FF4104058
:1037500057E04BF2070054E046F6872051E0B1F500
:10376000FF7F4CD809EB0501084400F10801204611
:10377000FDF7E6FB002842D009EB05016068D1F8AF
:10378000082201F108031044C1F80802CDE96D30A8
:1037900000206F9001F504716DA8FDF755FD0446FA
:1037A0001F4821467844FFF7DDFA012C2ED1012075
:1037B00009F8050002A84FF48071FDF72DFD58BBF4
:1037C00009EB0500D0F8083200F1080200F50C7092
:1037D0002026009002A801210196FDF715FDD8B919
:1037E00002A8FDF70DFD09EB050000F50C720D4870
:1037F00020217844FFF7B6FAFDF762FE0AE04BF2AB
:10380000040070B0BDE87040FEF730BC4BF205001C
:10381000FEF72CFC70B070BDFEF7FCFC60010000F0
:103820009E2700003428000001DF002900D17047E6
:103830000846FEF7EFFC80B582B00020CDE900001D
:1038400069460120FFF7F0FF02B080BD80B582B06D
:103850000020019069460220FFF7E6FF02B080BD1C
:1038600080B582B00020019069469F20FFF7DCFF01
:10387000C0B202B080BD000080B586B00DF1040E6C
:10388000DDF820C08EE80F10024801A9FFF7CCFF39
:1038900006B080BD5300000580B582B000200190C5
:1038A0006946A020FFF7C0FFC0B202B080BD000093
:1038B00080B582B000900020019003486946FFF770
:1038C000B3FF02B080BD00BF6400000180B582B0CC
:1038D0000020019069466A20FFF7A6FF02B080BD74
:1038E00080B584B001AB07C3024801A9FFF79CFF74
:1038F00004B080BD7400000382B0009000200190ED
:1039000003486946FFF790FFFFDE00BFFEE700BFF8
:103910009A00000180B582B0CDE9000102486946F5
:10392000FFF782FF02B080BD8300000280B582B045
:103930000020019069468420FFF776FF02B080BD29
:1039400080B584B001AB07C3034801A9FFF76CFF42
:1039500080B204B080BD00BF8500000380B582B096
:103960000020019069468720FFF75EFF02B080BD0E
:1039700080B582B000900020019003486946FFF7AF
:1039800053FF02B080BD00BF0B01000180B582B0C3
:1039900000900020019003486946FFF745FFC0B240
:1039A00002B080BD9C00000180B582B00020019073
:1039B00069467A20FFF738FF02B080BD70B58AB043
:1039C000DDF848C0DDE9104EDDE90E6501900748DD
:1039D000029101A9039204930596CDE90654CDE91D
:1039E00008ECFFF721FF0AB070BD00BF7C000009A2
:1039F00080B586B00DF1040EDDF820C08EE80F1002
:103A0000024801A9FFF710FF06B080BD7D00000548
:103A100004480021044A49F80010002049F8021027
:103A2000704700BFF4070000F807000080B50848A1
:103A30004F2109F800104844002141700121817094
:103A40000221C1700421FFF765FF002080BD00BF87
:103A50004005000070B582B002208DF805000320FB
:103A60000DF103044F2500268DF8060020460521A0
:103A70008DF803508DF804608DF80760FFF74AFF5A
:103A800001208DF805008DF80600204604218DF8F0
:103A900003508DF80460FFF73DFF002002B070BDB9
:103AA00080B582B04F208DF8040000208DF805000D
:103AB00001208DF8060002208DF8070001A80421DE
:103AC000FFF728FF002002B080BD000080B582B063
:103AD0001A484FF0000C49F800C04F208DF8000044
:103AE0000520DFF854E08DF8020004208DF8030073
:103AF0000120012A49F80EC08DF801C08DF804009C
:103B00008DF805108DF806C004DC52B1012A0AD1E7
:103B1000042006E0022A03D0032A04D1022000E098
:103B200003208DF80600684608218DF80730FFF75E
:103B3000F1FE002002B080BDF4070000F80700008D
:103B400010B582B00C46502003218DF802000020F1
:103B50008DF8041040218DF803008DF806108DF8C3
:103B600007000DF1020006218DF80540FFF7D2FE97
:103B70000A4A2306084B4A4404F07F004FF0010133
:103B800058BF09EB0302136801FA00F043EA000191
:103B90000020116002B010BDF8070000F40700001B
:103BA00010B582B00C46502003218DF80200002091
:103BB0008DF8041080218DF803008DF806108DF823
:103BC00007000DF1020006218DF80540FFF7A2FE67
:103BD0000A4A2306084B4A4404F07F004FF00101D3
:103BE00058BF09EB0302136801FA00F023EA000151
:103BF0000020116002B010BDF8070000F4070000BB
:103C00000848074A48440B0658BF09EB02000078F1
:103C100001F07F01012202FA01F10840704700BF64
:103C2000F8070000F407000080B582B04F208DF83F
:103C3000030000208DF8040002208DF80500032009
:103C40008DF806008DF807100DF103000521FFF730
:103C500061FE002002B080BDB0B582B050208DF86A
:103C60000200D81C1546020A8DF8040020208DF8A9
:103C700005108DF806000DF1020006211C468DF896
:103C800003208DF80730FFF745FE28462146FFF751
:103C900041FE002002B0B0BD80B582B050208DF84A
:103CA000020000208DF8030003208DF8040030206E
:103CB0008DF805108DF806000DF1020006218DF833
:103CC0000720FFF727FE002002B080BD98B170B535
:103CD0000E464FF48A711546044601F0BDFF0EB141
:103CE000C4F8F060012084F8DC0020462570FFF75E
:103CF0008FFE002070BD022070470000B0B5044662
:103D00000120F42584F8DC00605930B14068FFF7E9
:103D100097FB21790246204690470835B5F5867F06
:103D2000F2D12046FFF7BCFE2046FFF77FFE0020C1
:103D3000B0BD3AB102289CBF01EBC000C0F8F4202E
:103D4000002070470220704780B5FFF783FE0020F7
:103D500080BD000070B50C46054600262846314659
:103D600000F05FF950B105EBC600D0F8F400006830
:103D7000FFF766FB02462846214690470136032E90
:103D8000ECD1002070BD000070B50C460546002641
:103D90002846314600F045F950B105EBC600D0F891
:103DA000F4004068FFF74CFB024628462146904746
:103DB0000136032EECD1002070BDB0B500F1E8054E
:103DC0000446284600F062FB94F8E8000121B4F8AC
:103DD000EE20C4F8D41000F01F010229C4F8D82046
:103DE00007D001290AD071B92046294600F025F9EB
:103DF0000EE02046294600F0CDFA09E0204629468B
:103E000000F0A6FA04E000F080012046FFF798FEDB
:103E10000020B0BDF0B581B015460446E1B10E46B4
:103E2000002700BF2046394600F0FBF880B104EBC4
:103E3000C700D0F8F400806950B194F8DC10032971
:103E400006D1FFF7FDFA0346204631462A46984739
:103E50000137032FE6D12DE0D4F8D400032829D16F
:103E6000D4E91F1081420AD9091AE167814238BF9B
:103E7000084682B22046294600F037FD1AE00025A8
:103E80002046294600F0CDF870B104EBC500D0F80B
:103E9000F400006940B194F8DC10032904D1FFF765
:103EA000CFFA0146204688470135032DE8D1204648
:103EB00000F021FD002001B0F0BD000070B5044607
:103EC000E1B10D46002600BF2046314600F0A9F8BA
:103ED00080B104EBC600D0F8F400406950B194F80A
:103EE000DC10032906D1FFF7ABFA0246204629462B
:103EF000904700BF0136032EE6D14AE0D4F8D40043
:103F000002283FD1D4E9071081420BD90A1AD4F80C
:103F10001011E261014492B22046C4F8101100F081
:103F2000D7FC2FE0A169814211D3B1FBF0F202FB73
:103F3000101060B9D4F8D800814208D22046002180
:103F40000022002500F0C4FCC4F8D8501AE0002577
:103F50002046294600F065F870B104EBC500D0F8A2
:103F6000F400C06840B194F8DC10032904D1FFF7D5
:103F700067FA0146204688470135032DE8D12046DF
:103F800000F0C4FC94F8E000012804BF002084F88D
:103F9000E000002070BD0000B0B504464020C4F829
:103FA000800020620120002584F8DC00204629469C
:103FB00000F037F850B104EBC500D0F8F4004068C9
:103FC000FFF73EFA21790246204690470135032D3E
:103FD000ECD10020B0BD02460020117470470020D3
:103FE0007047002070470000B0B5044690F8DC0030
:103FF000032814D1002500BF2046294600F011F8FF
:1040000050B104EBC500D0F8F400C06920B1FFF74F
:1040100017FA0146204688470135032DECD10020D0
:10402000B0BD022984BF0020704700EBC100D0F86A
:10403000F400002818BF0120704780B54A78042A90
:1040400008DD072A0EDC052A13D0062A1AD100F053
:1040500020F81CE082B1012A17D0032A12D100F007
:104060002FF914E0082A0AD0092A0BD100F0B6F87B
:104070000DE000F091F80AE000F0FEF807E000F033
:10408000E5F804E000F07EFB01E000F037F90020E5
:1040900080BDB0B582B00D4649880446080A0022AA
:1040A0000528ADF8062012DC01281BD0022825D0F7
:1040B000032835D1C8B2022837DC00285CD001289B
:1040C00062D002282CD1D4F8F000C0680DE0062898
:1040D0001DD0072822D00F2822D1D4F8F000C069C3
:1040E00018B91DE0D4F8F0000068FFF7A9F9237CA7
:1040F00002460DF10601184690472DE0D4F8F40071
:10410000E8B1217C00290CBF806AC06A1EE0207CD7
:1041100030B9D4F8F40018B1406B17E0207C80B1BE
:104120002046294600F02EFB24E0032828D004284E
:104130002ED00528F4D1D4F8F0008069D5E700210D
:104140000BE0D4F8F4000028EAD0006BFFF778F910
:1041500001460DF1060088470146BDF8060048B14A
:10416000EA883AB1904238BF02462046ADF80620B0
:1041700000F09AFB02B0B0BDD4F8F0004068B4E79C
:10418000D4F8F0000069B0E7D4F8F0008068ACE73C
:10419000D4F8F0004069A8E7B0B58A8804462AB987
:1041A000C88818B994F8DC00032804D12046BDE87B
:1041B000B04000F0E7BA887800F07F052046294635
:1041C00084F8DE50FFF730FD204600F094FB002D10
:1041D0000CBF0120022084F8DC00B0BD70B58E78E1
:1041E0000D46022E04461AD294F8DC00032807D0AC
:1041F000022814D12EB30320666084F8DC0008E0A6
:104200009EB16068B0421CD0C1B22046FFF7BCFD31
:10421000666020463146FFF79DFD022811D12046F9
:104220002946BDE8704000F0ADBA022084F8DC00F9
:104230000020606020463146FFF7A6FD204600F0D2
:104240005AFB2046BDE8704000F055BBCA88012AE1
:1042500018BF00F097BA90F8DC20032A06D0022A93
:1042600008D10022014641F8082F00E0011D01227B
:1042700000F01ABB00F086BAB0B5044690F8DC0036
:1042800000F0FE0002280DD10120254645F80C0F54
:10429000D5F8D80058B1204600F038FBE06840F06F
:1042A000020305E02046BDE8B04000F06BBA0323EE
:1042B000204629460222E360BDE8B04000F0F4BA8F
:1042C000B0B50D464988012918BFB0BD044628790C
:1042D00001210228C4F8E4100BD804EBC000D0F888
:1042E000F40030B18068FFF7ABF80246204629465B
:1042F00090472046BDE8B04000F0FDBAB0B5044696
:1043000090F8DC000D4600F0FE0002281AD1688803
:10431000012818BFB0BD287900210228C4F8E41094
:104320000BD804EBC000D0F8F40030B18068FFF780
:1043300087F802462046294690472046BDE8B0400F
:1043400000F0D9BA20462946BDE8B04000F01ABABC
:10435000B0B5044690F8DC000D46032814D1287946
:10436000022811D804EBC000D0F8F40060B18068D6
:10437000FFF766F80246204629469047E88838B994
:10438000204600F0B8FA03E02046294600F0FAF98A
:104390000020B0BDB0B582B00D460979044601F0E9
:1043A0007F02072A04D32046294600F0EBF96AE091
:1043B000022911D8287800F0600020280CD104EBE5
:1043C000C100D0F8F40038B18068FFF739F8024630
:1043D00020462946904756E0687800B3012826D049
:1043E000032850D194F8DC00032824D1688838B918
:1043F00041F08000802803D02046FFF7A1FB2979F7
:1044000002293DD804EBC100D0F8F400C0B38068A5
:10441000FFF716F8024620462946904730E094F808
:10442000DC00032811D00228BDD152B92BE094F84A
:10443000DC00032818D00228B5D141F08000802884
:1044400021D02046FFF77CFB1DE02046FFF7D8FB7C
:10445000002818BF0120ADF806000DF10601204626
:10446000022200F021FA0EE0688860B942B12046CD
:10447000FFF796FB2879022802D804EBC000C3E7B7
:10448000204600F038FA002002B0B0BD0A78027071
:104490004A7842708A78CB7842EA032242800A79CD
:1044A0004B7942EA032282808A79C97942EA012162
:1044B000C180704710B580210446FFF741FB2046BC
:1044C0000021BDE81040FFF73BBBB0B582B00D4600
:1044D00009780446002011F06001ADF806008DF85F
:1044E000050010D020293CD16878A0F10A010229EA
:1044F00036D3022818D0032816D02046294600F0CB
:1045000041F902202DE068780B2812D00A280BD040
:10451000062825D1E87821280FD022281BD10DF1BB
:10452000060000F04DF80CE00DF1050120460122D7
:1045300014E0204600F0DFF912E00DF1060000F073
:1045400029F8BDF80630EA880146934238BF1A467A
:10455000ADF8062001E000220021204600F0A4F979
:10456000002002B0B0BD10B58221032240230446D2
:10457000FFF7ACFA2046022103224023FFF7A6FAF8
:10458000204602214022FFF787FB002010BD0020BB
:1045900070470000084A014609EB020090F8EC0061
:1045A0000023002805484FF0000278440CBF09237F
:1045B00010460B80704700BFFC0700003A32000035
:1045C000084A014609EB020090F8EC00002300289D
:1045D00005484FF0000278440CBF222310460B80A0
:1045E000704700BFFC07000017320000022906D107
:1045F00080B504487844FEF71FFBBDE880400020EA
:10460000704700BFC1DDFFFFB0B502291FD11446BE
:1046100002214022FFF740FB0E4D09EB0500807997
:10462000A8B90220FDF74CFE02460C48214678440A
:10463000FEF720FA02280AD1072109EB050009F844
:1046400005100121044A817159F8021041800020AF
:10465000B0BD00BF78070000E407000087DDFFFF62
:1046600010B58321032240230446FFF72FFA20468A
:10467000032103224023FFF729FA20460321402289
:10468000FFF70AFB002010BD002070470020704794
:10469000032906D180B504487844FEF7CDFABDE879
:1046A00080400020704700BF29DDFFFFB0B503291F
:1046B0001FD1144603214022FFF7EEFA0E4D09EBFD
:1046C00005008079A8B90320FDF7FAFD02460C48E1
:1046D00021467844FEF7CEF902280AD10B2109EBD6
:1046E000050009F805100521044A817159F80210E6
:1046F00041800020B0BD00BF78070000E407000043
:10470000EFDCFFFF0248122278440A80704700BFA6
:10471000283300000248042278440A80704700BF12
:104720002A33000002480E2278440A80704700BFF6
:104730001E3300000248182278440A80704700BFE8
:104740001C33000002480A2278440A80704700BFE8
:10475000243300000248182278440A80704700BFC2
:10476000FC3200000248182278440A80704700BFDB
:10477000EC3200000248392278440A80704700BFBA
:104780009730000080B591F90020B2F1FF3F03DDC2
:10479000BDE88040FFF78EBE4A78772A0DD0062A02
:1047A000F6D14A8840F2EE339A42F1D1CA88122AF1
:1047B00028BF1222114979441CE08A88042A06D1B4
:1047C000CA88282A28BF28220D49794412E08A88FD
:1047D000052A06D1CA88922A28BF9222094979441B
:1047E00008E08A88072AD3D1CA88B22A28BFB22211
:1047F0000549794400F058F880BD00BFB230000090
:10480000AC3200009C3000001A310000B0B5194DE8
:10481000044609EB05004FF48A7101F01DFA1648B1
:10482000122148440C3001F017FAECB109EB0504F1
:1048300020464FF48A7101F00FFA1049204679445E
:104840000022FFF743FA0E4A00207A442146FFF780
:1048500070FA0C4A01207A442146FFF76AFA204692
:10486000BDE8B040FFF770BA09EB0500BDE8B04005
:10487000FFF744BAFC070000780700000A30000088
:1048800076310000A23100000146024840227844FF
:104890000A80704712320000014602480A2278441A
:1048A0000A8070474232000080B58C460221C0F871
:1048B000D410016AC0E90622C0F810C1914288BF35
:1048C00011468BB200216246FFF7C6F9002080BD79
:1048D00080B5036A8C46934288BF13469BB2002181
:1048E0006246FFF7B9F9002080BD80B50021FFF7CF
:1048F000D3F9002080BD80B50421C0F8D410002178
:1049000000220023FFF7A8F9002080BD80B5052113
:10491000C0F8D41000210022FFF7BEF9002080BDAE
:1049200010B552EA030115D000214FF0000C00BF72
:1049300010F901E001314CF1000CBEF1000F03D47D
:104940008C1A7CEB0304F3D30020BEF1FF3FC8BFF9
:10495000012010BD012010BD154919F801000128E2
:1049600023D8013809EB010200EB400302EB83007E
:10497000808CD0B109EB010202EB8302D269A2B1B3
:10498000494401EB8301098C29B902EB800353F8F8
:10499000043C033309D1814205D202EB810050F877
:1049A000040C023001D0002070470120704700BF86
:1049B00030040000134819F8001001291FD80139EC
:1049C00009EB000201EB410302EB8301898CB1B1D9
:1049D00009EB000202EB8302D26982B1484400EB8A
:1049E0008300008C4B1E834209DD0239814204DDC5
:1049F00002EB80004068023001D0002070470120A7
:104A0000704700BF300400000A4819F8001069B16F
:104A100001EB4101484400EB8100818AC08A814258
:104A200001D9012003E001D2FF2000E0002040B2C4
:104A3000704700BF30040000114819F80010012928
:104A40001BD8013909EB000201EB410102EB8102A5
:104A5000928C92B109EB000303EB8103DB6963B134
:104A6000484400EB8100008C904206D253F82000AD
:104A700010F1040F98BFFEF7E3BC0020704700BFA1
:104A80003004000070B5214A19F8021001293CD801
:104A90008646481E09EB020100EB400301EB83014F
:104AA000898C91B309EB020505EB8305ED6965B3CC
:104AB00001292AD009EB020404EB830C3CF8204FB7
:104AC0004E1EA64221DD0239A1420FDB05EB840117
:104AD00049688D1C08BF70BD033107D14A440021CD
:104AE00002EB8302ACF8001051840AE009EB0201EA
:104AF00001EB83014C84611CBEF1000FACF8001087
:104B000003D0BDE8704000F04DB870BD3004000027
:104B10000120FFF7B7BF000010B5214919F80100C7
:104B2000012813D8013809EB010300EB400203EB25
:104B300082039B8C53B109EB010404EB8204D4F88B
:104B40001CE0BEF1000F18BF012B00D110BD09EB16
:104B5000010404EB820C3CF8204F6CB10EEB840393
:104B600053F8043C0233F1D0494401EB82014C84F8
:104B7000611EACF800100EE00EEB830454F8044CF8
:104B8000033418BF10BD49449C1E013B01EB820158
:104B9000ACF800404B84BDE8104000F003B800BF03
:104BA00030040000F0B581B01E49044609EB010055
:104BB00004EB440100EB810555F81C0F2E4636F836
:104BC000041F50F8210010F1040F84BF01B0F0BDA4
:104BD000FEF736FC29683288076851F82200FEF794
:104BE0002FFC47B10068FEF72BFC0146204601B0C0
:104BF000BDE8F04008478068FEF722FC296832884B
:104C0000054651F822100846FEF71AFC4068FEF7E8
:104C100017FC02462046294601B0BDE8F04000F0EE
:104C200077B800BF300400002DE9F04581B0374D62
:104C300019F80500012858D8A0F1010A09EB050070
:104C40000AEB4A0600EB860434F8240F00284CD007
:104C500009EB050101EB860757F81C1F002944D01A
:104C600009EB050202EB860838F8202F82423CD27D
:104C700051F82200FEF7E4FB806888B13868B8F884
:104C8000001050F82100FEF7DBFB8068FEF7D8FB30
:104C900001465046002201B0BDE8F04500F038B8AA
:104CA000208810B3B8F80020023890421DDB396824
:104CB00001EB82035B68DF1C1AD0023315D1134667
:104CC00001EB82025268023205D101339AB290425E
:104CD000A8F80030F4DA09EB050000EB8600438405
:104CE000591C5046A8F800100BE001B0BDE8F08553
:104CF00009EB0500002100EB8602A8F800105046E1
:104D0000518401B0BDE8F045FFF74CBF300400000E
:104D100070B500B170BD214E0D4609EB06000430A0
:104D20002221144600F098FF002DF3D02846FEF70C
:104D300087FB09EB0602918CD06150F821200132EB
:104D400009D000BF01318AB250F822200132F9D1D6
:104D500009EB06008184E4B12046FEF771FB09EB04
:104D60000601CA69098C52F821104A1C11D0044668
:104D70000846FEF765FBA0420BD009EB0600028C4B
:104D8000C169531C9DB251F8251042844A1C03840A
:104D9000EED10020BDE87040FFF704BF30040000F2
:104DA00080B50A49884208D00949884208D0094993
:104DB000884208D1FFF7B0FE05E0FFF735FF02E0BB
:104DC0000120FFF75FFE002080BD00BF03000080D0
:104DD000020000800100008010B5A8B90B4809EB63
:104DE00000018A8C098C91420ED209EB0004E06923
:104DF000FEF726FB218C50F82100FEF721FB4068CE
:104E0000BDE81040FEF71CBB002010BD30040000C0
:104E1000024819F800000138FFF7DEBF3004000037
:104E200080B5FFF709FE38B1044819F800000138D1
:104E3000FFF7B8FE012080BD002080BD30040000D7
:104E400010B5044600F080FC0A480B4A484404EBC5
:104E5000C4017A4400EB81000521C0F8CC2080F821
:104E6000D010064A01217A4480F8C910C0F8DC202D
:104E700010BD00BF300400009A2C000037FFFFFF78
:104E800080B500F0C7FB58B1064909EB010292F862
:104E9000A920112A02BF494448F20A02A1F8C02001
:104EA00080BD00BF3004000010B50446FFF7C8FF06
:104EB0000748084A484404EBC40100EB81017A44E6
:104EC0002046C1F8D820BDE8104000F00DBC00BF5E
:104ED00030040000BFFFFFFF2DE9F0410D461449EB
:104EE0009046064609EB010200EBC00002EB80078A
:104EF0000720104987F8D000012087F8C900107BEF
:104F00007944C7F8CC1052F8041F00071C464FF034
:104F10000803284608BF0A2300F094F9C7F8D840D0
:104F20003046C7F8DC80BDE8F04100F0DDBB00BFD3
:104F3000300400008C2C000010B50446FFF768FF19
:104F40004168044A044B7A447B442046BDE8104043
:104F5000FFF7C2BF130000002500000080B5034921
:104F6000794400F031F9002080BD00BFD5FFFFFF7C
:104F700010B50446FFF74CFFD0E900122046BDE80B
:104F8000104000F06DB800002DE9F04581B0DFF869
:104F90009C800D4609EB08010E7B92460446FFF704
:104FA00033FD01280CD0013010D109EB080707F1BF
:104FB0000800142100F050FE4FF0FF30786005E04B
:104FC00009EB08000430182100F046FE09EB080741
:104FD00020463E733E1D00F0B7FBD7F80C010823B6
:104FE00028431348397B784418BF284609074FF0F7
:104FF000FF31324608BF0A2300F024F9B86048B1F7
:1050000009EB080149680138814284BF09EB0801B6
:10501000486005E009EB08000430182100F01CFE90
:105020002046514601B0BDE8F04508473004000075
:105030002E10000010B50849044609EB0100F021CC
:1050400001732046FFF7C8FE4168044A20467A44AF
:10505000BDE81040FFF798BF30040000E7FEFFFFF7
:105060002DE9F04182B0DFF84881064609EB0800DF
:1050700014460D46A8303146202200F0F2FD70782B
:10508000102820DC012836D002283DD0102840F01E
:105090008980002D45D009EB0806B0684649474C89
:1050A00001287C442846794488BF0C46FEF7C8F99D
:1050B0000346D6E9010580210130009006F1280061
:1050C0002246019537E0A0F1110103296AD200F0D0
:1050D0000F00461E022E65D809EB080000EB4600C3
:1050E000858A002D5ED07F2D28BF7F25BCB320464A
:1050F000FEF7A6F937E0FFF72FFC002852D009EBA6
:105100000800406858B14DE0FFF754FC002849D032
:1051100009EB0800D0E901010139884242D10020A1
:1051200043E009EB0800D0E90116254A4B1C283062
:105130007A4480210096FDF7ADFF09EB08001D4978
:10514000027B0231EF2A84BF48F20801CFF6FF71DB
:10515000A0F8C01000F12801C0F8C41022E009EB4B
:105160000800D0F80C0109EB080707EB4601C989D4
:10517000144A07F1280446187A44204680212B4619
:105180000096FDF787FF387B0A4900F00F000231D7
:10519000C7F8C4400F2804BF48F20801CFF6FF71DA
:1051A000A7F8C01009EB0800A83002B0BDE8F081F4
:1051B000300400000880FFFFB90C0000140D00004F
:1051C0001F0F0000170C00001A4A90420ED01A4A16
:1051D000904217D0194A904218BF7047184809EBFF
:1051E0000002526812B3A2F1010C17E0144809EB57
:1051F0000001896821B1484440680139814217D1D2
:10520000FFF712BD0E4809EB0002D2E90123013B72
:105210009A4208BFFFF77CBC02F1010C19F800307C
:1052200009EB0002581EC2F804C00847FFF774BC1F
:10523000704700BF03000080020000800100008072
:10524000300400002DE9F04D88B00E46074602F10B
:105250000A000C210793144600F0FEFC701C049019
:1052600004D06068B04201D8002097E027B13846EA
:10527000FEF7E6F8824603E04A484844D0F80CA11D
:10528000504600F04EFD0128C0F285800AEB000B6D
:1052900000220023002502945046CDF804A0039676
:1052A00000265746CDE905320AEB0608D8451DD23F
:1052B000741C0798E3B2002152460095FBF70AFAE6
:1052C000722813D898F80000A0F10901022907D329
:1052D000202805D02D2803D05F2818BFB84600BF6E
:1052E0000A2826464746DFD102E000BF3446B846CA
:1052F0000AEB040058450FD2039E74B1D0450CD080
:1053000010F8011C2C292FDCA1F10902022A04D378
:10531000202902D02CE000BF039E0498DDE905326D
:1053200078B1B2420DD102984068B04209D90198D3
:105330000299AAEB000001EB4301012B48810C828A
:1053400029D80133A244022B4FF0000088BF01206E
:10535000DA454FF0000138BF0121084018BF002393
:10536000DA4502449CD318E02D29D6D05F29D4D049
:1053700000782C2808DCA0F109010229CDD32028CF
:1053800018BFA8EB0A04C8E72D28C6D05F28C4D0F0
:10539000A8EB0A04C1E7012000E0501C08B0BDE8FA
:1053A000F08D00BF3004000070B50546FFF730FDFA
:1053B000134E044609EB0600A8302946202200F0CF
:1053C00050FC68780F2806DC01280AD0022812D188
:1053D000FFF7F0FA07E0102808D011280BD1606819
:1053E00005E0FFF7B9FA30B1002070BD206809EB85
:1053F0000601C1F8C40009EB0600A83070BD00BF6B
:105400003004000010B5044600F09EF90E4804EB8D
:10541000C40148440D4A00EB810105207A4481F81B
:10542000D0000120C1F8CC2081F8C9000848094A01
:1054300078447A44C1F8D8002046C1F8DC20BDE8A1
:10544000104000F051B900BF3004000050280000A7
:1054500075FFFFFF6BF9FFFF70B50546FFF7D8FC3E
:10546000194E044609EB0600A8302946202200F018
:10547000F8FB68780F280BDC012818D0022819D017
:105480000F281CD1206809EB0601C1F8C40016E002
:105490001038022813D209EB060090F8A91001F089
:1054A0000F0104EB81014968C0F8C41007E0FFF761
:1054B00053FA01E0FFF77EFA08B1002070BD09EB56
:1054C0000600A83070BD00BF3004000010B50446CF
:1054D00000F03AF90A480B4A484404EBC4017A4404
:1054E00000EB81000621C0F8CC2080F8D010064ADD
:1054F00001217A4480F8C910C0F8DC2010BD00BF3B
:10550000300400002E280000ABF8FFFF70B5054600
:10551000FFF77EFC134E044609EB0600A83029462F
:10552000202200F09EFB68780F2806DC01280AD0B4
:10553000022812D1FFF73EFA07E0102808D0112800
:105540000BD1606805E0FFF707FA30B1002070BDAD
:10555000206809EB0601C1F8C40009EB0600A83079
:1055600070BD00BF3004000010B5044600F0ECF838
:105570000E4804EBC40148440D4A00EB81010520AC
:105580007A4481F8D0000120C1F8CC2081F8C9000C
:105590000848094A78447A44C1F8D8002046C1F83E
:1055A000DC20BDE8104000F09FB800BF30040000D0
:1055B0004C28000075FFFFFF07F8FFFF80B5FFF7DD
:1055C0004BFF58B1064909EB010292F8A920102AB5
:1055D00022BF494448F20A02A1F8C02080BD00BFA2
:1055E0003004000010B50446FFF770FF0748084A72
:1055F000484404EBC40100EB81017A442046C1F821
:10560000D820BDE8104000F06FB800BF30040000A3
:10561000BFFFFFFF70B50546FFF7FAFB144E0446C7
:1056200009EB0600A8302946202200F01AFB687812
:10563000022804D0012807D1FFF78EF901E0FFF717
:10564000B9F980B1002070BD09EB060090F8A900FF
:1056500010F0F00F07D000F00F0054F8200009EB15
:105660000601C1F8C40009EB0600A83070BD00BFF8
:1056700030040000B0B50A4C19F8040068B909EB11
:10568000040505F1C800242100F0E6FA0020C5E970
:1056900007006862012009F804000138B0BD00BFAE
:1056A0003004000080B5FFF7BBFB00B180BD0D48A2
:1056B00019F80010012909D109EB0001002200208E
:1056C000A1F8CA20BDE8804000F00EB80029EDD155
:1056D00009EB00014978AA2902BF484469214170B9
:1056E00080BD00BF30040000B0B5164D044619F867
:1056F000051099B1601C884210D1FCF7F5FE09EB4A
:10570000050004EBC40100EB8101002201F1C80097
:10571000A1F8CA20BDE8B04000F026B8002918BFA3
:105720000121B4F1FF3018BF0120084218BFB0BDFD
:1057300009EB05004078AA2802BF09EB05006921A2
:105740004170B0BD3004000010B50446FCF7CCFE3B
:1057500004B110BD034824214844C83000F07CFA4D
:1057600010BD00BF300400002DE9F04581B00446B3
:10577000FEF776F8AA2803D1FEF78EF8AA284FD1B3
:105780006078A0B3608894F80880404531D2DFF893
:1057900098A0471C460100BF0130608019F80A003C
:1057A000616801EB060568B100EBC00009EB0A0176
:1057B00001EB8000D0F8B41021B128468847A0B191
:1057C000012800D1284628B1012808BF2846FCF747
:1057D0003EF803E009EB0A00407808BB207A8742D4
:1057E00007D2608801372036D6E70020EBE74FF07C
:1057F00000086088404513D1FEF7D6F86088E1685C
:105800000130608019B100200025884720B106488A
:1058100021784844417003E003486580484445705E
:1058200001B0BDE8F08500BF3004000080B510B1C4
:10583000FDF776FE03E046F68510FCF717FCBDE8A1
:105840008040FCF7CDBC000010B558B10E4C0220D2
:1058500009F80400FBF7A0FBB0F1FF3F09DDFDF7FD
:105860007FFE0DE00848002109F8001046F685107B
:1058700004E0002009F804004BF20800FCF7F6FBF6
:10588000BDE81040FCF7ACBC6001000010B558B199
:105890000E4C022009F80400FBF77EFBB0F1FF3F3D
:1058A00009DDFDF75DFE0DE00848002109F8001054
:1058B00046F6851004E0002009F804004BF20800C9
:1058C000FCF7D4FBBDE81040FCF78ABC6001000087
:1058D00010B5E1B114460278FF2A0DD0FE2A14D08B
:1058E000FD2A17D1032912D30121FDF7EDFD002177
:1058F000C4E90001032010BD092908D30121FDF7E7
:10590000F6FDC4E90001092010BD052907D24FF0BA
:10591000FF3010BD0020C4E90020012010BD01218E
:10592000FDF7D9FD0021C4E90001052010BD130ACF
:1059300000EB010C43548CF801207047704700BF06
:1059400053B94AB9002908BF00281CBF4FF0FF31E6
:105950004FF0FF30FFF7F2BFADF1080C6DE904CE58
:1059600000F006F8DDF804E0DDE9022304B070473A
:105970002DE9F04F099E0D4604460F46002B47D1F6
:105980008A4294465FD9B2FA82F343B1C3F120014F
:105990009F4002FA03FC9C4020FA01F10F434FEABA
:1059A0001C451FFA8CFE220CB7FBF5F105FB1177A5
:1059B00001FB0EF042EA0742904208D91CEB0202BA
:1059C00001F1FF3702D2904200F234813946121AB7
:1059D000A4B2B2FBF5F005FB102200FB0EFE44EA78
:1059E0000244A64508D91CEB040400F1FF3202D2A0
:1059F000A64500F21981104640EA0140A4EB0E04CE
:105A000000211EB1DC400023C6E90043BDE8F08F51
:105A10008B4208D9002E00F0FB800021C6E900056A
:105A20000846BDE8F08FB3FA83F100294BD1AB42B1
:105A3000C0F0F180824240F2EE800846002EE5D0B0
:105A4000C6E90047E2E702B9FFDEB2FA82F3002BB3
:105A500040F09D808D1A4FEA124E97B20121B5FB9E
:105A6000FEF20EFB1250250C45EA004507FB02F042
:105A7000A8420FD91CEB050502F1FF382CBF4FF0EF
:105A800001094FF00009A84203D9B9F1000F00F055
:105A9000CE8042462D1AA4B2B5FBFEF00EFB105587
:105AA00000FB07F744EA0544A74208D91CEB0404AD
:105AB00000F1FF3502D2A74200F2B3802846E41B72
:105AC00040EA02409DE7C1F120078B4005FA01F44E
:105AD00022FA07FCFD408A404CEA030C20FA07F347
